:0D3D6C002535642E20005B4449525D0A009D
:073D91007B007A0079092292
:102934008F458E448D438C4275590185465A85478F
:102944005BE4F552F553F550F551780AE6B4020FFD
:10295400781B12136F8F4F8E4E8D4D8C4C800D78DB
:1029640009E6FFE48F4FF54EF54DF54C85454B8553
:10297400444A854349854248AF4BAE4AAD49AC48C9
:10298400780DE6F56E08E6F56F855970855A718500
:102994005B72123AA88F58E5586003022B10AB59AA
:1029A400AA5AA95BAF51AE50123D798F54E55464D5
:1029B400E57003022A82E5547003022A82E5512459
:1029C4000BFFE43550FEAB59AA5AA95B123D798F2F
:1029D40056E556540E6003022A820553E5537002ED
:1029E40005527BFF7A3D796C85526DF56E121CEAB7
:1029F400E4F5557E00E5512555FFEE3550FEAB5903
:102A0400AA5AA95B123D798F57123CAE0555E5557C
:102A1400C3940840DEE55630E4307555087E00E581
:102A2400512555FFEE3550FEAB59AA5AA95B123D0C
:102A3400798F57123CAE0555E555C3940B40DE7BA8
:102A4400FF7A3D7972121CEA80347F2E123CAE75F7
:102A540055087E00E5512555FFEE3550FEAB59AAC9
:102A64005AA95B123D798F57123CAE0555E555C303
:102A7400940B40DE7F0D123CAE7F0A123CAE7420F4
:102A84002551F551E43550F550D3E55194FEE55008
:102A94009401406FE54B2401F54BE4354AF54AE4D3
:102AA4003549F549E43548F548C3E54B9545FFE517
:0B2AB4004A9544FEE5499543FDE548C6
:102ABF009542FCAB4FAA4EA94DA84CD31212E4403D
:102ACF0031AF4BAE4AAD49AC48780DE6F56E08E62E
:102ADF00F56F855970855A71855B72123AA88F58B8
:102AEF00E5586007E4F552F553F554E4F550F55108
:102AFF008006435280E4F554E55460030229A28016
:0B2B0F0005E4F552F553AE52AF53221F
:1022BD008F458E448D438C42755D0185485E854901
:1022CD005FE4F558F559F556F557F555F554F553B1
:1022DD00F552780AE6B4020F781B12136F8F518EE8
:1022ED00508D4F8C4E800D7809E6FFE48F51F550DF
:1022FD00F54FF54E85454D85444C85434B85424AFA
:10230D00AF4DAE4CAD4BAC4A780DE6F56E08E6F52B
:10231D006F855D70855E71855F72123AA88F5CE581
:10232D005C600302250BAB5DAA5EA95FAF57AE568D
:10233D00123D798F5AE55A64E5700302247BE55A04
:10234D00700302247BE557240BFFE43556FEAB5D8D
:10235D00AA5EA95F123D798F5BE55B540E600302A7
:10236D00247B0559E5597002055865477004E558F9
:10237D006546600302247B780AE664047066E557BF
:10238D002415FFE43556FEAB5DAA5EA95F123D79BB
:10239D00E48F55F554F553F552AE54AD53AC527818
:1023AD00081213088F558E548D538C52E5572414F3
:1023BD00FFE43556FEAB5DAA5EA95F123D79E4E5FB
:1023CD00554FF555E554F554E553F553E552F55292
:1023DD00AF55AE54AD53FC78081213088F558E547B
:1023ED008D538C52E557241BFFE43556FEAB5DAA89
:1023FD005EA95F123D79E4E5554FF555E554F55469
:10240D00E553F553E552F552AF55AE54AD53FC7847
:0A241D00081213088F558E548D53DA
:102427008C52E557241AFFE43556FEAB5DAA5EA928
:102437005F123D79E4E5554FF555E554F554E553FD
:10244700F553E552F552E557240BFFE43556FEAB3D
:102457005DAA5EA95F123D798F5BE55B30E412E50B
:1024670055F555E554F554E553F553E5524410F544
:1024770052E4F55A74202557F557E43556F556D3E7
:10248700E55794FEE55694014071E54D2401F54D5D
:10249700E4354CF54CE4354BF54BE4354AF54AC386
:1024A700E54D9545FFE54C9544FEE54B9543FDE528
:1024B7004A9542FCAB51AA50A94FA84ED31212E439
:1024C7004036AF4DAE4CAD4BAC4A780DE6F56E08D5
:1024D700E6F56F855D70855E71855F72123AA88F2C
:1024E7005CE55C600CE4F555F554F553755280F5E1
:1024F7005AE4F556F5578003E4F55AE55A600302A6
:102507002333800AE4F555F554F553755280E4FFFB
:10251700FEFDFCAB55AA54A953A852C31212E4708E
:1025270009F555F554F553755280AF55AE54AD5373
:03253700AC522281
:1035670046696E64696E672042494F5320706172E5
:10357700616D6574657220626C6F636B0A006572BA
:10358700726F723A20636F756C64206E6F74206C73
:103597006F63617465204250420A006572726F72F0
:1035A7003A20464154313220756E737570706F72D0
:1035B7007465640A00464154313620646574656356
:1035C7007465640A00464154333220646574656348
:1035D7007465640A004572726F723A20464154203E
:1035E7007479706520756E737570706F7274656429
:1035F7000A004572726F723A20636F756C646E27AA
:10360700742066696E64206E65787420636C7573C8
:053617007465720A0059
:1014A000AA06A9077564018A658966123D918B6752
:1014B0008A6889697BFF7A357967121CEA756E0242
:1014C000756F008564708565718566727F007E002A
:1014D0007D007C00123AA8AB64AA65A966E4FFFE11
:1014E000123D798F42E4F55FF55EF55DF55CE5420E
:1014F00064EB603BE54264E96035AB64AA65A966CC
:101500007FC67E01123A448F5F8E5E8D5D8C5C7566
:101510006E02756F00856470856571856672123A1A
:10152000A8AB64AA65A966E4FFFE123D798F42E587
:101530004264EB6012E54264E9600C7BFF7A357926
:1015400085121CEA7F0122AB64AA65A9667F0B7E27
:1015500000123C1EAB67AA68A969900004EE8FF0E8
:1015600012119A900002E412106990000412110BFB
:10157000FDACF0ED64014C6017AB67AA68A96990F7
:1015800000027401121024ECC313FCED13FD80E380
:10159000AB64AA65A9667F0D7E00123D79AB67AA90
:1015A00068A969EF121057AB64AA65A9667F0E7E21
:1015B00000123C1E8E468F47AB64AA65A9667F1059
:1015C0007E00123D798F43AB64AA65A9667F117EC8
:1015D00000123C1E8E448F45AB64AA65A9667F1637
:1015E0007E00123C1E8E488F49AB64AA65A9667FB7
:1015F000137E00123C1E8E4A8F4BAB64AA65A9660F
:101600007F2C7E00123A448F638E628D618C60E580
:101610004945486018AB64AA65A9667F167E00122A
:101620003C1EE48F538E52F551F5508015AB64AAE1
:1016300065A9667F247E00123A448F538E528D51E5
:101640008C50E54B454A600DE4854B57854A56F56D
:0716500055F5548015AB6451
:10165700AA65A9667F207E00123A448F578E568D61
:10166700558C54AB67AA68A96990000412110BFD49
:10167700ACF024FFFBEC34FFFAE545AE447805C334
:1016870033CE33CED8F92BFFEA3EFE12108BE4FCA3
:10169700FDAB67AA68A96990001212134BAF43E428
:1016A700FCFDFEAB53AA52A951A8501211C7A804BA
:1016B700A905AA06AB07E4FCFDEB2547FFEA35467B
:1016C700FEED39FDEC38FCAB67AA68A969900012FA
:1016D700121388EF2BFBEE3AFAED39F9EC38F8C321
:1016E700E5579BF55BE5569AF55AE55599F559E5A2
:1016F7005498F558E4E547255FFFE546355EFEE477
:10170700355DFDE4355CFCAB67AA68A96990000EFE
:1017170012134B90000E121388C000C001C002C004
:1017270003AF43E4FCFDFEAB53AA52A951A85012E4
:1017370011C7D003D002D001D000EF2BFFEE3AFE45
:10174700ED39FDEC38FCAB67AA68A9699000121265
:101757001388EF2BFFEE3AFEED39FDEC38FCAB6753
:10176700AA68A96990000A12134B120FDEFFE4FC66
:10177700FDFEF8F9FAAB07AF5BAE5AAD59AC58129C
:1017870012528F4F8E4E8D4D8C4CE47FF57E0FFDA0
:10179700FCAB4FAA4EA94DA84CC31212E4500C7BC8
:1017A700FF7A3579A2121CEA7F0122E47FF57EFFDA
:1017B700FDFCAB4FAA4EA94DA84CC31212E4505ED4
:1017C700AB67AA68A96990000174021210697BFFD0
:1017D7007A3579BC121CEAAB67AA68A96990000E32
:1017E700121388C000C001C002C003AF43E4FCFD70
:1017F700FEAB53AA52A951A8501211C7D003D00269
:10180700D001D000EF2BFFEE3AFEED39FDEC38FCAE
:10181700AB67AA68A96990000612134B806EAB6785
:10182700AA68A96990000174041210697BFF7A35D0
:1018370079CC121CEAE56324FEFFE56234FFFEE57E
:101847006134FFFDE56034FFFCA804C005C006C095
:1018570007AB67AA68A969120FDEFFE4FCFDFED09B
:1018670003D002D0011211C7AB67AA68A96990001B
:101877000A121388EF2BFFEE3AFEED39FDEC38FC28
:0F188700AB67AA68A96990000612134B7F002275
:103878008F4C8E4B8D4A8C49123D918B4D8A4E89C7
:103888004FE4FFFEFDFCAB4CAA4BA94AA849C31262
:1038980012E4700CAB4DAA4EA94F90000602131B00
:1038A800E54C24FEFFE54B34FFFEE54A34FFFDE519
:1038B8004934FFFCA804C005C006C007AB4DAA4E9A
:1038C800A94F120FDEFFE4FCFDFED003D002D001A9
:1038D8001211C7AB4DAA4EA94F90000A121388EFD8
:0C38E8002BFFEE3AFEED39FDEC38FC221F
:102CD1008F268E258D248C23123D918B2A8A2B8958
:102CE1002C852829900001120FF7FFE4FCFDFEABB3
:102CF10026AA25A924A8231211C7C004C005C0060D
:102D0100C007AB2AAA2BA92C90000412110BFFAE0D
:102D1100F0E4FCFDF8F9AA06AB07D007D006D00510
:102D2100D004121252AB2AAA2BA92C90000E121316
:102D310088EF2BFFEE3AFEED39FDEC38FC7881127D
:102D410013B8788112136FAB2AAA2BA92C90000417
:102D510012110BF56F85F06E757000757100852984
:102D610072123AA8AB2AAA2BA92C900001120FF7D4
:102D7100FFE4FCFDFEAB26AA25A924A8231211C756
:102D8100C004C005C006C007AB2AAA2BA92C90001D
:102D91000412110BFFAEF0E4FCFDF8F9AA06AB0733
:102DA100D007D006D005D004121252AE02AF03787C
:102DB1007FA60608A607AB2AAA2BA92C9000011210
:102DC1000FF7B40418787FE6FE08E6FFA9297A0018
:102DD1007B00123A44EFEEEDEC540FFC22AB2AAA31
:102DE1002BA92C900001120FF764027037787FE64F
:102DF100FE08E6FFA9297A007B00123C1EE4FCFDD7
:102E010078851213B8E47FFF7EFFFDFC78851213ED
:102E11007BC31212E4700874FFFFFEFD7C0F227861
:102E21008502136F7BFF7A3579DC121CEAE4FFFE21
:102E3100FDFC227BFF7A3579F9121CEAE4FFFEFDE5
:022E4100FC2271
:103C84008D48EF70077F40123DA280057F40123DB2
:103C9400C27F80123DC2AF48123DCE7F80123DA24A
:0A3CA4007FFF123DCE7F40023DC2BB
:103BB1007D38E4FF123C847F017E00123CD57D48B4
:103BC100E4FF123C847F017E00123CD57D01E4FFBD
:103BD100123C847F027E00123CD57D0CE4FF123C36
:083BE100847F017E00023CD547
:1037F3008D428B438A448945EFF46010EF4480FD8A
:10380300E4FF123C847F017E00123CD5E542703810
:10381300F546AB43AA44A945854682F583120FF7C3
:10382300F547E547604EFD7F01123C847F017E0032
:10383300123CD50546AB43AA44A945854682758308
:1038430000120FF7F54780DAE4F546E546C39542E3
:103853005022AB43AA44A945854682758300120FC3
:10386300F7F547FD7F01123C847F017E00123CD5B2
:05387300054680D7228C
:053D9800EFF452A0222F
:043DB600EF42A02216
:103B3B00AE077F80123DB67F40123DB67F20123D0F
:103B4B00B67F10123DB6EE30E0057F80123D98EE49
:103B5B0030E1057F40123D98EE30E2057F20123DAB
:0B3B6B0098EE30E3057F10123D982219
:033DCE008F8022C1
:053D9D00EFF45290223A
:053DA200EFF452B02215
:043DBA00EF42902222
:043DBE00EF42A0220E
:043DC200EF42B022FA
:10253A005344204361726420496E697469616C690D
:10254A007A6174696F6E202E2E2E200A0D00434D7B
:10255A0044302073656E74202E2E2E20005265732F
:10256A00706F6E7365203D2025322E3262580A0D37
:10257A0000434D44382073656E74202E2E2E2000A1
:10258A00526573706F6E7365203D200025322E32BE
:10259A006258200A0D0056657273696F6E203120E9
:1025AA00534420436172642064657465637465648E
:1025BA002E0A0D005374616E646172642043617067
:1025CA006163697479204361726420646574656328
:1025DA007465642E0A0D0025322E32625820005688
:1025EA00657273696F6E20322053442043617264AE
:1025FA002064657465637465642E0A0D00434D4456
:10260A0035382073656E74202E2E2E200041434DDE
:10261A004434312073656E74202E2E2E20005469A6
:10262A006D656F7574203D20256C75200A0D004874
:10263A0069676820436170616369747920436172D4
:10264A00642044657465637465640A0D005374619B
:10265A006E646172642043617061636974792043B6
:10266A006172642044657465637465640A0D00438D
:10267A004D4431362073656E74202E2E2E20005262
:10268A006573706F6E7365203D2025322E32625855
:10269A00200A0D00426C6F636B2073697A652073A0
:1026AA00657420746F203531322062797465730A3B
:1026BA000D0053442054696D656F7574204572721C
:1026CA006F7200496C6C6567616C20436F6D6D6158
:1026DA006E640A0D00526573706F6E7365204572E1
:1026EA00726F72004461746120546F6B656E20458D
:1026FA0072726F7200496E636F6D70617469626C99
:10270A006520566F6C746167650043617264206965
:10271A007320496E61637469766500535049206F6E
:10272A00722054696D656F7574204572726F7200FC
:0E273A00556E6B6E6F776E204572726F720077
:0B30BE00E4F579F578F577F5767F3AB8
:1030C9008F75E4F57BE575C3944040030231C3E590
:1030D900754440F57A7B007A00797CFF123C518F68
:1030E9007DE57D701CAF79AE78AD77AC7678181236
:1030F90012F58F7A7B007A00797C123C518F7D80A2
:1031090003757B87E57B702FE57D702BE579F57974
:10311900E578F578E577F577E4F576AF79AE78ADCA
:1031290077AC7678101212F58F7A7B007A00797C69
:10313900123C518F7D8003757B87E57B702DE57D82
:103149007029E579F579E578F578E4F577F576AFDD
:1031590079AE78AD77AC7678081212F58F7A7B0064
:103169007A00797C123C518F7D8003757B87E57BE2
:103179007018E57D7014E579FFE48F7AFB7A0079A0
:103189007CAF7A123C518F7D8003757B87E57B701C
:103199002CE57D7028E5757005757A95800DE575C6
:1031A900B40805757A878003757A017B007A0079FE
:1031B9007CAF7A123C518F7D8003757B82AF7B2275
:0736CE00FB7A0079457F0142
:1036D5008F568B578A588959E4F55B7B007A0079B8
:1036E5005D7FFF123C518F5C055AE55D30E708E5CB
:1036F5005A6004E55C60E4E55C6005755B878052B3
:10370500E55A7005755B818049AB57AA58A959E5FB
:103715005D121057E55D600464017033E556D3947E
:1037250001402F755A01E55AC3955650257B007AFD
:1037350000795D7FFF123C518F5CAB57AA58A959A0
:10374500855A82758300E55D121069055A80D77523
:103755005B837B007A00795D7FFF123C518F5CAF04
:023765005B22E5
:1031C9008E758F768B778A788979E4F57DF57EF52A
:1031D9007B7B007A00797C7FFF123C518F7A057ED8
:1031E900E57E7002057DE57C30E70AE57E457D6078
:1031F90004E57A60DCE57A6006757B870232B8E51A
:103209007E457D7006757B810232B8E57C600302DC
:1032190032B5F57DF57E7B007A00797C7FFF123C23
:10322900518F7A057EE57E7002057DE57CB4FF0A43
:10323900E57E457D6004E57A60DCE57A6005757BAD
:1032490087806CE57E457D7005757B818061E57CB5
:1032590064FE7053F57DF57EC3E57E9576E57D9533
:103269007550287B007A00797C7FFF123C518F7A58
:10327900AB77AA78A979857E82857D83E57C121052
:1032890069057EE57E70D1057D80CD7B007A007968
:103299007C7FFF123C518F7A7B007A00797C7FFF1B
:1032A900123C518F7A8008757B848003757B837B00
:0F32B900007A00797C7FFF123C518F7AAF7B2225
:10189600E4F543781F76FF7F10123DC67BFF7A255D
:1018A600793A121CEAE4F5427B007A00794D7FFF13
:1018B600123C518F440542E542C3940A40EA7F80B8
:1018C600123D987BFF7A257958121CEA7F10123D4B
:1018D600ACE4F579F578F577F576FF1230C98F44E3
:1018E600E54470131236CE8F447BFF7A25796785DF
:1018F600456D121CEA80057F10123D987F10123D3F
:10190600C67F80123DB6E5446002F543E5436003B9
:101916000219F57F80123D987BFF7A25797B121C90
:10192600EA7F10123DACE47579AA757801F577F572
:10193600767F081230C98F44E54460030219E6FB3E
:101946007A0079457F051236D58F447F10123DC641
:101956007F80123DB6E544603F7BFF7A25798A1287
:101966001CEA7BFF7A25799685456D121CEAE544CB
:10197600B48320E545B4051BE4F543781F76097B5F
:10198600FF7A2579A0121CEA7BFF7A2579BE121C04
:10199600EA805C85444380577BFF7A25798A121C4E
:1019A600EAE4F5427BFF7A2579E174452542F8E6BB
:1019B600F56D121CEA0542E542C3940540E67F0D2B
:1019C600123CAE7F0A123CAEE54964AA6003754438
:1019D60083781F76027BFF7A2579E9121CEA800F4D
:1019E6007F10123DC67F80123DB67F10123D98E5EE
:1019F600436003021A807F80123D987BFF7A267926
:101A060007121CEA7F10123DAC1230BE8F44E5442B
:101A16007053FB7A0079457F051236D58F447F10C7
:101A2600123DC67F80123DB67BFF7A25798A121C4D
:101A3600EAE4F5427BFF7A2579E174452542F8E62A
:101A4600F56D121CEA0542E542C3940540E67F0D9A
:101A5600123CAE7F0A123CAEE54754FC64FC6014AF
:101A6600754485800F7F10123DC67F80123DB67F7C
:101A760010123D98E5446002F543E5436003021BFE
:0A1A860070781FE6B4020CE4F5517D
:101A9000F550F54F754E408009E4F551F550F54F7E
:101AA000F54EE4F555F554F553F5527F20123D9867
:101AB0007BFF7A267917121CEA7F10123DACE4F501
:101AC00079F578F577F5767F371230C98F44E5449C
:101AD00070051236CE8F44E54564016004E545701B
:101AE00013855179855078854F77854E767F2912F9
:101AF00030C98F44E54470031236CE7F10123DC6C4
:101B0000E5552401F555E43554F554E43553F553C2
:101B1000E43552F552E4FFFEFDFCAB55AA54A9533F
:101B2000A852C31212E47003754481E54530E00405
:101B3000E5446085E54470137F20123DB67BFF7A53
:101B400025796785456D121CEA800A7F80123DB6B3
:101B50007F10123D987BFF7A267928855570855431
:101B60006F85536E85526D121CEAE5446002F543A1
:101B7000E5436003021C7D781FE664026003021CDB
:101B80007D7F80123D987BFF7A267907121CEA7FC1
:101B900010123DAC1230BE8F44E5446003021C635A
:101BA000FB7A0079457F051236D58F447F10123DB0
:101BB000C67F80123DB67BFF7A25798A121CEAE443
:101BC000F5427BFF7A2579E174452542F8E6F56D0B
:101BD000121CEA0542E542C3940540E67F0D123C23
:101BE000AE7F0A123CAEE54620E706754486021C2D
:101BF00072E54654C0FFBFC00FE4781FF67BFF7A42
:101C0000267939121CEA806A781F76097BFF7A26CA
:101C10007957121CEA7F80123D987BFF7A267979EA
:101C2000121CEA7F10123DACE4F579757802F57765
:101C3000F5767F101230C98F44E54470351236CEE8
:101C40008F447F10123DC67F80123DB67BFF7A26FF
:051C5000798985456D56
:101C5500121CEA7BFF7A26799E121CEA800F7F1000
:101C6500123DC67F80123DB67F10123D98E5446057
:101C750007F543AF431239D6E5436004FF1239D661
:031C8500AF432248
:053DA700781FE6FF2279
:1039D6008F56E556B481097BFF7A2679BC021CEA2C
:1039E600E556B482097BFF7A2679CD021CEAE556B4
:1039F600B483097BFF7A2679DF021CEAE556B48494
:103A0600097BFF7A2679EE021CEAE556B485097B26
:103A1600FF7A2679FF021CEAE556B486097BFF7A0F
:103A2600277914021CEAE556B487097BFF7A2779C1
:0E3A360025021CEA7BFF7A27793A121CEA224D
:103AA8008F6D8E6C8D6B8C6A123DA78F737F101291
:103AB8003DACAF6DAE6CAD6BAC6AA973A8011213C7
:103AC800088F798E788D778C767F111230C98F7434
:103AD800E574700DAB70AA71A972AF6FAE6E12313A
:103AE800C97F10123DC6E57460037F01227F002262
:0C3D79005306018F828E83120FF7FF2289
:103C1E008E6A8F6B8B6C8A6D896E536A01E4FDFC24
:103C2E00E56B2401FFE4356A8F82F583120FF7FDF1
:103C3E007D00FC856B82856A83120FF7FFE4EFFD32
:033C4E00AE04229F
:103A44008E6A8F6B536A01E4F56FF56EF56DF56C54
:103A5400F571AF71C374039571CFE49400CF256BF6
:103A6400CF356A8F82F583120FF7F570AF6FAE6EA4
:103A7400AD6DAC6C78081213088F6F8E6E8D6D8CE3
:103A84006CE4E56F4570F56FE56EF56EE56DF56D0B
:103A9400E56CF56C0571E571B404B7AF6FAE6EAD4E
:043AA4006DAC6C2277
:10376700E4F542AB07AA06A905A804FF7E407D1928
:103777007C01121252EFD39402500575C370806911
:10378700EFD39402400BEFD39404500575C37180B7
:1037970058EFD39404400BEFD39408500575C372C8
:1037A7008047EFD39408400BEFD39410500575C3AF
:1037B700738036EFD39410400BEFD39420500575E8
:1037C700C3F08025EFD39420400BEFD394405005EE
:1037D70075C3F18014EFD39440400BEFD39480501E
:0C37E7000575C3F2800375420FAF42224B
:103C5100E4FE8FC5AFC40EEF54F07003EE70F5EEC5
:103C61006017EF54707009E5C5121057E4FE80101B
:103C710074FF121057E4FE800774FF1210577E8004
:033C8100AF062269
:043DC600EF42902216
:053DAC00EFF45290222B
:103CD5005389F0438901C2A9758CF4758A3DC28D5B
:103CE500D28C308DFDC28CEF1F70011ED3EF940076
:063CF500EE940050E322F2
:103BE90053873F438780C2AC759852E4F59BFCFD2F
:103BF9007BC0FAF9F81211C7A804A905AA06AB07F0
:103C0900E4FFFE7D2F7C0D121252EFF404F59A7534
:053C19009B1ED2992260
:103CFB00E4FDFC0DBD00010C209904ED4C70F4EDBE
:103D0B004C60088F99AE07C29980027EF1AF0622F4
:080003003098FDAF99C298226C
:063966007B017A007900EC
:10396C008B468A478948E4FFFEFDFC78A012137B46
:10397C00C31212E4700D78AE12136F12387878A45B
:10398C001213B8123D9190000412110BF56F85F0D3
:10399C006E78A012136F78A412137BEB2FFFEA3E04
:1039AC00FEE93DFDE83CFC85467085477185487213
:1039BC00123AA878A012136FEF2401FFE43EFEE444
:0A39CC003DFDE43CFC78A00213B8B6
:103AF8008F458E448D438C42750803E478A8F608F8
:103B0800760108F608F608F608F6AF45AE44AD4368
:103B1800AC4212387878A41213B878A01213C400F3
:103B2800000000AF45AE44AD43AC4278AE1213B8C6
:033B3800023966E9
:1038F4008B238A2489257F08123DBAAB26AA27A9DF
:10390400281210E0FFAEF0C3EE9402502920922654
:10391400AB23AA24A9258F828E83120FF7FF7B0085
:103924007A00792C123C51AB26AA27A928E475F019
:103934000112114380C57F08123D9DAB26AA27A919
:10394400281210E0B40018E5F0B40213E4F5F01204
:10395400117BAB29AA2AA92B7401121057FF227FCD
:0239640000223F
:10274800E508B409004003022929902759F82828E8
:10275800730227740227B30227C40227F102284C08
:1027680002288B02289C0228CE0229247F01123BD2
:102778003B78AE12136F752700752800122CD1789C
:10278800AE1213B874FFFFFEFD7C0F78AE12137BF8
:10279800C31212E4600F78A01213C4000000007581
:1027A80008050229297508080229297F02123B3BDE
:1027B8003092030229297508030229297F03123B55
:1027C8003B123D91120FDEFFE4FCFDFE78A01213D0
:1027D8007BC31212E47005F508022929123966E450
:1027E80078A8F67508050229297F04123B3B209238
:1027F8001E78A8E67019F5267527007528AAF52908
:10280800752A00752BA87B017A0079001238F430FC
:10281800920778A9E66401600C78A8E6FFB4010B7A
:1028280008E6B40106750806022929EFB401092053
:10283800920675080702292920920302292975089A
:10284800010229297F05123B3B78AE12136F7527C9
:1028580002752800122CD178AE1213B874FFFFFE4F
:10286800FD7C0F78AE12137BC31212E4600F78A0C0
:102878001213C40000000075080102292975080810
:102888000229297F06123B3B309203022929750849
:10289800070229297F07123B3B123D91120FDEFFE9
:1028A800E4FCFDFE78A012137BC31212E4700575D8
:1028B8000804806D7B017A02790012396CE478A9EA
:1028C800F6750801805B7F08123B3B20921E78A9B1
:1028D800E67019F5267527007528ACF529752A00C4
:1028E800752BA97B017A0279001238F430920778A7
:1028F800A8E66401600B78A8E6B4010A08E6B4010A
:1029080005750802801B78A9E6B4010820920575B0
:102918000803800D30920A75080580057F09123B6F
:0C2928003BE508B408037F01227F002279
:1032C8008F5AD290D291E4F565E55F75F008A4F5C0
:1032D8005F05602091030233B22090030233B212DB
:1032E8003D37E55A25E0F5645364FEC290756608DB
:1032F8007F01123D21C2911566AF66E564A80708F3
:103308008002C313D8FC5401F567123D1BD29130DB
:1033180091FDA290E433F56865676003756581E502
:1033280066D394004004E56560C6E565704F7F018B
:10333800123D21C291D290E55F601524F8F55FAF88
:103348005EAE5DAD5CAC5BF9F81212F58F64801867
:103358001560AB61AA62A963120FDEF564740125DA
:1033680063F563E43562F5627F01123D21D2913045
:1033780091FDA290E433F5686003756582E56060AD
:1033880007E56570030232F5E5656481601F7F011A
:10339800123D21C291C2907F01123D21D2913091FC
:1033A800FD7F02123D21D2908003756581AF6522B1
:102E43008F4AE4F555E54F601F854E5E854D5D85E0
:102E53004C5C854B5BF55FE4F5608551618552629F
:102E63008553631232C88F55E5556003022F84D210
:102E730090D291209103022F81209003022F81127F
:102E83003D37E54A25E0F554435401C29075560891
:102E93007F01123D21C2911556AF56E554A807088C
:102EA3008002C313D8FC5401F557123D1BD2913055
:102EB30091FDA290E433F55865576003755581E59C
:102EC30056D394004004E55560C6E555701E7F0156
:102ED300123D21C291D2907F01123D21D2913091B6
:102EE300FDA290E433F5586003755582E550D39401
:102EF300004069E55570657556087F01123D21C292
:102F0300911556D290E55925E0F5597F01123D21DF
:102F1300D2913091FDA290E433F5584259E556D34E
:102F2300940050D6AB51AA52A953E55912105774C5
:102F3300012553F553E43552F552E550B4010575B7
:102F430057018003E4F5577F01123D21C291E557F4
:102F5300123D1BD2913091FD15508090E55564814F
:102F6300601F7F01123D21C291C2907F01123D215A
:102F7300D2913091FD7F02123D21D290800375558D
:042F830081AF5522A3
:103D37005389F0438901C2A9758CFF758AC3C28D67
:033D4700D28C22F9
:063D1B0024FF92907F01DD
:103D2100308C03308DFDC28CBF010A758CFF758A02
:063D3100C3C28DD28C22FA
:102F87004F75747075742066726F6D204944207296
:102F9700656769737465723A2025322E326258204C
:102FA7000A0D0053544130313320536F6674566510
:102FB7007273696F6E3A2025322E326258200A0DDD
:102FC700002E000A466972737420636F6E66696724
:102FD70075726174696F6E2066696C652073656EC2
:102FE700742E2E2E0A004E756D626572206F662054
:102FF70076616C756573207772697474656E3A20B3
:103007002564200A000A5365636F6E6420636F6E40
:1030170066696775726174696F6E2066696C652091
:1030270073656E742E2E2E0A0053656E7420746FAE
:10303700205354413031333A2025322E3262582002
:103047002025322E326258200A0D004F7574707594
:10305700742066726F6D2072656769737465723A62
:103067002025322E326258202025322E32625820F7
:1030770025322E326258200A0D00436F6E6669674B
:1030870075726174696F6E20436F6D706C657465DE
:103097000A0D005455060B525165645061050D1811
:1030A7000C4648720007100902B80000000605A187
:0730B7000004050C0C0100F0
:053DB100EFF452B02206
:043DCA00EF42B022F2
:101FE4007F08123DB1789A7601754332123DCAE4F6
:101FF400F54EF54DF54CF54BF54F755003F5517510
:10200400520075539D7F43122E438F421543E54280
:102014006004E54370D9E543600E7BFF7A2F79872E
:10202400789FE6F56D121CEAE4754E01F54DF54C0A
:10203400F54B754F01755001F55175520075539D5F
:102044007F43122E438F421543E5426004E54370FB
:10205400D7E543600E7BFF7A2F7987789DE6F56D8F
:10206400121CEA789DE664AC60030222BA754E71D4
:10207400F54DF54CF54B754F01755001F551755201
:102084000075539D7F43122E438F427BFF7A2F7935
:10209400AA789DE6F56D121CEAE4F548F549754504
:1020A400FF75460075470EAB45AA46A94785498288
:1020B400854883120FF7F5440549E5497002054840
:1020C400F582854883120FF7789AF60549E5497039
:1020D400020548543F70097BFF7A2F79C8121CEA25
:1020E400E544F4602F754332E485445EF55DF55CA8
:1020F400F55B755F01756001F56175620075639A42
:102104007F431232C88F42D54302C2A7E54260041E
:10211400E54370D4E544F46004E543708A7BFF7AB8
:102124002F79CA121CEA7BFF7A2F79EDE548C31395
:10213400F56DE54913F56E121CEAE4F548F54975A9
:1021440045FF75460F7547ACAB45AA46A947854977
:1021540082854883120FF7F5440549E54970020565
:0521640048F5828548EA
:1021690083120FF7789AF60549E549700205485434
:102179000770097BFF7A2F79C8121CEAE544F460DD
:102189002F754332E485445EF55DF55CF55B755F5B
:1021990001756001F56175620075639A7F431232BA
:1021A900C88F42D54302C2A7E5426004E54370D413
:1021B900E544F46004E543708A7BFF7A30790C12B8
:1021C9001CEA7BFF7A2F79EDE548C313F56DE549E4
:1021D90013F56E121CEAE4754E71F54DF54CF54B8D
:1021E900754F01755001F55175520075539D7F4327
:1021F900122E438F427BFF7A2F79AA789DE6F56DDF
:10220900121CEAE4F548F549AF49EF90309A93F585
:1022190044EF9030AC93789AF6754332E485445E86
:10222900F55DF55CF55B755F01756001F5617562DA
:102239000075639A7F431232C88F42D54302C2A701
:10224900E5426004E54370D47BFF7A3079308544F8
:102259006D789AE6F56E121CEAE54990309A93F585
:1022690044FFE48F4EF54DF54CF54B754F01755014
:1022790001F55175520075539D7F43122E438F42CC
:102289007BFF7A30795285446D789DE6F56E8542FB
:102299006F121CEA0549E54970020548C39411E526
:1022A90048940050030222117BFF7A307981121C75
:0422B900EAAF422224
:10000E003A012A04280029002000210022002300A2
:10001E00240025002600270028012802218F28030E
:10002E002100280428052806280728082809280A58
:10003E00280B280C20802190280D20002100280E4E
:10004E0020812191280F20002192281021002811B3
:10005E0021932812210028132814281520822816EF
:10006E0020002817281828192194281A2195281BB2
:10007E002196281C2100281D2083281E2000281FC1
:10008E0021972820210028212822282328242825CA
:10009E002826282728282829282A2084282B2000AB
:1000AE00282C282D282E282F28302831283220853C
:1000BE002833200028342835283628372198283828
:1000CE0021002839283A283B283C283D283E283F45
:1000DE0028402841284228432844284528462847B6
:1000EE0028482849284A284B284C284D284E284F66
:1000FE002850285128522853285428552856285716
:10010E0028582859285A285B285C285D285E285FC5
:10011E0028602861286221992863210028642865B7
:10012E002866286728682869286A286B286C286D35
:10013E00286E286F287028712872287328742875E5
:10014E002876287728782879287A287B287C287D95
:10015E00287E287F28802881288228832884288545
:10016E002886288728882889288A288B288C288DF5
:10017E00288E288F289028912086289220872893D1
:10018E002000289428952896289728982899289A08
:10019E00289B289C289D289E289F219A28A02100D4
:1001AE0028A128A228A328A428A528A628A728A8DD
:1001BE0028A928AA28AB28AC28AD28AE28AF28B08D
:1001CE0028B128B228B328B428B528B628B728B83D
:1001DE0028B9208828BA200028BB208928BC2000F6
:1001EE0028BD28BE28BF28C028C128C228C3219BED
:1001FE0028C4210028C528C628C728C828C928CA47
:10020E0028CB28CC28CD28CE28CF28D028D128D22C
:10021E0028D328D428D528D628D728D828D928DADC
:10022E0028DB28DC28DD28DE28DF28E028E1208AEC
:10023E0028E2208B28E3200028E428E528E628E79A
:10024E0028E828E928EA28EB28EC28ED28EE28EF04
:10025E0028F028F128F228F328F428F528F628F7B4
:10026E0028F8208C28F92000219C28FA219D28FBB3
:10027E00208D219E28FC208E219F28FD200021000C
:10028E0028FE28FF2A01280022012395248925070C
:10029E0026A42707280121C72200238026C4270C65
:1002AE0028022009211C220426AA270A280320003E
:1002BE002100220023A626A02707280428052005B2
:1002CE00238426B427092806200022032300248134
:1002DE0025C026AB270A280721AE220023952489A4
:1002EE00250726A42700280821482201238026C49A
:1002FE00270C280920092104220426AA270A280AE5
:10030E0020002100220023A826A42707280B280C52
:10031E0021402220238026C4270C280D222426C605
:10032E00280E219E220026C8280F20092102221401
:10033E0026AA270A2810200521002200238426B48D
:10034E0027092811200021012300240125C026ABF6
:10035E00270A281221C32395248925072620270042
:10036E002813200321C223832626270D281421B308
:0E037E0022082815200021C622002395260003
:10038C0027082816210023002496250326AA270ACD
:10039C002817204221B623802489250728182000FD
:1003AC0021002394260E2819200F238426B4270914
:1003BC00281A2000239326A82703281B2628270069
:1003CC00281C21012300240125C026AB270A281D47
:1003DC0021C523952489250726202700281E2100C6
:1003EC0023942600270A281F260E28202003217973
:1003FC00220123832626270D2821213228222000A2
:10040C00210422002380240025FC26AA270A282365
:10041C00210023002500282421A3220D2380249EC3
:10042C00253B2825204221572201248925072826EF
:10043C0020002143220D240025382827210822984A
:10044C002395248925072624270028282042219338
:10045C002201238026AA270A28292003217E220490
:10046C0023832626270D282A200021B0220023953D
:10047C0026A02707282B21002300240C250426AABC
:10048C00270A282C21022380248625C326AB282D5D
:10049C002042219722012489250726AA282E2000F4
:1004AC0021002200241F2504282F21B22395248902
:1004BC0025072620270428302042218B2204238064
:1004CC0026AA270A2831200021B12200239526A034
:1004DC002707283220032175220423832626270D83
:1004EC002833200521002200238426B42709283430
:1004FC00200021602300240125C026AB270A2835C3
:10050C00210822982395248925072624270028369C
:10051C0021BC2200283721A3220D2300240125C051
:10052C0026AB270A28382160220023802400253896
:10053C0026AA2839210622982395248925072624C2
:10054C002700283A21BE2200283B200521002384C5
:10055C0026B42709283C200021602300240125C053
:10056C0026AB270A283D2142220123952489250701
:10057C0026242700283E210C229826A42707283F52
:10058C0021082840216022002300240125C026AB2D
:10059C00270A2841210C22982395248925072624F3
:1005AC0027002842200521002200238426B4270995
:1005BC002843200023802400251026AB270A28443A
:1005CC00212222012395248925072624270028454A
:1005DC002100220023002404251226AA270A2846DB
:1005EC00200321D422052383248925072626270DC1
:1005FC0028472000216022002300240125C026ABBF
:10060C00270A284821B32395248925072600270883
:10061C002849210023002409250026AA270A284A54
:10062C00210223802486253B284B204221DD2205F4
:10063C0024892507284C200021002200241F250096
:10064C00284D21B323952489250726202700284EE1
:10065C00210023002497250326AA270A284F20428D
:10066C0021E222052380248925072850200021100F
:10067C0022002300248025CC26AB285121002240C7
:10068C0023B42489250726AA27042852220023B044
:10069C002692270928532114220123952600270886
:1006AC002854214823A4262A27002855210022005B
:1006BC0023002409250026AA270A2856210823806E
:1006CC002486253B285720422111220724892507FF
:1006DC002858200021002200241F2500285921140D
:1006EC00220123952489250726202700285A211624
:0E06FC0026022709285B21002200230024800B
:10070A00254826AA270A285C23A024892507261417
:10071A002709285D2480255026A42704285E21164F
:10072A0022012395248925072700285F2104220016
:10073A002300249C257826AA270A28602143220D13
:10074A00240125C426AB286121032200241528622E
:10075A0021002400250026AA2863215E23952489E6
:10076A00250726102709286421032300241525C4F8
:10077A0026AB270A2865210023802400250626AAFD
:10078A002866248F25E326AB2867204221CD22073D
:10079A002489250726AA2868200021602200230030
:1007AA00240125C026AB286921002380248F250334
:1007BA0026AA286A204221DD220724892507286BD8
:1007CA0020002143220D2300240125C026AB286CDA
:1007DA00210022002400250426AA286D2003217F57
:1007EA0022012383248925072626270D286E2162C4
:1007FA00286F200521002200238426B427092870A7
:10080A0020002106239526002708287121012300AC
:10081A002497253B26AA270A28722042210E22085D
:10082A0023802489250728732003213C220B238354
:10083A002626270D2874200021032200239526024C
:10084A002708287521272300248125C426AB270AD7
:10085A002876210023802409254826AA28772158AA
:10086A00223423A324892507262A27002878210051
:10087A00220023A0260027092879210723802403A0
:10088A00253926AA270A287A21042300241C253878
:10089A00287B2107238024832539287C210323955B
:1008AA002489250726022708287D21272300248159
:1008BA0025C426AB270A287E21002380240925483F
:1008CA0026AA287F2158223423A324892507262AE9
:1008DA0027002880210622002300248125C0269390
:1008EA0027012881210023802489254826AA270A4E
:1008FA0028822002216622082300240025662883F4
:10090A002000210022002380241F2502288421069A
:10091A002489250726DC270C2885210023AA26AA54
:10092A00270A288623B626002708288723802486B4
:10093A00253B26AA270A288821052489250726DC9B
:10094A00270C2889210023AA26AA270A288A23B63F
:10095A0026002708288B23802486253B26AA270AD7
:10096A00288C2042217B220824892507288D2000F3
:10097A0021002200230024012582288E21052481BA
:10098A0025C226AB288F200321932208238324899A
:10099A0025072626270D289020002105220023005E
:1009AA00248125C026132701289121002380248928
:1009BA00254826AA270A28922002217E22082300F7
:1009CA002400256628932000210022002380241F6A
:1009DA002502289421052489250726DC270C289539
:1009EA00210023AA26AA270A289623B62600270822
:1009FA00289723802486253B26AA270A289821059A
:100A0A002489250726DC270C2899210023AA26AA4F
:100A1A00270A289A2380241F2502289B21012300C4
:100A2A00248125C226AB289C2003219322082383F4
:100A3A00248925072626270D289D20002104220027
:100A4A00239526122708289E216023C426AA270454
:100A5A00289F210023C02600270928A0204221CB55
:100A6A002208238026AA270A28A12070215422B806
:0E0A7A0023952612270828A2200221CC22084C
:100A8800238026AA270A28A3200321CA220F23830A
:100A98002626270D28A42000210022002300248CCC
:100AA800250C26AA270A28A521042482257828A609
:100AB80021002380248925482612270428A72003FB
:100AC80021DE220F238325072626270D28A82000AC
:100AD800210122002300249C257826AA270A28A978
:100AE800210023802481254028AA200321CF220F1A
:100AF8002383248925072626270D28AB2070210863
:100B080022B8239526A0270428AC200321D4220F3D
:100B180023832626270D28AD2127220B28AE2070F7
:100B2800216322B823952612270828AF2000210127
:100B380022002380248625CB26AB270A28B0204212
:100B480021DD22082489250726AA28B1200021189A
:100B58002280239526A4270028B2200321D9220F1A
:100B680023832626270D28B32070210A22B823952F
:100B780026A0270028B4200221E02208238026AAE4
:100B8800270A28B52070210A22B8239526A0270015
:100B980028B621542602270828B7200021182280C9
:100BA80026A4270028B82100220023802480254875
:100BB80026AA270A28B92070215E22B823952489FD
:100BC80025072612270828BA2000210022002380A2
:100BD8002409254B26AA270A28BB2070215F22B8A2
:100BE8002395248925072610270828BC20002100E2
:100BF80022002300241C258326AB270A28BD2003B6
:100C0800213222092383248925072626270D28BE79
:100C180020002100220023002482258C26AB270AED
:100C280028BF200321252209238324892507262676
:100C3800270D28C0204221BC238026AA270A28C1C4
:100C48002000210122002300240125C026AB28C250
:100C58002070210F22B823952489250726202700F4
:100C680028C3200321E3220F23832626270D28C427
:100C7800200521002200238426B4270928C5200046
:100C8800210323952614270828C621A623A4262A4B
:100C9800270528C7210023A02644270928C821188A
:100CA800226D2380249E257B26AA270A28C9204254
:100CB8002113220B2489250728CA200021AE2200EF
:100CC80023952624270028CB21002203238024876C
:100CD800257B26AA270A28CC20422116220B248904
:100CE800250728CD200021AE2200239526242700A1
:100CF80028CE20052100238426B4270928CF2003E5
:100D0800210D220B23832626270D28D02000210021
:100D18002200230024802602270028D123802409CA
:100D28002548261E28D2215822342333248025071B
:100D3800262A28D32100220023002680271028D421
:100D480021102363262A270028D52100236026A8FE
:100D5800271228D621AF224C230026C8270C28D7D3
:100D6800210022002680270528D823802486253BB9
:100D7800261E270028D92042211C220E2300248069
:100D8800250728DA20002135222926C4270C28DB4C
:100D98002002211D220E261E270028DC2000217F8C
:100DA800223426C4270C28DD210022002390249F0A
:100DB80025042610270A28DE2300248425002680FF
:100DC800271028DF2106236324802507262A2700E9
:100DD80028E021002380248926AA270A28E1200563
:100DE800238426B4270928E22070216122B823959C
:0E0DF8002612270828E3200021012200238074
:100E0600248625C326AB270A28E4204221CE220FBA
:100E16002489250726AA28E52070215022B8239583
:100E26002612270828E6200521002200238426B45E
:100E3600270928E72070216422B82395261227085F
:100E460028E82000210122002380248625C326AB22
:100E5600270A28E9204221D3220F2489250726AA1A
:100E660028EA2070215122B823952612270828EB5C
:100E7600200521002200238426B4270928EC2070AF
:100E8600216522B823952612270828ED2000210186
:100E960022002380248625C326AB270A28EE20427B
:100EA60021D8220F2489250726AA28EF207021524F
:100EB60022B823952612270828F0200521002200B3
:100EC600238426B4270928F12070216122B82395AE
:100ED6002602270828F220002101220023802486EA
:100EE60025C326AB270A28F3204221DD220F2489B9
:100EF600250726AA28F42070215022B82395260219
:100F0600270828F5200521002200238426B4270976
:100F160028F6200021012380248625CB26AB270A2C
:100F260028F7204221E1220F2489250726AA28F83E
:100F36002000210222002300248125C426AB28F9A3
:100F4600210023802489254826AA28FA20052384FF
:100F5600250726B4270928FB2070214E22B82395A1
:100F66002610270828FC2000210022002380248642
:100F760025C326AB270A28FD204221E7220F248914
:100F8600250726AA28FE200021BB2200239526201D
:100F9600270028FF20052100238426B427092A08D4
:100FA6001001FFFFFFFF3A00643A65BB083A09BB30
:100FB60050105267517705A11804540155210700B6
:100FC600060C0B03501051005204610F6455655511
:080FD60005A11804FFFFFFFF55
:10349600E4F54274442542F8E4F60542E542B40BED
:1034A600F274FFF552F551F550F54FE4F54212006E
:1034B600038F43E543C394304017E543D394395013
:1034C6001074442542F8A6430542AF43123CFB80E4
:1034D60050E54364086005E543B47F1A1542744419
:1034E6002542F8E4F67F08123CFB7F20123CFB7F66
:1034F60008123CFB802BE543640D6005E543B40AE6
:103506001D7B007A0079441233B88F528E518D504C
:103516008C4F7F0D123CFB7F0A123CFB8003E4F5C7
:1035260043E542B40A1B7B007A0079441233B88F14
:10353600528E518D508C4F7F0D123CFB7F0A123CF0
:10354600FB74FFFFFEFDFCAB52AA51A950A84FC366
:103556001212E470030234B4AF52AE51AD50AC4F08
:013566002242
:10361C007374617274696E672070726F6772616D1A
:10362C002E2E2E0A004D6F756E74696E67205344F2
:10363C0020636172640A0053442063617264206DDC
:10364C006F756E7465640A00534420636172642064
:10365C006661696C656420746F206D6F756E740A99
:10366C0000526F6F74206469726563746F72793A7B
:10367C000A0A00456E74657220616E20656E747264
:10368C0079206E756D6265723A200A00256C752082
:10369C002000256C7520200A004572726F723A204A
:1036AC00696E76616C696420656E747279206368EA
:1036BC006F6963650A005374617274696E672E2EAC
:0236CC002E00CE
:03000B00023B763F
:103B7600C0E0C0F0C083C082C0D075D000C000C015
:103B860001C002C003C004C005C006C00712274812
:103B9600D007D006D005D004D003D002D001D00083
:0B3BA600D0D0D082D083D0F0D0E0322D
:102B1A00758E0C758F017F10123D987F0F123DBE86
:102B2A007F2C7E01123CD57F807E25123BE9121F45
:102B3A00E4EF600280FE123BB17BFF7A3679C27DF8
:102B4A000BE4FF1237F37BFF7A36791C121CEA7FFB
:102B5A00407E0D7D037C001237677889EFF6600CA2
:102B6A007F10123D987F53123CFB80FE7F40123D3E
:102B7A00981218967889EFF6600C7F10123D987FAC
:102B8A0043123CFB80FE7F40123DB67F007E2D7DC6
:102B9A00317C011237677889EFF6600C7F10123D9D
:102BAA00987F50123CFB80FE7BFF7A367931121CEB
:102BBA00EA7E007F001214A0EF70157BFF7A367947
:102BCA0043121CEA7F10123DB67F80123D98800B9B
:102BDA007BFF7A367954121CEA80FE7BFF7A3679BB
:102BEA006D121CEA123D9190000612131B78921284
:102BFA0013B8E58954F04401F589D2A9D28CD2AF31
:102C0A00789212136F754600754700122934E4FC56
:102C1A00FD788E1213B87BFF7A36797F121CEA127E
:102C2A003496788A1213B87BFF7A367998788A12A2
:102C3A00136F8F708E6F8D6E8C6D121CEA7BFF7A0C
:102C4A0036799E789212136F8F708E6F8D6E8C6D9F
:102C5A00121CEA788E12136F788A12137BD312121F
:102C6A00E45058789212136F788CE6FA08E68A468E
:102C7A00F5477548007549001222BD78961213B8B7
:102C8A00789612136FE4FFFEFDEC5410FC60217875
:102C9A009612136FEFEEEDEC540FFC78961213B800
:102CAA00789612136F12387878921213B8022C0A97
:102CBA00789612136F123AF8022C0A7BFF7A367949
:072CCA00A5121CEA022C0A0E
:03000000023D8539
:0C3D8500787FE4F6D8FD7581B1022B1A9E
:100FDE00BB010689828A83E0225002E722BBFE0211
:090FEE00E32289828A83E4932244
:100FF700BB010CE58229F582E5833AF583E02250AF
:1010070006E92582F8E622BBFE06E92582F8E222F8
:0D101700E58229F582E5833AF583E4932212
:10102400BB010FF8E58229F582E5833AF583E028D0
:10103400F0225009C58229F8E58226F622BBFE0972
:10104400C58229F8E22582F222F8EA2583F583E9AC
:03105400932822BC
:10105700BB010689828A83F0225002F722BBFE0178
:02106700F32272
:10106900F8BB010DE58229F582E5833AF583E8F0BD
:10107900225006E92582C8F622BBFE05E92582C869
:02108900F22251
:10108B00BC000BBE0029EF8DF084FFADF022E4CC49
:10109B00F875F008EF2FFFEE33FEEC33FCEE9DEC12
:1010AB00984005FCEE9DFE0FD5F0E9E4CEFD22ED58
:1010BB00F8F5F0EE8420D21CFEADF075F008EF2FA2
:1010CB00FFED33FD4007985006D5F0F222C398FD93
:0510DB000FD5F0EA2230
:1010E000BB010A89828A83E0F5F0A3E022500687DB
:1010F000F009E71922BBFE07E3F5F009E31922899D
:0B110000828A83E493F5F074019322CF
:10110B00BB0110E58229F582E5833AF583E0F5F022
:10111B00A3E0225009E92582F886F008E622BBFEFF
:10112B000AE92582F8E2F5F008E222E5832AF58345
:08113B00E993F5F0A3E993220A
:10114300BB010789828A830213DD500B09C5F0278F
:10115300F7C5F01937F722BBFE0D09F8E325F0F3C5
:10116300C5F019E338F322F889828A837401932541
:08117300F0C5F0F8E493382206
:10117B00BB010A89828A83F0E5F0A3F0225006F7BF
:0F118B0009A7F01922BBFE06F3E5F009F31922BC
:10119A00F8BB0111E58229F582E5833AF583E8F087
:1011AA00E5F0A3F0225009E92582C8F608A6F02244
:0D11BA00BBFE09E92582C8F2E5F008F2222B
:1011C700E88FF0A4CC8BF0A42CFCE98EF0A42CFCC7
:1011D7008AF0EDA42CFCEA8EF0A4CDA8F08BF0A445
:1011E7002DCC3825F0FDE98FF0A42CCD35F0FCEBA4
:1011F7008EF0A4FEA9F0EB8FF0A4CFC5F02ECD3969
:0F120700FEE43CFCEAA42DCE35F0FDE43CFC22D5
:1012160075F008758200EF2FFFEE33FECD33CDCC8F
:1012260033CCC58233C5829BED9AEC99E582984012
:101236000CF582EE9BFEED9AFDEC99FC0FD5F0D6EF
:10124600E4CEFBE4CDFAE4CCF9A88222B800C1B919
:101256000059BA002DEC8BF084CFCECDFCE5F0CB57
:10126600F97818EF2FFFEE33FEED33FDEC33FCEB90
:1012760033FB10D703994004EB99FB0FD8E5E4F94B
:10128600FA227818EF2FFFEE33FEED33FDEC33FC38
:10129600C933C910D7059BE99A4007EC9BFCE99A2C
:1012A600F90FD8E0E4C9FAE4CCFB2275F010EF2F71
:1012B600FFEE33FEED33FDCC33CCC833C810D70771
:1012C6009BEC9AE899400AED9BFDEC9AFCE899F8AC
:0E12D6000FD5F0DAE4CDFBE4CCFAE4C8F9223F
:1012E400EB9FF5F0EA9E42F0E99D42F0E89C45F060
:0112F40022D7
:1012F500E8600FECC313FCED13FDEE13FEEF13FFD7
:03130500D8F122FA
:10130800E8600FEFC333FFEE33FEED33FDEC33FC43
:03131800D8F122E7
:10131B00BB010DE58229F582E5833AF583021401C1
:10132B005007E92582F802136FBBFE07E92582F807
:10133B0002140DE58229F582E5833AF5830214192F
:10134B00BB010DE58229F582E5833AF58302145240
:10135B005007E92582F80213B8BBFE07E92582F88E
:04136B0002145E22E8
:0C136F00E6FC08E6FD08E6FE08E6FF22AA
:0D137B00E6FB08E6F908E6FA08E6CBF822E2
:10138800BB010DE58229F582E5833AF5830214292C
:101398005007E92582F802137BBBFE07E92582F88E
:1013A800021435E58229F582E5833AF58302144271
:0C13B800ECF608EDF608EEF608EFF62261
:1013C400D083D082E493F608740193F608740293F0
:0913D400F608740393F674047327
:103CAE00EFB40A07740D123CB9740A309811A89932
:103CBE00B8130CC2983098FDA899C298B811F63076
:073CCE0099FDC299F599224E
:101C8800E579246DF8E6057922786A301002786DD6
:101C9800E475F00112146A020FDE2009EB7F2ED2E0
:101CA800098018EF540F2490D43440D4FF300D0B22
:101CB800EF24BFB41A0050032461FFE57A600215CF
:101CC8007A057DE57D7002057C30100D786AE47533
:101CD800F00112146AEF021057023CAE7403D210DE
:101CE8008003E4C210F5798B6A8A6B896CE4F57A13
:101CF800F57CF57DE57A60077F20121CC380F575B9
:101D08007BFFC20AC209C20BC20CC20EC20FC211AB
:101D1800121C91FF700D3010057F00121CD4AF7D8E
:101D2800AE7C22B4255FC2D5C20D121C91FF24D00F
:101D3800B40A00501A75F00A787A30D50508B6FF4B
:101D48000106C6A426F620D5047002D20C80D92438
:101D5800CFB41A00EF5004C2E5D20D021ED4D20A45
:101D680080C6D20980C0D20B80BCD2D580BAD20E30
:101D780080B47F20121CC3200B077401B57A004081
:101D8800F1121C88FF121CC3021CFCD211D20F8056
:101D980095121C88FB121C88FA121C88F94A4B7091
:101DA8000679A57A1F7BFF200B2EE57A602A7E0034
:101DB8008E82758300120FF760060EEE657B70F059
:101DC800C2D5EBC0E0EAC0E0E9C0E0EE121F1BD0CC
:101DD800E0F9D0E0FAD0E0FB120FDEFF60AAEBC01A
:101DE800E0EAC0E0E9C0E0121CC3D0E02401F9D069
:101DF800E03400FAD0E0FBE57B0460DCD57BD980D9
:101E0800877BFF7A1F7917D20B809C791080027923
:101E180008C20FC2118008D2D5790A8004790AC293
:101E2800D5E57B047002F57BE4FAFDFEFF121C8801
:101E3800FC7B08200A13121C88FD7B1030090A124B
:101E48001C88FE121C88FF7B20EC3382D592D5506B
:101E580013C3E43009069FFFE49EFEE4200A039DB5
:101E6800FDE49CFCE4CBF8C20AEC700CCFCECDCCE0
:101E7800E824F8F870F38017C3EF33FFEE33FEED74
:101E880033FDEC33FCEB33FB994002FB0FD8E9EB55
:101E9800300A05F8D0E0C448B20AC0E00AEC4D4E5A
:101EA8004F78207B0070C2EAB57B0040BCC0E012CE
:101EB8001F1DD0F0D0E0200A04C4C0E0C4B20AC09C
:101EC800F0121CACD0F0D5F0EB021CFC12147A1DF9
:101ED80099531E13581D6A4C1D66421E174F1E1F2C
:101EE800441E1F491D7F431E25551E09461E0945D0
:101EF8001E09471FC5501D6E2D1D722E1D952B1DC9
:101F080076231D93201FB32A1D2E4800001D8D3FE8
:101F18003F3F00790AA2D5200C14300E09B91002EF
:101F28000404B9080104A2D5200F02500104200BB3
:051F380068920BB57A70
:101F3D00005034C0E07F20300C197F30A20B720F9F
:101F4D00720E500F121F74C20BC20FC20EC2117F40
:101F5D0030800F300E03E9C0E0121CC3300E03D0E9
:101F6D00E0F9D0E0B57ACC300E177F30B9100C12F5
:101F7D001CC37F58300D077F788003B90803121CEE
:101F8D00C3300B057F2D021CC37F202011F87F2B42
:101F9D00200FF322920B80CF286E756C6C29002DCB
:101FAD0050434958D20A121C88300AF8C20A787A6E
:101FBD0030D50108F6021D2E121C882403B405002D
:101FCD004001E4901FAC93121CB4743A121CB4D2AD
:071FDD000C757A04021E13CB
:1033B8008B538A548955AB53AA54A955120FDEFF73
:1033C800123D4A500D74012555F555E43554F55410
:1033D80080E4D209AB53AA54A955120FDEFF642B1F
:1033E8006004EFB42D1BAB530555E555AA54700284
:1033F800055414F9120FDE642D6003D38001C392C3
:1034080009E4F559F558F557F556AB53AA54A9559B
:10341800120FDEFF123D5D505CE47F0AFEFDFCAB3F
:1034280059AA58A957A8561211C7C8ECC8EDC0E048
:10343800EEC0E0EFC0E0AB53AA54A955120FDEFF6F
:103448003395E0FEEF24D0FFEE34FFFEE4FCFDD020
:10345800E0FBD0E0FAD0E0F9EB2FF559EA3EF55859
:10346800ED39F557EC38F55674012555F555E43521
:1034780054F554809530090AAF59AE58AD57AC563B
:0E348800800BAF59AE58AD57AC561213F3225D
:1013DD00C5F0F8A3E028F0C5F0F8E582158270029B
:0613ED001583E038F02238
:0E13F300C3E49FFFE49EFEE49DFDE49CFC220B
:0C140100E0FCA3E0FDA3E0FEA3E0FF225E
:0C140D00E2FC08E2FD08E2FE08E2FF221B
:10141900E493FC740193FD740293FE740393FF2219
:0C142900E0F8A3E0F9A3E0FAA3E0FB2246
:0D143500E2FB08E2F908E2FA08E2CBF82237
:10144200E493F8740193F9740293FA740393FB2200
:0C145200ECF0A3EDF0A3EEF0A3EFF0220D
:0C145E00ECF208EDF208EEF208EFF222CA
:10146A00FAE6FB0808E6F925F0F618E6CA3AF62283
:10147A00D083D082F8E4937012740193700DA3A301
:10148A0093F8740193F5828883E473740293686015
:06149A00EFA3A3A380DF15
:0F3D5D00EFC394304007EF943A50028001C32225
:103D4A00EFC394094005EF940E4003BF2003D380CC
:033D5A0001C32280
:00000001FF
