:073EF7007B007A007909222B
:101CD4008F488E478D468C45755C01854E5D854FDA
:101CE4005E780AE6B4020F781B1213C98F578E561A
:101CF4008D558C54800D7809E6FFE48F57F556F521
:101D040055F554AB4BAA4CA94D900001E54A12106D
:101D140089E54AAE497805C333CE33CED8F9F54ABE
:101D24008E49FF7C017DFE1210ABE4EF2548F5538C
:101D3400EE3547F552E43546F551E43545F550AEF8
:101D440049AF4A7C017DFE1210AB8C498D4AC3E534
:101D5400539548FFE5529547FEE5519546FDE550FC
:101D64009545FCAB57AA56A955A854C31213045061
:101D7400057E007F0222AF53AE52AD51AC50780DB8
:101D8400E6F56308E6F564855C65855D66855E67F2
:101D9400123C37EF600302202CF559AB4BE54D2480
:101DA40002F9E4354CFA7E00E92559F9EE3AFAE4F1
:101DB4001210770559E559B40CE1AB5CAA5DA95E34
:101DC400AF4AAE49123ED38F58E55864E57003021A
:101DD4002024E5587003022024E54A240BFFE4354F
:101DE40049FEAB5CAA5DA95E123ED38F5AAB4BAAE7
:101DF4004CA94DE55A121077780AE6640460030290
:101E04001E98E54A2415FFE43549FEAB5CAA5DA99A
:101E14005E123ED3E4FCFDFEAB4BAA4CA94D9000F0
:101E24000E1213A5E9240EF9E43AFA12133B7808CA
:101E340012132812138BAB4BE54D240EF9E4354CE9
:101E4400FAC003C002C00112133BC004C005C0069F
:101E5400C007E54A2414FFE43549FEAB5CAA5DA93A
:101E64005E123ED3E4AB07D007D006D005D004EF12
:101E74004BFFEEEDECD001D002D00312138BAB4B31
:101E8400E54D240EF9E4354CFA12133B780812138D
:101E94002812138BAB4BE54D240EF9E4354CFAC0F4
:101EA40003C002C00112133BC004C005C006C00732
:0D1EB400E54A241BFFE43549FEAB5CAA5D46
:101EC100A95E123ED3E4AB07D007D006D005D004FB
:101ED100EF4BFFEEEDECD001D002D00312138BAB30
:101EE1004BE54D240EF9E4354CFA12133B780812F8
:101EF100132812138BAB4BE54D240EF9E4354CFA44
:101F0100C003C002C00112133BC004C005C006C01B
:101F110007E54A241AFFE43549FEAB5CAA5DA95ED8
:101F2100123ED3E4AB07D007D006D005D004EF4B67
:101F3100FFEEEDECD001D002D00312138BE55A3045
:101F4100E418AB4BE54D240EF9E4354CFA12133B82
:101F5100EFEEEDEC4410FC12138BE55A540E6003C6
:101F6100022024F5597E00E54A2559FFEE3549FE48
:101F7100AB5CAA5DA95E123ED38F5BAB4BE54D24F2
:101F810002F9E4354CFA7E00E92559F9EE3AFAE511
:101F91005B1210770559E559C3940840C8E55A30DA
:101FA100E43D7559087E00E54A2559FFEE3549FEA5
:101FB100AB5CAA5DA95E123ED38F5BAB4BE54D24B2
:101FC10002F9E4354CFA7E00E92559F9EE3AFAE5D1
:101FD1005B1210770559E559C3940B40C88044AB97
:101FE1004BAA4CA94D90000A742E121089755908FC
:101FF1007E00E54A2559FFEE3549FEAB5CAA5DA995
:102001005E123ED38F5B855982758300A3A3A3AB78
:102011004BAA4CA94DE55B1210890559E559C394AA
:102021000B40CDE5587009FE7F02227E007F02221F
:052031007E007F01228A
:103947007374617274696E672070726F6772616DEC
:103957002E2E2E0A004D6F756E74696E67205344C4
:1039670020636172640A0053442063617264206DAE
:103977006F756E7465640A00534420636172642036
:103987006661696C656420746F206D6F756E740A6B
:1039970000526566657220746F204C434420666F41
:1039A70072206E617669676174696F6E0A0053747D
:0A39B700617274696E672E2E2E00F7
:1034FB00758E0C758F017F10123EFE7F0F123F24CD
:10350B007F2C7E01123E4C123D4F7BFF7A3979B5F1
:10351B007D0BE4FF1238467F807E25123D877BFFB3
:10352B007A397947122098122392EF600280FE7F3E
:10353B00407E0D7D037C0012372E7874EFF6600C05
:10354B007F10123EFE7F53123E7280FE7F40123E72
:10355B00FE1218E27874EFF6600C7F10123EFE7FBD
:10356B0043123E7280FE7F40123F1C7F007E2D7DFA
:10357B00317C0112372E7874EFF6600C7F10123EFF
:10358B00FE7F50123E7280FE7BFF7A39795C1220EF
:10359B00987E007F001214ECEF70157BFF7A39795F
:1035AB006E1220987F10123F1C7F80123EFE800B04
:1035BB007BFF7A39797F12209880FE7BFF7A3979ED
:1035CB0098122098123EF790000612135B123EDF02
:0535DB00122A6580FECC
:1035E00046696E64696E672042494F53207061726C
:1035F000616D6574657220626C6F636B0A00657241
:10360000726F723A20636F756C64206E6F74206CF9
:103610006F63617465204250420A006572726F7276
:103620003A20464154313220756E737570706F7256
:103630007465640A004641543136206465746563DC
:103640007465640A004641543332206465746563CE
:103650007465640A004572726F723A2046415420C4
:103660007479706520756E737570706F72746564AF
:103670000A004572726F723A20636F756C646E2730
:10368000742066696E64206E65787420636C75734F
:053690007465720A00E0
:1014EC00AA06A9077544018A458946123EF78B471F
:1014FC008A4889497BFF7A3579E012209875630216
:10150C007564008544658545668546677F007E0069
:10151C007D007C00123C37AB44AA45A946E4FFFE93
:10152C00123ED38F22E4F53FF53EF53DF53CE52226
:10153C0064EB603BE52264E96035AB44AA45A946FF
:10154C007FC67E01123B118F3F8E3E8D3D8C3C75CC
:10155C006302756400854465854566854667123C63
:10156C0037AB44AA45A946E4FFFE123ED38F22E5D1
:10157C002264EB6012E52264E9600C7BFF7A35791A
:10158C00FE1220987F0122AB44AA45A9467F0B7E10
:10159C0000123DBCAB47AA48A949900004EE8FF05D
:1015AC001211BA900002E412108990000412112B4F
:1015BC00FDACF0ED64014C6017AB47AA48A949900B
:1015CC0000027401121044ECC313FCED13FD80E314
:1015DC00AB44AA45A9467F0D7E00123ED3AB47AA69
:1015EC0048A949EF121077AB44AA45A9467F0E7E55
:1015FC0000123DBC8E268F27AB44AA45A9467F100E
:10160C007E00123ED38F23AB44AA45A9467F117EA0
:10161C0000123DBC8E248F25AB44AA45A9467F16EB
:10162C007E00123DBC8E288F29AB44AA45A9467F6B
:10163C00137E00123DBC8E2A8F2BAB44AA45A946C3
:10164C007F2C7E00123B118F438E428D418C40E5E6
:10165C002945286018AB44AA45A9467F167E00127E
:10166C003DBCE48F338E32F531F5308015AB44AA96
:10167C0045A9467F247E00123B118F338E328D316B
:10168C008C30E52B452A600DE4852B37852A36F501
:07169C0035F5348015AB4465
:1016A300AA45A9467F207E00123B118F378E368DC7
:1016B300358C34AB47AA48A94990000412112BFD7D
:1016C300ACF024FFFBEC34FFFAE525AE247805C328
:1016D30033CE33CED8F92BFFEA3EFE1210ABE4FC37
:1016E300FDAB47AA48A9499000121213A5AF23E402
:1016F300FCFDFEAB33AA32A931A8301211E7A804CE
:10170300A905AA06AB07E4FCFDEB2527FFEA35266E
:10171300FEED39FDEC38FCAB47AA48A9499000120D
:101723001213E2EF2BFBEE3AFAED39F9EC38F8C37A
:10173300E5379BF53BE5369AF53AE53599F539E515
:101743003498F538E4E527253FFFE526353EFEE4EA
:10175300353DFDE4353CFCAB47AA48A94990000E52
:101763001213A590000E1213E2C000C001C002C004
:1017730003AF23E4FCFDFEAB33AA32A931A8301238
:1017830011E7D003D002D001D000EF2BFFEE3AFED9
:10179300ED39FDEC38FCAB47AA48A9499000121279
:1017A30013E2EF2BFFEE3AFEED39FDEC38FCAB47CD
:1017B300AA48A94990000A1213A5120FFEFFE4FCE0
:1017C300FDFEF8F9FAAB07AF3BAE3AAD39AC3812D0
:1017D30012728F2F8E2E8D2D8C2CE47FF57E0FFDB4
:1017E300FCAB2FAA2EA92DA82CC3121304500C7BDB
:1017F300FF7A36791B1220987F0122E47FF57EFF62
:10180300FDFCAB2FAA2EA92DA82CC3121304505EE6
:10181300AB47AA48A94990000174021210897BFFC3
:101823007A367935122098AB47AA48A94990000E19
:101833001213E2C000C001C002C003AF23E4FCFDE9
:10184300FEAB33AA32A931A8301211E7D003D0027C
:10185300D001D000EF2BFFEE3AFEED39FDEC38FC62
:10186300AB47AA48A9499000061213A5806EAB475F
:10187300AA48A94990000174041210897BFF7A36A3
:101883007945122098E54324FEFFE54234FFFEE547
:101893004134FFFDE54034FFFCA804C005C006C089
:1018A30007AB47AA48A949120FFEFFE4FCFDFED08F
:1018B30003D002D0011211E7AB47AA48A94990000F
:1018C3000A1213E2EF2BFFEE3AFEED39FDEC38FC82
:0F18D300AB47AA48A9499000061213A57F00222F
:1038CB008F318E308D2F8C2E123EF78B328A3389AF
:1038DB0034E4FFFEFDFCAB31AA30A92FA82EC31296
:1038EB001304700CAB32AA33A93490000602135B9D
:1038FB00E53124FEFFE53034FFFEE52F34FFFDE517
:10390B002E34FFFCA804C005C006C007AB32AA3397
:10391B00A934120FFEFFE4FCFDFED003D002D00150
:10392B001211E7AB32AA33A93490000A1213E2EF5B
:0C393B002BFFEE3AFEED39FDEC38FC22CB
:102C21008F2A8E298D288C27123EF78B368A378979
:102C310038752D01852B2E852C2F90000112101730
:102C4100FFE4FCFDFEAB2AAA29A928A8271211E757
:102C5100C004C005C006C007AB36AA37A93890002A
:102C61000412112BFFAEF0E4FCFDF8F9AA06AB0744
:102C7100D007D006D005D004121272AB36AA37A9FC
:102C81003890000E1213E2EF2BFFEE3AFEED39FD04
:102C9100EC38FCAB36AA37A93890000412112BF599
:102CA1006485F063852D65852E66852F67123C3717
:102CB100AB36AA37A938900001121017FFE4FCFDCA
:102CC100FEAB2AAA29A928A8271211E7C004C0052A
:102CD100C006C007AB36AA37A93890000412112BE1
:102CE100FFAEF0E4FCFDF8F9AA06AB07D007D00669
:102CF100D005D004121272AE02AF038E308F31AB09
:102D010036AA37A938900001121017B40411AB2D5F
:102D1100AA2EA92F123B11EFEEEDEC540FFC22ABC2
:102D210036AA37A9389000011210176402703BAB24
:102D31002DAA2EA92FAF31AE30123DBCE48F358EB6
:102D410034F533F5327FFF7EFFFDFCAB35AA34A9A4
:102D510033A832C3121304700874FFFFFEFD7C0F09
:102D610022AF35AE34AD33AC32227BFF7A367955A2
:102D7100122098E4FFFEFDFC227BFF7A3679721265
:082D81002098E4FFFEFDFC2296
:10331E008F3AD290D291E4F545E53F75F008A4F5C9
:10332E003F05402091030234082090030234081216
:10333E003EAEE53A25E0F5445344FEC2907546088C
:10334E007F01123E98C2911546AF46E544A8070884
:10335E008002C313D8FC5401F547123E92D291302D
:10336E0091FDA290E433F54865476003754581E50C
:10337E0046D394004004E54560C6E545704F7F0195
:10338E00123E98C291D290E53F601524F8F53FAFFA
:10339E003EAE3DAD3CAC3BF9F81213158F44801890
:1033AE001540AB41AA42A943120FFEF54474012504
:1033BE0043F543E43542F5427F01123E98D29130F7
:1033CE0091FDA290E433F5486003754582E54060B7
:1033DE0007E545700302334BE5456481601F7F01AD
:1033EE00123E98C291C2907F01123E98D2913091B6
:1033FE00FD7F02123E98D2908003754581AF452223
:102D89008F2AE4F535E52F601F852E3E852D3D857B
:102D99002C3C852B3BF53FE4F5408531418532429A
:102DA90085334312331E8F35E5356003022ECAD2AF
:102DB90090D291209103022EC7209003022EC712B0
:102DC9003EAEE52A25E0F534433401C29075360854
:102DD9007F01123E98C2911536AF36E534A807082F
:102DE9008002C313D8FC5401F537123E92D29130B8
:102DF90091FDA290E433F53865376003753581E5B7
:102E090036D394004004E53560C6E535701E7F0170
:102E1900123E98C291D2907F01123E98D291309180
:102E2900FDA290E433F5386003753582E530D3941B
:102E3900004069E53570657536087F01123E98C214
:102E4900911536D290E53925E0F5397F01123E9882
:102E5900D2913091FDA290E433F5384239E536D369
:102E6900940050D6AB31AA32A933E53912107774E0
:102E7900012533F533E43532F532E530B401057512
:102E890037018003E4F5377F01123E98C291E53797
:102E9900123E92D2913091FD15308090E5356481D2
:102EA900601F7F01123E98C291C2907F01123E9825
:102EB900D2913091FD7F02123E98D29080037535F0
:042EC90081AF35227E
:103EAE005389F0438901C2A9758CFF758AC3C28DEF
:033EBE00D28C2281
:063E920024FF92907F0165
:103E9800308C03308DFDC28CBF010A758CFF758A8A
:063EA800C3C28DD28C2282
:103E22008D2DEF70077F40123F0880057F40123FC3
:103E3200287F80123F28AF2D123F347F80123F0827
:0A3E42007FFF123F347F40023F284B
:103D4F007D38E4FF123E227F017E00123E4C7D48FB
:103D5F00E4FF123E227F017E00123E4C7D01E4FF04
:103D6F00123E227F027E00123E4C7D0CE4FF123E7B
:083D7F00227F017E00023E4C90
:103846008D278B288A29892AEFF46010EF4480FDA2
:10385600E4FF123E227F017E00123E4CE5277038BF
:10386600F52BAB28AA29A92A852B82F583121017D6
:10387600F52CE52C604EFD7F01123E227F017E0075
:10388600123E4C052BAB28AA29A92A852B827583C3
:1038960000121017F52C80DAE4F52BE52BC39527DB
:1038A6005022AB28AA29A92A852B827583001210DB
:1038B60017F52CFD7F01123E227F017E00123E4C41
:0538C600052B80D72254
:053EFE00EFF452A022C8
:043F1C00EF42A022AE
:103D1400AE077F80123F1C7F40123F1C7F20123F62
:103D24001C7F10123F1CEE30E0057F80123EFEEE39
:103D340030E1057F40123EFEEE30E2057F20123E68
:0B3D4400FEEE30E3057F10123EFE2271
:033F34008F802259
:053F0300EFF4529022D2
:053F0800EFF452B022AD
:043F2000EF429022BA
:043F2400EF42A022A6
:043F2800EF42B02292
:063A33007B017A0079001E
:103A39008B2B8A2C892DE4FFFEFDFC78871213D588
:103A4900C3121304700D78951213C91238CB788BF1
:103A5900121412123EF790000412112BF56485F02E
:103A69006378871213C9788B1213D5EB2FFFEA3EBF
:103A7900FEE93DFDE83CFC852B65852C66852D67B7
:103A8900123C3778871213C9EF2401FFE43EFEE4A4
:0A3A99003DFDE43CFC7887021412A6
:103CD1008F2A8E298D288C27750803E4788FF608A2
:103CE100760108F608F608F608F6AF2AAE29AD28DF
:103CF100AC271238CB788B121412788712141E005D
:103D0100000000AF2AAE29AD28AC27789512141215
:033D1100023A3340
:1039C1008B278A2889297F08123F20AB2AAA2BA995
:1039D1002C121100FFAEF0C3EE9402502920922662
:1039E100AB27AA28A9298F828E83121017FF7B008B
:1039F1007A007930123DEFAB2AAA2BA92CE475F09D
:103A01000112116380C57F08123F03AB2AAA2BA9BB
:103A11002C121100B40018E5F0B40213E4F5F01211
:103A2100119BAB2DAA2EA92F7401121077FF227FB3
:023A3100002271
:10287900E508B409004003022A5A90288AF8282852
:10288900730228A50228E40228F502292202297DDB
:102899000229BC0229CD0229FF022A557F01123DD6
:1028A9001478951213C9752B00752C00122C2178F8
:1028B9009512141274FFFFFEFD7C0F78951213D543
:1028C900C3121304600F788712141E0000000075EC
:1028D9000805022A5A750808022A5A7F02123D146D
:1028E900309203022A5A750803022A5A7F03123DBD
:1028F90014123EF7120FFEFFE4FCFDFE7887121357
:10290900D5C31213047005F508022A5A123A33E4A2
:10291900788FF6750805022A5A7F04123D14209211
:102929001E788FE67019F52A752B00752C91F52DF7
:10293900752E00752F8F7B017A0079001239C1300D
:1029490092077890E66401600C788FE6FFB4010B7A
:1029590008E6B40106750806022A5AEFB4010920EF
:102969009206750807022A5A209203022A5A750804
:1029790001022A5A7F05123D1478951213C9752B45
:1029890002752C00122C21789512141274FFFFFE87
:10299900FD7C0F78951213D5C3121304600F788745
:1029A90012141E00000000750801022A5A75080851
:1029B900022A5A7F06123D14309203022A5A7508D8
:1029C90007022A5A7F07123D14123EF7120FFEFF23
:1029D900E4FCFDFE78871213D5C312130470057544
:1029E9000804806D7B017A027900123A39E4789003
:1029F900F6750801805B7F08123D1420921E7890BD
:102A0900E67019F52A752B00752C93F52D752E0096
:102A1900752F907B017A0279001239C130920778BB
:102A29008FE66401600B788FE6B4010A08E6B40109
:102A390005750802801B7890E6B401082092057597
:102A49000803800D30920A75080580057F09123D3B
:0C2A590014E508B408037F01227F00226E
:10266B005344204361726420496E697469616C69DB
:10267B007A6174696F6E202E2E2E200A0D00434D49
:10268B0044302073656E74202E2E2E2000526573FD
:10269B00706F6E7365203D2025322E3262580A0D05
:1026AB0000434D44382073656E74202E2E2E20006F
:1026BB00526573706F6E7365203D200025322E328C
:1026CB006258200A0D0056657273696F6E203120B7
:1026DB00534420436172642064657465637465645C
:1026EB002E0A0D005374616E646172642043617035
:1026FB0061636974792043617264206465746563F6
:10270B007465642E0A0D0025322E32625820005655
:10271B00657273696F6E203220534420436172647B
:10272B002064657465637465642E0A0D00434D4423
:10273B0035382073656E74202E2E2E200041434DAC
:10274B004434312073656E74202E2E2E2000546974
:10275B006D656F7574203D20256C75200A0D004842
:10276B0069676820436170616369747920436172A2
:10277B00642044657465637465640A0D0053746169
:10278B006E64617264204361706163697479204384
:10279B006172642044657465637465640A0D00435B
:1027AB004D4431362073656E74202E2E2E20005230
:1027BB006573706F6E7365203D2025322E32625823
:1027CB00200A0D00426C6F636B2073697A6520736E
:1027DB00657420746F203531322062797465730A09
:1027EB000D0053442054696D656F757420457272EA
:1027FB006F7200496C6C6567616C20436F6D6D6126
:10280B006E640A0D00526573706F6E7365204572AE
:10281B00726F72004461746120546F6B656E20455A
:10282B0072726F7200496E636F6D70617469626C66
:10283B006520566F6C746167650043617264206933
:10284B007320496E61637469766500535049206F3C
:10285B00722054696D656F7574204572726F7200CA
:0E286B00556E6B6E6F776E204572726F720045
:0B311400E4F56EF56DF56CF56B7F3A8D
:10311F008F6AE4F570E56AC394404003023219E503
:10312F006A4440F56F7B007A007971FF123DEF8F93
:10313F0072E572701CAF6EAE6DAD6CAC6B78181221
:10314F0013158F6F7B007A007971123DEF8F7280AC
:10315F0003757087E570702FE572702BE56EF56E55
:10316F00E56DF56DE56CF56CE4F56BAF6EAE6DADC1
:10317F006CAC6B78101213158F6F7B007A0079711E
:10318F00123DEF8F728003757087E570702DE572B9
:10319F007029E56EF56EE56DF56DE4F56CF56BAFC9
:1031AF006EAE6DAD6CAC6B78081213158F6F7B0024
:1031BF007A007971123DEF8F728003757087E57019
:1031CF007018E5727014E56EFFE48F6FFB7A00796B
:1031DF0071AF6F123DEF8F728003757087E570705E
:1031EF002CE5727028E56A7005756F95800DE56A9C
:1031FF00B40805756F878003756F017B007A0079BE
:10320F0071AF6F123DEF8F728003757082AF7022B6
:07369500FB7A0079257F019B
:10369C008F368B378A388939E4F53B7B007A007991
:1036AC003D7FFF123DEF8F3C053AE53D30E708E5E5
:1036BC003A6004E53C60E4E53C6005753B8780526C
:1036CC00E53A7005753B818049AB37AA38A939E5D5
:1036DC003D121077E53D600464017033E536D394F8
:1036EC0001402F753A01E53AC3953650257B007A97
:1036FC0000793D7FFF123DEF8F3CAB37AA38A939DB
:10370C00853A82758300E53D121089053A80D7759C
:10371C003B837B007A00793D7FFF123DEF8F3CAFFE
:02372C003B223E
:10321F008E6A8F6B8B6C8A6D896EE4F572F573F520
:10322F00707B007A0079717FFF123DEF8F6F05730E
:10323F00E57370020572E57130E70AE57345726058
:10324F0004E56F60DCE56F600675708702330EE58D
:10325F00734572700675708102330EE5716003025B
:10326F00330BF572F5737B007A0079717FFF123D96
:10327F00EF8F6F0573E57370020572E571B4FF0A86
:10328F00E57345726004E56F60DCE56F600575708E
:10329F0087806CE573457270057570818061E5718B
:1032AF0064FE7053F572F573C3E573956BE5729514
:1032BF006A50287B007A0079717FFF123DEF8F6F84
:1032CF00AB6CAA6DA96E857382857283E57112103E
:1032DF00890573E57370D1057280CD7B007A007913
:1032EF00717FFF123DEF8F6F7B007A0079717FFF47
:1032FF00123DEF8F6F800875708480037570837B2C
:0F330F00007A0079717FFF123DEF8F6FAF702250
:1018E200E4F523781F76FF7F10123F2C7BFF7A26C8
:1018F200796B122098E4F5227B007A00792D7FFF24
:10190200123DEF8F240522E522C3940A40EA7F802C
:10191200123EFE7BFF7A2679891220987F10123FB1
:1019220012E4F56EF56DF56CF56BFF12311F8F2425
:10193200E52470131236958F247BFF7A26799885D9
:10194200254D12209880057F10123EFE7F10123F17
:101952002C7F80123F1CE5246002F523E5236003FF
:10196200021A417F80123EFE7BFF7A2679AC12205A
:10197200987F10123F12E4756EAA756D01F56CF531
:101982006B7F0812311F8F24E5246003021A32FB99
:101992007A0079257F0512369C8F247F10123F2C06
:1019A2007F80123F1CE524603F7BFF7A2679BB12C1
:1019B20020987BFF7A2679C785254D122098E52449
:1019C200B48320E525B4051BE4F523781F76097B53
:1019D200FF7A2679D11220987BFF7A2679EF12209E
:1019E20098805C85242380577BFF7A2679BB12205E
:1019F20098E4F5227BFF7A27791274252522F8E6EE
:101A0200F54D1220980522E522C3940540E67F0D8C
:101A12001200037F0A120003E52964AA60037524F9
:101A220083781F76027BFF7A27791A122098800F1B
:101A32007F10123F2C7F80123F1C7F10123EFEE56A
:101A4200236003021ACC7F80123EFE7BFF7A277945
:101A5200381220987F10123F121231148F24E5247D
:101A62007053FB7A0079257F0512369C8F247F10F4
:101A7200123F2C7F80123F1C7BFF7A2679BB1220FB
:101A820098E4F5227BFF7A27791274252522F8E65D
:101A9200F54D1220980522E522C3940540E67F0DFC
:101AA2001200037F0A120003E52754FC64FC601451
:101AB200752485800F7F10123F2C7F80123F1C7F80
:101AC20010123EFEE5246002F523E5236003021BAB
:0A1AD200BC781FE6B4020CE4F53105
:101ADC00F530F52F752E408009E4F531F530F52FF2
:101AEC00F52EE4F535F534F533F5327F20123EFE54
:101AFC007BFF7A2779481220987F10123F12E4F569
:101B0C006EF56DF56CF56B7F3712311F8F24E52464
:101B1C0070051236958F24E52564016004E5257067
:101B2C001385316E85306D852F6C852E6B7F291258
:101B3C00311F8F24E52470031236957F10123F2C31
:101B4C00E5352401F535E43534F534E43533F53336
:101B5C00E43532F532E4FFFEFDFCAB35AA34A93393
:101B6C00A832C31213047003752481E52530E004F8
:101B7C00E5246085E52470137F20123F1C7BFF7ADF
:101B8C0026799885254D122098800A7F80123F1C5B
:101B9C007F10123EFE7BFF7A2779598535508534AC
:101BAC004F85334E85324D122098E5246002F52383
:101BBC00E5236003021CC9781FE664026003021C63
:101BCC00C97F80123EFE7BFF7A2779381220987FDE
:101BDC0010123F121231148F24E5246003021CAF43
:101BEC00FB7A0079257F0512369C8F247F10123FDB
:101BFC002C7F80123F1C7BFF7A2679BB122098E445
:101C0C00F5227BFF7A27791274252522F8E6F54D0B
:101C1C001220980522E522C3940540E67F0D1200A0
:101C2C00037F0A120003E52620E706752486021CB2
:101C3C00BEE52654C0FFBFC00FE4781FF67BFF7AC9
:101C4C0027796A122098806A781F76097BFF7A2799
:101C5C0079881220987F80123EFE7BFF7A2779AA22
:101C6C001220987F10123F12E4F56E756D02F56C20
:101C7C00F56B7F1012311F8F24E5247035123695C9
:101C8C008F247F10123F2C7F80123F1C7BFF7A2702
:051C9C0079BA85254D19
:101CA1001220987BFF7A2779CF122098800F7F101E
:101CB100123F2C7F80123F1C7F10123EFEE52460F4
:101CC10007F523AF23123AA3E5236004FF123AA3D9
:031CD100AF23221C
:053F0D00781FE6FF2211
:103AA3008F36E536B481097BFF7A2779ED022098BA
:103AB300E536B482097BFF7A2779FE022098E53642
:103AC300B483097BFF7A287910022098E536B48401
:103AD300097BFF7A28791F022098E536B485097B94
:103AE300FF7A287930022098E536B486097BFF7A7D
:103AF300287945022098E536B487097BFF7A28792F
:0E3B0300560220987BFF7A28796B12209822B8
:103C37008F628E618D608C5F123F0D8F687F1012CF
:103C47003F12AF62AE61AD60AC5FA968A801121305
:103C5700288F6E8E6D8D6C8C6B7F1112311F8F6963
:103C6700E569700DAB65AA66A967AF64AE631232EA
:103C77001F7F10123F2CE56960037F01227F00221E
:0C3ED3005306018F828E83121017FF220D
:103DBC008E4A8F4B8B4C8A4D894E534A01E4FDFC45
:103DCC00E54B2401FFE4354A8F82F583121017FD71
:103DDC007D00FC854B82854A83121017FFE4EFFDB2
:033DEC00AE042200
:103B11008E4A8F4B534A01E4F54FF54EF54DF54C66
:103B2100F551AF51C374039551CFE49400CF254BA8
:103B3100CF354A8F82F583121017F550AF4FAE4E35
:103B4100AD4DAC4C78081213288F4F8E4E8D4D8C95
:103B51004CE4E54F4550F54FE54EF54EE54DF54D3D
:103B6100E54CF54C0551E551B404B7AF4FAE4EAD40
:043B71004DAC4C22E9
:103C87002563006E6578740A0070726576696F75D2
:103C9700730A0073656C6563743A2025640A0070C3
:103CA7006C6179696E670A00313A6E7874323A70DE
:103CB700727620333A73656C00706C6179696E6750
:0A3CC7002E2E20333A73746F700044
:03002B00023BD9BC
:103BD900C0E0C0F0C083C082C0D075D000C000C0B2
:103BE90001C002C003C004C005C006C007C2CF7B24
:103BF900007A0079991237BA7B007A00799C1237DA
:103C0900BA7B007A00799F1237BA7B007A0079A2D1
:103C19001237BAD007D006D005D004D003D002D0CD
:0E3C290001D000D0D0D082D083D0F0D0E032D5
:103B7500E4FCFDFB7A40791978011211E7E47B70CA
:103B85007A17F9F8121272C3E49FF523E49EF52221
:103B95007B007A0079997D01123EC17B007A00791C
:103BA5009C7D02123EC17B007A00799F7D04123E06
:103BB500C17B007A0079A27D08123EC1E4F5C8E513
:103BC50023FD7C00ECF5CBAF058FCAC2CFD2ADD2B9
:043BD500AFD2CA227F
:10340E008F2A8E298D288C278B2B8A2C892DE4F5DB
:10341E0043121100C39401E5F0940050037F012282
:10342E00AB2BAA2CA92D74FFF5F0121163AF2AAEA7
:10343E0029AD28AC27AB2BAA2CA92D121100F54AC9
:10344E0085F049754B00754C00754D31754E007504
:10345E004F00121CD4EF64026024E531540E700547
:10346E007543018019AB2BAA2CA92D121100D394F0
:10347E0000E5F09400400774FFF5F0121163E54388
:10348E007017EF64026012AB2BAA2CA92D1211003B
:10349E00D39400E5F094005094E54370037F01222D
:1034AE00AB2EAA2FA930E531121077AB2EAA2FA979
:1034BE0030900001E532121089AF42AE41AD40AC02
:1034CE003F90000E1213A5E4FF74332FF8E6FEAB07
:1034DE002EE5302402F9E4352FFAEF7C0029F9ECC1
:0D34EE003AFAEE1210770FBF0CDF7F0122BB
:10300400E4F525F52678A51213C9752E00752F0051
:093014007530757B007A00792506
:10301D008F2A8E298D288C278B2B8A2C892DE4F5D0
:10302D004475F001121163AF2AAE29AD28AC27AB60
:10303D002BAA2CA92D121100F54A85F049754B00CC
:10304D00754C00754D31754E00754F00121CD48FA7
:10305D0043E543B4020CAB2BAA2CA92DE4F5F012D9
:10306D00119BAF2AAE29AD28AC27AB2BAA2CA92DCD
:10307D00121100F54A85F049754B00754C00754DE0
:10308D0031754E00754F00121CD48F43E543640219
:10309D006018E531540E7005754401800DAB2BAAF7
:1030AD002CA92DE475F001121163E5447005E5437B
:1030BD00B402AFE54470037F0122AB2EAA2FA930D5
:1030CD00E531121077AB2EAA2FA930900001E53211
:1030DD00121089AF42AE41AD40AC3F90000E1213BD
:1030ED00A5E4FF74332FF8E6FEAB2EE5302402F98C
:1030FD00E4352FFAEF7C0029F9EC3AFAEE1210774D
:07310D000FBF0CDF7F012260
:102A65001230048F22E4F523F5247BFF7A3C798725
:102A750074772524F8E6F54D1220980524E5247091
:102A8500020523C3940CE523940040DE7B007A0005
:102A950079777D0CE4FF1238467BFF7A3C79AF7D70
:102AA500107F40123846789BE6640270467BFF7AB9
:102AB5003C798A122098789B76031230098F22E49C
:102AC500F523F5247BFF7A3C798774772524F8E68E
:102AD500F54D1220980524E52470020523C3940CB6
:102AE500E523940040DE7B007A0079777D0CE4FFD6
:102AF500123846789EE66402705A7BFF7A3C7990DC
:102B0500122098789E760378A51213C9752E007544
:102B15002F007530757B007A00792512340E8F22CF
:102B2500E4F523F5247BFF7A3C798774772524F82F
:102B3500E6F54D1220980524E52470020523C3947B
:102B45000CE523940040DE7B007A0079777D0CE468
:102B5500FF12384678A1E664026003022AAB7BFFC8
:102B65007A3C799A85254D85264E12209878A1764E
:102B75000378831213C9E4FFFEFDEC5410FC605A80
:102B850078831213C9EFEEEDEC540FFC7883121421
:102B95001278831213C91238CB78A5121412123089
:102BA500048F22E4F523F5247BFF7A3C798774773B
:102BB5002524F8E6F54D1220980524E52470020534
:102BC50023C3940CE523940040DE7B007A007977DB
:102BD5007D0CE4FF123846022AAB78831213C91222
:102BE5003CD17BFF7A3C79A61220987BFF7A3C7911
:102BF500C07D107F40123846122879EF700678A103
:102C0500E6B402F478A1E6B4020276037BFF7A3CCF
:0C2C150079AF7D107F40123846022AABD8
:0C3EDF0078A51214127F0A7E00023B75C9
:10372E00E4F522AB07AA06A905A804FF7E407D1981
:10373E007C01121272EFD39402500575C37080692A
:10374E00EFD39402400BEFD39404500575C37180F0
:10375E0058EFD39404400BEFD39408500575C37201
:10376E008047EFD39408400BEFD39410500575C3E8
:10377E00738036EFD39410400BEFD3942050057521
:10378E00C3F08025EFD39420400BEFD39440500527
:10379E0075C3F18014EFD39440400BEFD394805057
:0C37AE000575C3F2800375220FAF2222C4
:103DEF00E4FE8FC5AFC40EEF54F07003EE70F5EE26
:103DFF006017EF54707009E5C5121077E4FE80105C
:103E0F0074FF121077E4FE800774FF1210777E8024
:033E1F00AF0622C9
:043F2C00EF429022AE
:053F1200EFF4529022C3
:102ECD004F75747075742066726F6D204944207251
:102EDD00656769737465723A2025322E3262582007
:102EED000A0D0053544130313320536F66745665CB
:102EFD007273696F6E3A2025322E326258200A0D98
:102F0D00002E000A466972737420636F6E666967DE
:102F1D0075726174696F6E2066696C652073656E7C
:102F2D00742E2E2E0A004E756D626572206F66200E
:102F3D0076616C756573207772697474656E3A206D
:102F4D002564200A000A5365636F6E6420636F6EFB
:102F5D0066696775726174696F6E2066696C65204C
:102F6D0073656E742E2E2E0A0053656E7420746F69
:102F7D00205354413031333A2025322E32625820BD
:102F8D002025322E326258200A0D004F757470754F
:102F9D00742066726F6D2072656769737465723A1D
:102FAD002025322E326258202025322E32625820B2
:102FBD0025322E326258200A0D00436F6E66696706
:102FCD0075726174696F6E20436F6D706C65746599
:102FDD000A0D005455060B525165645061050D18CC
:102FED000C4648720007100902B80000000605A142
:072FFD000004050C0C0100AB
:053F1700EFF452B0229E
:043F3000EF42B0228A
:102392007F08123F1778757601752332123F30E4B9
:1023A200F52EF52DF52CF52BF52F753003F531753E
:1023B20032007533787F43122D898F221523E5224F
:1023C2006004E52370D9E523600E7BFF7A2E79CD78
:1023D200787AE6F54D122098E4752E01F52DF52C4C
:1023E200F52B752F01753001F53175320075337893
:1023F2007F43122D898F221523E5226004E5237085
:10240200D7E523600E7BFF7A2E79CD7878E6F54DFD
:102412001220987878E664AC6003022668752E7103
:10242200F52DF52CF52B752F01753001F53175322F
:10243200007533787F43122D898F227BFF7A2E79A4
:10244200F07878E6F54D122098E4F528F5297525FF
:10245200FF75260075272EAB25AA26A92785298276
:10246200852883121017F5240529E529700205280D
:10247200F5828528831210177875F60529E52970EB
:10248200020528543F70097BFF7A2F790E1220989B
:10249200E524F4602F752332E485243EF53DF53CB6
:1024A200F53B753F01754001F54175420075437575
:1024B2007F4312331E8F22D52302C2A7E522600476
:1024C200E52370D4E524F46004E523708A7BFF7A67
:1024D2002F79101220987BFF7A2F7933E528C313C6
:1024E200F54DE52913F54E122098E4F528F52975E6
:1024F20025FF75260F7527CCAB25AA26A927852986
:1025020082852883121017F5240529E52970020512
:0525120028F582852878
:10251700831210177875F60529E5297002052854E6
:102527000770097BFF7A2F790E122098E524F46053
:102537002F752332E485243EF53DF53CF53B753F89
:1025470001754001F5417542007543757F431233AC
:102557001E8F22D52302C2A7E5226004E52370D48B
:10256700E524F46004E523708A7BFF7A2F79521201
:1025770020987BFF7A2F7933E528C313F54DE5299A
:1025870013F54E122098E4752E71F52DF52CF52BC9
:10259700752F01753001F5317532007533787F433A
:1025A700122D898F227BFF7A2E79F07878E6F54D08
:1025B700122098E4F528F529AF29EF902FE093F53D
:1025C70024EF902FF2937875F6752332E485243E35
:1025D700F53DF53CF53B753F01754001F541754209
:1025E700007543757F4312331E8F22D52302C2A77E
:1025F700E5226004E52370D47BFF7A2F7976852462
:102607004D7875E6F54E122098E529902FE093F561
:1026170024FFE48F2EF52DF52CF52B752F01753042
:1026270001F5317532007533787F43122D898F227A
:102637007BFF7A2F799885244D7878E6F54E8522A9
:102647004F1220980529E52970020528C39411E542
:1026570028940050030225BF7BFF7A2F79C71220E9
:0426670098AF2222E4
:103EC100ED121077900001E4121089900002E402D3
:023ED100108956
:1037BA00900002121017FF7015120FFE55A0707BB1
:1037CA009000011210899000027401021089EF64BE
:1037DA000170289000010412104490000112101781
:1037EA00C394024056120FFE55A07008900002744E
:1037FA0002021089900002E4021089EFB4030F124A
:10380A000FFE55A060359000027404021089EF641F
:10381A00047028900001041210449000011210173D
:10382A00C394024016120FFE55A06007900002E4EE
:0C383A0002108990000274031210892211
:103E4C005389F0438901C2A9758CF4758A3DC28DE2
:103E5C00D28C308DFDC28CEF1F70011ED3EF9400FD
:063E6C00EE940050E32279
:103D870053873F438780C2AC759852E4F59BFCFD8F
:103D97007BC0FAF9F81211E7A804A905AA06AB0730
:103DA700E4FFFE7D2F7C0D121272EFF404F59A7575
:053DB7009B1ED29922C1
:103E7200E4FDFC0DBD00010C209904ED4C70F4ED45
:103E82004C60088F99AE07C29980027EF1AF06227C
:10002E003A012A0428002900200021002200230082
:10003E00240025002600270028012802218F2803EE
:10004E002100280428052806280728082809280A38
:10005E00280B280C20802190280D20002100280E2E
:10006E0020812191280F2000219228102100281193
:10007E0021932812210028132814281520822816CF
:10008E0020002817281828192194281A2195281B92
:10009E002196281C2100281D2083281E2000281FA1
:1000AE0021972820210028212822282328242825AA
:1000BE002826282728282829282A2084282B20008B
:1000CE00282C282D282E282F28302831283220851C
:1000DE002833200028342835283628372198283808
:1000EE0021002839283A283B283C283D283E283F25
:1000FE002840284128422843284428452846284796
:10010E0028482849284A284B284C284D284E284F45
:10011E0028502851285228532854285528562857F5
:10012E0028582859285A285B285C285D285E285FA5
:10013E002860286128622199286321002864286597
:10014E002866286728682869286A286B286C286D15
:10015E00286E286F287028712872287328742875C5
:10016E002876287728782879287A287B287C287D75
:10017E00287E287F28802881288228832884288525
:10018E002886288728882889288A288B288C288DD5
:10019E00288E288F289028912086289220872893B1
:1001AE002000289428952896289728982899289AE8
:1001BE00289B289C289D289E289F219A28A02100B4
:1001CE0028A128A228A328A428A528A628A728A8BD
:1001DE0028A928AA28AB28AC28AD28AE28AF28B06D
:1001EE0028B128B228B328B428B528B628B728B81D
:1001FE0028B9208828BA200028BB208928BC2000D6
:10020E0028BD28BE28BF28C028C128C228C3219BCC
:10021E0028C4210028C528C628C728C828C928CA26
:10022E0028CB28CC28CD28CE28CF28D028D128D20C
:10023E0028D328D428D528D628D728D828D928DABC
:10024E0028DB28DC28DD28DE28DF28E028E1208ACC
:10025E0028E2208B28E3200028E428E528E628E77A
:10026E0028E828E928EA28EB28EC28ED28EE28EFE4
:10027E0028F028F128F228F328F428F528F628F794
:10028E0028F8208C28F92000219C28FA219D28FB93
:10029E00208D219E28FC208E219F28FD20002100EC
:1002AE0028FE28FF2A0128002201239524892507EC
:1002BE0026A42707280121C72200238026C4270C45
:1002CE0028022009211C220426AA270A280320001E
:1002DE002100220023A626A0270728042805200592
:1002EE00238426B427092806200022032300248114
:1002FE0025C026AB270A280721AE22002395248984
:10030E00250726A42700280821482201238026C479
:10031E00270C280920092104220426AA270A280AC4
:10032E0020002100220023A826A42707280B280C32
:10033E0021402220238026C4270C280D222426C6E5
:10034E00280E219E220026C8280F200921022214E1
:10035E0026AA270A2810200521002200238426B46D
:10036E0027092811200021012300240125C026ABD6
:10037E00270A281221C32395248925072620270022
:10038E002813200321C223832626270D281421B3E8
:0E039E0022082815200021C6220023952600E3
:1003AC0027082816210023002496250326AA270AAD
:1003BC002817204221B623802489250728182000DD
:1003CC0021002394260E2819200F238426B42709F4
:1003DC00281A2000239326A82703281B2628270049
:1003EC00281C21012300240125C026AB270A281D27
:1003FC0021C523952489250726202700281E2100A6
:10040C0023942600270A281F260E28202003217952
:10041C00220123832626270D282121322822200081
:10042C00210422002380240025FC26AA270A282345
:10043C00210023002500282421A3220D2380249EA3
:10044C00253B2825204221572201248925072826CF
:10045C0020002143220D240025382827210822982A
:10046C002395248925072624270028282042219318
:10047C002201238026AA270A28292003217E220470
:10048C0023832626270D282A200021B0220023951D
:10049C0026A02707282B21002300240C250426AA9C
:1004AC00270A282C21022380248625C326AB282D3D
:1004BC002042219722012489250726AA282E2000D4
:1004CC0021002200241F2504282F21B223952489E2
:1004DC0025072620270428302042218B2204238044
:1004EC0026AA270A2831200021B12200239526A014
:1004FC002707283220032175220423832626270D63
:10050C002833200521002200238426B4270928340F
:10051C00200021602300240125C026AB270A2835A2
:10052C00210822982395248925072624270028367C
:10053C0021BC2200283721A3220D2300240125C031
:10054C0026AB270A28382160220023802400253876
:10055C0026AA2839210622982395248925072624A2
:10056C002700283A21BE2200283B200521002384A5
:10057C0026B42709283C200021602300240125C033
:10058C0026AB270A283D21422201239524892507E1
:10059C0026242700283E210C229826A42707283F32
:1005AC0021082840216022002300240125C026AB0D
:1005BC00270A2841210C22982395248925072624D3
:1005CC0027002842200521002200238426B4270975
:1005DC002843200023802400251026AB270A28441A
:1005EC00212222012395248925072624270028452A
:1005FC002100220023002404251226AA270A2846BB
:10060C00200321D422052383248925072626270DA0
:10061C0028472000216022002300240125C026AB9E
:10062C00270A284821B32395248925072600270863
:10063C002849210023002409250026AA270A284A34
:10064C00210223802486253B284B204221DD2205D4
:10065C0024892507284C200021002200241F250076
:10066C00284D21B323952489250726202700284EC1
:10067C00210023002497250326AA270A284F20426D
:10068C0021E22205238024892507285020002110EF
:10069C0022002300248025CC26AB285121002240A7
:1006AC0023B42489250726AA27042852220023B024
:1006BC002692270928532114220123952600270866
:1006CC002854214823A4262A27002855210022003B
:1006DC0023002409250026AA270A2856210823804E
:1006EC002486253B285720422111220724892507DF
:1006FC002858200021002200241F250028592114ED
:10070C00220123952489250726202700285A211603
:0E071C0026022709285B2100220023002480EA
:10072A00254826AA270A285C23A0248925072614F7
:10073A002709285D2480255026A42704285E21162F
:10074A0022012395248925072700285F21042200F6
:10075A002300249C257826AA270A28602143220DF3
:10076A00240125C426AB286121032200241528620E
:10077A0021002400250026AA2863215E23952489C6
:10078A00250726102709286421032300241525C4D8
:10079A0026AB270A2865210023802400250626AADD
:1007AA002866248F25E326AB2867204221CD22071D
:1007BA002489250726AA2868200021602200230010
:1007CA00240125C026AB286921002380248F250314
:1007DA0026AA286A204221DD220724892507286BB8
:1007EA0020002143220D2300240125C026AB286CBA
:1007FA00210022002400250426AA286D2003217F37
:10080A0022012383248925072626270D286E2162A3
:10081A00286F200521002200238426B42709287086
:10082A00200021062395260027082871210123008C
:10083A002497253B26AA270A28722042210E22083D
:10084A0023802489250728732003213C220B238334
:10085A002626270D2874200021032200239526022C
:10086A002708287521272300248125C426AB270AB7
:10087A002876210023802409254826AA287721588A
:10088A00223423A324892507262A27002878210031
:10089A00220023A026002709287921072380240380
:1008AA00253926AA270A287A21042300241C253858
:1008BA00287B2107238024832539287C210323953B
:1008CA002489250726022708287D21272300248139
:1008DA0025C426AB270A287E21002380240925481F
:1008EA0026AA287F2158223423A324892507262AC9
:1008FA0027002880210622002300248125C0269370
:10090A0027012881210023802489254826AA270A2D
:10091A0028822002216622082300240025662883D3
:10092A002000210022002380241F2502288421067A
:10093A002489250726DC270C2885210023AA26AA34
:10094A00270A288623B62600270828872380248694
:10095A00253B26AA270A288821052489250726DC7B
:10096A00270C2889210023AA26AA270A288A23B61F
:10097A0026002708288B23802486253B26AA270AB7
:10098A00288C2042217B220824892507288D2000D3
:10099A0021002200230024012582288E210524819A
:1009AA0025C226AB288F200321932208238324897A
:1009BA0025072626270D289020002105220023003E
:1009CA00248125C026132701289121002380248908
:1009DA00254826AA270A28922002217E22082300D7
:1009EA002400256628932000210022002380241F4A
:1009FA002502289421052489250726DC270C289519
:100A0A00210023AA26AA270A289623B62600270801
:100A1A00289723802486253B26AA270A2898210579
:100A2A002489250726DC270C2899210023AA26AA2F
:100A3A00270A289A2380241F2502289B21012300A4
:100A4A00248125C226AB289C2003219322082383D4
:100A5A00248925072626270D289D20002104220007
:100A6A00239526122708289E216023C426AA270434
:100A7A00289F210023C02600270928A0204221CB35
:100A8A002208238026AA270A28A12070215422B8E6
:0E0A9A0023952612270828A2200221CC22082C
:100AA800238026AA270A28A3200321CA220F2383EA
:100AB8002626270D28A42000210022002300248CAC
:100AC800250C26AA270A28A521042482257828A6E9
:100AD80021002380248925482612270428A72003DB
:100AE80021DE220F238325072626270D28A820008C
:100AF800210122002300249C257826AA270A28A958
:100B0800210023802481254028AA200321CF220FF9
:100B18002383248925072626270D28AB2070210842
:100B280022B8239526A0270428AC200321D4220F1D
:100B380023832626270D28AD2127220B28AE2070D7
:100B4800216322B823952612270828AF2000210107
:100B580022002380248625CB26AB270A28B02042F2
:100B680021DD22082489250726AA28B1200021187A
:100B78002280239526A4270028B2200321D9220FFA
:100B880023832626270D28B32070210A22B823950F
:100B980026A0270028B4200221E02208238026AAC4
:100BA800270A28B52070210A22B8239526A02700F5
:100BB80028B621542602270828B7200021182280A9
:100BC80026A4270028B82100220023802480254855
:100BD80026AA270A28B92070215E22B823952489DD
:100BE80025072612270828BA200021002200238082
:100BF8002409254B26AA270A28BB2070215F22B882
:100C08002395248925072610270828BC20002100C1
:100C180022002300241C258326AB270A28BD200395
:100C2800213222092383248925072626270D28BE59
:100C380020002100220023002482258C26AB270ACD
:100C480028BF200321252209238324892507262656
:100C5800270D28C0204221BC238026AA270A28C1A4
:100C68002000210122002300240125C026AB28C230
:100C78002070210F22B823952489250726202700D4
:100C880028C3200321E3220F23832626270D28C407
:100C9800200521002200238426B4270928C5200026
:100CA800210323952614270828C621A623A4262A2B
:100CB800270528C7210023A02644270928C821186A
:100CC800226D2380249E257B26AA270A28C9204234
:100CD8002113220B2489250728CA200021AE2200CF
:100CE80023952624270028CB21002203238024874C
:100CF800257B26AA270A28CC20422116220B2489E4
:100D0800250728CD200021AE220023952624270080
:100D180028CE20052100238426B4270928CF2003C4
:100D2800210D220B23832626270D28D02000210001
:100D38002200230024802602270028D123802409AA
:100D48002548261E28D221582234233324802507FB
:100D5800262A28D32100220023002680271028D401
:100D680021102363262A270028D52100236026A8DE
:100D7800271228D621AF224C230026C8270C28D7B3
:100D8800210022002680270528D823802486253B99
:100D9800261E270028D92042211C220E2300248049
:100DA800250728DA20002135222926C4270C28DB2C
:100DB8002002211D220E261E270028DC2000217F6C
:100DC800223426C4270C28DD210022002390249FEA
:100DD80025042610270A28DE2300248425002680DF
:100DE800271028DF2106236324802507262A2700C9
:100DF80028E021002380248926AA270A28E1200543
:100E0800238426B4270928E22070216122B823957B
:0E0E18002612270828E3200021012200238053
:100E2600248625C326AB270A28E4204221CE220F9A
:100E36002489250726AA28E52070215022B8239563
:100E46002612270828E6200521002200238426B43E
:100E5600270928E72070216422B82395261227083F
:100E660028E82000210122002380248625C326AB02
:100E7600270A28E9204221D3220F2489250726AAFA
:100E860028EA2070215122B823952612270828EB3C
:100E9600200521002200238426B4270928EC20708F
:100EA600216522B823952612270828ED2000210166
:100EB60022002380248625C326AB270A28EE20425B
:100EC60021D8220F2489250726AA28EF207021522F
:100ED60022B823952612270828F020052100220093
:100EE600238426B4270928F12070216122B823958E
:100EF6002602270828F220002101220023802486CA
:100F060025C326AB270A28F3204221DD220F248998
:100F1600250726AA28F42070215022B823952602F8
:100F2600270828F5200521002200238426B4270956
:100F360028F6200021012380248625CB26AB270A0C
:100F460028F7204221E1220F2489250726AA28F81E
:100F56002000210222002300248125C426AB28F983
:100F6600210023802489254826AA28FA20052384DF
:100F7600250726B4270928FB2070214E22B8239581
:100F86002610270828FC2000210022002380248622
:100F960025C326AB270A28FD204221E7220F2489F4
:100FA600250726AA28FE200021BB220023952620FD
:100FB600270028FF20052100238426B427092A08B4
:100FC6001001FFFFFFFF3A00643A65BB083A09BB10
:100FD60050105267517705A1180454015521070096
:100FE600060C0B03501051005204610F64556555F1
:080FF60005A11804FFFFFFFF35
:03000000023EEBD2
:0C3EEB00787FE4F6D8FD7581A80234FB56
:100FFE00BB010689828A83E0225002E722BBFE02F1
:09100E00E32289828A83E4932223
:10101700BB010CE58229F582E5833AF583E022508E
:1010270006E92582F8E622BBFE06E92582F8E222D8
:0D103700E58229F582E5833AF583E49322F2
:10104400BB010FF8E58229F582E5833AF583E028B0
:10105400F0225009C58229F8E58226F622BBFE0952
:10106400C58229F8E22582F222F8EA2583F583E98C
:031074009328229C
:10107700BB010689828A83F0225002F722BBFE0158
:02108700F32252
:10108900F8BB010DE58229F582E5833AF583E8F09D
:10109900225006E92582C8F622BBFE05E92582C849
:0210A900F22231
:1010AB00BC000BBE0029EF8DF084FFADF022E4CC29
:1010BB00F875F008EF2FFFEE33FEEC33FCEE9DECF2
:1010CB00984005FCEE9DFE0FD5F0E9E4CEFD22ED38
:1010DB00F8F5F0EE8420D21CFEADF075F008EF2F82
:1010EB00FFED33FD4007985006D5F0F222C398FD73
:0510FB000FD5F0EA2210
:10110000BB010A89828A83E0F5F0A3E022500687BA
:10111000F009E71922BBFE07E3F5F009E31922897C
:0B112000828A83E493F5F074019322AF
:10112B00BB0110E58229F582E5833AF583E0F5F002
:10113B00A3E0225009E92582F886F008E622BBFEDF
:10114B000AE92582F8E2F5F008E222E5832AF58325
:08115B00E993F5F0A3E99322EA
:10116300BB010789828A83021437500B09C5F02714
:10117300F7C5F01937F722BBFE0D09F8E325F0F3A5
:10118300C5F019E338F322F889828A837401932521
:08119300F0C5F0F8E4933822E6
:10119B00BB010A89828A83F0E5F0A3F0225006F79F
:0F11AB0009A7F01922BBFE06F3E5F009F319229C
:1011BA00F8BB0111E58229F582E5833AF583E8F067
:1011CA00E5F0A3F0225009E92582C8F608A6F02224
:0D11DA00BBFE09E92582C8F2E5F008F2220B
:1011E700E88FF0A4CC8BF0A42CFCE98EF0A42CFCA7
:1011F7008AF0EDA42CFCEA8EF0A4CDA8F08BF0A425
:101207002DCC3825F0FDE98FF0A42CCD35F0FCEB83
:101217008EF0A4FEA9F0EB8FF0A4CFC5F02ECD3948
:0F122700FEE43CFCEAA42DCE35F0FDE43CFC22B5
:1012360075F008758200EF2FFFEE33FECD33CDCC6F
:1012460033CCC58233C5829BED9AEC99E5829840F2
:101256000CF582EE9BFEED9AFDEC99FC0FD5F0D6CF
:10126600E4CEFBE4CDFAE4CCF9A88222B800C1B9F9
:101276000059BA002DEC8BF084CFCECDFCE5F0CB37
:10128600F97818EF2FFFEE33FEED33FDEC33FCEB70
:1012960033FB10D703994004EB99FB0FD8E5E4F92B
:1012A600FA227818EF2FFFEE33FEED33FDEC33FC18
:1012B600C933C910D7059BE99A4007EC9BFCE99A0C
:1012C600F90FD8E0E4C9FAE4CCFB2275F010EF2F51
:1012D600FFEE33FEED33FDCC33CCC833C810D70751
:1012E6009BEC9AE899400AED9BFDEC9AFCE899F88C
:0E12F6000FD5F0DAE4CDFBE4CCFAE4C8F9221F
:10130400EB9FF5F0EA9E42F0E99D42F0E89C45F03F
:0113140022B6
:10131500E8600FECC313FCED13FDEE13FEEF13FFB6
:03132500D8F122DA
:10132800E8600FEFC333FFEE33FEED33FDEC33FC23
:03133800D8F122C7
:10133B00BB010789828A8302144D5005E9F8021319
:10134B00C9BBFE05E9F802145989828A8302146528
:10135B00BB010DE58229F582E5833AF58302144D35
:10136B005007E92582F80213C9BBFE07E92582F86D
:10137B00021459E58229F582E5833AF58302146557
:10138B00BB010789828A8302149E5005E9F8021477
:0A139B0012BBFE05E9F80214AA22B5
:1013A500BB010DE58229F582E5833AF58302149E9A
:1013B5005007E92582F8021412BBFE07E92582F8D9
:0413C5000214AA2242
:0C13C900E6FC08E6FD08E6FE08E6FF2250
:0D13D500E6FB08E6F908E6FA08E6CBF82288
:1013E200BB010DE58229F582E5833AF58302147586
:1013F2005007E92582F80213D5BBFE07E92582F8DA
:10140200021481E58229F582E5833AF58302148E7E
:0C141200ECF608EDF608EEF608EFF62206
:10141E00D083D082E493F608740193F60874029395
:09142E00F608740393F6740473CC
:10000300EFB40A07740D12000E740A309811A89900
:10001300B8130CC2983098FDA899C298B811F6305D
:0700230099FDC299F5992235
:10203600E559244DF8E6055922784A300702784DCD
:10204600E475F0011214B6020FFE2000EB7F2ED2CB
:10205600008018EF540F2490D43440D4FF30040B82
:10206600EF24BFB41A0050032461FFE55A6002153D
:102076005A055DE55D7002055C30070D784AE4752A
:10208600F0011214B6EF0210770200037403D207B0
:102096008003E4C207F5598B4A8A4B894CE4F55A0A
:1020A600F55CF55DE55A60077F2012207180F575B5
:1020B6005BFFC201C200C202C203C205C206C20859
:1020C60012203FFF700D3007057F00122082AF5DA2
:1020D600AE5C22B4255FC2D5C20412203FFF24D0D5
:1020E600B40A00501A75F00A785A30D50508B6FFBA
:1020F6000106C6A426F620D5047002D20380D92490
:10210600CFB41A00EF5004C2E5D204022282D201F3
:1021160080C6D20080C0D20280BCD2D580BAD20599
:1021260080B47F201220712002077401B55A004046
:10213600F1122036FF1220710220AAD208D20680A0
:1021460095122036FB122036FA122036F94A4B70C9
:102156000679537A237BFF20022EE55A602A7E00F9
:102166008E8275830012101760060EEE655B70F0A6
:10217600C2D5EBC0E0EAC0E0E9C0E0EE1222C9D069
:10218600E0F9D0E0FAD0E0FB120FFEFF60AAEBC048
:10219600E0EAC0E0E9C0E0122071D0E02401F9D005
:1021A600E03400FAD0E0FBE55B0460DCD55BD98067
:1021B600877BFF7A2279C5D202809C7910800279CA
:1021C60008C206C2088008D2D5790A8004790AC2F4
:1021D600D5E55B047002F55BE4FAFDFEFF122036DE
:1021E600FC7B08200113122036FD7B1030000A12FA
:1021F6002036FE122036FF7B20EC3382D592D55056
:1022060013C3E43000069FFFE49EFEE42001039D15
:10221600FDE49CFCE4CBF8C201EC700CCFCECDCC37
:10222600E824F8F870F38017C3EF33FFEE33FEEDC2
:1022360033FDEC33FCEB33FB994002FB0FD8E9EBA3
:10224600300105F8D0E0C448B201C0E00AEC4D4EBA
:102256004F78207B0070C2EAB55B0040BCC0E0123C
:1022660022CBD0F0D0E0200104C4C0E0C4B201C04B
:10227600F012205AD0F0D5F0EB0220AA1214C62193
:10228600475321C15821184C21144221C54F21CD55
:102296004421CD49212D4321D35521B74621B745A8
:1022A60021B747237350211C2D21202E21432B219A
:1022B600242321412023612A20DC480000213B3FC2
:1022C6003F3F00790AA2D5200314300509B9100250
:1022D6000404B9080104A2D5200602500104200214
:0522E600689202B55AE8
:1022EB00005034C0E07F203003197F30A202720609
:1022FB007205500F122322C202C206C205C2087F0A
:10230B0030800F300503E9C0E0122071300503D097
:10231B00E0F9D0E0B55ACC3005177F30B9100C126C
:10232B0020717F583004077F788003B9080312208F
:10233B00713002057F2D0220717F202008F87F2B42
:10234B002006F322920280CF286E756C6C29002D2B
:10235B0050434958D2011220363001F8C201785A45
:10236B0030D50108F60220DC1220362403B4050018
:10237B004001E490235A93122062743A122062D2E5
:07238B0003755A040221C191
:10143700C5F0F8A3E028F0C5F0F8E5821582700240
:061447001583E038F022DD
:0C144D00E0FCA3E0FDA3E0FEA3E0FF2212
:0C145900E2FC08E2FD08E2FE08E2FF22CF
:10146500E493FC740193FD740293FE740393FF22CD
:0C147500E0F8A3E0F9A3E0FAA3E0FB22FA
:0D148100E2FB08E2F908E2FA08E2CBF822EB
:10148E00E493F8740193F9740293FA740393FB22B4
:0C149E00ECF0A3EDF0A3EEF0A3EFF022C1
:0C14AA00ECF208EDF208EEF208EFF2227E
:1014B600FAE6FB0808E6F925F0F618E6CA3AF62237
:1014C600D083D082F8E4937012740193700DA3A3B5
:1014D60093F8740193F5828883E4737402936860C9
:0614E600EFA3A3A380DFC9
:00000001FF
