:1044DA002535642E20002563005B4449525D0A009D
:0544EA002E000D0A0088
:04450200028900002A
:103998008B458A4689477B007A007973C003C00249
:1039A800C001AB45AA46A9471214367B007A0079B4
:1039B80077C003C002C001AB45AA46A947900003DF
:1039C8001214857B007A00797BC003C002C001AB6A
:1039D80045AA46A9479000061214857B007A00790B
:1039E80083C003C002C001AB45AA46A9479000099D
:1039F8001214857B007A007985C003C002C001AB30
:103A080045AA46A94790000C1214857B007A0079D4
:103A1800A1C003C002C001AB45AA46A94790000F48
:103A28001214857B007A0079A2C003C002C001ABE2
:103A380045AA46A9479000121214857B007A00799E
:103A4800A3C003C002C001AB45AA46A94790001510
:103A58001214857B007A0079A4C003C002C001ABB0
:0C3A680045AA46A94790001812148522B8
:103592008B4B8A4C894D7B007A007973C003C00241
:1035A200C001AB4BAA4CA94D1214367B007A0079AC
:1035B20077C003C002C001AB4BAA4CA94D900003D7
:1035C2001214857B007A00797BC003C002C001AB74
:1035D2004BAA4CA94D9000091214857B007A007900
:1035E2007FC003C002C001AB4BAA4CA94D9000069C
:1035F2001214857B007A007983C003C002C001AB3C
:103602004BAA4CA94D90000C1214857B007A0079CC
:1036120085C003C002C001AB4BAA4CA94D90000F5C
:103622001214857B007A007987C003C002C001AB07
:103632004BAA4CA94D9000121214857B007A007996
:10364200A1C003C002C001AB4BAA4CA94D9000150A
:103652001214857B007A0079A2C003C002C001ABBC
:103662004BAA4CA94D9000181214857B007A007960
:10367200A3C003C002C001AB4BAA4CA94D90001BD2
:103682001214857B007A0079A4C003C002C001AB8A
:0C3692004BAA4CA94D90001E121485227A
:084525007889E6FE08E6FF229A
:08452D007889A60608A6072202
:074535007B017A02790022EC
:083CAF008F278E268D258C2441
:103CB7007B007A007928123998AB34AA35A936E403
:103CC700F5F0121192AB31AA32A933E4F5F01211D3
:103CD70092788CE6B40210789D1213C0AB2EAA2FEF
:103CE700A9301213828011788BE6FFE4FCFDFEAB4E
:103CF7002EAA2FA930121382AF27AE26AD25AC24EA
:103D0700AB28AA29A92A121382AF27AE26AD25AC64
:103D170024AB2BAA2CA92D121382AB28AA29A92AD6
:103D2700121332788FE6F54F08E6F5507551017595
:103D37005200755300124215AB40AA41A942EF0247
:023D4700106EFC
:043BFE008E238F245F
:103C02007B007A007929123592AB38AA39A93AE4B5
:103C1200F5F0121192AB35AA36A937E4F5F012117C
:103C220092AB2CAA2DA92E12141C00000000788C35
:103C3200E6B40210789D1213C0AB32AA33A9341233
:103C420013828011788BE6FFE4FCFDFEAB32AA33CF
:103C5200A934121382AF28AE27AD26AC25AB29AA10
:103C62002AA92B121382AF28AE27AD26AC25AB2F83
:103C7200AA30A931121382AB3BAA3CA93DE52385A8
:103C820024F0121192AB29AA2AA92B121332788F8F
:103C9200E6F54F08E6F5507551017552007553006F
:0D3CA200124215AB47AA48A949EF02106E67
:061A20008B238A248925B6
:101A26007542017543007544007B007A00792712E0
:101A36003998AB30AA31A9321210F7FFAEF0AB429B
:101A4600AA43A94412450E8F26E52664E5700302D3
:101A56001D13E5267003021D13AB30AA31A93212FD
:101A660010F7240BFFE435F0FEAB42AA43A944125B
:101A7600450EAB39AA3AA93BEF12106EAB39AA3A1A
:101A8600A93B120FD3540E6003021D13AB33AA34C5
:101A9600A93575F00112115A7889E6FE08E6240088
:101AA600F974023EFA7B01C003C002C001754EFF05
:101AB600754F447550DAAB33AA34A9351210F7F5D1
:101AC6005285F051D001D002D003122261788AEFFC
:101AD60026F618EE36F6AB36AA37A938E412106E9B
:101AE600AB36AA37A938120FD3FFC39408506AAB96
:101AF60030AA31A9321210F72FFFE435F0FEAB42BF
:101B0600AA43A94412450EAB3CAA3DA93EEF1210CA
:101B16006E7889E6FE08E62400F974023EFA7B0137
:101B2600C003C002C001754EFF754F447550E0AB4F
:101B36003CAA3DA93E120FD3F551D001D002D003E5
:101B4600122261788AEF26F618EE36F6AB36AA37F9
:101B5600A93874011210198087AB39AA3AA93B1229
:101B66000FD320E403021C19AB36AA37A938740830
:101B760012106EAB36AA37A938120FD3FFC3940BD7
:101B8600506AAB30AA31A9321210F72FFFE435F0B4
:101B9600FEAB42AA43A94412450EAB3CAA3DA93E60
:101BA600EF12106E7889E6FE08E62400F974023E0C
:101BB600FA7B01C003C002C001754EFF754F447524
:101BC60050E0AB3CAA3DA93E120FD3F551D001D04F
:101BD60002D003122261788AEF26F618EE36F6ABAB
:101BE60036AA37A938740112101980877889E6FE5B
:101BF60008E62400F974023EFA7B01754EFF754F24
:101C0600447550E3122261788AEF26F618EE36F60E
:101C1600021D137889E6FE08E62400F974023EFAEE
:101C26007B01C003C002C001754EFF754F4475505D
:101C3600EAAB3CAA3DA93E120FD3F551D001D00222
:101C4600D003122261788AEF26F618EE36F6AB3606
:101C5600AA37A938740812106EAB36AA37A93812FB
:101C66000FD3FFC3940B506AAB30AA31A9321210BE
:101C7600F72FFFE435F0FEAB42AA43A94412450E06
:101C8600AB3CAA3DA93EEF12106E7889E6FE08E647
:101C96002400F974023EFA7B01C003C002C001753C
:101CA6004EFF754F447550E0AB3CAA3DA93E120F5E
:101CB600D3F551D001D002D003122261788AEF26E3
:101CC600F618EE36F6AB36AA37A938740112101993
:101CD60080877889E6FE08E62400F974023EFA7BDE
:101CE60001C003C002C001754EFF754F447550EC2C
:101CF600AB3CAA3DA93E120FD3F551D001D002D07C
:101D060003122261788AEF26F618EE36F6AB30AA71
:101D160031A932E475F02012115AAB30AA31A9323A
:101D26001210F7D394FEE5F094015003021DF2ABB6
:101D360027AA28A929121332EF2401FFE43EFEE464
:101D46003DFDE43CFC121382AB2AAA2BA92C1213EC
:101D5600CCC000C001C002C003AB27AA28A9291223
:101D66001332D003D002D001D000C3EF9BFFEE9A0E
:101D7600FEED99FDEC98FCAB2DAA2EA92F1213CCE3
:101D8600D31212FB4050AB27AA28A9291213327886
:101D96008FE6F54F08E6F5507551017552007553FB
:101DA60000124215AB3FAA40A941EF12106EAB3F9D
:101DB600AA40A941120FD3600FAB33AA34A935E468
:101DC600F5F0121192E4F526AB30AA31A932E4F50A
:101DD600F01211928016AB33AA34A9351210F7FF10
:101DE600E5F044808FF0121192E4F526E526701A8C
:101DF600AB33AA34A9351210F7FFAB23AA24A925C1
:0C1E0600E5F08FF01211927F01227F02A4
:011E120022AD
:062561008B238A2489256A
:10256700754801754900754A007B007A0079261283
:102577003592AB32AA33A9341210F7FFAEF0AB484D
:10258700AA49A94A12450E8F47E54764E570030239
:102597002785E5477003022785AB32AA33A9341292
:1025A70010F7240BFFE435F0FEAB48AA49A94A12FD
:1025B700450EAB3EAA3FA940EF12106EAB3EAA3FB5
:1025C700A940120FD3540E6003022785AB35AA36F4
:1025D700A93775F00112115AAB38AA39A93A121066
:1025E700F7FFAEF0AB35AA36A9371210F76F7003B5
:1025F700E5F06E6003022785788CE66404600302C9
:10260700269BAB32AA33A9341210F72415FFE43501
:10261700F0FEAB48AA49A94A12450EE4FCFDFEAB01
:1026270029AA2AA92B121382AB29AA2AA92B12138A
:1026370032780812131F121382AB29AA2AA92BC0BA
:1026470003C002C001121332C004C005C006C00790
:10265700AB32AA33A9341210F72414FFE435F0FE85
:10266700AB48AA49A94A12450EE4AB07D007D006E2
:10267700D005D004EF4BFFEEEDECD001D002D00334
:10268700121382AB29AA2AA92B1213327808121324
:102697001F121382AB29AA2AA92BC003C002C001AB
:1026A700121332C004C005C006C007AB32AA33A953
:1026B700341210F7241BFFE435F0FEAB48AA49A9F2
:1026C7004A12450EE4AB07D007D006D005D004EF79
:1026D7004BFFEEEDECD001D002D003121382AB29F1
:1026E700AA2AA92B121332780812131F121382ABCE
:1026F70029AA2AA92BC003C002C001121332C004A1
:10270700C005C006C007AB32AA33A9341210F7249C
:102717001AFFE435F0FEAB48AA49A94A12450EE470
:10272700AB07D007D006D005D004EF4BFFEEEDEC9A
:10273700D001D002D003121382AB32AA33A93412CC
:1027470010F7240BFFE435F0FEAB48AA49A94A125B
:10275700450EAB3EAA3FA940EF12106EAB3EAA3F13
:10276700A940120FD330E413AB29AA2AA92B1213BD
:1027770032EFEEEDEC4410FC121382E4F547AB3276
:10278700AA33A934E475F02012115AAB32AA33A93F
:10279700341210F7D394FEE5F09401500302285247
:1027A700AB26AA27A928121332EF2401FFE43EFE25
:1027B700E43DFDE43CFC121382AB2CAA2DA92E129A
:1027C70013CCC000C001C002C003AB26AA27A928AA
:1027D700121332D003D002D001D000C3EF9BFFEE1B
:1027E7009AFEED99FDEC98FCAB2FAA30A931121394
:1027F700CCD31212FB4051AB26AA27A928121332B9
:10280700788FE6F54F08E6F550854851854952859A
:102817004A53124215AB44AA45A946EF12106EABB4
:1028270044AA45A946120FD36010AB29AA2AA92B9F
:1028370012141C80000000E4F547AB32AA33A93418
:10284700E4F5F01211928003E4F547E54760037F52
:102857000222AB29AA2AA92B121332E4FBFAF9F8B0
:10286700C31212FB700FAB23AA24A92512141C80D4
:102877000000008012AB29AA2AA92B121332AB231E
:09288700AA24A9251213827F0185
:012890002225
:07453C007B007A00798B225D
:1041B8007374617274696E672070726F6772616D73
:1041C8002E2E2E0A004D6F756E74696E672053444B
:1041D80020636172640A0053442063617264206D35
:1041E8006F756E7465640A005344206361726420BD
:1041F8006661696C656420746F206D6F756E740AF2
:0D420800005374617274696E672E2E2E00D3
:103A7400758E0C758F017F101245437F0F124569B7
:103A84007F2C7E011244547F807E251243681228C5
:103A940091EF600280FE1243307BFF7A4279097D08
:103AA4000BE4FF123EFA7BFF7A4179B81222677F5A
:103AB400407E0D7D037C00123DE28F22E522600CE6
:103AC4007F101245437F5312449E80FE7F4012456F
:103AD40043121E138F22E522600C7F101245437F90
:103AE4004312449E80FE7F401245617F007E2D7DFF
:103AF400317C01123DE28F22E522600C7F101245D9
:103B0400437F5012449E80FE7BFF7A4179CD12227E
:103B1400677E007F0012162AEF70157BFF7A4179C9
:103B2400DF1222677F101245617F80124543800BAC
:103B34007BFF7A4179F012226780FE7F0C12447A6F
:053B4400122B6A80FB5A
:103B490046696E64696E672042494F5320706172FD
:103B5900616D6574657220626C6F636B0A006572D2
:103B6900726F723A20636F756C64206E6F74206C8B
:103B79006F63617465204250420A006572726F7208
:103B89003A20464154313220756E737570706F72E8
:103B99007465640A0046415431362064657465636E
:103BA9007465640A00464154333220646574656360
:103BB9007465640A004572726F723A204641542056
:103BC9007479706520756E737570706F7274656441
:103BD9000A004572726F723A20636F756C646E27C2
:103BE900742066696E64206E65787420636C7573E1
:053BF9007465720A0072
:10162A00AA06A9077545018A46894712453C8B488F
:10163A008A49894A7BFF7A3B7949122267754F02A8
:10164A007550008545518546528547537F007E0077
:10165A007D007C00124215AB45AA46A947E4FFFE6D
:10166A0012450E8F23E4F540F53FF53EF53DE5239F
:10167A0064EB603BE52364E96035AB45AA46A947BC
:10168A007FC67E011241548F408E3F8D3E8C3D7540
:10169A004F0275500085455185465285475312427F
:1016AA0015AB45AA46A947E4FFFE12450E8F23E56E
:1016BA002364EB6012E52364E9600C7BFF7A3B79D3
:1016CA00671222677F0122AB45AA46A9477F0B7E94
:1016DA000012439DAB48AA49A94A900004EE8FF034
:1016EA001211B1900002E41210809000041211222B
:1016FA00FDACF0ED64014C6017AB48AA49A94A90C9
:10170A000002740112103BECC313FCED13FD80E3DD
:10171A00AB45AA46A9477F0D7E0012450EAB48AAE3
:10172A0049A94AEF12106EAB45AA46A9477F0E7E19
:10173A000012439D8E278F28AB45AA46A9477F10E2
:10174A007E0012450E8F24AB45AA46A9477F117E1B
:10175A000012439D8E258F26AB45AA46A9477F16C0
:10176A007E0012439D8E298F2AAB45AA46A9477F40
:10177A00137E0012439D8E2B8F2CAB45AA46A94798
:10178A007F2C7E001241548F448E438D428C41E55A
:10179A002A45296018AB45AA46A9477F167E00123A
:1017AA00439DE48F348E33F532F5318015AB45AA6B
:1017BA0046A9477F247E001241548F348E338D32DE
:1017CA008C31E52C452B600DE4852C38852B37F5BB
:1017DA0036F5358015AB45AA46A9477F207E00120B
:1017EA0041548F388E378D368C35AB48AA49A94A71
:1017FA00900004121122FDACF024FFFBEC34FFFA36
:10180A00E526AE257805C333CE33CED8F92BFFEAC9
:10181A003EFE1210A2E4FCFDAB48AA49A94A900078
:10182A001212139CAF24E4FCFDFEAB34AA33A93296
:10183A00A8311211DEA804A905AA06AB07E4FCFD2B
:10184A00EB2528FFEA3527FEED39FDEC38FCAB48DD
:10185A00AA49A94A9000121213ECEF2BFBEE3AFAAE
:10186A00ED39F9EC38F8C3E5389BF53CE5379AF5DC
:10187A003BE53699F53AE53598F539E4E52825400A
:10188A00FFE527353FFEE4353EFDE4353DFCAB4838
:10189A00AA49A94A90000E12139C90000E1213EC4A
:1018AA00C000C001C002C003AF24E4FCFDFEAB349B
:1018BA00AA33A932A8311211DED003D002D001D046
:1018CA0000EF2BFFEE3AFEED39FDEC38FCAB48AAEF
:1018DA0049A94A9000121213ECEF2BFFEE3AFEEDE3
:1018EA0039FDEC38FCAB48AA49A94A90000A121300
:1018FA009C120FD3FFE4FCFDFEF8F9FAAB07AF3CEC
:10190A00AE3BAD3AAC391212698F308E2F8D2E8CC8
:10191A002DE47FF57E0FFDFCAB30AA2FA92EA82D52
:10192A00C31212FB500C7BFF7A3B79841222677F29
:10193A000122E47FF57EFFFDFCAB30AA2FA92EA879
:10194A002DC31212FB505EAB48AA49A94A90000166
:10195A0074021210807BFF7A3B799E122267AB4891
:10196A00AA49A94A90000E1213ECC000C001C00295
:10197A00C003AF24E4FCFDFEAB34AA33A932A8317C
:10198A001211DED003D002D001D000EF2BFFEE3AC5
:10199A00FEED39FDEC38FCAB48AA49A94A9000068D
:1019AA0012139C806EAB48AA49A94A90000174049C
:1019BA001210807BFF7A3B79AE122267E54424FE3F
:1019CA00FFE54334FFFEE54234FFFDE54134FFFC09
:1019DA00A804C005C006C007AB48AA49A94A120F05
:1019EA00D3FFE4FCFDFED003D002D0011211DEAB1E
:1019FA0048AA49A94A90000A1213ECEF2BFFEE3AC3
:101A0A00FEED39FDEC38FCAB48AA49A94A9000061C
:051A1A0012139C7F0087
:011A1F0022A4
:083F7F008F2D8E2C8D2B8C2A56
:103F870012453C8B2E8A2F8930E4FFFEFDFCAB2DBA
:103F9700AA2CA92BA82AC31212FB700CAB2EAA2F8E
:103FA700A930900006021352E52D24FEFFE52C34BC
:103FB700FFFEE52B34FFFDE52A34FFFCA804C0050E
:103FC700C006C007AB2EAA2FA930120FD3FFE4FCFF
:103FD700FDFED003D002D0011211DEAB2EAA2FA90D
:103FE7003090000A1213ECEF2BFFEE3AFEED39FD8D
:033FF700EC38FCA7
:013FFA0022A4
:0831AF008F268E258D248C2350
:1031B70012453C8B328A33893475290185272A8544
:1031C700282B900001120FECFFE4FCFDFEAB26AAB2
:1031D70025A924A8231211DEC004C005C006C00714
:1031E700AB32AA33A934900004121122FFAEF0E4E7
:1031F700FCFDF8F9AA06AB07D007D006D005D00426
:10320700121269AB32AA33A93490000E1213ECEFF5
:103217002BFFEE3AFEED39FDEC38FCAB32AA33A9B1
:1032270034900004121122F55085F04F85295185FD
:103237002A52852B53124215AB32AA33A934900078
:1032470001120FECFFE4FCFDFEAB26AA25A924A87A
:10325700231211DEC004C005C006C007AB32AA3373
:10326700A934900004121122FFAEF0E4FCFDF8F936
:10327700AA06AB07D007D006D005D004121269AE54
:1032870002AF038E2C8F2DAB32AA33A934900001E5
:10329700120FECB40411AB29AA2AA92B124154EF3F
:1032A700EEEDEC540FFC22AB32AA33A934900001A7
:1032B700120FEC6402703BAB29AA2AA92BAF2DAEE3
:1032C7002C12439DE48F318E30F52FF52E7FFF7E34
:1032D700FFFDFCAB31AA30A92FA82EC31212FB7039
:1032E7000874FFFFFEFD7C0F22AF31AE30AD2FAC6F
:1032F7002E227BFF7A3B79BE122267E4FFFEFDFC9C
:0F330700227BFF7A3B79DB122267E4FFFEFDFC9D
:013316002294
:104403008D29EF70077F4012454D80057F4012458F
:104413006D7F8012456DAF291245797F8012454D1E
:0A4423007FFF1245797F4002456DCE
:104330007D38E4FF1244037F017E001244547D481F
:10434000E4FF1244037F017E001244547D01E4FF28
:104350001244037F027E001244547D0CE4FF124499
:08436000037F017E00024454BA
:083EFA008D238B248A25892603
:103F0200EFF46010EF4480FDE4FF1244037F017E72
:103F120000124454E5237038F527AB24AA25A926BC
:103F2200852782F583120FECF528E528604EFD7F88
:103F3200011244037F017E001244540527AB24AAD8
:103F420025A926852782758300120FECF52880DAD1
:103F5200E4F527E527C395235022AB24AA25A926F9
:103F6200852782758300120FECF528FD7F0112442C
:0C3F7200037F017E00124454052780D715
:013F7E002220
:05454300EFF452A0227C
:04456100EF42A02263
:1042F500AE077F801245617F401245617F201245E0
:10430500617F10124561EE30E0057F80124543EE76
:1043150030E1057F40124543EE30E2057F2012452E
:0B43250043EE30E3057F1012454322F9
:034579008F80220E
:05454800EFF452902287
:05454D00EFF452B02262
:04456500EF4290226F
:04456900EF42A0225B
:04456D00EF42B02247
:102DA0005344204361726420496E697469616C699F
:102DB0007A6174696F6E202E2E2E200A0D00434D0D
:102DC00044302073656E74202E2E2E2000526573C1
:102DD000706F6E7365203D2025322E3262580A0DC9
:102DE00000434D44382073656E74202E2E2E200033
:102DF000526573706F6E7365203D200025322E3250
:102E00006258200A0D0056657273696F6E2031207A
:102E1000534420436172642064657465637465641F
:102E20002E0A0D005374616E6461726420436170F8
:102E300061636974792043617264206465746563B9
:102E40007465642E0A0D0025322E32625820005619
:102E5000657273696F6E203220534420436172643F
:102E60002064657465637465642E0A0D00434D44E7
:102E700035382073656E74202E2E2E200041434D70
:102E80004434312073656E74202E2E2E2000546938
:102E90006D656F7574203D20256C75200A0D004806
:102EA0006967682043617061636974792043617266
:102EB000642044657465637465640A0D005374612D
:102EC0006E64617264204361706163697479204348
:102ED0006172642044657465637465640A0D00431F
:102EE0004D4431362073656E74202E2E2E200052F4
:102EF0006573706F6E7365203D2025322E326258E7
:102F0000200A0D00426C6F636B2073697A65207331
:102F1000657420746F203531322062797465730ACC
:102F20000D0053442054696D656F757420457272AD
:102F30006F7200496C6C6567616C20436F6D6D61E9
:102F40006E640A0D00526573706F6E736520457272
:102F5000726F72004461746120546F6B656E20451E
:102F600072726F7200496E636F6D70617469626C2A
:102F70006520566F6C7461676500436172642069F7
:102F80007320496E61637469766500535049206F00
:102F9000722054696D656F7574204572726F72008E
:0E2FA000556E6B6E6F776E204572726F720009
:0B369E00E4F55AF559F558F5577F3A4E
:0236A9008F563A
:1036AB00E4F55CE556C3944040030237A3E556446A
:1036BB0040F55B7B007A00795DFF1243D08F5EE5AE
:1036CB005E701CAF5AAE59AD58AC57781812130C2C
:1036DB008F5B7B007A00795D1243D08F5E80037520
:1036EB005C87E55C702FE55E702BE55AF55AE55962
:1036FB00F559E558F558E4F557AF5AAE59AD58ACF6
:10370B0057781012130C8F5B7B007A00795D124394
:10371B00D08F5E8003755C87E55C702DE55E70294C
:10372B00E55AF55AE559F559E4F558F557AF5AAE40
:10373B0059AD58AC57780812130C8F5B7B007A008D
:10374B00795D1243D08F5E8003755C87E55C7018E2
:10375B00E55E7014E55AFFE48F5BFB7A00795DAF91
:10376B005B1243D08F5E8003755C87E55C702CE544
:10377B005E7028E5567005755B95800DE556B408AF
:10378B0005755B878003755B017B007A00795DAF04
:0D379B005B1243D08F5E8003755C82AF5CD3
:0137A80022FE
:073D4900FB7A0079267F01DF
:083D50008F378B388A39893A5C
:103D5800E4F53C7B007A00793E7FFF1243D08F3D2B
:103D6800053BE53E30E708E53B6004E53D60E4E5FA
:103D78003D6005753C878052E53B7005753C818048
:103D880049AB38AA39A93AE53E12106EE53E6004FF
:103D980064017033E537D39401402F753B01E53B4F
:103DA800C3953750257B007A00793E7FFF1243D0B8
:103DB8008F3DAB38AA39A93A853B82758300E53E29
:103DC800121080053B80D7753C837B007A00793ED2
:093DD8007FFF1243D08F3DAF3C88
:013DE10022BF
:0A37A9008E568F578B588A59895AA3
:1037B300E4F55EF55FF55C7B007A00795D7FFF12CF
:1037C30043D08F5B055FE55F7002055EE55D30E723
:1037D3000AE55F455E6004E55B60DCE55B600675FA
:1037E3005C87023898E55F455E7006755C81023838
:1037F30098E55D6003023895F55EF55F7B007A001E
:10380300795D7FFF1243D08F5B055FE55F70020533
:103813005EE55DB4FF0AE55F455E6004E55B60DC81
:10382300E55B6005755C87806CE55F455E700575DB
:103833005C818061E55D64FE7053F55EF55FC3E511
:103843005F9557E55E955650287B007A00795D7F3A
:10385300FF1243D08F5BAB58AA59A95A855F828563
:103863005E83E55D121080055FE55F70D1055E80C4
:10387300CD7B007A00795D7FFF1243D08F5B7B00A5
:103883007A00795D7FFF1243D08F5B8008755C847B
:103893008003755C837B007A00795D7FFF1243D0E0
:0438A3008F5BAF5C2C
:0138A70022FE
:101E1300E4F524781E76FF7F101245717BFF7A2D3F
:101E230079A0122267E4F5237B007A00792E7FFFE5
:101E33001243D08F250523E523C3940A40EA7F800C
:101E43001245437BFF7A2D79BE1222677F1012451C
:101E530057E4F55AF559F558F557FF1236A98F256A
:101E6300E5257013123D498F257BFF7A2D79CD85AA
:101E7300264E12226780057F101245437F101245BC
:101E8300717F80124561E5256002F524E524600336
:101E9300021F727F801245437BFF7A2D79E1122264
:101EA300677F10124557E4755AAA755901F558F51D
:101EB300577F081236A98F25E5256003021F63FBB0
:101EC3007A0079267F05123D508F257F10124571C8
:101ED3007F80124561E525603F7BFF7A2D79F01203
:101EE30022677BFF7A2D79FC85264E122267E52532
:101EF300B48320E526B4051BE4F524781E76097B1C
:101F0300FF7A2E79061222677BFF7A2E792412221A
:101F130067805C85252480577BFF7A2D79F0122218
:101F230067E4F5237BFF7A2E794774262523F8E6A9
:101F3300F54E1222670523E523C3940540E67F0D82
:101F430012442D7F0A12442DE52A64AA60037525E5
:101F530083781E76027BFF7A2E794F122267800FD9
:101F63007F101245717F801245617F10124543E552
:101F7300246003021FFD7F801245437BFF7A2E7985
:101F83006D1222677F1012455712369E8F25E52565
:101F93007053FB7A0079267F05123D508F257F1001
:101FA3001245717F801245617BFF7A2D79F01222F1
:101FB30067E4F5237BFF7A2E794774262523F8E619
:101FC300F54E1222670523E523C3940540E67F0DF2
:101FD30012442D7F0A12442DE52854FC64FC60143E
:101FE300752585800F7F101245717F801245617FB3
:101FF30010124543E5256002F524E5246003022021
:10200300ED781EE6B4020CE4F532F531F530752FA8
:10201300408009E4F532F531F530F52FE4F536F576
:1020230035F534F5337F201245437BFF7A2E797DD6
:102033001222677F10124557E4F55AF559F558F502
:10204300577F371236A98F25E5257005123D498F35
:1020530025E52664016004E526701385325A85312F
:1020630059853058852F577F291236A98F25E525A5
:102073007003123D497F10124571E5362401F53690
:10208300E43535F535E43534F534E43533F533E407
:10209300FFFEFDFCAB36AA35A934A833C31212FBED
:1020A3007003752581E52630E004E5256085E52587
:1020B30070137F201245617BFF7A2D79CD85264EE3
:1020C300122267800A7F801245617F101245437B8D
:1020D300FF7A2E798E85365185355085344F853379
:1020E3004E122267E5256002F524E52460030221F0
:1020F300FA781EE6640260030221FA7F80124543E8
:102103007BFF7A2E796D1222677F101245571236A4
:102113009E8F25E52560030221E0FB7A0079267F67
:1021230005123D508F257F101245717F8012456146
:102133007BFF7A2D79F0122267E4F5237BFF7A2E59
:10214300794774262523F8E6F54E1222670523E521
:1021530023C3940540E67F0D12442D7F0A12442DBC
:10216300E52720E7067525860221EFE52754C0FF02
:10217300BFC00FE4781EF67BFF7A2E799F12226789
:10218300806A781E76097BFF7A2E79BD1222677FDB
:10219300801245437BFF7A2E79DF1222677F10126C
:1021A3004557E4F55A755902F558F5577F1012361D
:1021B300A98F25E5257035123D498F257F101245DE
:1021C300717F801245617BFF7A2E79EF85264E124F
:1021D30022677BFF7A2F7904122267800F7F101208
:1021E30045717F801245617F10124543E5256007E5
:1021F300F524AF241240E6E5246004FF1240E6AF65
:0122030024B6
:0122040022B7
:05455200781EE6FF22C7
:1040E6008F37E537B481097BFF7A2F792202226761
:1040F600E537B482097BFF7A2F7933022267E537E9
:10410600B483097BFF7A2F7945022267E537B484A9
:10411600097BFF7A2F7954022267E537B485097B3C
:10412600FF7A2F7965022267E537B486097BFF7A25
:104136002F797A022267E537B487097BFF7A2F79D0
:0E4146008B0222677BFF7A2F79A0122267225C
:084215008F4E8E4D8D4C8C4B39
:10421D001245528F547F10124557AF4EAE4DAD4CD7
:10422D00AC4BA954A80112131F8F5A8E598D588C5F
:10423D00577F111236A98F55E555700DAB51AA5206
:10424D00A953AF50AE4F1237A97F10124571E555E6
:07425D0060037F01227F00D6
:014264002237
:0C450E005306018F828E83120FECFF22F7
:0A439D008E4B8F4C8B4D8A4E894FDA
:1043A700534B01E4FDFCE54C2401FFE4354B8F82C0
:1043B700F583120FECFD7D00FC854C82854B831243
:0843C7000FECFFE4EFFDAE0472
:0143CF0022CB
:044154008E4B8F4CB3
:10415800534B01E4F550F54FF54EF54DF552AF527E
:10416800C374039552CFE49400CF254CCF354B8FC1
:1041780082F583120FECF551AF50AE4FAD4EAC4DFA
:10418800780812131F8F508E4F8D4E8C4DE4E550DA
:104198004551F550E54FF54FE54EF54EE54DF54DDA
:0F41A8000552E552B404B7AF50AE4FAD4EAC4D1B
:0141B70022E5
:103DE200E4F523AB07AA06A905A804FF7E407D19C6
:103DF2007C01121269EFD39402500575C370806979
:103E0200EFD39402400BEFD39404500575C3718035
:103E120058EFD39404400BEFD39408500575C37246
:103E22008047EFD39408400BEFD39410500575C32D
:103E3200738036EFD39410400BEFD3942050057566
:103E4200C3F08025EFD39420400BEFD3944050056C
:103E520075C3F18014EFD39440400BEFD39480509C
:0B3E62000575C3F2800375230FAF232A
:013E6D002232
:1043D000E4FE8FC5AFC40EEF54F07003EE70F5EE3F
:1043E0006017EF54707009E5C512106EE4FE80107E
:1043F00074FF12106EE4FE800774FF12106E7E8050
:02440000AF0605
:014402002297
:04457100EF42902263
:05455700EFF452902278
:104454005389F0438901C2A9758CF4758A3DC28DD4
:10446400D28C308DFDC28CEF1F70011ED3EF9400EF
:06447400EE940050E3226B
:1043680053873F438780C2AC759852E4F59BFCFDA8
:104378007BC0FAF9F81211DEA804A905AA06AB0752
:10438800E4FFFE7D2F7C0D121269EFF404F59A7597
:054398009B1ED29922DA
:10449E00E4FDFC0DBD00010C209904ED4C70F4ED13
:0F44AE004C60088F99AE07C29980027EF1AF066D
:0144BD0022DC
:0A451A002098037F0022AF99C29899
:014524002274
:063FFB007B017A00790051
:104001008B278A288929E4FFFEFDFCAB0BAA0AA9AC
:1040110009A808C31212FB7013AF1DAE1CAD1BAC77
:104021001A123F7F8F128E118D108C0FE512250B06
:10403100FFE511350AFEE5103509FDE50F3508FCF0
:10404100AB0CAA0DA90E900004121122F55085F0B7
:104051004F852751852852852953124215E50B2496
:1040610001F50BE4350AF50AE43509F509E43508EB
:03407100F508222D
:104265008F268E258D248C23751303E4F51475157F
:1042750001F516F517F518F51912453C8B0C8A0D45
:10428500890EAF26AE25AD24AC23123F7F8F128E4B
:10429500118D108C0FE4F50BF50AF509F508852647
:0D42A5001D85251C85241B85231A023FFB67
:064074008B238A2489253C
:10407A007F08124565AB26AA27A9281210F7FFAEBA
:10408A00F0C3EE94025029209226AB23AA24A92534
:10409A008F828E83120FECFF7B007A00792C1243F9
:1040AA00D0AB26AA27A928E475F00112115A80C5B7
:1040BA007F08124548AB26AA27A9281210F7B40090
:1040CA0018E5F0B40213E4F5F0121192AB29AA2A0A
:0B40DA00A92B740112106EFF227F0062
:0140E50022B8
:102FAE00E513B4090040030231A4902FBFF828287E
:102FBE0073022FDA0230220230330230650230BD46
:102FCE0002310502311602314D02319F7F0112424C
:102FDE00F5AF1DAE1CAD1BAC1A752700752800127F
:102FEE0031AF8F1D8E1C8D1B8C1A74FFFFFEFD7C66
:102FFE000FAB1DAA1CA91BA81AC31212FB600FE46B
:10300E00F50BF50AF509F5087513050231A47513CC
:10301E00080231A47F021242F53092030231A475E8
:10302E0013030231A47F031242F5AB0CAA0DA90EB5
:10303E00120FD3FFE4FCFDFEAB0BAA0AA909A808E8
:10304E00C31212FB7005F5130231A4123FFBE4F517
:10305E00147513050231A47F041242F520921DE56A
:10306E00147019F526752700752816F529752A008E
:10307E00752B147B017A007900124074309206E5AC
:10308E00156401600AE514B4010BE515B40106756B
:10309E0013060231A4E514B4010920920675130734
:1030AE000231A42092030231A47513010231A47FD0
:1030BE00051242F5AF1DAE1CAD1BAC1A752702757D
:1030CE0028001231AF8F1D8E1C8D1B8C1A74FFFFC2
:1030DE00FEFD7C0FAB1DAA1CA91BA81AC31212FB66
:1030EE00600FE4F50BF50AF509F5087513010231C9
:1030FE00A47513080231A47F061242F53092030222
:10310E0031A47513070231A47F071242F5AB0CAA46
:10311E000DA90E120FD3FFE4FCFDFEAB0BAA0AA9FC
:10312E0009A808C31212FB700575130480687B0191
:10313E007A027900124001E4F51575130180577F6C
:10314E00081242F520921DE5157019F52675270017
:10315E00752818F529752A00752B157B017A0279C9
:10316E0000124074309206E5146401600AE514B44E
:10317E00010AE515B40105751302801AE515B401AF
:10318E0008209205751303800D30920A7513058081
:10319E00057F091242F5E513B408037F01227F0073
:0131AE0022FE
:0238A8008F3B54
:1038AA00D290D291E4F546E54075F008A4F54005BA
:1038BA00412091030239922090030239921244EF77
:1038CA00E53B25E0F5455345FEC2907547087F0163
:1038DA001244C4C2911547AF47E545A807088002BC
:1038EA00C313D8FC5401F5481244BED2913091FD5D
:1038FA00A290E433F54965486003754681E547D3EC
:10390A0094004004E54660C6E546704F7F011244C4
:10391A00C4C291D290E540601524F8F540AF3FAE9D
:10392A003EAD3DAC3CF9F812130C8F458018154199
:10393A00AB42AA43A944120FD3F54574012544F5B5
:10394A0044E43543F5437F011244C4D2913091FDDA
:10395A00A290E433F5496003754682E5416007E5C4
:10396A004670030238D5E5466481601F7F01124420
:10397A00C4C291C2907F011244C4D2913091FD7F9A
:0D398A00021244C4D2908003754681AF46FE
:01399700220D
:023317008F2BFA
:10331900E4F536E530601F852F3F852E3E852D3D2E
:10332900852C3CF540E4F5418532428533438534AB
:10333900441238A88F36E5366003023458D290D249
:10334900912091030234552090030234551244EF21
:10335900E52B25E0F535433501C2907537087F0126
:103369001244C4C2911537AF37E535A80708800262
:10337900C313D8FC5401F5381244BED2913091FDE3
:10338900A290E433F53965386003753681E537D3A2
:1033990094004004E53660C6E536701E7F0112448C
:1033A900C4C291D2907F011244C4D2913091FDA23E
:1033B90090E433F5396003753682E531D3940040E2
:1033C90069E53670657537087F011244C4C29115E5
:1033D90037D290E53A25E0F53A7F011244C4D291FB
:1033E9003091FDA290E433F539423AE537D39400A0
:1033F90050D6AB32AA33A934E53A12106E740125BE
:1034090034F534E43533F533E531B4010575380164
:103419008003E4F5387F011244C4C291E5381244AF
:10342900BED2913091FD15318090E5366481601FDF
:103439007F011244C4C291C2907F011244C4D29147
:103449003091FD7F021244C4D2908003753681AF5A
:01345900363C
:01345A00224F
:1044EF005389F0438901C2A9758CFF758AC3C28DA8
:0344FF00D28C223A
:0644BE0024FF92907F0133
:1044C400308C03308DFDC28CBF010A758CFF758A58
:0644D400C3C28DD28C2250
:10345B004F75747075742066726F6D2049442072BD
:10346B00656769737465723A2025322E3262582073
:10347B000A0D0053544130313320536F6674566537
:10348B007273696F6E3A2025322E326258200A0D04
:10349B00002E000A466972737420636F6E6669674B
:1034AB0075726174696F6E2066696C652073656EE9
:1034BB00742E2E2E0A004E756D626572206F66207B
:1034CB0076616C756573207772697474656E3A20DA
:1034DB002564200A000A5365636F6E6420636F6E68
:1034EB0066696775726174696F6E2066696C6520B9
:1034FB0073656E742E2E2E0A0053656E7420746FD6
:10350B00205354413031333A2025322E3262582029
:10351B002025322E326258200A0D004F75747075BB
:10352B00742066726F6D2072656769737465723A89
:10353B002025322E326258202025322E326258201E
:10354B0025322E326258200A0D00436F6E66696772
:10355B0075726174696F6E20436F6D706C65746505
:10356B000A0D005455060B525165645061050D1838
:10357B000C4648720007100902B80000000605A1AE
:07358B000004050C0C010017
:05455C00EFF452B02253
:04457500EF42B0223F
:102891007F0812455C78A57601752432124575E4EE
:1028A100F52FF52EF52DF52CF530753103F5327533
:1028B10033007534A87F431233178F231524E52382
:1028C1006004E52470D9E524600E7BFF7A34795BDE
:1028D10078AAE6F54E122267E4752F01F52EF52D43
:1028E100F52C753001753101F5327533007534A859
:1028F1007F431233178F231524E5236004E52470E9
:10290100D7E524600E7BFF7A34795B78A8E6F54E33
:1029110012226778A8E664AC6003022B67752F71F9
:10292100F52EF52DF52C753001753101F532753324
:10293100007534A87F431233178F237BFF7A3479D4
:102941007E78A8E6F54E122267E4F529F52A752668
:10295100FF752700752803AB26AA27A928852A8297
:10296100852983120FECF525052AE52A7002052930
:10297100F582852983120FEC78A5F6052AE52A70E0
:10298100020529543F70097BFF7A34799C12226732
:10299100E525F4602F752432E485253FF53EF53DAC
:1029A100F53C754001754101F5427543007544A53B
:1029B1007F431238A88F23D52402C2A7E5236004E0
:1029C100E52470D4E525F46004E524708A7BFF7A60
:1029D10034799E1222677BFF7A3479C1E529C313CA
:1029E100F54EE52A13F54F122267E4F529F52A750C
:1029F10026FF75270F7528A1AB26AA27A928852AA6
:102A010082852983120FECF525052AE52A70020536
:102A110029F582852983120FEC78A5F6052AE52A86
:102A210070020529540770097BFF7A34799C1222C0
:102A310067E525F4602F752432E485253FF53EF5E1
:102A41003DF53C754001754101F542754300754402
:102A5100A57F431238A88F23D52402C2A7E523609E
:102A610004E52470D4E525F46004E524708A7BFF35
:102A71007A3479E01222677BFF7A3479C1E529C380
:102A810013F54EE52A13F54F122267E4752F71F500
:102A91002EF52DF52C753001753101F532753300A8
:102AA1007534A87F431233178F237BFF7A34797EE5
:102AB10078A8E6F54E122267E4F529F52AAF2AEF48
:102AC10090356E93F525EF9035809378A5F67524B2
:102AD10032E485253FF53EF53DF53C7540017541F4
:102AE10001F5427543007544A57F431238A88F2331
:102AF100D52402C2A7E5236004E52470D47BFF7AC4
:102B010035790485254E78A5E6F54F122267E52A29
:102B110090356E93F525FFE48F2FF52EF52DF52CCD
:102B2100753001753101F5327533007534A87F4375
:102B31001233178F237BFF7A35792685254E78A8A6
:102B4100E6F54F852350122267052AE52A70020512
:102B510029C39411E52994005003022ABE7BFF7A10
:082B6100357955122267AF23FC
:012B69002249
:100003003A012A04280029002000210022002300AD
:10001300240025002600270028012802218F280319
:100023002100280428052806280728082809280A63
:10003300280B280C20802190280D20002100280E59
:1000430020812191280F20002192281021002811BE
:1000530021932812210028132814281520822816FA
:1000630020002817281828192194281A2195281BBD
:100073002196281C2100281D2083281E2000281FCC
:1000830021972820210028212822282328242825D5
:100093002826282728282829282A2084282B2000B6
:1000A300282C282D282E282F283028312832208547
:1000B3002833200028342835283628372198283833
:1000C30021002839283A283B283C283D283E283F50
:1000D30028402841284228432844284528462847C1
:1000E30028482849284A284B284C284D284E284F71
:1000F3002850285128522853285428552856285721
:1001030028582859285A285B285C285D285E285FD0
:1001130028602861286221992863210028642865C2
:100123002866286728682869286A286B286C286D40
:10013300286E286F287028712872287328742875F0
:100143002876287728782879287A287B287C287DA0
:10015300287E287F28802881288228832884288550
:100163002886288728882889288A288B288C288D00
:10017300288E288F289028912086289220872893DC
:100183002000289428952896289728982899289A13
:10019300289B289C289D289E289F219A28A02100DF
:1001A30028A128A228A328A428A528A628A728A8E8
:1001B30028A928AA28AB28AC28AD28AE28AF28B098
:1001C30028B128B228B328B428B528B628B728B848
:1001D30028B9208828BA200028BB208928BC200001
:1001E30028BD28BE28BF28C028C128C228C3219BF8
:1001F30028C4210028C528C628C728C828C928CA52
:1002030028CB28CC28CD28CE28CF28D028D128D237
:1002130028D328D428D528D628D728D828D928DAE7
:1002230028DB28DC28DD28DE28DF28E028E1208AF7
:1002330028E2208B28E3200028E428E528E628E7A5
:1002430028E828E928EA28EB28EC28ED28EE28EF0F
:1002530028F028F128F228F328F428F528F628F7BF
:1002630028F8208C28F92000219C28FA219D28FBBE
:10027300208D219E28FC208E219F28FD2000210017
:1002830028FE28FF2A012800220123952489250717
:1002930026A42707280121C72200238026C4270C70
:1002A30028022009211C220426AA270A2803200049
:1002B3002100220023A626A02707280428052005BD
:1002C300238426B42709280620002203230024813F
:1002D30025C026AB270A280721AE220023952489AF
:1002E300250726A42700280821482201238026C4A5
:1002F300270C280920092104220426AA270A280AF0
:1003030020002100220023A826A42707280B280C5D
:1003130021402220238026C4270C280D222426C610
:10032300280E219E220026C8280F2009210222140C
:1003330026AA270A2810200521002200238426B498
:1003430027092811200021012300240125C026AB01
:10035300270A281221C3239524892507262027004D
:100363002813200321C223832626270D281421B313
:0E03730022082815200021C62200239526000E
:1003810027082816210023002496250326AA270AD8
:100391002817204221B62380248925072818200008
:1003A10021002394260E2819200F238426B427091F
:1003B100281A2000239326A82703281B2628270074
:1003C100281C21012300240125C026AB270A281D52
:1003D10021C523952489250726202700281E2100D1
:1003E10023942600270A281F260E2820200321797E
:1003F100220123832626270D2821213228222000AD
:10040100210422002380240025FC26AA270A282370
:10041100210023002500282421A3220D2380249ECE
:10042100253B2825204221572201248925072826FA
:1004310020002143220D2400253828272108229855
:100441002395248925072624270028282042219343
:100451002201238026AA270A28292003217E22049B
:1004610023832626270D282A200021B02200239548
:1004710026A02707282B21002300240C250426AAC7
:10048100270A282C21022380248625C326AB282D68
:100491002042219722012489250726AA282E2000FF
:1004A10021002200241F2504282F21B2239524890D
:1004B10025072620270428302042218B220423806F
:1004C10026AA270A2831200021B12200239526A03F
:1004D1002707283220032175220423832626270D8E
:1004E1002833200521002200238426B4270928343B
:1004F100200021602300240125C026AB270A2835CE
:1005010021082298239524892507262427002836A7
:1005110021BC2200283721A3220D2300240125C05C
:1005210026AB270A283821602200238024002538A1
:1005310026AA2839210622982395248925072624CD
:100541002700283A21BE2200283B200521002384D0
:1005510026B42709283C200021602300240125C05E
:1005610026AB270A283D214222012395248925070C
:1005710026242700283E210C229826A42707283F5D
:1005810021082840216022002300240125C026AB38
:10059100270A2841210C22982395248925072624FE
:1005A10027002842200521002200238426B42709A0
:1005B1002843200023802400251026AB270A284445
:1005C1002122220123952489250726242700284555
:1005D1002100220023002404251226AA270A2846E6
:1005E100200321D422052383248925072626270DCC
:1005F10028472000216022002300240125C026ABCA
:10060100270A284821B3239524892507260027088E
:100611002849210023002409250026AA270A284A5F
:10062100210223802486253B284B204221DD2205FF
:1006310024892507284C200021002200241F2500A1
:10064100284D21B323952489250726202700284EEC
:10065100210023002497250326AA270A284F204298
:1006610021E222052380248925072850200021101A
:1006710022002300248025CC26AB285121002240D2
:1006810023B42489250726AA27042852220023B04F
:100691002692270928532114220123952600270891
:1006A1002854214823A4262A270028552100220066
:1006B10023002409250026AA270A28562108238079
:1006C1002486253B2857204221112207248925070A
:1006D1002858200021002200241F25002859211418
:1006E100220123952489250726202700285A21162F
:0E06F10026022709285B210022002300248016
:1006FF00254826AA270A285C23A024892507261423
:10070F002709285D2480255026A42704285E21165A
:10071F0022012395248925072700285F2104220021
:10072F002300249C257826AA270A28602143220D1E
:10073F00240125C426AB2861210322002415286239
:10074F0021002400250026AA2863215E23952489F1
:10075F00250726102709286421032300241525C403
:10076F0026AB270A2865210023802400250626AA08
:10077F002866248F25E326AB2867204221CD220748
:10078F002489250726AA286820002160220023003B
:10079F00240125C026AB286921002380248F25033F
:1007AF0026AA286A204221DD220724892507286BE3
:1007BF0020002143220D2300240125C026AB286CE5
:1007CF00210022002400250426AA286D2003217F62
:1007DF0022012383248925072626270D286E2162CF
:1007EF00286F200521002200238426B427092870B2
:1007FF0020002106239526002708287121012300B8
:10080F002497253B26AA270A28722042210E220868
:10081F0023802489250728732003213C220B23835F
:10082F002626270D28742000210322002395260257
:10083F002708287521272300248125C426AB270AE2
:10084F002876210023802409254826AA28772158B5
:10085F00223423A324892507262A2700287821005C
:10086F00220023A0260027092879210723802403AB
:10087F00253926AA270A287A21042300241C253883
:10088F00287B2107238024832539287C2103239566
:10089F002489250726022708287D21272300248164
:1008AF0025C426AB270A287E21002380240925484A
:1008BF0026AA287F2158223423A324892507262AF4
:1008CF0027002880210622002300248125C026939B
:1008DF0027012881210023802489254826AA270A59
:1008EF0028822002216622082300240025662883FF
:1008FF002000210022002380241F250228842106A6
:10090F002489250726DC270C2885210023AA26AA5F
:10091F00270A288623B626002708288723802486BF
:10092F00253B26AA270A288821052489250726DCA6
:10093F00270C2889210023AA26AA270A288A23B64A
:10094F0026002708288B23802486253B26AA270AE2
:10095F00288C2042217B220824892507288D2000FE
:10096F0021002200230024012582288E21052481C5
:10097F0025C226AB288F20032193220823832489A5
:10098F0025072626270D2890200021052200230069
:10099F00248125C026132701289121002380248933
:1009AF00254826AA270A28922002217E2208230002
:1009BF002400256628932000210022002380241F75
:1009CF002502289421052489250726DC270C289544
:1009DF00210023AA26AA270A289623B6260027082D
:1009EF00289723802486253B26AA270A28982105A5
:1009FF002489250726DC270C2899210023AA26AA5B
:100A0F00270A289A2380241F2502289B21012300CF
:100A1F00248125C226AB289C2003219322082383FF
:100A2F00248925072626270D289D20002104220032
:100A3F00239526122708289E216023C426AA27045F
:100A4F00289F210023C02600270928A0204221CB60
:100A5F002208238026AA270A28A12070215422B811
:0E0A6F0023952612270828A2200221CC220857
:100A7D00238026AA270A28A3200321CA220F238315
:100A8D002626270D28A42000210022002300248CD7
:100A9D00250C26AA270A28A521042482257828A614
:100AAD0021002380248925482612270428A7200306
:100ABD0021DE220F238325072626270D28A82000B7
:100ACD00210122002300249C257826AA270A28A983
:100ADD00210023802481254028AA200321CF220F25
:100AED002383248925072626270D28AB207021086E
:100AFD0022B8239526A0270428AC200321D4220F49
:100B0D0023832626270D28AD2127220B28AE207002
:100B1D00216322B823952612270828AF2000210132
:100B2D0022002380248625CB26AB270A28B020421D
:100B3D0021DD22082489250726AA28B120002118A5
:100B4D002280239526A4270028B2200321D9220F25
:100B5D0023832626270D28B32070210A22B823953A
:100B6D0026A0270028B4200221E02208238026AAEF
:100B7D00270A28B52070210A22B8239526A0270020
:100B8D0028B621542602270828B7200021182280D4
:100B9D0026A4270028B82100220023802480254880
:100BAD0026AA270A28B92070215E22B82395248908
:100BBD0025072612270828BA2000210022002380AD
:100BCD002409254B26AA270A28BB2070215F22B8AD
:100BDD002395248925072610270828BC20002100ED
:100BED0022002300241C258326AB270A28BD2003C1
:100BFD00213222092383248925072626270D28BE85
:100C0D0020002100220023002482258C26AB270AF8
:100C1D0028BF200321252209238324892507262681
:100C2D00270D28C0204221BC238026AA270A28C1CF
:100C3D002000210122002300240125C026AB28C25B
:100C4D002070210F22B823952489250726202700FF
:100C5D0028C3200321E3220F23832626270D28C432
:100C6D00200521002200238426B4270928C5200051
:100C7D00210323952614270828C621A623A4262A56
:100C8D00270528C7210023A02644270928C8211895
:100C9D00226D2380249E257B26AA270A28C920425F
:100CAD002113220B2489250728CA200021AE2200FA
:100CBD0023952624270028CB210022032380248777
:100CCD00257B26AA270A28CC20422116220B24890F
:100CDD00250728CD200021AE2200239526242700AC
:100CED0028CE20052100238426B4270928CF2003F0
:100CFD00210D220B23832626270D28D0200021002D
:100D0D002200230024802602270028D123802409D5
:100D1D002548261E28D22158223423332480250726
:100D2D00262A28D32100220023002680271028D42C
:100D3D0021102363262A270028D52100236026A809
:100D4D00271228D621AF224C230026C8270C28D7DE
:100D5D00210022002680270528D823802486253BC4
:100D6D00261E270028D92042211C220E2300248074
:100D7D00250728DA20002135222926C4270C28DB57
:100D8D002002211D220E261E270028DC2000217F97
:100D9D00223426C4270C28DD210022002390249F15
:100DAD0025042610270A28DE23002484250026800A
:100DBD00271028DF2106236324802507262A2700F4
:100DCD0028E021002380248926AA270A28E120056E
:100DDD00238426B4270928E22070216122B82395A7
:0E0DED002612270828E320002101220023807F
:100DFB00248625C326AB270A28E4204221CE220FC6
:100E0B002489250726AA28E52070215022B823958E
:100E1B002612270828E6200521002200238426B469
:100E2B00270928E72070216422B82395261227086A
:100E3B0028E82000210122002380248625C326AB2D
:100E4B00270A28E9204221D3220F2489250726AA25
:100E5B0028EA2070215122B823952612270828EB67
:100E6B00200521002200238426B4270928EC2070BA
:100E7B00216522B823952612270828ED2000210191
:100E8B0022002380248625C326AB270A28EE204286
:100E9B0021D8220F2489250726AA28EF207021525A
:100EAB0022B823952612270828F0200521002200BE
:100EBB00238426B4270928F12070216122B82395B9
:100ECB002602270828F220002101220023802486F5
:100EDB0025C326AB270A28F3204221DD220F2489C4
:100EEB00250726AA28F42070215022B82395260224
:100EFB00270828F5200521002200238426B4270982
:100F0B0028F6200021012380248625CB26AB270A37
:100F1B0028F7204221E1220F2489250726AA28F849
:100F2B002000210222002300248125C426AB28F9AE
:100F3B00210023802489254826AA28FA200523840A
:100F4B00250726B4270928FB2070214E22B82395AC
:100F5B002610270828FC200021002200238024864D
:100F6B0025C326AB270A28FD204221E7220F24891F
:100F7B00250726AA28FE200021BB22002395262028
:100F8B00270028FF20052100238426B427092A08DF
:100F9B001001FFFFFFFF3A00643A65BB083A09BB3B
:100FAB0050105267517705A11804540155210700C1
:100FBB00060C0B03501051005204610F645565551C
:080FCB0005A11804FFFFFFFF60
:1042B2000A4572726F723A20696E76616C69642087
:1042C200656E7472792063686F6963652E2054721B
:1042D2007920616761696E3A0A000A456E746572F7
:1042E20020616E20656E747279206E756D626572E2
:0342F2003A0A0085
:07450600016800C109C10AB0
:102B6A00E56DB407004003022D9F902B7BF82828BF
:102B7A0073022B90022C8A022BC0022CC4022D193C
:102B8A00022D6C022D807F011242F512451A8F72B6
:102B9A00E5726003756D02300903756D03300A032F
:102BAA00756D04124525D3EF9400EE94005003028C
:102BBA002D9F756D01227F021242F5E572640D7038
:102BCA006FAE60AF61FCFDAB71AA70A96FA86ED33E
:102BDA001212FB5017AE70AF71856C28856B278572
:102BEA006A26856925123BFED20A8036124535C00F
:102BFA0003C002C001124525D001D002D003E92F3B
:102C0A00F9EA3EFA754EFF754F427550B2122261CB
:102C1A00C006C007124525D0E02FFFD0E03EFE12C5
:102C2A00452DE4F568F56DF571F570F56FF56E22D1
:102C3A00E572C394304045E572D39439503EAF7281
:102C4A0012442DE47F0AFEFDFCAB71AA70A96FA89D
:102C5A006E1211DEA804A905AA06AB07E57224D0F4
:102C6A00FFE434FFFEE4FCFDEB2FF571EA3EF5705C
:102C7A00ED39F56FEC38F56EE4F56D22E4F56D2269
:102C8A007F031242F5124535E92563F9EA3562FAFE
:102C9A00120FD3FF12442D0563E563700205621219
:102CAA004525D3E5639FE5629E400BE4FFFE12458E
:102CBA002DE4F562F563E4F56D227F041242F57B9B
:102CCA00007A007960121A20BF0209E4F562F563FE
:102CDA00756D0122C209756D01124535C003C00226
:102CEA00C001124525D001D002D003E92FF9EA3EEE
:102CFA00FA754EFF754F427550DC122261C006C04C
:102D0A0007124525D0E02FFFD0E03EFE02452D7F79
:102D1A00051242F57B007A007964122561BF02042C
:102D2A00E4F56D22C20AE4FFFEFDE5645410FC607E
:102D3A002DE4F56DE567F567E566F566E565F56524
:102D4A00E564540FF564AF67AE66AD65FC123F7F6C
:102D5A008F6C8E6B8D6A8C69123CAFD20922756DAD
:102D6A0005227F061242F5AF67AE66AD65AC641206
:102D7A004265756D06227F071242F5122FAEEF707B
:102D8A0004756D0622AF6CAE6BAD6AAC69123CAFCE
:062D9A00D209E4F56D22F0
:10447A008F2312453C9000061213528F6C8E6B8D5F
:10448A006A8C69123CAFD209E4F571F570F56FF5E3
:04449A006EF56D222C
:03000000023E6E4F
:0C3E6E00787FE4F6D8FD7581AA023EB50D
:100FD300BB010689828A83E0225002E722BBFE021C
:090FE300E32289828A83E493224F
:100FEC00BB010CE58229F582E5833AF583E02250BA
:100FFC0006E92582F8E622BBFE06E92582F8E22204
:0D100C00E58229F582E5833AF583E493221D
:10101900BB010989828A83F8E028F022500327F767
:1010290022BBFE05F8E328F3228A838982F8E49338
:0210390028226B
:10103B00BB010FF8E58229F582E5833AF583E028B9
:10104B00F0225009C58229F8E58226F622BBFE095B
:10105B00C58229F8E22582F222F8EA2583F583E995
:03106B00932822A5
:10106E00BB010689828A83F0225002F722BBFE0161
:02107E00F3225B
:10108000F8BB010DE58229F582E5833AF583E8F0A6
:10109000225006E92582C8F622BBFE05E92582C852
:0210A000F2223A
:1010A200BC000BBE0029EF8DF084FFADF022E4CC32
:1010B200F875F008EF2FFFEE33FEEC33FCEE9DECFB
:1010C200984005FCEE9DFE0FD5F0E9E4CEFD22ED41
:1010D200F8F5F0EE8420D21CFEADF075F008EF2F8B
:1010E200FFED33FD4007985006D5F0F222C398FD7C
:0510F2000FD5F0EA2219
:1010F700BB010A89828A83E0F5F0A3E022500687C4
:10110700F009E71922BBFE07E3F5F009E319228985
:0B111700828A83E493F5F074019322B8
:10112200BB0110E58229F582E5833AF583E0F5F00B
:10113200A3E0225009E92582F886F008E622BBFEE8
:101142000AE92582F8E2F5F008E222E5832AF5832E
:08115200E993F5F0A3E99322F3
:10115A00BB010789828A830214DE500B09C5F02776
:10116A00F7C5F01937F722BBFE0D09F8E325F0F3AE
:10117A00C5F019E338F322F889828A83740193252A
:08118A00F0C5F0F8E4933822EF
:10119200BB010A89828A83F0E5F0A3F0225006F7A8
:0F11A20009A7F01922BBFE06F3E5F009F31922A5
:1011B100F8BB0111E58229F582E5833AF583E8F070
:1011C100E5F0A3F0225009E92582C8F608A6F0222D
:0D11D100BBFE09E92582C8F2E5F008F22214
:1011DE00E88FF0A4CC8BF0A42CFCE98EF0A42CFCB0
:1011EE008AF0EDA42CFCEA8EF0A4CDA8F08BF0A42E
:1011FE002DCC3825F0FDE98FF0A42CCD35F0FCEB8D
:10120E008EF0A4FEA9F0EB8FF0A4CFC5F02ECD3951
:0F121E00FEE43CFCEAA42DCE35F0FDE43CFC22BE
:10122D0075F008758200EF2FFFEE33FECD33CDCC78
:10123D0033CCC58233C5829BED9AEC99E5829840FB
:10124D000CF582EE9BFEED9AFDEC99FC0FD5F0D6D8
:10125D00E4CEFBE4CDFAE4CCF9A88222B800C1B902
:10126D000059BA002DEC8BF084CFCECDFCE5F0CB40
:10127D00F97818EF2FFFEE33FEED33FDEC33FCEB79
:10128D0033FB10D703994004EB99FB0FD8E5E4F934
:10129D00FA227818EF2FFFEE33FEED33FDEC33FC21
:1012AD00C933C910D7059BE99A4007EC9BFCE99A15
:1012BD00F90FD8E0E4C9FAE4CCFB2275F010EF2F5A
:1012CD00FFEE33FEED33FDCC33CCC833C810D7075A
:1012DD009BEC9AE899400AED9BFDEC9AFCE899F895
:0E12ED000FD5F0DAE4CDFBE4CCFAE4C8F92228
:1012FB00EB9FF5F0EA9E42F0E99D42F0E89C45F049
:01130B0022BF
:10130C00E8600FECC313FCED13FDEE13FEEF13FFBF
:03131C00D8F122E3
:10131F00E8600FEFC333FFEE33FEED33FDEC33FC2C
:03132F00D8F122D0
:10133200BB010789828A830214F45005E9F802137B
:10134200C0BBFE05E9F802150089828A8302150CEA
:10135200BB010DE58229F582E5833AF5830214F497
:101362005007E92582F80213C0BBFE07E92582F87F
:10137200021500E58229F582E5833AF58302150C10
:10138200BB010789828A8302155E5005E9F80215BE
:0A13920052BBFE05E9F802156A22BD
:10139C00BB010DE58229F582E5833AF58302155EE2
:1013AC005007E92582F8021552BBFE07E92582F8A1
:0413BC0002156A228A
:0C13C000E6FC08E6FD08E6FE08E6FF2259
:1013CC00BB010789828A830215295005E9F80215A9
:1013DC001CBBFE05E9F802153589828A8302154289
:1013EC00BB010DE58229F582E5833AF583021529C7
:1013FC005007E92582F802151CBBFE07E92582F887
:10140C00021535E58229F582E5833AF5830215420A
:10141C00BB010789828A8302158F5005E9F80215F2
:0A142C0076BBFE05E9F80215C022A8
:10143600BB011A89828A83D0F0D0E0F8D0E0F9D0D7
:10144600E0FAD0E0FBE8C0E0C0F00215F25016E981
:10145600F8D083D082D0E0F9D0E0FAD0E0FBC082A9
:10146600C0830215E9BBFE16E9F8D083D082D0E02E
:0F147600F9D0E0FAD0E0FBC082C0830215FB2260
:10148500BB0120E58229F582E5833AF583D0F0D0CA
:10149500E0F8D0E0F9D0E0FAD0E0FBE8C0E0C0F039
:1014A5000215F25018E92582F8D083D082D0E0F9F0
:1014B500D0E0FAD0E0FBC082C0830215E9BBFE187C
:1014C500E92582F8D083D082D0E0F9D0E0FAD0E0E7
:0914D500FBC082C0830215FB225A
:10442D00EFB40A07740D124438740A309811A89924
:10443D00B8130CC2983098FDA899C298B811F630EF
:07444D0099FDC299F59922C7
:10220500E55A244EF8E6055A22784B300702784EF7
:10221500E475F0011215D9020FD32000EB7F2ED201
:10222500008018EF540F2490D43440D4FF30040BB1
:10223500EF24BFB41A0050032461FFE55B6002156B
:102245005B055EE55E7002055D30070D784BE47554
:10225500F0011215D9EF02106E02442D7403D20756
:102265008003E4C207F55A8B4B8A4C894DE4F55B34
:10227500F55DF55EE55B60077F2012224080F57510
:102285005CFFC201C200C202C203C205C206C20887
:1022950012220EFF700D3007057F00122251AF5E2E
:1022A500AE5D22B4255FC2D5C20412220EFF24D032
:1022B500B40A00501A75F00A785B30D50508B6FFE8
:1022C5000106C6A426F620D5047002D20380D924BF
:1022D500CFB41A00EF5004C2E5D204022451D20152
:1022E50080C6D20080C0D20280BCD2D580BAD205C9
:1022F50080B47F201222402002077401B55B0040A4
:10230500F1122205FF122240022279D208D206805C
:1023150095122205FB122205FA122205F94A4B7085
:102325000679227A257BFF20022EE55B602A7E0056
:102335008E82758300120FEC60060EEE655C70F000
:10234500C2D5EBC0E0EAC0E0E9C0E0EE122498D0C7
:10235500E0F9D0E0FAD0E0FB120FD3FF60AAEBC0A2
:10236500E0EAC0E0E9C0E0122240D0E02401F9D063
:10237500E03400FAD0E0FBE55C0460DCD55CD98094
:10238500877BFF7A247994D202809C791080027928
:1023950008C206C2088008D2D5790A8004790AC223
:1023A500D5E55C047002F55CE4FAFDFEFF1222053A
:1023B500FC7B08200113122205FD7B1030000A1258
:1023C5002205FE122205FF7B20EC3382D592D550E3
:1023D50013C3E43000069FFFE49EFEE42001039D45
:1023E500FDE49CFCE4CBF8C201EC700CCFCECDCC67
:1023F500E824F8F870F38017C3EF33FFEE33FEEDF2
:1024050033FDEC33FCEB33FB994002FB0FD8E9EBD2
:10241500300105F8D0E0C448B201C0E00AEC4D4EE9
:102425004F78207B0070C2EAB55C0040BCC0E0126A
:10243500249AD0F0D0E0200104C4C0E0C4B201C0A9
:10244500F0122229D0F0D5F0EB02227912160423DE
:10245500165323905822E74C22E34223944F239CA2
:1024650044239C4922FC4323A255238646238645C3
:1024750023864725425022EB2D22EF2E23122B22B5
:10248500F32323102025302A22AB480000230A3FDE
:102495003F3F00790AA2D5200314300509B910027F
:1024A5000404B9080104A2D5200602500104200243
:0524B500689202B55B16
:1024BA00005034C0E07F203003197F30A202720638
:1024CA007205500F1224F1C202C206C205C2087F69
:1024DA0030800F300503E9C0E0122240300503D0F6
:1024EA00E0F9D0E0B55BCC3005177F30B9100C129B
:1024FA0022407F583004077F788003B908031222EC
:10250A00403002057F2D0222407F202008F87F2BD1
:10251A002006F322920280CF286E756C6C29002D5A
:10252A0050434958D2011222053001F8C201785BA2
:10253A0030D50108F60222AB1222052403B40500A5
:10254A004001E490252993122231743A122231D2A1
:07255A0003755B04022390EE
:103E7A00023A74E493A3F8E493A34003F68001F2B0
:103E8A0008DFF48029E493A3F85407240CC8C33349
:103E9A00C4540F4420C8834004F456800146F6DF18
:103EAA00E4800B0102040810204080904502E47E61
:103EBA00019360BCA3FF543F30E509541FFEE4930D
:103ECA00A360010ECF54C025E060A840B8E493A3D4
:103EDA00FAE493A3F8E493A3C8C582C8CAC583CAFF
:103EEA00F0A3C8C582C8CAC583CADFE9DEE780BEB7
:01450D0000AD
:1014DE00C5F0F8A3E028F0C5F0F8E5821582700299
:0614EE001583E038F02236
:0C14F400E0FCA3E0FDA3E0FEA3E0FF226B
:0C150000E2FC08E2FD08E2FE08E2FF2227
:10150C00E493FC740193FD740293FE740393FF2225
:0D151C00E6FB08E6F908E6FA08E6CBF8223F
:0C152900E0F8A3E0F9A3E0FAA3E0FB2245
:0D153500E2FB08E2F908E2FA08E2CBF82236
:10154200E493F8740193F9740293FA740393FB22FF
:0C155200ECF608EDF608EEF608EFF622C5
:0C155E00ECF0A3EDF0A3EEF0A3EFF02200
:0C156A00ECF208EDF208EEF208EFF222BD
:10157600D083D082E493F608740193F6087402933C
:09158600F608740393F674047373
:10158F00A8828583F0D083D0821215A61215A612D9
:10159F0015A61215A6E473E493A3C583C5F0C583FE
:1015AF00C8C582C8F0A3C583C5F0C583C8C582C8A6
:0115BF002209
:1015C000D083D082E493F208740193F208740293FA
:0915D000F208740393F274047331
:1015D900FAE6FB0808E6F925F0F618E6CA3AF62213
:0915E900EBF608EAF608E9F62227
:0915F200EBF0A3EAF0A3E9F022FA
:0915FB00EBF208EAF208E9F22221
:10160400D083D082F8E4937012740193700DA3A375
:1016140093F8740193F5828883E473740293686089
:06162400EFA3A3A380DF89
:00000001FF
