:0D3D33002535642E20005B4449525D0A00D6
:073D60007B007A00790922C3
:102929008F368E358D348C33754A0185374B853812
:102939004CE4F543F544F541F542780AE6B4020F53
:10294900781B1213648F408E3F8D3E8C3D800D782D
:1029590009E6FFE48F40F53FF53EF53D85363C85B8
:10296900353B85343A853339AF3CAE3BAD3AAC396A
:10297900780DE6F55F08E6F560854A61854B628565
:102989004C63123AAA8F49E5496003022B05AB4A09
:10299900AA4BA94CAF42AE41123D408F45E5456473
:1029A900E57003022A77E5457003022A77E5422498
:1029B9000BFFE43541FEAB4AAA4BA94C123D408FAF
:1029C90047E547540E6003022A770544E54470023F
:1029D90005437BFF7A3D793385435EF55F121CDF42
:1029E900E4F5467E00E5422546FFEE3541FEAB4A59
:1029F900AA4BA94C123D408F48123C750546E54645
:102A0900C3940840DEE54730E4307546087E00E5AA
:102A1900422546FFEE3541FEAB4AAA4BA94C123D71
:102A2900408F48123C750546E546C3940B40DE7B52
:102A3900FF7A3D7939121CDF80347F2E123C75757F
:102A490046087E00E5422546FFEE3541FEAB4AAA1F
:102A59004BA94C123D408F48123C750546E546C3CB
:102A6900940B40DE7F0D123C757F0A123C75742071
:102A79002542F542E43541F541D3E54294FEE5416D
:102A89009401406FE53C2401F53CE4353BF53BE41A
:102A9900353AF53AE43539F539C3E53C9536FFE57C
:0B2AA9003B9535FEE53A9534FDE5391C
:102AB4009533FCAB40AA3FA93EA83DD31212D9409E
:102AC40031AF3CAE3BAD3AAC39780DE6F55F08E684
:102AD400F560854A61854B62854C63123AAA8F4939
:102AE400E5496007E4F543F544F545E4F541F5426D
:102AF4008006434380E4F545E54560030229978059
:0B2B040005E4F543F544AE43AF442266
:1022B2008F368E358D348C33754E0185394F853A84
:1022C20050E4F549F54AF547F548F546F545F54434
:1022D200F543780AE6B4020F781B1213648F428E1C
:1022E200418D408C3F800D7809E6FFE48F42F54135
:1022F200F540F53F85363E85353D85343C85333B9B
:10230200AF3EAE3DAD3CAC3B780DE6F55F08E6F581
:1023120060854E61854F62855063123AAA8F4DE502
:102322004D6003022500AB4EAA4FA950AF48AE47FD
:10233200123D408F4BE54B64E57003022470E54B80
:102342007003022470E548240BFFE43547FEAB4ED0
:10235200AA4FA950123D408F4CE54C540E60030227
:102362002470054AE54A7002054965387004E5495A
:1023720065376003022470780AE664047066E548F3
:102382002415FFE43547FEAB4EAA4FA950123D403B
:10239200E48F46F545F544F543AE45AD44AC43788C
:1023A200081212FD8F468E458D448C43E548241455
:1023B200FFE43547FEAB4EAA4FA950123D40E4E57B
:1023C200464FF546E545F545E544F544E543F54315
:1023D200AF46AE45AD44FC78081212FD8F468E45DD
:1023E2008D448C43E548241BFFE43547FEAB4EAADF
:1023F2004FA950123D40E4E5464FF546E545F54507
:10240200E544F544E543F543AF46AE45AD44FC78BB
:0A241200081212FD8F468E458D441E
:10241C008C43E548241AFFE43547FEAB4EAA4FA97E
:10242C0050123D40E4E5464FF546E545F545E5449B
:10243C00F544E543F543E548240BFFE43547FEAB93
:10244C004EAA4FA950123D408F4CE54C30E412E59A
:10245C0046F546E545F545E544F544E5434410F5B8
:10246C0043E4F54B74202548F548E43547F547D34C
:10247C00E54894FEE54794014071E53E2401F53EA4
:10248C00E4353DF53DE4353CF53CE4353BF53BC3EB
:10249C00E53E9536FFE53D9535FEE53C9534FDE58D
:1024AC003B9533FCAB42AA41A940A83FD31212D9A9
:1024BC004036AF3EAE3DAD3CAC3B780DE6F55F082B
:1024CC00E6F560854E61854F62855063123AAA8F9E
:1024DC004DE54D600CE4F546F545F544754380F546
:1024EC004BE4F547F5488003E4F54BE54B600302FC
:1024FC002328800AE4F546F545F544754380E4FF4E
:10250C00FEFDFCAB46AA45A944A843C31212D970E0
:10251C0009F546F545F544754380AF46AE45AD44E7
:03252C00AC43229B
:1035690046696E64696E672042494F5320706172E3
:10357900616D6574657220626C6F636B0A006572B8
:10358900726F723A20636F756C64206E6F74206C71
:103599006F63617465204250420A006572726F72EE
:1035A9003A20464154313220756E737570706F72CE
:1035B9007465640A00464154313620646574656354
:1035C9007465640A00464154333220646574656346
:1035D9007465640A004572726F723A20464154203C
:1035E9007479706520756E737570706F7274656427
:1035F9000A004572726F723A20636F756C646E27A8
:10360900742066696E64206E65787420636C7573C6
:053619007465720A0057
:10149500AA06A9077555018A568957123D608B58CA
:1014A5008A59895A7BFF7A357969121CDF755F0283
:1014B5007560008555618556628557637F007E009E
:1014C5007D007C00123AAAAB55AA56A957E4FFFE47
:1014D500123D408F33E4F550F54FF54EF54DE533AC
:1014E50064EB603BE53364E96035AB55AA56A95713
:1014F5007FC67E01123A468F508E4F8D4E8C4D75AC
:101505005F02756000855561855662855763123A9D
:10151500AAAB55AA56A957E4FFFE123D408F33E505
:101525003364EB6012E53364E9600C7BFF7A35794F
:1015350087121CDF7F0122AB55AA56A9577F0B7E68
:1015450000123BE5AB58AA59A95A900004EE8FF05A
:1015550012118F900002E412105E90000412110027
:10156500FDACF0ED64014C6017AB58AA59A95A902F
:1015750000027401121019ECC313FCED13FD80E396
:10158500AB55AA56A9577F0D7E00123D40AB58AA10
:1015950059A95AEF12104CAB55AA56A9577F0E7E82
:1015A50000123BE58E378F38AB55AA56A9577F10E9
:1015B5007E00123D408F34AB55AA56A9577F117E48
:1015C50000123BE58E358F36AB55AA56A9577F16C7
:1015D5007E00123BE58E398F3AAB55AA56A9577F47
:1015E500137E00123BE58E3B8F3CAB55AA56A9579F
:1015F5007F2C7E00123A468F548E538D528C51E5C6
:101605003A45396018AB55AA56A9577F167E001280
:101615003BE5E48F448E43F542F5418015AB55AA71
:1016250056A9577F247E00123A468F448E438D4239
:101635008C41E53C453B600DE4853C48853B47F5E1
:0716450046F5458015AB5589
:10164C00AA56A9577F207E00123A468F488E478DA6
:10165C00468C45AB58AA59A95A900004121100FDAA
:10166C00ACF024FFFBEC34FFFAE536AE357805C35D
:10167C0033CE33CED8F92BFFEA3EFE121080E4FCB9
:10168C00FDAB58AA59A95A900012121340AF34E47A
:10169C00FCFDFEAB44AA43A942A8411211BCA8040C
:1016AC00A905AA06AB07E4FCFDEB2538FFEA3537A4
:1016BC00FEED39FDEC38FCAB58AA59A95A90001232
:1016CC0012137DEF2BFBEE3AFAED39F9EC38F8C337
:1016DC00E5489BF54CE5479AF54BE54699F54AE507
:1016EC004598F549E4E5382550FFE537354FFEE4DC
:1016FC00354EFDE4354DFCAB58AA59A95A90000E55
:10170C0012134090000E12137DC000C001C002C025
:10171C0003AF34E4FCFDFEAB44AA43A942A841123A
:10172C0011BCD003D002D001D000EF2BFFEE3AFE5B
:10173C00ED39FDEC38FCAB58AA59A95A900012129D
:10174C00137DEF2BFFEE3AFEED39FDEC38FCAB5878
:10175C00AA59A95A90000A121340120FD3FFE4FCA5
:10176C00FDFEF8F9FAAB07AF4CAE4BAD4AAC4912E3
:10177C0012478F408E3F8D3E8C3DE47FF57E0FFDF2
:10178C00FCAB40AA3FA93EA83DC31212D9500C7B1A
:10179C00FF7A3579A4121CDF7F0122E47FF57EFFEE
:1017AC00FDFCAB40AA3FA93EA83DC31212D9505E26
:1017BC00AB58AA59A95A900001740212105E7BFF13
:1017CC007A3579BE121CDFAB58AA59A95A90000E73
:1017DC0012137DC000C001C002C003AF34E4FCFD95
:1017EC00FEAB44AA43A942A8411211BCD003D002BB
:1017FC00D001D000EF2BFFEE3AFEED39FDEC38FCBA
:10180C00AB58AA59A95A900006121340806EAB58D7
:10181C00AA59A95A900001740412105E7BFF7A3504
:10182C0079CE121CDFE55424FEFFE55334FFFEE5B0
:10183C005234FFFDE55134FFFCA804C005C006C0BE
:10184C0007AB58AA59A95A120FD3FFE4FCFDFED0DE
:10185C0003D002D0011211BCAB58AA59A95A90005E
:10186C000A12137DEF2BFFEE3AFEED39FDEC38FC3E
:0F187C00AB58AA59A95A9000061213407F0022B8
:10387A008F3D8E3C8D3B8C3A123D608B3E8A3F8950
:10388A0040E4FFFEFDFCAB3DAA3CA93BA83AC312AB
:10389A0012D9700CAB3EAA3FA94090000602131041
:1038AA00E53D24FEFFE53C34FFFEE53B34FFFDE544
:1038BA003A34FFFCA804C005C006C007AB3EAA3FC5
:1038CA00A940120FD3FFE4FCFDFED003D002D001C1
:1038DA001211BCAB3EAA3FA94090000A12137DEF19
:0C38EA002BFFEE3AFEED39FDEC38FC221D
:102CDD008F368E358D348C33123D608B428A43890D
:102CED004475390185373A85383B900001120FEC58
:102CFD00FFE4FCFDFEAB36AA35A934A8331211BC96
:102D0D00C004C005C006C007AB42AA43A944900049
:102D1D0004121100FFAEF0E4FCFDF8F9AA06AB07B2
:102D2D00D007D006D005D004121247AB42AA43A952
:102D3D004490000E12137DEF2BFFEE3AFEED39FDA0
:102D4D00EC38FCAB42AA43A944900004121100F5E3
:102D5D006085F05F853961853A62853B63123AAAD9
:102D6D00AB42AA43A944900001120FECFFE4FCFD15
:102D7D00FEAB36AA35A934A8331211BCC004C00568
:102D8D00C006C007AB42AA43A9449000041211002B
:102D9D00FFAEF0E4FCFDF8F9AA06AB07D007D006AC
:102DAD00D005D004121247AE02AF038E3C8F3DAB5F
:102DBD0042AA43A944900001120FECB40411AB399F
:102DCD00AA3AA93B123A46EFEEEDEC540FFC22ABBA
:102DDD0042AA43A944900001120FEC6402703BAB70
:102DED0039AA3AA93BAF3DAE3C123BE5E48F418E8B
:102DFD0040F53FF53E7FFF7EFFFDFCAB41AA40A9AC
:102E0D003FA83EC31212D9700874FFFFFEFD7C0F60
:102E1D0022AF41AE40AD3FAC3E227BFF7A3579DE2D
:102E2D00121CDFE4FFFEFDFC227BFF7A3579FB12DD
:082E3D001CDFE4FFFEFDFC2296
:103C4B008D39EF70077F40123D7180057F40123D2B
:103C5B00917F80123D91AF39123D9D7F80123D7156
:0A3C6B007FFF123D9D7F40023D9156
:103B78007D38E4FF123C4B7F017E00123C9C7D485F
:103B8800E4FF123C4B7F017E00123C9C7D01E4FF68
:103B9800123C4B7F027E00123C9C7D0CE4FF123CE1
:083BA8004B7F017E00023C9CF2
:1037F5008D338B348A358936EFF46010EF4480FDC4
:10380500E4FF123C4B7F017E00123C9CE53370388F
:10381500F537AB34AA35A936853782F583120FEC17
:10382500F538E538604EFD7F01123C4B7F017E0087
:10383500123C9C0537AB34AA35A93685378275838A
:1038450000120FECF53880DAE4F537E537C3953328
:103855005022AB34AA35A936853782758300120FFD
:10386500ECF538FD7F01123C4B7F017E00123C9C3C
:05387500053780D72299
:053D6700EFF452A02260
:043D8500EF42A02247
:103B3D00AE077F80123D857F40123D857F20123D6F
:103B4D00857F10123D85EE30E0057F80123D67EEDA
:103B5D0030E1057F40123D67EE30E2057F20123DDA
:0B3B6D0067EE30E3057F10123D672279
:033D9D008F8022F2
:053D6C00EFF45290226B
:053D7100EFF452B02246
:043D8900EF42902253
:043D8D00EF42A0223F
:043D9100EF42B0222B
:10252F005344204361726420496E697469616C6918
:10253F007A6174696F6E202E2E2E200A0D00434D86
:10254F0044302073656E74202E2E2E20005265733A
:10255F00706F6E7365203D2025322E3262580A0D42
:10256F0000434D44382073656E74202E2E2E2000AC
:10257F00526573706F6E7365203D200025322E32C9
:10258F006258200A0D0056657273696F6E203120F4
:10259F005344204361726420646574656374656499
:1025AF002E0A0D005374616E646172642043617072
:1025BF006163697479204361726420646574656333
:1025CF007465642E0A0D0025322E32625820005693
:1025DF00657273696F6E20322053442043617264B9
:1025EF002064657465637465642E0A0D00434D4461
:1025FF0035382073656E74202E2E2E200041434DEA
:10260F004434312073656E74202E2E2E20005469B1
:10261F006D656F7574203D20256C75200A0D00487F
:10262F0069676820436170616369747920436172DF
:10263F00642044657465637465640A0D00537461A6
:10264F006E646172642043617061636974792043C1
:10265F006172642044657465637465640A0D004398
:10266F004D4431362073656E74202E2E2E2000526D
:10267F006573706F6E7365203D2025322E32625860
:10268F00200A0D00426C6F636B2073697A652073AB
:10269F00657420746F203531322062797465730A46
:1026AF000D0053442054696D656F75742045727227
:1026BF006F7200496C6C6567616C20436F6D6D6163
:1026CF006E640A0D00526573706F6E7365204572EC
:1026DF00726F72004461746120546F6B656E204598
:1026EF0072726F7200496E636F6D70617469626CA4
:1026FF006520566F6C746167650043617264206971
:10270F007320496E61637469766500535049206F79
:10271F00722054696D656F7574204572726F720007
:0E272F00556E6B6E6F776E204572726F720082
:0B30C000E4F56AF569F568F5677F3AF2
:1030CB008F66E4F56CE566C3944040030231C5E5B9
:1030DB00664440F56B7B007A00796DFF123C188FCC
:1030EB006EE56E701CAF6AAE69AD68AC677818128E
:1030FB0012EA8F6B7B007A00796D123C188F6E8011
:10310B0003756C87E56C702FE56E702BE56AF56ABD
:10311B00E569F569E568F568E4F567AF6AAE69AD31
:10312B0068AC6778101212EA8F6B7B007A00796DAE
:10313B00123C188F6E8003756C87E56C702DE56EF5
:10314B007029E56AF56AE569F569E4F568F567AF35
:10315B006AAE69AD68AC6778081212EA8F6B7B00B8
:10316B007A00796D123C188F6E8003756C87E56C55
:10317B007018E56E7014E56AFFE48F6BFB7A0079CB
:10318B006DAF6B123C188F6E8003756C87E56C709E
:10319B002CE56E7028E5667005756B95800DE56600
:1031AB00B40805756B878003756B017B007A00791A
:1031BB006DAF6B123C188F6E8003756C82AF6C22F7
:0736D000FB7A0079367F014F
:1036D7008F478B488A49894AE4F54C7B007A007901
:1036E7004E7FFF123C188F4D054BE54E30E708E53E
:1036F7004B6004E54D60E4E54D6005754C878052ED
:10370700E54B7005754C818049AB48AA49A94AE544
:103717004E12104CE54E600464017033E547D394B4
:1037270001402F754B01E54BC3954750257B007A28
:1037370000794E7FFF123C188F4DAB48AA49A94A22
:10374700854B82758300E54E12105E054B80D77559
:103757004C837B007A00794E7FFF123C188F4DAF68
:023767004C22F2
:1031CB008E668F678B688A69896AE4F56EF56FF591
:1031DB006C7B007A00796D7FFF123C188F6B056F4B
:1031EB00E56F7002056EE56D30E70AE56F456E60C1
:1031FB0004E56B60DCE56B6006756C870232BAE543
:10320B006F456E7006756C810232BAE56D60030214
:10321B0032B7F56EF56F7B007A00796D7FFF123C4C
:10322B00188F6B056FE56F7002056EE56DB4FF0AC5
:10323B00E56F456E6004E56B60DCE56B6005756CF6
:10324B0087806CE56F456E7005756C818061E56DEF
:10325B0064FE7053F56EF56FC3E56F9567E56E957C
:10326B006650287B007A00796D7FFF123C188F6BBC
:10327B00AB68AA69A96A856F82856E83E56D1210AA
:10328B005E056FE56F70D1056E80CD7B007A00799E
:10329B006D7FFF123C188F6B7B007A00796D7FFF7F
:1032AB00123C188F6B8008756C848003756C837B64
:0F32BB00007A00796D7FFF123C188F6BAF6C2289
:10188B00E4F534781F76FF7F10123D957BFF7A25A8
:10189B00792F121CDFE4F5337B007A00793E7FFF52
:1018AB00123C188F350533E533C3940A40EA7F8029
:1018BB00123D677BFF7A25794D121CDF7F10123D9D
:1018CB007BE4F56AF569F568F567FF1230CB8F3568
:1018DB00E53570131236D08F357BFF7A25795C8511
:1018EB00365E121CDF80057F10123D677F10123DA4
:1018FB00957F80123D85E5356002F534E534600354
:10190B000219EA7F80123D677BFF7A257970121CE2
:10191B00DF7F10123D7BE4756AAA756901F568F5E6
:10192B00677F081230CB8F35E53560030219DBFB7F
:10193B007A0079367F051236D78F357F10123D9599
:10194B007F80123D85E535603F7BFF7A25797F12DD
:10195B001CDF7BFF7A25798B85365E121CDFE53524
:10196B00B48320E536B4051BE4F534781F76097B88
:10197B00FF7A257995121CDF7BFF7A2579B3121C30
:10198B00DF805C85353480577BFF7A25797F121C8D
:10199B00DFE4F5337BFF7A2579D674362533F8E609
:1019AB00F55E121CDF0533E533C3940540E67F0D6E
:1019BB00123C757F0A123C75E53A64AA60037535D3
:1019CB0083781F76027BFF7A2579DE121CDF800F6E
:1019DB007F10123D957F80123D857F10123D67E58C
:1019EB00346003021A757F80123D677BFF7A25797D
:1019FB00FC121CDF7F10123D7B1230C08F35E5359A
:101A0B007053FB7A0079367F051236D78F357F10EE
:101A1B00123D957F80123D857BFF7A25797F121CC5
:101A2B00DFE4F5337BFF7A2579D674362533F8E678
:101A3B00F55E121CDF0533E533C3940540E67F0DDD
:101A4B00123C757F0A123C75E53854FC64FC60143B
:101A5B00753585800F7F10123D957F80123D857FF8
:101A6B0010123D67E5356002F534E5346003021B67
:0A1A7B0065781FE6B4020CE4F542A2
:101A8500F541F540753F408009E4F542F541F540E3
:101A9500F53FE4F546F545F544F5437F20123D67EE
:101AA5007BFF7A26790C121CDF7F10123D7BE4F553
:101AB5006AF569F568F5677F371230CB8F35E535FF
:101AC50070051236D08F35E53664016004E5367051
:101AD5001385426A854169854068853F677F29127C
:101AE50030CB8F35E53570031236D07F10123D951A
:101AF500E5462401F546E43545F545E43544F54428
:101B0500E43543F543E4FFFEFDFCAB46AA45A94495
:101B1500A843C31212D97003753581E53630E00448
:101B2500E5356085E53570137F20123D857BFF7AAD
:101B350025795C85365E121CDF800A7F80123D8523
:101B45007F10123D677BFF7A26791D8546618545A5
:101B55006085445F85435E121CDFE5356002F53420
:101B6500E5346003021C72781FE664026003021C00
:101B7500727F80123D677BFF7A2579FC121CDF7F1F
:101B850010123D7B1230C08F35E5356003021C58BD
:101B9500FB7A0079367F051236D78F357F10123DD7
:101BA500957F80123D857BFF7A25797F121CDFE4C6
:101BB500F5337BFF7A2579D674362533F8E6F55E5D
:101BC500121CDF0533E533C3940540E67F0D123C57
:101BD500757F0A123C75E53720E706753586021CC8
:101BE50067E53754C0FFBFC00FE4781FF67BFF7A67
:101BF50026792E121CDF806A781F76097BFF7A26EC
:101C0500794C121CDF7F80123D677BFF7A26796E47
:101C1500121CDF7F10123D7BE4F56A756902F568D9
:101C2500F5677F101230CB8F35E53570351236D01C
:101C35008F357F10123D957F80123D857BFF7A267B
:051C4500797E85365E8A
:101C4A00121CDF7BFF7A267993121CDF800F7F102C
:101C5A00123D957F80123D857F10123D67E5356004
:101C6A0007F534AF341239D8E5346004FF1239D895
:031C7A00AF342262
:053D7600781FE6FF22AA
:1039D8008F47E547B481097BFF7A2679B1021CDF5E
:1039E800E547B482097BFF7A2679C2021CDFE547E6
:1039F800B483097BFF7A2679D4021CDFE547B484B7
:103A0800097BFF7A2679E3021CDFE547B485097B49
:103A1800FF7A2679F4021CDFE547B486097BFF7A32
:103A2800277909021CDFE547B487097BFF7A2779E4
:0E3A38001A021CDF7BFF7A27792F121CDF2277
:103AAA008F5E8E5D8D5C8C5B123D768F647F10120B
:103ABA003D7BAF5EAE5DAD5CAC5BA964A801121242
:103ACA00FD8F6A8E698D688C677F111230CB8F6586
:103ADA00E565700DAB61AA62A963AF60AE5F123192
:103AEA00CB7F10123D95E56560037F01227F00229E
:0C3D40005306018F828E83120FECFF22CD
:103BE5008E5B8F5C8B5D8A5E895F535B01E4FDFCB8
:103BF500E55C2401FFE4355B8F82F583120FECFD54
:103C05007D00FC855C82855B83120FECFFE4EFFD94
:033C1500AE0422D8
:103A46008E5B8F5C535B01E4F560F55FF55EF55DBB
:103A5600F562AF62C374039562CFE49400CF255C30
:103A6600CF355B8F82F583120FECF561AF60AE5FE9
:103A7600AD5EAC5D78081212FD8F608E5F8D5E8C38
:103A86005DE4E5604561F560E55FF55FE55EF55E81
:103A9600E55DF55D0562E562B404B7AF60AE5FADA6
:043AA6005EAC5D2293
:10376900E4F533AB07AA06A905A804FF7E407D1935
:103779007C01121247EFD39402500575C37080691A
:10378900EFD39402400BEFD39404500575C37180B5
:1037990058EFD39404400BEFD39408500575C372C6
:1037A9008047EFD39408400BEFD39410500575C3AD
:1037B900738036EFD39410400BEFD39420500575E6
:1037C900C3F08025EFD39420400BEFD394405005EC
:1037D90075C3F18014EFD39440400BEFD39480501C
:0C37E9000575C3F2800375330FAF332267
:103C1800E4FE8FC5AFC40EEF54F07003EE70F5EEFE
:103C28006017EF54707009E5C512104CE4FE80105F
:103C380074FF12104CE4FE800774FF12104C7E8053
:033C4800AF0622A2
:043D9500EF42902247
:053D7B00EFF45290225C
:103C9C005389F0438901C2A9758CF4758A3DC28D94
:103CAC00D28C308DFDC28CEF1F70011ED3EF9400AF
:063CBC00EE940050E3222B
:103BB00053873F438780C2AC759852E4F59BFCFD68
:103BC0007BC0FAF9F81211BCA804A905AA06AB0734
:103BD000E4FFFE7D2F7C0D121247EFF404F59A7579
:053BE0009B1ED299229A
:103CC200E4FDFC0DBD00010C209904ED4C70F4EDF7
:103CD2004C60088F99AE07C29980027EF1AF06222E
:083D58003098FDAF99C29822DA
:063968007B017A007900EA
:10396E008B378A388939E4FFFEFDFC7870121370AC
:10397E00C31212D9700D787E12136412387A7874CD
:10398E001213AD123D60900004121100F56085F027
:10399E005F78701213647874121370EB2FFFEA3E87
:1039AE00FEE93DFDE83CFC8537618538628539636B
:1039BE00123AAA7870121364EF2401FFE43EFEE47B
:0A39CE003DFDE43CFC78700213ADEF
:103AFA008F368E358D348C33750803E47878F60862
:103B0A00760108F608F608F608F6AF36AE35AD3493
:103B1A00AC3312387A78741213AD78701213B90074
:103B2A00000000AF36AE35AD34AC33787E1213AD3B
:033B3A00023968E5
:1038F6008B338A3489357F08123D89AB36AA37A9BE
:10390600381210D5FFAEF0C3EE940250292092264D
:10391600AB33AA34A9358F828E83120FECFF7B005E
:103926007A00793C123C18AB36AA37A938E475F010
:103936000112113880C57F08123D6CAB36AA37A933
:10394600381210D5B40018E5F0B40213E4F5F012FD
:103956001170AB39AA3AA93B740112104CFF227FB1
:0239660000223D
:10273D00E508B40900400302291E90274EF8282809
:10274D00730227690227A80227B90227E60228414A
:10275D000228800228910228C30229197F01123B09
:10276D003D787E121364753700753800122CDD78B4
:10277D007E1213AD74FFFFFEFD7C0F787E12137079
:10278D00C31212D9600F78701213B90000000075D2
:10279D00080502291E75080802291E7F02123B3DFD
:1027AD0030920302291E75080302291E7F03123B76
:1027BD003D123D60120FD3FFE4FCFDFE7870121345
:1027CD0070C31212D97005F50802291E123968E47A
:1027DD007878F675080502291E7F04123B3D20927C
:1027ED001E7878E67019F53675370075387AF53933
:1027FD00753A00753B787B017A0079001238F63016
:10280D0092077879E66401600C7878E6FFB4010BE5
:10281D0008E6B4010675080602291EEFB401092069
:10282D00920675080702291E20920302291E7508BB
:10283D000102291E7F05123B3D787E121364753708
:10284D0002753800122CDD787E1213AD74FFFFFE79
:10285D00FD7C0F787E121370C31212D9600F787041
:10286D001213B90000000075080102291E75080831
:10287D0002291E7F06123B3D30920302291E750868
:10288D000702291E7F07123B3D123D60120FD3FF39
:10289D00E4FCFDFE7870121370C31212D970057529
:1028AD000804806D7B017A02790012396EE4787923
:1028BD00F6750801805B7F08123B3D20921E7879EA
:1028CD00E67019F53675370075387CF539753A00AF
:1028DD00753B797B017A0279001238F630920778D0
:1028ED0078E66401600B7878E6B4010A08E6B40175
:1028FD0005750802801B7879E6B4010820920575EC
:10290D000803800D30920A75080580057F09123B7A
:0C291D003DE508B408037F01227F002282
:1032CA008F4BD290D291E4F556E55075F008A4F5EB
:1032DA005005512091030233B42090030233B412F3
:1032EA003CFEE54B25E0F5555355FEC2907557084F
:1032FA007F01123CE8C2911557AF57E555A8070858
:10330A008002C313D8FC5401F558123CE2D2913022
:10331A0091FDA290E433F55965586003755681E52D
:10332A0057D394004004E55660C6E556704F7F01B6
:10333A00123CE8C291D290E550601524F8F550AFDE
:10334A004FAE4EAD4DAC4CF9F81212EA8F558018BB
:10335A001551AB52AA53A954120FD3F5557401252E
:10336A0054F554E43553F5537F01123CE8D29130B9
:10337A0091FDA290E433F5596003755682E55160D8
:10338A0007E55670030232F7E5566481601F7F0134
:10339A00123CE8C291C2907F01123CE8D29130916E
:1033AA00FD7F02123CE8D2908003755681AF562207
:102E45008F3BE4F546E540601F853F4F853E4E8547
:102E55003D4D853C4CF550E4F55185425285435333
:102E65008544541232CA8F46E5466003022F86D246
:102E750090D291209103022F83209003022F831279
:102E85003CFEE53B25E0F545434501C29075470805
:102E95007F01123CE8C2911547AF47E545A80708F1
:102EA5008002C313D8FC5401F548123CE2D291309C
:102EB50091FDA290E433F54965486003754681E5C7
:102EC50047D394004004E54660C6E546701E7F0181
:102ED500123CE8C291D2907F01123CE8D291309128
:102EE500FDA290E433F5496003754682E541D3942C
:102EF500004069E54670657547087F01123CE8C2E8
:102F0500911547D290E54A25E0F54A7F01123CE844
:102F1500D2913091FDA290E433F549424AE547D379
:102F2500940050D6AB42AA43A944E54A12104C740A
:102F3500012544F544E43543F543E541B401057500
:102F450048018003E4F5487F01123CE8C291E54859
:102F5500123CE2D2913091FD15418090E5466481A5
:102F6500601F7F01123CE8C291C2907F01123CE8CC
:102F7500D2913091FD7F02123CE8D29080037546D4
:042F850081AF4622B0
:103CFE005389F0438901C2A9758CFF758AC3C28DA1
:033D0E00D28C2232
:063CE20024FF92907F0117
:103CE800308C03308DFDC28CBF010A758CFF758A3C
:063CF800C3C28DD28C2234
:102F89004F75747075742066726F6D204944207294
:102F9900656769737465723A2025322E326258204A
:102FA9000A0D0053544130313320536F667456650E
:102FB9007273696F6E3A2025322E326258200A0DDB
:102FC900002E000A466972737420636F6E66696722
:102FD90075726174696F6E2066696C652073656EC0
:102FE900742E2E2E0A004E756D626572206F662052
:102FF90076616C756573207772697474656E3A20B1
:103009002564200A000A5365636F6E6420636F6E3E
:1030190066696775726174696F6E2066696C65208F
:1030290073656E742E2E2E0A0053656E7420746FAC
:10303900205354413031333A2025322E3262582000
:103049002025322E326258200A0D004F7574707592
:10305900742066726F6D2072656769737465723A60
:103069002025322E326258202025322E32625820F5
:1030790025322E326258200A0D00436F6E66696749
:1030890075726174696F6E20436F6D706C657465DC
:103099000A0D005455060B525165645061050D180F
:1030A9000C4648720007100902B80000000605A185
:0730B9000004050C0C0100EE
:053D8000EFF452B02237
:043D9900EF42B02223
:101FD9007F08123D8078827601753432123D99E48A
:101FE900F53FF53EF53DF53CF540754103F5427584
:101FF90043007544857F43122E458F331534E533ED
:102009006004E53470D9E534600E7BFF7A2F798955
:102019007887E6F55E121CDFE4753F01F53EF53D74
:10202900F53C754001754101F542754300754485DC
:102039007F43122E458F331534E5336004E5347040
:10204900D7E534600E7BFF7A2F79897885E6F55ECE
:10205900121CDF7885E664AC60030222AF753F711C
:10206900F53EF53DF53C754001754101F542754375
:10207900007544857F43122E458F337BFF7A2F7974
:10208900AC7885E6F55E121CDFE4F539F53A75366C
:10209900FF753700753803AB36AA37A938853A82F8
:1020A900853983120FECF535053AE53A70020539A1
:1020B900F582853983120FEC7882F6053AE53A7094
:1020C900020539543F70097BFF7A2F79CA121CDF48
:1020D900E535F4602F753432E485354FF54EF54D0D
:1020E900F54C755001755101F552755300755482BF
:1020F9007F431232CA8F33D53402C2A7E533600455
:10210900E53470D4E535F46004E534708A7BFF7AF0
:102119002F79CC121CDF7BFF7A2F79EFE539C313B6
:10212900F55EE53A13F55F121CDFE4F539F53A750A
:1021390036FF75370F7538A1AB36AA37A938853AF6
:1021490082853983120FECF535053AE53A700205B7
:0521590039F582853913
:10215E0083120FEC7882F6053AE53A70020539548F
:10216E000770097BFF7A2F79CA121CDFE535F46000
:10217E002F753432E485354FF54EF54DF54C7550CF
:10218E0001755101F5527553007554827F43123219
:10219E00CA8F33D53402C2A7E5336004E53470D458
:1021AE00E535F46004E534708A7BFF7A30790E12DF
:1021BE001CDF7BFF7A2F79EFE539C313F55EE53A25
:1021CE0013F55F121CDFE4753F71F53EF53DF53CEE
:1021DE00754001754101F5427543007544857F4395
:1021EE00122E458F337BFF7A2F79AC7885E6F55E1C
:1021FE00121CDFE4F539F53AAF3AEF90309C93F5C7
:10220E0035EF9030AE937882F6753432E485354FE3
:10221E00F54EF54DF54C755001755101F55275534E
:10222E00007554827F431232CA8F33D53402C2A74F
:10223E00E5336004E53470D47BFF7A30793285352E
:10224E005E7882E6F55F121CDFE53A90309C93F5DE
:10225E0035FFE48F3FF53EF53DF53C754001754188
:10226E0001F5427543007544857F43122E458F3329
:10227E007BFF7A30795485355E7885E6F55F853358
:10228E0060121CDF053AE53A70020539C39411E578
:10229E0039940050030222067BFF7A307983121C98
:0422AE00DFAF332249
:100003003A012A04280029002000210022002300AD
:10001300240025002600270028012802218F280319
:100023002100280428052806280728082809280A63
:10003300280B280C20802190280D20002100280E59
:1000430020812191280F20002192281021002811BE
:1000530021932812210028132814281520822816FA
:1000630020002817281828192194281A2195281BBD
:100073002196281C2100281D2083281E2000281FCC
:1000830021972820210028212822282328242825D5
:100093002826282728282829282A2084282B2000B6
:1000A300282C282D282E282F283028312832208547
:1000B3002833200028342835283628372198283833
:1000C30021002839283A283B283C283D283E283F50
:1000D30028402841284228432844284528462847C1
:1000E30028482849284A284B284C284D284E284F71
:1000F3002850285128522853285428552856285721
:1001030028582859285A285B285C285D285E285FD0
:1001130028602861286221992863210028642865C2
:100123002866286728682869286A286B286C286D40
:10013300286E286F287028712872287328742875F0
:100143002876287728782879287A287B287C287DA0
:10015300287E287F28802881288228832884288550
:100163002886288728882889288A288B288C288D00
:10017300288E288F289028912086289220872893DC
:100183002000289428952896289728982899289A13
:10019300289B289C289D289E289F219A28A02100DF
:1001A30028A128A228A328A428A528A628A728A8E8
:1001B30028A928AA28AB28AC28AD28AE28AF28B098
:1001C30028B128B228B328B428B528B628B728B848
:1001D30028B9208828BA200028BB208928BC200001
:1001E30028BD28BE28BF28C028C128C228C3219BF8
:1001F30028C4210028C528C628C728C828C928CA52
:1002030028CB28CC28CD28CE28CF28D028D128D237
:1002130028D328D428D528D628D728D828D928DAE7
:1002230028DB28DC28DD28DE28DF28E028E1208AF7
:1002330028E2208B28E3200028E428E528E628E7A5
:1002430028E828E928EA28EB28EC28ED28EE28EF0F
:1002530028F028F128F228F328F428F528F628F7BF
:1002630028F8208C28F92000219C28FA219D28FBBE
:10027300208D219E28FC208E219F28FD2000210017
:1002830028FE28FF2A012800220123952489250717
:1002930026A42707280121C72200238026C4270C70
:1002A30028022009211C220426AA270A2803200049
:1002B3002100220023A626A02707280428052005BD
:1002C300238426B42709280620002203230024813F
:1002D30025C026AB270A280721AE220023952489AF
:1002E300250726A42700280821482201238026C4A5
:1002F300270C280920092104220426AA270A280AF0
:1003030020002100220023A826A42707280B280C5D
:1003130021402220238026C4270C280D222426C610
:10032300280E219E220026C8280F2009210222140C
:1003330026AA270A2810200521002200238426B498
:1003430027092811200021012300240125C026AB01
:10035300270A281221C3239524892507262027004D
:100363002813200321C223832626270D281421B313
:0E03730022082815200021C62200239526000E
:1003810027082816210023002496250326AA270AD8
:100391002817204221B62380248925072818200008
:1003A10021002394260E2819200F238426B427091F
:1003B100281A2000239326A82703281B2628270074
:1003C100281C21012300240125C026AB270A281D52
:1003D10021C523952489250726202700281E2100D1
:1003E10023942600270A281F260E2820200321797E
:1003F100220123832626270D2821213228222000AD
:10040100210422002380240025FC26AA270A282370
:10041100210023002500282421A3220D2380249ECE
:10042100253B2825204221572201248925072826FA
:1004310020002143220D2400253828272108229855
:100441002395248925072624270028282042219343
:100451002201238026AA270A28292003217E22049B
:1004610023832626270D282A200021B02200239548
:1004710026A02707282B21002300240C250426AAC7
:10048100270A282C21022380248625C326AB282D68
:100491002042219722012489250726AA282E2000FF
:1004A10021002200241F2504282F21B2239524890D
:1004B10025072620270428302042218B220423806F
:1004C10026AA270A2831200021B12200239526A03F
:1004D1002707283220032175220423832626270D8E
:1004E1002833200521002200238426B4270928343B
:1004F100200021602300240125C026AB270A2835CE
:1005010021082298239524892507262427002836A7
:1005110021BC2200283721A3220D2300240125C05C
:1005210026AB270A283821602200238024002538A1
:1005310026AA2839210622982395248925072624CD
:100541002700283A21BE2200283B200521002384D0
:1005510026B42709283C200021602300240125C05E
:1005610026AB270A283D214222012395248925070C
:1005710026242700283E210C229826A42707283F5D
:1005810021082840216022002300240125C026AB38
:10059100270A2841210C22982395248925072624FE
:1005A10027002842200521002200238426B42709A0
:1005B1002843200023802400251026AB270A284445
:1005C1002122220123952489250726242700284555
:1005D1002100220023002404251226AA270A2846E6
:1005E100200321D422052383248925072626270DCC
:1005F10028472000216022002300240125C026ABCA
:10060100270A284821B3239524892507260027088E
:100611002849210023002409250026AA270A284A5F
:10062100210223802486253B284B204221DD2205FF
:1006310024892507284C200021002200241F2500A1
:10064100284D21B323952489250726202700284EEC
:10065100210023002497250326AA270A284F204298
:1006610021E222052380248925072850200021101A
:1006710022002300248025CC26AB285121002240D2
:1006810023B42489250726AA27042852220023B04F
:100691002692270928532114220123952600270891
:1006A1002854214823A4262A270028552100220066
:1006B10023002409250026AA270A28562108238079
:1006C1002486253B2857204221112207248925070A
:1006D1002858200021002200241F25002859211418
:1006E100220123952489250726202700285A21162F
:0E06F10026022709285B210022002300248016
:1006FF00254826AA270A285C23A024892507261423
:10070F002709285D2480255026A42704285E21165A
:10071F0022012395248925072700285F2104220021
:10072F002300249C257826AA270A28602143220D1E
:10073F00240125C426AB2861210322002415286239
:10074F0021002400250026AA2863215E23952489F1
:10075F00250726102709286421032300241525C403
:10076F0026AB270A2865210023802400250626AA08
:10077F002866248F25E326AB2867204221CD220748
:10078F002489250726AA286820002160220023003B
:10079F00240125C026AB286921002380248F25033F
:1007AF0026AA286A204221DD220724892507286BE3
:1007BF0020002143220D2300240125C026AB286CE5
:1007CF00210022002400250426AA286D2003217F62
:1007DF0022012383248925072626270D286E2162CF
:1007EF00286F200521002200238426B427092870B2
:1007FF0020002106239526002708287121012300B8
:10080F002497253B26AA270A28722042210E220868
:10081F0023802489250728732003213C220B23835F
:10082F002626270D28742000210322002395260257
:10083F002708287521272300248125C426AB270AE2
:10084F002876210023802409254826AA28772158B5
:10085F00223423A324892507262A2700287821005C
:10086F00220023A0260027092879210723802403AB
:10087F00253926AA270A287A21042300241C253883
:10088F00287B2107238024832539287C2103239566
:10089F002489250726022708287D21272300248164
:1008AF0025C426AB270A287E21002380240925484A
:1008BF0026AA287F2158223423A324892507262AF4
:1008CF0027002880210622002300248125C026939B
:1008DF0027012881210023802489254826AA270A59
:1008EF0028822002216622082300240025662883FF
:1008FF002000210022002380241F250228842106A6
:10090F002489250726DC270C2885210023AA26AA5F
:10091F00270A288623B626002708288723802486BF
:10092F00253B26AA270A288821052489250726DCA6
:10093F00270C2889210023AA26AA270A288A23B64A
:10094F0026002708288B23802486253B26AA270AE2
:10095F00288C2042217B220824892507288D2000FE
:10096F0021002200230024012582288E21052481C5
:10097F0025C226AB288F20032193220823832489A5
:10098F0025072626270D2890200021052200230069
:10099F00248125C026132701289121002380248933
:1009AF00254826AA270A28922002217E2208230002
:1009BF002400256628932000210022002380241F75
:1009CF002502289421052489250726DC270C289544
:1009DF00210023AA26AA270A289623B6260027082D
:1009EF00289723802486253B26AA270A28982105A5
:1009FF002489250726DC270C2899210023AA26AA5B
:100A0F00270A289A2380241F2502289B21012300CF
:100A1F00248125C226AB289C2003219322082383FF
:100A2F00248925072626270D289D20002104220032
:100A3F00239526122708289E216023C426AA27045F
:100A4F00289F210023C02600270928A0204221CB60
:100A5F002208238026AA270A28A12070215422B811
:0E0A6F0023952612270828A2200221CC220857
:100A7D00238026AA270A28A3200321CA220F238315
:100A8D002626270D28A42000210022002300248CD7
:100A9D00250C26AA270A28A521042482257828A614
:100AAD0021002380248925482612270428A7200306
:100ABD0021DE220F238325072626270D28A82000B7
:100ACD00210122002300249C257826AA270A28A983
:100ADD00210023802481254028AA200321CF220F25
:100AED002383248925072626270D28AB207021086E
:100AFD0022B8239526A0270428AC200321D4220F49
:100B0D0023832626270D28AD2127220B28AE207002
:100B1D00216322B823952612270828AF2000210132
:100B2D0022002380248625CB26AB270A28B020421D
:100B3D0021DD22082489250726AA28B120002118A5
:100B4D002280239526A4270028B2200321D9220F25
:100B5D0023832626270D28B32070210A22B823953A
:100B6D0026A0270028B4200221E02208238026AAEF
:100B7D00270A28B52070210A22B8239526A0270020
:100B8D0028B621542602270828B7200021182280D4
:100B9D0026A4270028B82100220023802480254880
:100BAD0026AA270A28B92070215E22B82395248908
:100BBD0025072612270828BA2000210022002380AD
:100BCD002409254B26AA270A28BB2070215F22B8AD
:100BDD002395248925072610270828BC20002100ED
:100BED0022002300241C258326AB270A28BD2003C1
:100BFD00213222092383248925072626270D28BE85
:100C0D0020002100220023002482258C26AB270AF8
:100C1D0028BF200321252209238324892507262681
:100C2D00270D28C0204221BC238026AA270A28C1CF
:100C3D002000210122002300240125C026AB28C25B
:100C4D002070210F22B823952489250726202700FF
:100C5D0028C3200321E3220F23832626270D28C432
:100C6D00200521002200238426B4270928C5200051
:100C7D00210323952614270828C621A623A4262A56
:100C8D00270528C7210023A02644270928C8211895
:100C9D00226D2380249E257B26AA270A28C920425F
:100CAD002113220B2489250728CA200021AE2200FA
:100CBD0023952624270028CB210022032380248777
:100CCD00257B26AA270A28CC20422116220B24890F
:100CDD00250728CD200021AE2200239526242700AC
:100CED0028CE20052100238426B4270928CF2003F0
:100CFD00210D220B23832626270D28D0200021002D
:100D0D002200230024802602270028D123802409D5
:100D1D002548261E28D22158223423332480250726
:100D2D00262A28D32100220023002680271028D42C
:100D3D0021102363262A270028D52100236026A809
:100D4D00271228D621AF224C230026C8270C28D7DE
:100D5D00210022002680270528D823802486253BC4
:100D6D00261E270028D92042211C220E2300248074
:100D7D00250728DA20002135222926C4270C28DB57
:100D8D002002211D220E261E270028DC2000217F97
:100D9D00223426C4270C28DD210022002390249F15
:100DAD0025042610270A28DE23002484250026800A
:100DBD00271028DF2106236324802507262A2700F4
:100DCD0028E021002380248926AA270A28E120056E
:100DDD00238426B4270928E22070216122B82395A7
:0E0DED002612270828E320002101220023807F
:100DFB00248625C326AB270A28E4204221CE220FC6
:100E0B002489250726AA28E52070215022B823958E
:100E1B002612270828E6200521002200238426B469
:100E2B00270928E72070216422B82395261227086A
:100E3B0028E82000210122002380248625C326AB2D
:100E4B00270A28E9204221D3220F2489250726AA25
:100E5B0028EA2070215122B823952612270828EB67
:100E6B00200521002200238426B4270928EC2070BA
:100E7B00216522B823952612270828ED2000210191
:100E8B0022002380248625C326AB270A28EE204286
:100E9B0021D8220F2489250726AA28EF207021525A
:100EAB0022B823952612270828F0200521002200BE
:100EBB00238426B4270928F12070216122B82395B9
:100ECB002602270828F220002101220023802486F5
:100EDB0025C326AB270A28F3204221DD220F2489C4
:100EEB00250726AA28F42070215022B82395260224
:100EFB00270828F5200521002200238426B4270982
:100F0B0028F6200021012380248625CB26AB270A37
:100F1B0028F7204221E1220F2489250726AA28F849
:100F2B002000210222002300248125C426AB28F9AE
:100F3B00210023802489254826AA28FA200523840A
:100F4B00250726B4270928FB2070214E22B82395AC
:100F5B002610270828FC200021002200238024864D
:100F6B0025C326AB270A28FD204221E7220F24891F
:100F7B00250726AA28FE200021BB22002395262028
:100F8B00270028FF20052100238426B427092A08DF
:100F9B001001FFFFFFFF3A00643A65BB083A09BB3B
:100FAB0050105267517705A11804540155210700C1
:100FBB00060C0B03501051005204610F645565551C
:080FCB0005A11804FFFFFFFF60
:10361E007374617274696E672070726F6772616D18
:10362E002E2E2E0A004D6F756E74696E67205344F0
:10363E0020636172640A0053442063617264206DDA
:10364E006F756E7465640A00534420636172642062
:10365E006661696C656420746F206D6F756E740A97
:10366E0000526F6F74206469726563746F72793A79
:10367E000A0A00456E74657220616E20656E747262
:10368E0079206E756D6265723A200A00256C752080
:10369E002000256C7520200A004572726F723A2048
:1036AE00696E76616C696420656E747279206368E8
:1036BE006F6963650A005374617274696E672E2EAA
:0236CE002E00CC
:102B0F00758E0C758F017F10123D677F0F123D8DF3
:102B1F007F2C7E01123C9C7F807E25123BB0121FC2
:102B2F00D9EF600280FE123B787BFF7A3679C47D45
:102B3F000BE4FF1237F57BFF7A36791E121CDF7F0D
:102B4F00407E0D7D037C001237698F22E522600CD9
:102B5F007F10123D677F53123CC280FE7F40123DB3
:102B6F006712188B8F22E522600C7F10123D677F52
:102B7F0043123CC280FE7F40123D857F007E2D7D3B
:102B8F00317C011237698F22E522600C7F10123DD4
:102B9F00677F50123CC280FE7BFF7A367933121C5E
:102BAF00DF7E007F00121495EF70157BFF7A367968
:102BBF0045121CDF7F10123D857F80123D67800B11
:102BCF007BFF7A367956121CDF80FE7BFF7A3679CF
:102BDF006F121CDF123D609000061213108F2E8EA5
:102BEF002D8D2C8C2BE58954F04401F589D2A9D277
:102BFF008CD2AFAF2EAE2DAD2CAC2B7537007538F8
:102C0F0000122929E48F2A8E29F528F5277BFF7AD0
:102C1F00367981121CDF1234988F268E258D248CE5
:102C2F00237BFF7A36799A8F618E608D5F8C5E126F
:102C3F001CDF7BFF7A3679A0852E61852D60852C70
:102C4F005F852B5E121CDFAF2AAE29AD28AC27ABF8
:102C5F0026AA25A924A823D31212D95065AF2EAEC8
:102C6F002DAD2CAC2B8A378B38753900753A001285
:102C7F0022B28F328E318D308C2FE4FFFEFDE52F87
:102C8F005410FC6027E532F532E531F531E530F5CA
:102C9F0030E52F540FF52FAF32AE31AD30FC123877
:102CAF007A8F2E8E2D8D2C8C2B022C02AF32AE31C3
:102CBF00AD30AC2F123AFA12273DEF6003022C020F
:0B2CCF0080F57BFF7A3679A7121CDF2E
:032CDA00022C02C7
:10349800E4F53374352533F8E4F60533E533B40B36
:1034A800F274FFF543F542F541F540E4F533123D7A
:1034B800588F34E534C394304017E534D3943950E9
:1034C8001074352533F8A6340533AF34123C7580B3
:1034D80050E53464086005E534B47F1A1533743553
:1034E8002533F8E4F67F08123CC27F20123CC27FE5
:1034F80008123CC2802BE534640D6005E534B40A3B
:103508001D7B007A0079351233BA8F438E428D4184
:103518008C407F0D123CC27F0A123CC28003E4F546
:1035280034E533B40A1B7B007A0079351233BA8F3D
:10353800438E428D418C407F0D123CC27F0A123C63
:10354800C274FFFFFEFDFCAB43AA42A941A840C3D9
:103558001212D970030234B6AF43AE42AD41AC404B
:013568002240
:03000000023D4C72
:0C3D4C00787FE4F6D8FD758187022B0F0C
:100FD300BB010689828A83E0225002E722BBFE021C
:090FE300E32289828A83E493224F
:100FEC00BB010CE58229F582E5833AF583E02250BA
:100FFC0006E92582F8E622BBFE06E92582F8E22204
:0D100C00E58229F582E5833AF583E493221D
:10101900BB010FF8E58229F582E5833AF583E028DB
:10102900F0225009C58229F8E58226F622BBFE097D
:10103900C58229F8E22582F222F8EA2583F583E9B7
:03104900932822C7
:10104C00BB010689828A83F0225002F722BBFE0183
:02105C00F3227D
:10105E00F8BB010DE58229F582E5833AF583E8F0C8
:10106E00225006E92582C8F622BBFE05E92582C874
:02107E00F2225C
:10108000BC000BBE0029EF8DF084FFADF022E4CC54
:10109000F875F008EF2FFFEE33FEEC33FCEE9DEC1D
:1010A000984005FCEE9DFE0FD5F0E9E4CEFD22ED63
:1010B000F8F5F0EE8420D21CFEADF075F008EF2FAD
:1010C000FFED33FD4007985006D5F0F222C398FD9E
:0510D0000FD5F0EA223B
:1010D500BB010A89828A83E0F5F0A3E022500687E6
:1010E500F009E71922BBFE07E3F5F009E3192289A8
:0B10F500828A83E493F5F074019322DB
:10110000BB0110E58229F582E5833AF583E0F5F02D
:10111000A3E0225009E92582F886F008E622BBFE0A
:101120000AE92582F8E2F5F008E222E5832AF58350
:08113000E993F5F0A3E9932215
:10113800BB010789828A830213D2500B09C5F027A5
:10114800F7C5F01937F722BBFE0D09F8E325F0F3D0
:10115800C5F019E338F322F889828A83740193254C
:08116800F0C5F0F8E493382211
:10117000BB010A89828A83F0E5F0A3F0225006F7CA
:0F11800009A7F01922BBFE06F3E5F009F31922C7
:10118F00F8BB0111E58229F582E5833AF583E8F092
:10119F00E5F0A3F0225009E92582C8F608A6F0224F
:0D11AF00BBFE09E92582C8F2E5F008F22236
:1011BC00E88FF0A4CC8BF0A42CFCE98EF0A42CFCD2
:1011CC008AF0EDA42CFCEA8EF0A4CDA8F08BF0A450
:1011DC002DCC3825F0FDE98FF0A42CCD35F0FCEBAF
:1011EC008EF0A4FEA9F0EB8FF0A4CFC5F02ECD3974
:0F11FC00FEE43CFCEAA42DCE35F0FDE43CFC22E1
:10120B0075F008758200EF2FFFEE33FECD33CDCC9A
:10121B0033CCC58233C5829BED9AEC99E58298401D
:10122B000CF582EE9BFEED9AFDEC99FC0FD5F0D6FA
:10123B00E4CEFBE4CDFAE4CCF9A88222B800C1B924
:10124B000059BA002DEC8BF084CFCECDFCE5F0CB62
:10125B00F97818EF2FFFEE33FEED33FDEC33FCEB9B
:10126B0033FB10D703994004EB99FB0FD8E5E4F956
:10127B00FA227818EF2FFFEE33FEED33FDEC33FC43
:10128B00C933C910D7059BE99A4007EC9BFCE99A37
:10129B00F90FD8E0E4C9FAE4CCFB2275F010EF2F7C
:1012AB00FFEE33FEED33FDCC33CCC833C810D7077C
:1012BB009BEC9AE899400AED9BFDEC9AFCE899F8B7
:0E12CB000FD5F0DAE4CDFBE4CCFAE4C8F9224A
:1012D900EB9FF5F0EA9E42F0E99D42F0E89C45F06B
:0112E90022E2
:1012EA00E8600FECC313FCED13FDEE13FEEF13FFE2
:0312FA00D8F12206
:1012FD00E8600FEFC333FFEE33FEED33FDEC33FC4F
:03130D00D8F122F2
:10131000BB010DE58229F582E5833AF5830213F6D8
:101320005007E92582F8021364BBFE07E92582F81D
:10133000021402E58229F582E5833AF58302140E50
:10134000BB010DE58229F582E5833AF58302144756
:101350005007E92582F80213ADBBFE07E92582F8A4
:0413600002145322FE
:0C136400E6FC08E6FD08E6FE08E6FF22B5
:0D137000E6FB08E6F908E6FA08E6CBF822ED
:10137D00BB010DE58229F582E5833AF58302141E42
:10138D005007E92582F8021370BBFE07E92582F8A4
:10139D0002142AE58229F582E5833AF58302143792
:0C13AD00ECF608EDF608EEF608EFF6226C
:1013B900D083D082E493F608740193F608740293FB
:0913C900F608740393F674047332
:103C7500EFB40A07740D123C80740A309811A899A4
:103C8500B8130CC2983098FDA899C298B811F630AF
:073C950099FDC299F5992287
:101C7D00E56A245EF8E6056A22785B300702785E35
:101C8D00E475F00112145F020FD32000EB7F2ED20A
:101C9D00008018EF540F2490D43440D4FF30040B3F
:101CAD00EF24BFB41A0050032461FFE56B600215E9
:101CBD006B056EE56E7002056D30070D785BE47592
:101CCD00F00112145FEF02104C023C757403D20741
:101CDD008003E4C207F56A8B5B8A5C895DE4F56B72
:101CED00F56DF56EE56B60077F20121CB880F575FC
:101CFD006CFFC201C200C202C203C205C206C20805
:101D0D00121C86FF700D3007057F00121CC9AF6EC7
:101D1D00AE6D22B4255FC2D5C204121C86FF24D03D
:101D2D00B40A00501A75F00A786B30D50508B6FF65
:101D3D000106C6A426F620D5047002D20380D9244C
:101D4D00CFB41A00EF5004C2E5D204021EC9D2016D
:101D5D0080C6D20080C0D20280BCD2D580BAD20556
:101D6D0080B47F20121CB82002077401B56B0040AF
:101D7D00F1121C7DFF121CB8021CF1D208D2068094
:101D8D0095121C7DFB121C7DFA121C7DF94A4B70BD
:101D9D0006799A7A1F7BFF20022EE56B602A7E0062
:101DAD008E82758300120FEC60060EEE656C70F07E
:101DBD00C2D5EBC0E0EAC0E0E9C0E0EE121F10D0E2
:101DCD00E0F9D0E0FAD0E0FB120FD3FF60AAEBC030
:101DDD00E0EAC0E0E9C0E0121CB8D0E02401F9D07F
:101DED00E03400FAD0E0FBE56C0460DCD56CD98002
:101DFD00877BFF7A1F790CD202809C791080027943
:101E0D0008C206C2088008D2D5790A8004790AC2B0
:101E1D00D5E56C047002F56CE4FAFDFEFF121C7D35
:101E2D00FC7B08200113121C7DFD7B1030000A1273
:101E3D001C7DFE121C7DFF7B20EC3382D592D5508C
:101E4D0013C3E43000069FFFE49EFEE42001039DD2
:101E5D00FDE49CFCE4CBF8C201EC700CCFCECDCCF4
:101E6D00E824F8F870F38017C3EF33FFEE33FEED7F
:101E7D0033FDEC33FCEB33FB994002FB0FD8E9EB60
:101E8D00300105F8D0E0C448B201C0E00AEC4D4E77
:101E9D004F78207B0070C2EAB56C0040BCC0E012E8
:101EAD001F12D0F0D0E0200104C4C0E0C4B201C0C4
:101EBD00F0121CA1D0F0D5F0EB021CF112146F1D25
:101ECD008E531E08581D5F4C1D5B421E0C4F1E1479
:101EDD00441E14491D74431E1A551DFE461DFE4514
:101EED001DFE471FBA501D632D1D672E1D8A2B1D0C
:101EFD006B231D88201FA82A1D234800001D823F2B
:101F0D003F3F00790AA2D5200314300509B910020C
:101F1D000404B9080104A2D52006025001042002D0
:051F2D00689202B56B93
:101F3200005034C0E07F203003197F30A2027206C5
:101F42007205500F121F69C202C206C205C2087F83
:101F520030800F300503E9C0E0121CB8300503D011
:101F6200E0F9D0E0B56BCC3005177F30B9100C1218
:101F72001CB87F583004077F788003B90803121C0D
:101F8200B83002057F2D021CB87F202008F87F2B75
:101F92002006F322920280CF286E756C6C29002DE8
:101FA20050434958D201121C7D3001F8C201786BAE
:101FB20030D50108F6021D23121C7D2403B405004E
:101FC2004001E4901FA193121CA9743A121CA9D2D9
:071FD20003756B04021E08F9
:1033BA008B448A458946AB44AA45A946120FD3FFD6
:1033CA00123D11500D74012546F546E43545F54583
:1033DA0080E4D200AB44AA45A946120FD3FF642B5E
:1033EA006004EFB42D1BAB440546E546AA457002BE
:1033FA00054514F9120FD3642D6003D38001C392DB
:10340A0000E4F54AF549F548F547AB44AA45A9460B
:10341A00120FD3FF123D24505CE47F0AFEFDFCAB81
:10342A004AAA49A948A8471211BCC8ECC8EDC0E08D
:10343A00EEC0E0EFC0E0AB44AA45A946120FD3FFA5
:10344A003395E0FEEF24D0FFEE34FFFEE4FCFDD01E
:10345A00E0FBD0E0FAD0E0F9EB2FF54AEA3EF54975
:10346A00ED39F548EC38F54774012546F546E4355B
:10347A0045F545809530000AAF4AAE49AD48AC479C
:0E348A00800BAF4AAE49AD48AC471213E822A2
:1013D200C5F0F8A3E028F0C5F0F8E58215827002A6
:0613E2001583E038F02243
:0E13E800C3E49FFFE49EFEE49DFDE49CFC2216
:0C13F600E0FCA3E0FDA3E0FEA3E0FF226A
:0C140200E2FC08E2FD08E2FE08E2FF2226
:10140E00E493FC740193FD740293FE740393FF2224
:0C141E00E0F8A3E0F9A3E0FAA3E0FB2251
:0D142A00E2FB08E2F908E2FA08E2CBF82242
:10143700E493F8740193F9740293FA740393FB220B
:0C144700ECF0A3EDF0A3EEF0A3EFF02218
:0C145300ECF208EDF208EEF208EFF222D5
:10145F00FAE6FB0808E6F925F0F618E6CA3AF6228E
:10146F00D083D082F8E4937012740193700DA3A30C
:10147F0093F8740193F5828883E473740293686020
:06148F00EFA3A3A380DF20
:0F3D2400EFC394304007EF943A50028001C3225E
:103D1100EFC394094005EF940E4003BF2003D38005
:033D210001C322B9
:00000001FF
