:073EFE007B007A0079092224
:101CD4008F488E478D468C45755C01854E5D854FDA
:101CE4005E780AE6B4020F781B1213C98F578E561A
:101CF4008D558C54800D7809E6FFE48F57F556F521
:101D040055F554AB4BAA4CA94D900001E54A12106D
:101D140089E54AAE497805C333CE33CED8F9F54ABE
:101D24008E49FF7C017DFE1210ABE4EF2548F5538C
:101D3400EE3547F552E43546F551E43545F550AEF8
:101D440049AF4A7C017DFE1210AB8C498D4AC3E534
:101D5400539548FFE5529547FEE5519546FDE550FC
:101D64009545FCAB57AA56A955A854C31213045061
:101D7400057E007F0222AF53AE52AD51AC50780DB8
:101D8400E6F56308E6F564855C65855D66855E67F2
:101D9400123C3EEF600302202CF559AB4BE54D2479
:101DA40002F9E4354CFA7E00E92559F9EE3AFAE4F1
:101DB4001210770559E559B40CE1AB5CAA5DA95E34
:101DC400AF4AAE49123EDA8F58E55864E570030213
:101DD4002024E5587003022024E54A240BFFE4354F
:101DE40049FEAB5CAA5DA95E123EDA8F5AAB4BAAE0
:101DF4004CA94DE55A121077780AE6640460030290
:101E04001E98E54A2415FFE43549FEAB5CAA5DA99A
:101E14005E123EDAE4FCFDFEAB4BAA4CA94D9000E9
:101E24000E1213A5E9240EF9E43AFA12133B7808CA
:101E340012132812138BAB4BE54D240EF9E4354CE9
:101E4400FAC003C002C00112133BC004C005C0069F
:101E5400C007E54A2414FFE43549FEAB5CAA5DA93A
:101E64005E123EDAE4AB07D007D006D005D004EF0B
:101E74004BFFEEEDECD001D002D00312138BAB4B31
:101E8400E54D240EF9E4354CFA12133B780812138D
:101E94002812138BAB4BE54D240EF9E4354CFAC0F4
:101EA40003C002C00112133BC004C005C006C00732
:0D1EB400E54A241BFFE43549FEAB5CAA5D46
:101EC100A95E123EDAE4AB07D007D006D005D004F4
:101ED100EF4BFFEEEDECD001D002D00312138BAB30
:101EE1004BE54D240EF9E4354CFA12133B780812F8
:101EF100132812138BAB4BE54D240EF9E4354CFA44
:101F0100C003C002C00112133BC004C005C006C01B
:101F110007E54A241AFFE43549FEAB5CAA5DA95ED8
:101F2100123EDAE4AB07D007D006D005D004EF4B60
:101F3100FFEEEDECD001D002D00312138BE55A3045
:101F4100E418AB4BE54D240EF9E4354CFA12133B82
:101F5100EFEEEDEC4410FC12138BE55A540E6003C6
:101F6100022024F5597E00E54A2559FFEE3549FE48
:101F7100AB5CAA5DA95E123EDA8F5BAB4BE54D24EB
:101F810002F9E4354CFA7E00E92559F9EE3AFAE511
:101F91005B1210770559E559C3940840C8E55A30DA
:101FA100E43D7559087E00E54A2559FFEE3549FEA5
:101FB100AB5CAA5DA95E123EDA8F5BAB4BE54D24AB
:101FC10002F9E4354CFA7E00E92559F9EE3AFAE5D1
:101FD1005B1210770559E559C3940B40C88044AB97
:101FE1004BAA4CA94D90000A742E121089755908FC
:101FF1007E00E54A2559FFEE3549FEAB5CAA5DA995
:102001005E123EDA8F5B855982758300A3A3A3AB71
:102011004BAA4CA94DE55B1210890559E559C394AA
:102021000B40CDE5587009FE7F02227E007F02221F
:052031007E007F01228A
:1035E70046696E64696E672042494F532070617265
:1035F700616D6574657220626C6F636B0A0065723A
:10360700726F723A20636F756C64206E6F74206CF2
:103617006F63617465204250420A006572726F726F
:103627003A20464154313220756E737570706F724F
:103637007465640A004641543136206465746563D5
:103647007465640A004641543332206465746563C7
:103657007465640A004572726F723A2046415420BD
:103667007479706520756E737570706F72746564A8
:103677000A004572726F723A20636F756C646E2729
:10368700742066696E64206E65787420636C757348
:053697007465720A00D9
:1014EC00AA06A9077544018A458946123EFE8B4718
:1014FC008A4889497BFF7A3579E71220987563020F
:10150C007564008544658545668546677F007E0069
:10151C007D007C00123C3EAB44AA45A946E4FFFE8C
:10152C00123EDA8F22E4F53FF53EF53DF53CE5221F
:10153C0064EB603BE52264E96035AB44AA45A946FF
:10154C007FC67E01123B188F3F8E3E8D3D8C3C75C5
:10155C006302756400854465854566854667123C63
:10156C003EAB44AA45A946E4FFFE123EDA8F22E5C3
:10157C002264EB6012E52264E9600C7BFF7A367919
:10158C00051220987F0122AB44AA45A9467F0B7E09
:10159C0000123DC3AB47AA48A949900004EE8FF056
:1015AC001211BA900002E412108990000412112B4F
:1015BC00FDACF0ED64014C6017AB47AA48A949900B
:1015CC0000027401121044ECC313FCED13FD80E314
:1015DC00AB44AA45A9467F0D7E00123EDAAB47AA62
:1015EC0048A949EF121077AB44AA45A9467F0E7E55
:1015FC0000123DC38E268F27AB44AA45A9467F1007
:10160C007E00123EDA8F23AB44AA45A9467F117E99
:10161C0000123DC38E248F25AB44AA45A9467F16E4
:10162C007E00123DC38E288F29AB44AA45A9467F64
:10163C00137E00123DC38E2A8F2BAB44AA45A946BC
:10164C007F2C7E00123B188F438E428D418C40E5DF
:10165C002945286018AB44AA45A9467F167E00127E
:10166C003DC3E48F338E32F531F5308015AB44AA8F
:10167C0045A9467F247E00123B188F338E328D3164
:10168C008C30E52B452A600DE4852B37852A36F501
:07169C0035F5348015AB4465
:1016A300AA45A9467F207E00123B188F378E368DC0
:1016B300358C34AB47AA48A94990000412112BFD7D
:1016C300ACF024FFFBEC34FFFAE525AE247805C328
:1016D30033CE33CED8F92BFFEA3EFE1210ABE4FC37
:1016E300FDAB47AA48A9499000121213A5AF23E402
:1016F300FCFDFEAB33AA32A931A8301211E7A804CE
:10170300A905AA06AB07E4FCFDEB2527FFEA35266E
:10171300FEED39FDEC38FCAB47AA48A9499000120D
:101723001213E2EF2BFBEE3AFAED39F9EC38F8C37A
:10173300E5379BF53BE5369AF53AE53599F539E515
:101743003498F538E4E527253FFFE526353EFEE4EA
:10175300353DFDE4353CFCAB47AA48A94990000E52
:101763001213A590000E1213E2C000C001C002C004
:1017730003AF23E4FCFDFEAB33AA32A931A8301238
:1017830011E7D003D002D001D000EF2BFFEE3AFED9
:10179300ED39FDEC38FCAB47AA48A9499000121279
:1017A30013E2EF2BFFEE3AFEED39FDEC38FCAB47CD
:1017B300AA48A94990000A1213A5120FFEFFE4FCE0
:1017C300FDFEF8F9FAAB07AF3BAE3AAD39AC3812D0
:1017D30012728F2F8E2E8D2D8C2CE47FF57E0FFDB4
:1017E300FCAB2FAA2EA92DA82CC3121304500C7BDB
:1017F300FF7A3679221220987F0122E47FF57EFF5B
:10180300FDFCAB2FAA2EA92DA82CC3121304505EE6
:10181300AB47AA48A94990000174021210897BFFC3
:101823007A36793C122098AB47AA48A94990000E12
:101833001213E2C000C001C002C003AF23E4FCFDE9
:10184300FEAB33AA32A931A8301211E7D003D0027C
:10185300D001D000EF2BFFEE3AFEED39FDEC38FC62
:10186300AB47AA48A9499000061213A5806EAB475F
:10187300AA48A94990000174041210897BFF7A36A3
:10188300794C122098E54324FEFFE54234FFFEE540
:101893004134FFFDE54034FFFCA804C005C006C089
:1018A30007AB47AA48A949120FFEFFE4FCFDFED08F
:1018B30003D002D0011211E7AB47AA48A94990000F
:1018C3000A1213E2EF2BFFEE3AFEED39FDEC38FC82
:0F18D300AB47AA48A9499000061213A57F00222F
:1038D2008F318E308D2F8C2E123EFE8B328A3389A1
:1038E20034E4FFFEFDFCAB31AA30A92FA82EC3128F
:1038F2001304700CAB32AA33A93490000602135B96
:10390200E53124FEFFE53034FFFEE52F34FFFDE50F
:103912002E34FFFCA804C005C006C007AB32AA3390
:10392200A934120FFEFFE4FCFDFED003D002D00149
:103932001211E7AB32AA33A93490000A1213E2EF54
:0C3942002BFFEE3AFEED39FDEC38FC22C4
:102C28008F2A8E298D288C27123EFE8B368A37896B
:102C380038752D01852B2E852C2F90000112101729
:102C4800FFE4FCFDFEAB2AAA29A928A8271211E750
:102C5800C004C005C006C007AB36AA37A938900023
:102C68000412112BFFAEF0E4FCFDF8F9AA06AB073D
:102C7800D007D006D005D004121272AB36AA37A9F5
:102C88003890000E1213E2EF2BFFEE3AFEED39FDFD
:102C9800EC38FCAB36AA37A93890000412112BF592
:102CA8006485F063852D65852E66852F67123C3E09
:102CB800AB36AA37A938900001121017FFE4FCFDC3
:102CC800FEAB2AAA29A928A8271211E7C004C00523
:102CD800C006C007AB36AA37A93890000412112BDA
:102CE800FFAEF0E4FCFDF8F9AA06AB07D007D00662
:102CF800D005D004121272AE02AF038E308F31AB02
:102D080036AA37A938900001121017B40411AB2D58
:102D1800AA2EA92F123B18EFEEEDEC540FFC22ABB4
:102D280036AA37A9389000011210176402703BAB1D
:102D38002DAA2EA92FAF31AE30123DC3E48F358EA8
:102D480034F533F5327FFF7EFFFDFCAB35AA34A99D
:102D580033A832C3121304700874FFFFFEFD7C0F02
:102D680022AF35AE34AD33AC32227BFF7A36795C94
:102D7800122098E4FFFEFDFC227BFF7A3679791257
:082D88002098E4FFFEFDFC228F
:103E29008D2DEF70077F40123F0F80057F40123FB5
:103E39002F7F80123F2FAF2D123F3B7F80123F0F04
:0A3E49007FFF123F3B7F40023F2F36
:103D56007D38E4FF123E297F017E00123E537D48E6
:103D6600E4FF123E297F017E00123E537D01E4FFEF
:103D7600123E297F027E00123E537D0CE4FF123E66
:083D8600297F017E00023E537B
:10384D008D278B288A29892AEFF46010EF4480FD9B
:10385D00E4FF123E297F017E00123E53E5277038AA
:10386D00F52BAB28AA29A92A852B82F583121017CF
:10387D00F52CE52C604EFD7F01123E297F017E0067
:10388D00123E53052BAB28AA29A92A852B827583B5
:10389D0000121017F52C80DAE4F52BE52BC39527D4
:1038AD005022AB28AA29A92A852B827583001210D4
:1038BD0017F52CFD7F01123E297F017E00123E532C
:0538CD00052B80D7224D
:053F0500EFF452A022C0
:043F2300EF42A022A7
:103D1B00AE077F80123F237F40123F237F20123F4D
:103D2B00237F10123F23EE30E0057F80123F05EE1C
:103D3B0030E1057F40123F05EE30E2057F20123F58
:0B3D4B0005EE30E3057F10123F05225B
:033F3B008F802252
:053F0A00EFF4529022CB
:053F0F00EFF452B022A6
:043F2700EF429022B3
:043F2B00EF42A0229F
:043F2F00EF42B0228B
:10266B005344204361726420496E697469616C69DB
:10267B007A6174696F6E202E2E2E200A0D00434D49
:10268B0044302073656E74202E2E2E2000526573FD
:10269B00706F6E7365203D2025322E3262580A0D05
:1026AB0000434D44382073656E74202E2E2E20006F
:1026BB00526573706F6E7365203D200025322E328C
:1026CB006258200A0D0056657273696F6E203120B7
:1026DB00534420436172642064657465637465645C
:1026EB002E0A0D005374616E646172642043617035
:1026FB0061636974792043617264206465746563F6
:10270B007465642E0A0D0025322E32625820005655
:10271B00657273696F6E203220534420436172647B
:10272B002064657465637465642E0A0D00434D4423
:10273B0035382073656E74202E2E2E200041434DAC
:10274B004434312073656E74202E2E2E2000546974
:10275B006D656F7574203D20256C75200A0D004842
:10276B0069676820436170616369747920436172A2
:10277B00642044657465637465640A0D0053746169
:10278B006E64617264204361706163697479204384
:10279B006172642044657465637465640A0D00435B
:1027AB004D4431362073656E74202E2E2E20005230
:1027BB006573706F6E7365203D2025322E32625823
:1027CB00200A0D00426C6F636B2073697A6520736E
:1027DB00657420746F203531322062797465730A09
:1027EB000D0053442054696D656F757420457272EA
:1027FB006F7200496C6C6567616C20436F6D6D6126
:10280B006E640A0D00526573706F6E7365204572AE
:10281B00726F72004461746120546F6B656E20455A
:10282B0072726F7200496E636F6D70617469626C66
:10283B006520566F6C746167650043617264206933
:10284B007320496E61637469766500535049206F3C
:10285B00722054696D656F7574204572726F7200CA
:0E286B00556E6B6E6F776E204572726F720045
:0B311B00E4F56EF56DF56CF56B7F3A86
:103126008F6AE4F570E56AC394404003023220E5F5
:103136006A4440F56F7B007A007971FF123DF68F85
:1031460072E572701CAF6EAE6DAD6CAC6B7818121A
:1031560013158F6F7B007A007971123DF68F72809E
:1031660003757087E570702FE572702BE56EF56E4E
:10317600E56DF56DE56CF56CE4F56BAF6EAE6DADBA
:103186006CAC6B78101213158F6F7B007A00797117
:10319600123DF68F728003757087E570702DE572AB
:1031A6007029E56EF56EE56DF56DE4F56CF56BAFC2
:1031B6006EAE6DAD6CAC6B78081213158F6F7B001D
:1031C6007A007971123DF68F728003757087E5700B
:1031D6007018E5727014E56EFFE48F6FFB7A007964
:1031E60071AF6F123DF68F728003757087E5707050
:1031F6002CE5727028E56A7005756F95800DE56A95
:10320600B40805756F878003756F017B007A0079B6
:1032160071AF6F123DF68F728003757082AF7022A8
:07369C00FB7A0079257F0194
:1036A3008F368B378A388939E4F53B7B007A00798A
:1036B3003D7FFF123DF68F3C053AE53D30E708E5D7
:1036C3003A6004E53C60E4E53C6005753B87805265
:1036D300E53A7005753B818049AB37AA38A939E5CE
:1036E3003D121077E53D600464017033E536D394F1
:1036F30001402F753A01E53AC3953650257B007A90
:1037030000793D7FFF123DF68F3CAB37AA38A939CC
:10371300853A82758300E53D121089053A80D77595
:103723003B837B007A00793D7FFF123DF68F3CAFF0
:023733003B2237
:103226008E6A8F6B8B6C8A6D896EE4F572F573F519
:10323600707B007A0079717FFF123DF68F6F057300
:10324600E57370020572E57130E70AE57345726051
:1032560004E56F60DCE56F6006757087023315E57F
:103266007345727006757081023315E5716003024D
:103276003312F572F5737B007A0079717FFF123D88
:10328600F68F6F0573E57370020572E571B4FF0A78
:10329600E57345726004E56F60DCE56F6005757087
:1032A60087806CE573457270057570818061E57184
:1032B60064FE7053F572F573C3E573956BE572950D
:1032C6006A50287B007A0079717FFF123DF68F6F76
:1032D600AB6CAA6DA96E857382857283E571121037
:1032E600890573E57370D1057280CD7B007A00790C
:1032F600717FFF123DF68F6F7B007A0079717FFF39
:10330600123DF68F6F800875708480037570837B1D
:0F331600007A0079717FFF123DF68F6FAF702242
:1018E200E4F523781F76FF7F10123F337BFF7A26C1
:1018F200796B122098E4F5227B007A00792D7FFF24
:10190200123DF68F240522E522C3940A40EA7F8025
:10191200123F057BFF7A2679891220987F10123FA9
:1019220019E4F56EF56DF56CF56BFF1231268F2417
:10193200E524701312369C8F247BFF7A26799885D2
:10194200254D12209880057F10123F057F10123F0F
:10195200337F80123F23E5246002F523E5236003F1
:10196200021A417F80123F057BFF7A2679AC122052
:10197200987F10123F19E4756EAA756D01F56CF52A
:101982006B7F081231268F24E5246003021A32FB92
:101992007A0079257F051236A38F247F10123F33F8
:1019A2007F80123F23E524603F7BFF7A2679BB12BA
:1019B20020987BFF7A2679C785254D122098E52449
:1019C200B48320E525B4051BE4F523781F76097B53
:1019D200FF7A2679D11220987BFF7A2679EF12209E
:1019E20098805C85242380577BFF7A2679BB12205E
:1019F20098E4F5227BFF7A27791274252522F8E6EE
:101A0200F54D1220980522E522C3940540E67F0D8C
:101A12001200037F0A120003E52964AA60037524F9
:101A220083781F76027BFF7A27791A122098800F1B
:101A32007F10123F337F80123F237F10123F05E554
:101A4200236003021ACC7F80123F057BFF7A27793D
:101A5200381220987F10123F1912311B8F24E5246F
:101A62007053FB7A0079257F051236A38F247F10ED
:101A7200123F337F80123F237BFF7A2679BB1220ED
:101A820098E4F5227BFF7A27791274252522F8E65D
:101A9200F54D1220980522E522C3940540E67F0DFC
:101AA2001200037F0A120003E52754FC64FC601451
:101AB200752485800F7F10123F337F80123F237F72
:101AC20010123F05E5246002F523E5236003021BA3
:0A1AD200BC781FE6B4020CE4F53105
:101ADC00F530F52F752E408009E4F531F530F52FF2
:101AEC00F52EE4F535F534F533F5327F20123F054C
:101AFC007BFF7A2779481220987F10123F19E4F562
:101B0C006EF56DF56CF56B7F371231268F24E5245D
:101B1C00700512369C8F24E52564016004E5257060
:101B2C001385316E85306D852F6C852E6B7F291258
:101B3C0031268F24E524700312369C7F10123F331C
:101B4C00E5352401F535E43534F534E43533F53336
:101B5C00E43532F532E4FFFEFDFCAB35AA34A93393
:101B6C00A832C31213047003752481E52530E004F8
:101B7C00E5246085E52470137F20123F237BFF7AD8
:101B8C0026799885254D122098800A7F80123F2354
:101B9C007F10123F057BFF7A2779598535508534A4
:101BAC004F85334E85324D122098E5246002F52383
:101BBC00E5236003021CC9781FE664026003021C63
:101BCC00C97F80123F057BFF7A2779381220987FD6
:101BDC0010123F1912311B8F24E5246003021CAF35
:101BEC00FB7A0079257F051236A38F247F10123FD4
:101BFC00337F80123F237BFF7A2679BB122098E437
:101C0C00F5227BFF7A27791274252522F8E6F54D0B
:101C1C001220980522E522C3940540E67F0D1200A0
:101C2C00037F0A120003E52620E706752486021CB2
:101C3C00BEE52654C0FFBFC00FE4781FF67BFF7AC9
:101C4C0027796A122098806A781F76097BFF7A2799
:101C5C0079881220987F80123F057BFF7A2779AA1A
:101C6C001220987F10123F19E4F56E756D02F56C19
:101C7C00F56B7F101231268F24E524703512369CBB
:101C8C008F247F10123F337F80123F237BFF7A27F4
:051C9C0079BA85254D19
:101CA1001220987BFF7A2779CF122098800F7F101E
:101CB100123F337F80123F237F10123F05E52460DE
:101CC10007F523AF23123AAAE5236004FF123AAACB
:031CD100AF23221C
:053F1400781FE6FF220A
:103AAA008F36E536B481097BFF7A2779ED022098B3
:103ABA00E536B482097BFF7A2779FE022098E5363B
:103ACA00B483097BFF7A287910022098E536B484FA
:103ADA00097BFF7A28791F022098E536B485097B8D
:103AEA00FF7A287930022098E536B486097BFF7A76
:103AFA00287945022098E536B487097BFF7A287928
:0E3B0A00560220987BFF7A28796B12209822B1
:103C3E008F628E618D608C5F123F148F687F1012C1
:103C4E003F19AF62AE61AD60AC5FA968A8011213F7
:103C5E00288F6E8E6D8D6C8C6B7F111231268F6955
:103C6E00E569700DAB65AA66A967AF64AE631232E3
:103C7E00267F10123F33E56960037F01227F002209
:0C3EDA005306018F828E83121017FF2206
:103DC3008E4A8F4B8B4C8A4D894E534A01E4FDFC3E
:103DD300E54B2401FFE4354A8F82F583121017FD6A
:103DE3007D00FC854B82854A83121017FFE4EFFDAB
:033DF300AE0422F9
:103B18008E4A8F4B534A01E4F54FF54EF54DF54C5F
:103B2800F551AF51C374039551CFE49400CF254BA1
:103B3800CF354A8F82F583121017F550AF4FAE4E2E
:103B4800AD4DAC4C78081213288F4F8E4E8D4D8C8E
:103B58004CE4E54F4550F54FE54EF54EE54DF54D36
:103B6800E54CF54C0551E551B404B7AF4FAE4EAD39
:043B78004DAC4C22E2
:10373500E4F522AB07AA06A905A804FF7E407D197A
:103745007C01121272EFD39402500575C370806923
:10375500EFD39402400BEFD39404500575C37180E9
:1037650058EFD39404400BEFD39408500575C372FA
:103775008047EFD39408400BEFD39410500575C3E1
:10378500738036EFD39410400BEFD394205005751A
:10379500C3F08025EFD39420400BEFD39440500520
:1037A50075C3F18014EFD39440400BEFD394805050
:0C37B5000575C3F2800375220FAF2222BD
:103DF600E4FE8FC5AFC40EEF54F07003EE70F5EE1F
:103E06006017EF54707009E5C5121077E4FE801054
:103E160074FF121077E4FE800774FF1210777E801D
:033E2600AF0622C2
:043F3300EF429022A7
:053F1900EFF4529022BC
:103E53005389F0438901C2A9758CF4758A3DC28DDB
:103E6300D28C308DFDC28CEF1F70011ED3EF9400F6
:063E7300EE940050E32272
:103D8E0053873F438780C2AC759852E4F59BFCFD88
:103D9E007BC0FAF9F81211E7A804A905AA06AB0729
:103DAE00E4FFFE7D2F7C0D121272EFF404F59A756E
:053DBE009B1ED29922BA
:103E7900E4FDFC0DBD00010C209904ED4C70F4ED3E
:103E89004C60088F99AE07C29980027EF1AF062275
:063A3A007B017A00790017
:103A40008B2B8A2C892DE4FFFEFDFC78871213D581
:103A5000C3121304700D78951213C91238D2788BE3
:103A6000121412123EFE90000412112BF56485F020
:103A70006378871213C9788B1213D5EB2FFFEA3EB8
:103A8000FEE93DFDE83CFC852B65852C66852D67B0
:103A9000123C3E78871213C9EF2401FFE43EFEE496
:0A3AA0003DFDE43CFC78870214129F
:103CD8008F2A8E298D288C27750803E4788FF6089B
:103CE800760108F608F608F608F6AF2AAE29AD28D8
:103CF800AC271238D2788B121412788712141E004F
:103D0800000000AF2AAE29AD28AC2778951214120E
:033D1800023A3A32
:1039C8008B278A2889297F08123F27AB2AAA2BA987
:1039D8002C121100FFAEF0C3EE940250292092265B
:1039E800AB27AA28A9298F828E83121017FF7B0084
:1039F8007A007930123DF6AB2AAA2BA92CE475F08F
:103A08000112116380C57F08123F0AAB2AAA2BA9AD
:103A18002C121100B40018E5F0B40213E4F5F0120A
:103A2800119BAB2DAA2EA92F7401121077FF227FAC
:023A380000226A
:10287900E508B409004003022A5A90288AF8282852
:10288900730228A50228E40228F502292202297DDB
:102899000229BC0229CD0229FF022A557F01123DD6
:1028A9001B78951213C9752B00752C00122C2878EA
:1028B9009512141274FFFFFEFD7C0F78951213D543
:1028C900C3121304600F788712141E0000000075EC
:1028D9000805022A5A750808022A5A7F02123D1B66
:1028E900309203022A5A750803022A5A7F03123DBD
:1028F9001B123EFE120FFEFFE4FCFDFE7887121349
:10290900D5C31213047005F508022A5A123A3AE49B
:10291900788FF6750805022A5A7F04123D1B20920A
:102929001E788FE67019F52A752B00752C91F52DF7
:10293900752E00752F8F7B017A0079001239C83006
:1029490092077890E66401600C788FE6FFB4010B7A
:1029590008E6B40106750806022A5AEFB4010920EF
:102969009206750807022A5A209203022A5A750804
:1029790001022A5A7F05123D1B78951213C9752B3E
:1029890002752C00122C28789512141274FFFFFE80
:10299900FD7C0F78951213D5C3121304600F788745
:1029A90012141E00000000750801022A5A75080851
:1029B900022A5A7F06123D1B309203022A5A7508D1
:1029C90007022A5A7F07123D1B123EFE120FFEFF15
:1029D900E4FCFDFE78871213D5C312130470057544
:1029E9000804806D7B017A027900123A40E47890FC
:1029F900F6750801805B7F08123D1B20921E7890B6
:102A0900E67019F52A752B00752C93F52D752E0096
:102A1900752F907B017A0279001239C830920778B4
:102A29008FE66401600B788FE6B4010A08E6B40109
:102A390005750802801B7890E6B401082092057597
:102A49000803800D30920A75080580057F09123D3B
:0C2A59001BE508B408037F01227F002267
:103325008F3AD290D291E4F545E53F75F008A4F5C2
:103335003F054020910302340F20900302340F1201
:103345003EB5E53A25E0F5445344FEC2907546087E
:103355007F01123E9FC2911546AF46E544A8070876
:103365008002C313D8FC5401F547123E99D291301F
:1033750091FDA290E433F54865476003754581E505
:1033850046D394004004E54560C6E545704F7F018E
:10339500123E9FC291D290E53F601524F8F53FAFEC
:1033A5003EAE3DAD3CAC3BF9F81213158F44801889
:1033B5001540AB41AA42A943120FFEF544740125FD
:1033C50043F543E43542F5427F01123E9FD29130E9
:1033D50091FDA290E433F5486003754582E54060B0
:1033E50007E5457003023352E5456481601F7F019F
:1033F500123E9FC291C2907F01123E9FD2913091A1
:10340500FD7F02123E9FD2908003754581AF452214
:102D90008F2AE4F535E52F601F852E3E852D3D8574
:102DA0002C3C852B3BF53FE4F54085314185324293
:102DB0008533431233258F35E5356003022ED1D29A
:102DC00090D291209103022ECE209003022ECE129B
:102DD0003EB5E52A25E0F534433401C29075360846
:102DE0007F01123E9FC2911536AF36E534A8070821
:102DF0008002C313D8FC5401F537123E99D29130AA
:102E000091FDA290E433F53865376003753581E5AF
:102E100036D394004004E53560C6E535701E7F0169
:102E2000123E9FC291D2907F01123E9FD29130916B
:102E3000FDA290E433F5386003753582E530D39414
:102E4000004069E53570657536087F01123E9FC206
:102E5000911536D290E53925E0F5397F01123E9F74
:102E6000D2913091FDA290E433F5384239E536D362
:102E7000940050D6AB31AA32A933E53912107774D9
:102E8000012533F533E43532F532E530B40105750B
:102E900037018003E4F5377F01123E9FC291E53789
:102EA000123E99D2913091FD15308090E5356481C4
:102EB000601F7F01123E9FC291C2907F01123E9F10
:102EC000D2913091FD7F02123E9FD29080037535E2
:042ED00081AF352277
:103EB5005389F0438901C2A9758CFF758AC3C28DE8
:033EC500D28C227A
:063E990024FF92907F015E
:103E9F00308C03308DFDC28CBF010A758CFF758A83
:063EAF00C3C28DD28C227B
:102ED4004F75747075742066726F6D20494420724A
:102EE400656769737465723A2025322E3262582000
:102EF4000A0D0053544130313320536F66745665C4
:102F04007273696F6E3A2025322E326258200A0D90
:102F1400002E000A466972737420636F6E666967D7
:102F240075726174696F6E2066696C652073656E75
:102F3400742E2E2E0A004E756D626572206F662007
:102F440076616C756573207772697474656E3A2066
:102F54002564200A000A5365636F6E6420636F6EF4
:102F640066696775726174696F6E2066696C652045
:102F740073656E742E2E2E0A0053656E7420746F62
:102F8400205354413031333A2025322E32625820B6
:102F94002025322E326258200A0D004F7574707548
:102FA400742066726F6D2072656769737465723A16
:102FB4002025322E326258202025322E32625820AB
:102FC40025322E326258200A0D00436F6E666967FF
:102FD40075726174696F6E20436F6D706C65746592
:102FE4000A0D005455060B525165645061050D18C5
:102FF4000C4648720007100902B80000000605A13B
:073004000004050C0C0100A3
:053F1E00EFF452B02297
:043F3700EF42B02283
:102392007F08123F1E78757601752332123F37E4AB
:1023A200F52EF52DF52CF52BF52F753003F531753E
:1023B20032007533787F43122D908F221523E52248
:1023C2006004E52370D9E523600E7BFF7A2E79D471
:1023D200787AE6F54D122098E4752E01F52DF52C4C
:1023E200F52B752F01753001F53175320075337893
:1023F2007F43122D908F221523E5226004E523707E
:10240200D7E523600E7BFF7A2E79D47878E6F54DF6
:102412001220987878E664AC6003022668752E7103
:10242200F52DF52CF52B752F01753001F53175322F
:10243200007533787F43122D908F227BFF7A2E799D
:10244200F77878E6F54D122098E4F528F5297525F8
:10245200FF75260075272EAB25AA26A92785298276
:10246200852883121017F5240529E529700205280D
:10247200F5828528831210177875F60529E52970EB
:10248200020528543F70097BFF7A2F791512209894
:10249200E524F4602F752332E485243EF53DF53CB6
:1024A200F53B753F01754001F54175420075437575
:1024B2007F431233258F22D52302C2A7E52260046F
:1024C200E52370D4E524F46004E523708A7BFF7A67
:1024D2002F79171220987BFF7A2F793AE528C313B8
:1024E200F54DE52913F54E122098E4F528F52975E6
:1024F20025FF75260F7527CCAB25AA26A927852986
:1025020082852883121017F5240529E52970020512
:0525120028F582852878
:10251700831210177875F60529E5297002052854E6
:102527000770097BFF7A2F7915122098E524F4604C
:102537002F752332E485243EF53DF53CF53B753F89
:1025470001754001F5417542007543757F431233AC
:10255700258F22D52302C2A7E5226004E52370D484
:10256700E524F46004E523708A7BFF7A2F795912FA
:1025770020987BFF7A2F793AE528C313F54DE52993
:1025870013F54E122098E4752E71F52DF52CF52BC9
:10259700752F01753001F5317532007533787F433A
:1025A700122D908F227BFF7A2E79F77878E6F54DFA
:1025B700122098E4F528F529AF29EF902FE793F536
:1025C70024EF902FF9937875F6752332E485243E2E
:1025D700F53DF53CF53B753F01754001F541754209
:1025E700007543757F431233258F22D52302C2A777
:1025F700E5226004E52370D47BFF7A2F797D85245B
:102607004D7875E6F54E122098E529902FE793F55A
:1026170024FFE48F2EF52DF52CF52B752F01753042
:1026270001F5317532007533787F43122D908F2273
:102637007BFF7A2F799F85244D7878E6F54E8522A2
:102647004F1220980529E52970020528C39411E542
:1026570028940050030225BF7BFF7A2F79CE1220E2
:0426670098AF2222E4
:10002E003A012A0428002900200021002200230082
:10003E00240025002600270028012802218F2803EE
:10004E002100280428052806280728082809280A38
:10005E00280B280C20802190280D20002100280E2E
:10006E0020812191280F2000219228102100281193
:10007E0021932812210028132814281520822816CF
:10008E0020002817281828192194281A2195281B92
:10009E002196281C2100281D2083281E2000281FA1
:1000AE0021972820210028212822282328242825AA
:1000BE002826282728282829282A2084282B20008B
:1000CE00282C282D282E282F28302831283220851C
:1000DE002833200028342835283628372198283808
:1000EE0021002839283A283B283C283D283E283F25
:1000FE002840284128422843284428452846284796
:10010E0028482849284A284B284C284D284E284F45
:10011E0028502851285228532854285528562857F5
:10012E0028582859285A285B285C285D285E285FA5
:10013E002860286128622199286321002864286597
:10014E002866286728682869286A286B286C286D15
:10015E00286E286F287028712872287328742875C5
:10016E002876287728782879287A287B287C287D75
:10017E00287E287F28802881288228832884288525
:10018E002886288728882889288A288B288C288DD5
:10019E00288E288F289028912086289220872893B1
:1001AE002000289428952896289728982899289AE8
:1001BE00289B289C289D289E289F219A28A02100B4
:1001CE0028A128A228A328A428A528A628A728A8BD
:1001DE0028A928AA28AB28AC28AD28AE28AF28B06D
:1001EE0028B128B228B328B428B528B628B728B81D
:1001FE0028B9208828BA200028BB208928BC2000D6
:10020E0028BD28BE28BF28C028C128C228C3219BCC
:10021E0028C4210028C528C628C728C828C928CA26
:10022E0028CB28CC28CD28CE28CF28D028D128D20C
:10023E0028D328D428D528D628D728D828D928DABC
:10024E0028DB28DC28DD28DE28DF28E028E1208ACC
:10025E0028E2208B28E3200028E428E528E628E77A
:10026E0028E828E928EA28EB28EC28ED28EE28EFE4
:10027E0028F028F128F228F328F428F528F628F794
:10028E0028F8208C28F92000219C28FA219D28FB93
:10029E00208D219E28FC208E219F28FD20002100EC
:1002AE0028FE28FF2A0128002201239524892507EC
:1002BE0026A42707280121C72200238026C4270C45
:1002CE0028022009211C220426AA270A280320001E
:1002DE002100220023A626A0270728042805200592
:1002EE00238426B427092806200022032300248114
:1002FE0025C026AB270A280721AE22002395248984
:10030E00250726A42700280821482201238026C479
:10031E00270C280920092104220426AA270A280AC4
:10032E0020002100220023A826A42707280B280C32
:10033E0021402220238026C4270C280D222426C6E5
:10034E00280E219E220026C8280F200921022214E1
:10035E0026AA270A2810200521002200238426B46D
:10036E0027092811200021012300240125C026ABD6
:10037E00270A281221C32395248925072620270022
:10038E002813200321C223832626270D281421B3E8
:0E039E0022082815200021C6220023952600E3
:1003AC0027082816210023002496250326AA270AAD
:1003BC002817204221B623802489250728182000DD
:1003CC0021002394260E2819200F238426B42709F4
:1003DC00281A2000239326A82703281B2628270049
:1003EC00281C21012300240125C026AB270A281D27
:1003FC0021C523952489250726202700281E2100A6
:10040C0023942600270A281F260E28202003217952
:10041C00220123832626270D282121322822200081
:10042C00210422002380240025FC26AA270A282345
:10043C00210023002500282421A3220D2380249EA3
:10044C00253B2825204221572201248925072826CF
:10045C0020002143220D240025382827210822982A
:10046C002395248925072624270028282042219318
:10047C002201238026AA270A28292003217E220470
:10048C0023832626270D282A200021B0220023951D
:10049C0026A02707282B21002300240C250426AA9C
:1004AC00270A282C21022380248625C326AB282D3D
:1004BC002042219722012489250726AA282E2000D4
:1004CC0021002200241F2504282F21B223952489E2
:1004DC0025072620270428302042218B2204238044
:1004EC0026AA270A2831200021B12200239526A014
:1004FC002707283220032175220423832626270D63
:10050C002833200521002200238426B4270928340F
:10051C00200021602300240125C026AB270A2835A2
:10052C00210822982395248925072624270028367C
:10053C0021BC2200283721A3220D2300240125C031
:10054C0026AB270A28382160220023802400253876
:10055C0026AA2839210622982395248925072624A2
:10056C002700283A21BE2200283B200521002384A5
:10057C0026B42709283C200021602300240125C033
:10058C0026AB270A283D21422201239524892507E1
:10059C0026242700283E210C229826A42707283F32
:1005AC0021082840216022002300240125C026AB0D
:1005BC00270A2841210C22982395248925072624D3
:1005CC0027002842200521002200238426B4270975
:1005DC002843200023802400251026AB270A28441A
:1005EC00212222012395248925072624270028452A
:1005FC002100220023002404251226AA270A2846BB
:10060C00200321D422052383248925072626270DA0
:10061C0028472000216022002300240125C026AB9E
:10062C00270A284821B32395248925072600270863
:10063C002849210023002409250026AA270A284A34
:10064C00210223802486253B284B204221DD2205D4
:10065C0024892507284C200021002200241F250076
:10066C00284D21B323952489250726202700284EC1
:10067C00210023002497250326AA270A284F20426D
:10068C0021E22205238024892507285020002110EF
:10069C0022002300248025CC26AB285121002240A7
:1006AC0023B42489250726AA27042852220023B024
:1006BC002692270928532114220123952600270866
:1006CC002854214823A4262A27002855210022003B
:1006DC0023002409250026AA270A2856210823804E
:1006EC002486253B285720422111220724892507DF
:1006FC002858200021002200241F250028592114ED
:10070C00220123952489250726202700285A211603
:0E071C0026022709285B2100220023002480EA
:10072A00254826AA270A285C23A0248925072614F7
:10073A002709285D2480255026A42704285E21162F
:10074A0022012395248925072700285F21042200F6
:10075A002300249C257826AA270A28602143220DF3
:10076A00240125C426AB286121032200241528620E
:10077A0021002400250026AA2863215E23952489C6
:10078A00250726102709286421032300241525C4D8
:10079A0026AB270A2865210023802400250626AADD
:1007AA002866248F25E326AB2867204221CD22071D
:1007BA002489250726AA2868200021602200230010
:1007CA00240125C026AB286921002380248F250314
:1007DA0026AA286A204221DD220724892507286BB8
:1007EA0020002143220D2300240125C026AB286CBA
:1007FA00210022002400250426AA286D2003217F37
:10080A0022012383248925072626270D286E2162A3
:10081A00286F200521002200238426B42709287086
:10082A00200021062395260027082871210123008C
:10083A002497253B26AA270A28722042210E22083D
:10084A0023802489250728732003213C220B238334
:10085A002626270D2874200021032200239526022C
:10086A002708287521272300248125C426AB270AB7
:10087A002876210023802409254826AA287721588A
:10088A00223423A324892507262A27002878210031
:10089A00220023A026002709287921072380240380
:1008AA00253926AA270A287A21042300241C253858
:1008BA00287B2107238024832539287C210323953B
:1008CA002489250726022708287D21272300248139
:1008DA0025C426AB270A287E21002380240925481F
:1008EA0026AA287F2158223423A324892507262AC9
:1008FA0027002880210622002300248125C0269370
:10090A0027012881210023802489254826AA270A2D
:10091A0028822002216622082300240025662883D3
:10092A002000210022002380241F2502288421067A
:10093A002489250726DC270C2885210023AA26AA34
:10094A00270A288623B62600270828872380248694
:10095A00253B26AA270A288821052489250726DC7B
:10096A00270C2889210023AA26AA270A288A23B61F
:10097A0026002708288B23802486253B26AA270AB7
:10098A00288C2042217B220824892507288D2000D3
:10099A0021002200230024012582288E210524819A
:1009AA0025C226AB288F200321932208238324897A
:1009BA0025072626270D289020002105220023003E
:1009CA00248125C026132701289121002380248908
:1009DA00254826AA270A28922002217E22082300D7
:1009EA002400256628932000210022002380241F4A
:1009FA002502289421052489250726DC270C289519
:100A0A00210023AA26AA270A289623B62600270801
:100A1A00289723802486253B26AA270A2898210579
:100A2A002489250726DC270C2899210023AA26AA2F
:100A3A00270A289A2380241F2502289B21012300A4
:100A4A00248125C226AB289C2003219322082383D4
:100A5A00248925072626270D289D20002104220007
:100A6A00239526122708289E216023C426AA270434
:100A7A00289F210023C02600270928A0204221CB35
:100A8A002208238026AA270A28A12070215422B8E6
:0E0A9A0023952612270828A2200221CC22082C
:100AA800238026AA270A28A3200321CA220F2383EA
:100AB8002626270D28A42000210022002300248CAC
:100AC800250C26AA270A28A521042482257828A6E9
:100AD80021002380248925482612270428A72003DB
:100AE80021DE220F238325072626270D28A820008C
:100AF800210122002300249C257826AA270A28A958
:100B0800210023802481254028AA200321CF220FF9
:100B18002383248925072626270D28AB2070210842
:100B280022B8239526A0270428AC200321D4220F1D
:100B380023832626270D28AD2127220B28AE2070D7
:100B4800216322B823952612270828AF2000210107
:100B580022002380248625CB26AB270A28B02042F2
:100B680021DD22082489250726AA28B1200021187A
:100B78002280239526A4270028B2200321D9220FFA
:100B880023832626270D28B32070210A22B823950F
:100B980026A0270028B4200221E02208238026AAC4
:100BA800270A28B52070210A22B8239526A02700F5
:100BB80028B621542602270828B7200021182280A9
:100BC80026A4270028B82100220023802480254855
:100BD80026AA270A28B92070215E22B823952489DD
:100BE80025072612270828BA200021002200238082
:100BF8002409254B26AA270A28BB2070215F22B882
:100C08002395248925072610270828BC20002100C1
:100C180022002300241C258326AB270A28BD200395
:100C2800213222092383248925072626270D28BE59
:100C380020002100220023002482258C26AB270ACD
:100C480028BF200321252209238324892507262656
:100C5800270D28C0204221BC238026AA270A28C1A4
:100C68002000210122002300240125C026AB28C230
:100C78002070210F22B823952489250726202700D4
:100C880028C3200321E3220F23832626270D28C407
:100C9800200521002200238426B4270928C5200026
:100CA800210323952614270828C621A623A4262A2B
:100CB800270528C7210023A02644270928C821186A
:100CC800226D2380249E257B26AA270A28C9204234
:100CD8002113220B2489250728CA200021AE2200CF
:100CE80023952624270028CB21002203238024874C
:100CF800257B26AA270A28CC20422116220B2489E4
:100D0800250728CD200021AE220023952624270080
:100D180028CE20052100238426B4270928CF2003C4
:100D2800210D220B23832626270D28D02000210001
:100D38002200230024802602270028D123802409AA
:100D48002548261E28D221582234233324802507FB
:100D5800262A28D32100220023002680271028D401
:100D680021102363262A270028D52100236026A8DE
:100D7800271228D621AF224C230026C8270C28D7B3
:100D8800210022002680270528D823802486253B99
:100D9800261E270028D92042211C220E2300248049
:100DA800250728DA20002135222926C4270C28DB2C
:100DB8002002211D220E261E270028DC2000217F6C
:100DC800223426C4270C28DD210022002390249FEA
:100DD80025042610270A28DE2300248425002680DF
:100DE800271028DF2106236324802507262A2700C9
:100DF80028E021002380248926AA270A28E1200543
:100E0800238426B4270928E22070216122B823957B
:0E0E18002612270828E3200021012200238053
:100E2600248625C326AB270A28E4204221CE220F9A
:100E36002489250726AA28E52070215022B8239563
:100E46002612270828E6200521002200238426B43E
:100E5600270928E72070216422B82395261227083F
:100E660028E82000210122002380248625C326AB02
:100E7600270A28E9204221D3220F2489250726AAFA
:100E860028EA2070215122B823952612270828EB3C
:100E9600200521002200238426B4270928EC20708F
:100EA600216522B823952612270828ED2000210166
:100EB60022002380248625C326AB270A28EE20425B
:100EC60021D8220F2489250726AA28EF207021522F
:100ED60022B823952612270828F020052100220093
:100EE600238426B4270928F12070216122B823958E
:100EF6002602270828F220002101220023802486CA
:100F060025C326AB270A28F3204221DD220F248998
:100F1600250726AA28F42070215022B823952602F8
:100F2600270828F5200521002200238426B4270956
:100F360028F6200021012380248625CB26AB270A0C
:100F460028F7204221E1220F2489250726AA28F81E
:100F56002000210222002300248125C426AB28F983
:100F6600210023802489254826AA28FA20052384DF
:100F7600250726B4270928FB2070214E22B8239581
:100F86002610270828FC2000210022002380248622
:100F960025C326AB270A28FD204221E7220F2489F4
:100FA600250726AA28FE200021BB220023952620FD
:100FB600270028FF20052100238426B427092A08B4
:100FC6001001FFFFFFFF3A00643A65BB083A09BB10
:100FD60050105267517705A1180454015521070096
:100FE600060C0B03501051005204610F64556555F1
:080FF60005A11804FFFFFFFF35
:10394E007374617274696E672070726F6772616DE5
:10395E002E2E2E0A004D6F756E74696E67205344BD
:10396E0020636172640A0053442063617264206DA7
:10397E006F756E7465640A0053442063617264202F
:10398E006661696C656420746F206D6F756E740A64
:10399E0000526566657220746F204C434420666F3A
:1039AE0072206E617669676174696F6E0A00537476
:0A39BE00617274696E672E2E2E00F0
:10350200758E0C758F017F10123F057F0F123F2BB6
:103512007F2C7E01123E537F807E25123D8E122328
:1035220092EF600280FE123D567BFF7A3979BC7DB4
:103532000BE4FF12384D7BFF7A39794E1220987FC7
:10354200407E0D7D037C001237357874EFF6600CF7
:103552007F10123F057F53123E7980FE7F40123F5B
:10356200051218E27874EFF6600C7F10123F057FA7
:1035720043123E7980FE7F40123F237F007E2D7DE5
:10358200317C011237357874EFF6600C7F10123FF0
:10359200057F50123E7980FE7BFF7A3979631220D3
:1035A200987E007F001214ECEF70157BFF7A397958
:1035B200751220987F10123F237F80123F05800BE7
:1035C2007BFF7A39798612209880FE7BFF7A3979DF
:1035D2009F122098123EFE90000612135B123EE6E6
:0535E200122A6580FEC5
:103C8E002563006E6578740A0070726576696F75CB
:103C9E00730A0073656C6563743A2025640A0070BC
:103CAE006C6179696E670A00313A6E7874323A70D7
:103CBE00727620333A73656C00706C6179696E6749
:0A3CCE002E2E20333A73746F70003D
:03002B00023BE0B5
:103BE000C0E0C0F0C083C082C0D075D000C000C0AB
:103BF00001C002C003C004C005C006C007C2CF7B1D
:103C0000007A0079991237C17B007A00799C1237CB
:103C1000C17B007A00799F1237C17B007A0079A2BC
:103C20001237C1D007D006D005D004D003D002D0BF
:0E3C300001D000D0D0D082D083D0F0D0E032CE
:103B7C00E4FCFDFB7A40791978011211E7E47B70C3
:103B8C007A17F9F8121272C3E49FF523E49EF5221A
:103B9C007B007A0079997D01123EC87B007A00790E
:103BAC009C7D02123EC87B007A00799F7D04123EF8
:103BBC00C87B007A0079A27D08123EC8E4F5C8E5FE
:103BCC0023FD7C00ECF5CBAF058FCAC2CFD2ADD2B2
:043BDC00AFD2CA2278
:103415008F2A8E298D288C278B2B8A2C892DE4F5D4
:1034250043121100C39401E5F0940050037F01227B
:10343500AB2BAA2CA92D74FFF5F0121163AF2AAEA0
:1034450029AD28AC27AB2BAA2CA92D121100F54AC2
:1034550085F049754B00754C00754D31754E0075FD
:103465004F00121CD4EF64026024E531540E700540
:103475007543018019AB2BAA2CA92D121100D394E9
:1034850000E5F09400400774FFF5F0121163E54381
:103495007017EF64026012AB2BAA2CA92D12110034
:1034A500D39400E5F094005094E54370037F012226
:1034B500AB2EAA2FA930E531121077AB2EAA2FA972
:1034C50030900001E532121089AF42AE41AD40ACFB
:1034D5003F90000E1213A5E4FF74332FF8E6FEAB00
:1034E5002EE5302402F9E4352FFAEF7C0029F9ECBA
:0D34F5003AFAEE1210770FBF0CDF7F0122B4
:10300B00E4F525F52678A51213C9752E00752F004A
:09301B007530757B007A007925FF
:103024008F2A8E298D288C278B2B8A2C892DE4F5C9
:103034004475F001121163AF2AAE29AD28AC27AB59
:103044002BAA2CA92D121100F54A85F049754B00C5
:10305400754C00754D31754E00754F00121CD48FA0
:1030640043E543B4020CAB2BAA2CA92DE4F5F012D2
:10307400119BAF2AAE29AD28AC27AB2BAA2CA92DC6
:10308400121100F54A85F049754B00754C00754DD9
:1030940031754E00754F00121CD48F43E543640212
:1030A4006018E531540E7005754401800DAB2BAAF0
:1030B4002CA92DE475F001121163E5447005E54374
:1030C400B402AFE54470037F0122AB2EAA2FA930CE
:1030D400E531121077AB2EAA2FA930900001E5320A
:1030E400121089AF42AE41AD40AC3F90000E1213B6
:1030F400A5E4FF74332FF8E6FEAB2EE5302402F985
:10310400E4352FFAEF7C0029F9EC3AFAEE12107745
:073114000FBF0CDF7F012259
:102A650012300B8F22E4F523F5247BFF7A3C798E17
:102A750074772524F8E6F54D1220980524E5247091
:102A8500020523C3940CE523940040DE7B007A0005
:102A950079777D0CE4FF12384D7BFF7A3C79B67D62
:102AA500107F4012384D789BE6640270467BFF7AB2
:102AB5003C7991122098789B76031230108F22E48E
:102AC500F523F5247BFF7A3C798E74772524F8E687
:102AD500F54D1220980524E52470020523C3940CB6
:102AE500E523940040DE7B007A0079777D0CE4FFD6
:102AF50012384D789EE66402705A7BFF7A3C7997CE
:102B0500122098789E760378A51213C9752E007544
:102B15002F007530757B007A0079251234158F22C8
:102B2500E4F523F5247BFF7A3C798E74772524F828
:102B3500E6F54D1220980524E52470020523C3947B
:102B45000CE523940040DE7B007A0079777D0CE468
:102B5500FF12384D78A1E664026003022AAB7BFFC1
:102B65007A3C79A185254D85264E12209878A17647
:102B75000378831213C9E4FFFEFDEC5410FC6020BA
:102B850078831213C9EFEEEDEC540FFC7883121421
:102B95001278831213C91238D278A51214128047FD
:102BA50078831213C9123CD87BFF7A3C79AD122089
:102BB500987BFF7A3C79C77D107F4012384D78A10C
:102BC500E6B40202E4F6122879EF700678A1E6B4BD
:102BD50002F478A1E6B40202E4F67BFF7A3C79B60A
:102BE5007D107F4012384D12300B8F22E4F523F50E
:102BF500247BFF7A3C798E74772524F8E6F54D120F
:102C050020980524E52470020523C3940CE523943C
:102C15000040DE7B007A0079777D0CE4FF12384DA9
:032C2500022AABD5
:0C3EE60078A51214127F0A7E00023B7CBB
:103EC800ED121077900001E4121089900002E402CC
:023ED80010894F
:1037C100900002121017FF7015120FFE55A0707BAA
:1037D1009000011210899000027401021089EF64B7
:1037E100017028900001041210449000011210177A
:1037F100C394024056120FFE55A070089000027447
:1038010002021089900002E4021089EFB4030F1242
:103811000FFE55A060359000027404021089EF6418
:103821000470289000010412104490000112101736
:10383100C394024016120FFE55A06007900002E4E7
:0C3841000210899000027403121089220A
:03000000023EF2CB
:0C3EF200787FE4F6D8FD7581A802350247
:100FFE00BB010689828A83E0225002E722BBFE02F1
:09100E00E32289828A83E4932223
:10101700BB010CE58229F582E5833AF583E022508E
:1010270006E92582F8E622BBFE06E92582F8E222D8
:0D103700E58229F582E5833AF583E49322F2
:10104400BB010FF8E58229F582E5833AF583E028B0
:10105400F0225009C58229F8E58226F622BBFE0952
:10106400C58229F8E22582F222F8EA2583F583E98C
:031074009328229C
:10107700BB010689828A83F0225002F722BBFE0158
:02108700F32252
:10108900F8BB010DE58229F582E5833AF583E8F09D
:10109900225006E92582C8F622BBFE05E92582C849
:0210A900F22231
:1010AB00BC000BBE0029EF8DF084FFADF022E4CC29
:1010BB00F875F008EF2FFFEE33FEEC33FCEE9DECF2
:1010CB00984005FCEE9DFE0FD5F0E9E4CEFD22ED38
:1010DB00F8F5F0EE8420D21CFEADF075F008EF2F82
:1010EB00FFED33FD4007985006D5F0F222C398FD73
:0510FB000FD5F0EA2210
:10110000BB010A89828A83E0F5F0A3E022500687BA
:10111000F009E71922BBFE07E3F5F009E31922897C
:0B112000828A83E493F5F074019322AF
:10112B00BB0110E58229F582E5833AF583E0F5F002
:10113B00A3E0225009E92582F886F008E622BBFEDF
:10114B000AE92582F8E2F5F008E222E5832AF58325
:08115B00E993F5F0A3E99322EA
:10116300BB010789828A83021437500B09C5F02714
:10117300F7C5F01937F722BBFE0D09F8E325F0F3A5
:10118300C5F019E338F322F889828A837401932521
:08119300F0C5F0F8E4933822E6
:10119B00BB010A89828A83F0E5F0A3F0225006F79F
:0F11AB0009A7F01922BBFE06F3E5F009F319229C
:1011BA00F8BB0111E58229F582E5833AF583E8F067
:1011CA00E5F0A3F0225009E92582C8F608A6F02224
:0D11DA00BBFE09E92582C8F2E5F008F2220B
:1011E700E88FF0A4CC8BF0A42CFCE98EF0A42CFCA7
:1011F7008AF0EDA42CFCEA8EF0A4CDA8F08BF0A425
:101207002DCC3825F0FDE98FF0A42CCD35F0FCEB83
:101217008EF0A4FEA9F0EB8FF0A4CFC5F02ECD3948
:0F122700FEE43CFCEAA42DCE35F0FDE43CFC22B5
:1012360075F008758200EF2FFFEE33FECD33CDCC6F
:1012460033CCC58233C5829BED9AEC99E5829840F2
:101256000CF582EE9BFEED9AFDEC99FC0FD5F0D6CF
:10126600E4CEFBE4CDFAE4CCF9A88222B800C1B9F9
:101276000059BA002DEC8BF084CFCECDFCE5F0CB37
:10128600F97818EF2FFFEE33FEED33FDEC33FCEB70
:1012960033FB10D703994004EB99FB0FD8E5E4F92B
:1012A600FA227818EF2FFFEE33FEED33FDEC33FC18
:1012B600C933C910D7059BE99A4007EC9BFCE99A0C
:1012C600F90FD8E0E4C9FAE4CCFB2275F010EF2F51
:1012D600FFEE33FEED33FDCC33CCC833C810D70751
:1012E6009BEC9AE899400AED9BFDEC9AFCE899F88C
:0E12F6000FD5F0DAE4CDFBE4CCFAE4C8F9221F
:10130400EB9FF5F0EA9E42F0E99D42F0E89C45F03F
:0113140022B6
:10131500E8600FECC313FCED13FDEE13FEEF13FFB6
:03132500D8F122DA
:10132800E8600FEFC333FFEE33FEED33FDEC33FC23
:03133800D8F122C7
:10133B00BB010789828A8302144D5005E9F8021319
:10134B00C9BBFE05E9F802145989828A8302146528
:10135B00BB010DE58229F582E5833AF58302144D35
:10136B005007E92582F80213C9BBFE07E92582F86D
:10137B00021459E58229F582E5833AF58302146557
:10138B00BB010789828A8302149E5005E9F8021477
:0A139B0012BBFE05E9F80214AA22B5
:1013A500BB010DE58229F582E5833AF58302149E9A
:1013B5005007E92582F8021412BBFE07E92582F8D9
:0413C5000214AA2242
:0C13C900E6FC08E6FD08E6FE08E6FF2250
:0D13D500E6FB08E6F908E6FA08E6CBF82288
:1013E200BB010DE58229F582E5833AF58302147586
:1013F2005007E92582F80213D5BBFE07E92582F8DA
:10140200021481E58229F582E5833AF58302148E7E
:0C141200ECF608EDF608EEF608EFF62206
:10141E00D083D082E493F608740193F60874029395
:09142E00F608740393F6740473CC
:10000300EFB40A07740D12000E740A309811A89900
:10001300B8130CC2983098FDA899C298B811F6305D
:0700230099FDC299F5992235
:10203600E559244DF8E6055922784A300702784DCD
:10204600E475F0011214B6020FFE2000EB7F2ED2CB
:10205600008018EF540F2490D43440D4FF30040B82
:10206600EF24BFB41A0050032461FFE55A6002153D
:102076005A055DE55D7002055C30070D784AE4752A
:10208600F0011214B6EF0210770200037403D207B0
:102096008003E4C207F5598B4A8A4B894CE4F55A0A
:1020A600F55CF55DE55A60077F2012207180F575B5
:1020B6005BFFC201C200C202C203C205C206C20859
:1020C60012203FFF700D3007057F00122082AF5DA2
:1020D600AE5C22B4255FC2D5C20412203FFF24D0D5
:1020E600B40A00501A75F00A785A30D50508B6FFBA
:1020F6000106C6A426F620D5047002D20380D92490
:10210600CFB41A00EF5004C2E5D204022282D201F3
:1021160080C6D20080C0D20280BCD2D580BAD20599
:1021260080B47F201220712002077401B55A004046
:10213600F1122036FF1220710220AAD208D20680A0
:1021460095122036FB122036FA122036F94A4B70C9
:102156000679537A237BFF20022EE55A602A7E00F9
:102166008E8275830012101760060EEE655B70F0A6
:10217600C2D5EBC0E0EAC0E0E9C0E0EE1222C9D069
:10218600E0F9D0E0FAD0E0FB120FFEFF60AAEBC048
:10219600E0EAC0E0E9C0E0122071D0E02401F9D005
:1021A600E03400FAD0E0FBE55B0460DCD55BD98067
:1021B600877BFF7A2279C5D202809C7910800279CA
:1021C60008C206C2088008D2D5790A8004790AC2F4
:1021D600D5E55B047002F55BE4FAFDFEFF122036DE
:1021E600FC7B08200113122036FD7B1030000A12FA
:1021F6002036FE122036FF7B20EC3382D592D55056
:1022060013C3E43000069FFFE49EFEE42001039D15
:10221600FDE49CFCE4CBF8C201EC700CCFCECDCC37
:10222600E824F8F870F38017C3EF33FFEE33FEEDC2
:1022360033FDEC33FCEB33FB994002FB0FD8E9EBA3
:10224600300105F8D0E0C448B201C0E00AEC4D4EBA
:102256004F78207B0070C2EAB55B0040BCC0E0123C
:1022660022CBD0F0D0E0200104C4C0E0C4B201C04B
:10227600F012205AD0F0D5F0EB0220AA1214C62193
:10228600475321C15821184C21144221C54F21CD55
:102296004421CD49212D4321D35521B74621B745A8
:1022A60021B747237350211C2D21202E21432B219A
:1022B600242321412023612A20DC480000213B3FC2
:1022C6003F3F00790AA2D5200314300509B9100250
:1022D6000404B9080104A2D5200602500104200214
:0522E600689202B55AE8
:1022EB00005034C0E07F203003197F30A202720609
:1022FB007205500F122322C202C206C205C2087F0A
:10230B0030800F300503E9C0E0122071300503D097
:10231B00E0F9D0E0B55ACC3005177F30B9100C126C
:10232B0020717F583004077F788003B9080312208F
:10233B00713002057F2D0220717F202008F87F2B42
:10234B002006F322920280CF286E756C6C29002D2B
:10235B0050434958D2011220363001F8C201785A45
:10236B0030D50108F60220DC1220362403B4050018
:10237B004001E490235A93122062743A122062D2E5
:07238B0003755A040221C191
:10143700C5F0F8A3E028F0C5F0F8E5821582700240
:061447001583E038F022DD
:0C144D00E0FCA3E0FDA3E0FEA3E0FF2212
:0C145900E2FC08E2FD08E2FE08E2FF22CF
:10146500E493FC740193FD740293FE740393FF22CD
:0C147500E0F8A3E0F9A3E0FAA3E0FB22FA
:0D148100E2FB08E2F908E2FA08E2CBF822EB
:10148E00E493F8740193F9740293FA740393FB22B4
:0C149E00ECF0A3EDF0A3EEF0A3EFF022C1
:0C14AA00ECF208EDF208EEF208EFF2227E
:1014B600FAE6FB0808E6F925F0F618E6CA3AF62237
:1014C600D083D082F8E4937012740193700DA3A3B5
:1014D60093F8740193F5828883E4737402936860C9
:0614E600EFA3A3A380DFC9
:00000001FF
