:104DCE002535642E20002563005B4449525D0A00A0
:054DDE002E000D0A008B
:044E03000239000070
:1040B900784BEBF208EAF208E9F27B007A007923FF
:1040C900C003C002C001784BE2FB08E2FA08E2F93A
:1040D9001214867B007A007927C003C002C00178D8
:1040E9004BE2FB08E2FA08E2F99000031214D57BCF
:1040F900007A00792BC003C002C001784BE2FB08AB
:10410900E2FA08E2F99000061214D57B007A0079E8
:1041190033C003C002C001784BE2FB08E2FA08E2AF
:10412900F99000091214D57B007A007935C003C0D3
:1041390002C001784BE2FB08E2FA08E2F990000CB0
:104149001214D57B007A007951C003C002C00178EE
:104159004BE2FB08E2FA08E2F990000F1214D57B52
:10416900007A007952C003C002C001784BE2FB0813
:10417900E2FA08E2F99000121214D57B007A00796C
:1041890053C003C002C001784BE2FB08E2FA08E21F
:10419900F99000151214D57B007A007954C003C038
:1041A90002C001784BE2FB08E2FA08E2F990001834
:0441B9001214D522E5
:103D24007851EBF208EAF208E9F27B007A00792391
:103D3400C003C002C0017851E2FB08E2FA08E2F9CC
:103D44001214867B007A007927C003C002C0017870
:103D540051E2FB08E2FA08E2F99000031214D57B61
:103D6400007A00792BC003C002C0017851E2FB083D
:103D7400E2FA08E2F99000091214D57B007A00797E
:103D84002FC003C002C0017851E2FB08E2FA08E246
:103D9400F99000061214D57B007A007933C003C071
:103DA40002C0017851E2FB08E2FA08E2F990000C43
:103DB4001214D57B007A007935C003C002C00178A3
:103DC40051E2FB08E2FA08E2F990000F1214D57BE5
:103DD400007A007937C003C002C0017851E2FB08C1
:103DE400E2FA08E2F99000121214D57B007A007905
:103DF40051C003C002C0017851E2FB08E2FA08E2B4
:103E0400F99000151214D57B007A007952C003C0D2
:103E140002C0017851E2FB08E2FA08E2F9900018C6
:103E24001214D57B007A007953C003C002C0017814
:103E340051E2FB08E2FA08E2F990001B1214D57B68
:103E4400007A007954C003C002C0017851E2FB0833
:0C3E5400E2FA08E2F990001E1214D522D8
:084E1A007839E6FE08E6FF22EC
:084E22007839A60608A6072254
:074E2A007B017A0279A4224A
:05444900782912144760
:10444E007BFE7A00792D1240B97839E2FB08E2FA48
:10445E0008E2F9E4F5F01211BD7836E2FB08E2FA53
:10446E0008E2F9E4F5F01211BD783CE6B4021478D6
:10447E004D1213EB7833E2FB08E2FA08E2F912135D
:10448E00AD8015783BE6FFE4FCFDFE7833E2FB08D9
:10449E00E2FA08E2F91213AD7829E2FC08E2FD080F
:1044AE00E2FE08E2FF08E2FB08E2FA08E2F9121364
:1044BE00AD7829E2FC08E2FD08E2FE08E2FF783062
:1044CE00E2FB08E2FA08E2F91213AD782DE2FB08DE
:1044DE00E2FA08E2F912135D783FE6FB08E67893FC
:1044EE00CBF208EBF2087401F2087400F20874A41F
:1044FE00F2124AD67845E2FB08E2FA08E2F9EF0238
:02450E00109902
:0741BD007829EEF208EFF291
:1041C4007BFE7A00792F123D24783EE2FB08E2FA66
:1041D40008E2F9E4F5F01211BD783BE2FB08E2FADB
:1041E40008E2F9E4F5F01211BD7832E2FB08E2FAD4
:1041F40008E2F912146C00000000783CE6B40214E2
:10420400784D1213EB7838E2FB08E2FA08E2F9126F
:1042140013AD8015783BE6FFE4FCFDFE7838E2FB45
:1042240008E2FA08E2F91213AD782BE2FC08E2FD89
:1042340008E2FE08E2FF08E2FB08E2FA08E2F912EB
:1042440013AD782BE2FC08E2FD08E2FE08E2FF78F9
:1042540035E2FB08E2FA08E2F91213AD7829E2F933
:1042640008E2FF7841E2FB08E2FA08E2C98FF012A3
:1042740011BD782FE2FB08E2FA08E2F912135D7827
:104284003FE6FB08E67893CBF208EBF2087401F200
:10429400087400F20874A4F2124AD6784DE2FB08BE
:0942A400E2FA08E2F9EF021099B8
:0A1B5C007829EBF208EAF208E9F23A
:101B660078487401F2087400F20874A4F27BFE7AD5
:101B760000792D1240B97836E2FB08E2FA08E2F95C
:101B8600121122FFAEF07848E2FB08E2FA08E2F909
:101B9600124DF6782CEFF264E57003021F08E2702E
:101BA60003021F087836E2FB08E2FA08E2F912118E
:101BB60022240BFFE435F0FE7848E2FB08E2FA083F
:101BC600E2F9124DF6783FE2FB08E2FA08E2F9EF95
:101BD600121099783FE2FB08E2FA08E2F9120FFECA
:101BE600540E6003021F087839E2FB08E2FA08E2A5
:101BF600F9E475F0011211857839E6FE08E624A4A9
:101C0600F974023EFA7B01C003C002C001789274E7
:101C1600FFF208744DF20874CEF27839E2FB08E25E
:101C2600FA08E2F9121122FF7895E5F0F208EFF2D0
:101C3600D001D002D003122CA9783AEF26F618EE7E
:101C460036F6783CE2FB08E2FA08E2F9E41210996B
:101C5600783CE2FB08E2FA08E2F9120FFEFFC394B1
:101C6600084003021CF07836E2FB08E2FA08E2F9C3
:101C76001211222FFFE435F0FE7848E2FB08E2FA63
:101C860008E2F9124DF67842E2FB08E2FA08E2F9B8
:101C9600EF1210997839E6FE08E624A4F974023E9C
:101CA600FA7B01C003C002C001789274FFF2087487
:101CB6004DF20874D4F27842E2FB08E2FA08E2F93F
:101CC600120FFE7895F2D001D002D003122CA9781B
:101CD6003AEF26F618EE36F6783CE2FB08E2FA080A
:101CE600E2F97401121044021C56783FE2FB08E246
:101CF600FA08E2F9120FFE20E403021DD7783CE24F
:101D0600FB08E2FA08E2F97408121099783CE2FB43
:101D160008E2FA08E2F9120FFEFFC3940B40030231
:101D26001DAC7836E2FB08E2FA08E2F91211222F1E
:101D3600FFE435F0FE7848E2FB08E2FA08E2F91221
:101D46004DF67842E2FB08E2FA08E2F9EF12109942
:101D56007839E6FE08E624A4F974023EFA7B01C04F
:101D660003C002C001789274FFF208744DF2087441
:101D7600D4F27842E2FB08E2FA08E2F9120FFE78A2
:101D860095F2D001D002D003122CA9783AEF26F6AC
:101D960018EE36F6783CE2FB08E2FA08E2F974013E
:101DA600121044021D127839E6FE08E624A4F974DE
:101DB600023EFA7B01789274FFF208744DF20874C1
:101DC600D7F2122CA9783AEF26F618EE36F6021F4D
:101DD600087839E6FE08E624A4F974023EFA7B0187
:101DE600C003C002C001789274FFF208744DF20875
:101DF60074DEF27842E2FB08E2FA08E2F9120FFE1C
:101E06007895F2D001D002D003122CA9783AEF26A9
:101E1600F618EE36F6783CE2FB08E2FA08E2F974C8
:101E260008121099783CE2FB08E2FA08E2F9120F70
:101E3600FEFFC3940B4003021EC47836E2FB08E2A1
:101E4600FA08E2F91211222FFFE435F0FE7848E293
:101E5600FB08E2FA08E2F9124DF67842E2FB08E2E4
:101E6600FA08E2F9EF1210997839E6FE08E624A49A
:101E7600F974023EFA7B01C003C002C00178927475
:101E8600FFF208744DF20874D4F27842E2FB08E2DD
:101E9600FA08E2F9120FFE7895F2D001D002D003CB
:101EA600122CA9783AEF26F618EE36F6783CE2FBC5
:101EB60008E2FA08E2F97401121044021E2A78397F
:101EC600E6FE08E624A4F974023EFA7B01C003C0CC
:101ED60002C001789274FFF208744DF20874E0F2C1
:101EE6007842E2FB08E2FA08E2F9120FFE7895F270
:101EF600D001D002D003122CA9783AEF26F618EEBC
:101F060036F67836E2FB08E2FA08E2F9E475F020E4
:101F16001211857836E2FB08E2FA08E2F91211227C
:101F2600D394FEE5F094015003022020782DE2FBC5
:101F360008E2FA08E2F912135DEF2401FFE43EFE1F
:101F4600E43DFDE43CFC1213AD7830E2FB08E2FA16
:101F560008E2F91213F7C000C001C002C003782DD1
:101F6600E2FB08E2FA08E2F912135DD003D002D0D0
:101F760001D000C3EF9BFFEE9AFEED99FDEC98FCB5
:101F86007833E2FB08E2FA08E2F91213F7D31213E8
:101F960026406C782DE2FB08E2FA08E2F912135D9E
:101FA600783FE6FB08E67893CBF208EBF20874017B
:101FB600F2087400F20874A4F2124AD67845E2FBDD
:101FC60008E2FA08E2F9EF1210997845E2FB08E216
:101FD600FA08E2F9120FFE60147839E2FB08E2FA19
:101FE60008E2F9E4F5F01211BDE4782CF27836E255
:101FF600FB08E2FA08E2F9E4F5F01211BD801B785D
:1020060039E2FB08E2FA08E2F9121122FFE5F04490
:10201600808FF01211BDE4782CF2782CE2702278D1
:1020260039E2FB08E2FA08E2F9121122FF7829E206
:10203600FB08E2FA08E2F9E5F08FF01211BD7F0124
:03204600227F02F4
:012049002274
:0A24C7007829EBF208EAF208E9F2C6
:1024D100784E7401F2087400F20874A4F27BFE7A5B
:1024E10000792C123D247838E2FB08E2FA08E2F97F
:1024F100121122FFAEF0784EE2FB08E2FA08E2F98F
:10250100124DF6784DEFF264E57003022767E27031
:10251100030227677838E2FB08E2FA08E2F91211B0
:1025210022240BFFE435F0FE784EE2FB08E2FA08C4
:10253100E2F9124DF67844E2FB08E2FA08E2F9EF1B
:102541001210997844E2FB08E2FA08E2F9120FFE50
:10255100540E6003022767783BE2FB08E2FA08E2C7
:10256100F9E475F00112118508E2FB08E2FA08E2CC
:10257100F9121122FFAEF0783BE2FB08E2FA08E221
:10258100F91211226F7003E5F06E6003022767787C
:102591003CE66404600302264C7838E2FB08E2FA68
:1025A10008E2F91211222415FFE435F0FE784EE21B
:1025B100FB08E2FA08E2F9124DF6E4FCFDFE782F81
:1025C100E2FB08E2FA08E2F91213AD782FE2FB0808
:1025D100E2FA08E2F912135D780812134A1213ADF8
:1025E100782FE2FB08E2FA08E2F9C003C002C00159
:1025F10012135DC004C005C006C0077838E2FB08AD
:10260100E2FA08E2F91211222414FFE435F0FE780F
:102611004EE2FB08E2FA08E2F9124DF6E4AB07D00C
:1026210007D006D005D004EF4BFFEEEDECD001D082
:1026310002D0031213AD782FE2FB08E2FA08E2F9A7
:1026410012135D780812134A1213AD782FE2FB08BA
:10265100E2FA08E2F9C003C002C00112135DC0042E
:10266100C005C006C0077838E2FB08E2FA08E2F9C3
:10267100121122241BFFE435F0FE784EE2FB08E242
:10268100FA08E2F9124DF6E4AB07D007D006D005FF
:10269100D004EF4BFFEEEDECD001D002D0031213CA
:1026A100AD782FE2FB08E2FA08E2F912135D78082F
:1026B10012134A1213AD782FE2FB08E2FA08E2F98D
:1026C100C003C002C00112135DC004C005C006C032
:1026D100077838E2FB08E2FA08E2F9121122241A1B
:1026E100FFE435F0FE784EE2FB08E2FA08E2F91267
:1026F1004DF6E4AB07D007D006D005D004EF4BFF71
:10270100EEEDECD001D002D0031213AD7838E2FB2C
:1027110008E2FA08E2F9121122240BFFE435F0FE77
:10272100784EE2FB08E2FA08E2F9124DF67844E24B
:10273100FB08E2FA08E2F9EF1210997844E2FB088B
:10274100E2FA08E2F9120FFE30E417782FE2FB08F3
:10275100E2FA08E2F912135DEFEEEDEC4410FC121F
:1027610013ADE4784DF27838E2FB08E2FA08E2F9B9
:10277100E475F0201211857838E2FB08E2FA08E2EC
:10278100F9121122D394FEE5F0940150030228704E
:10279100782CE2FB08E2FA08E2F912135DEF24015A
:1027A100FFE43EFEE43DFDE43CFC1213AD7832E271
:1027B100FB08E2FA08E2F91213F7C000C001C002F7
:1027C100C003782CE2FB08E2FA08E2F912135DD0AB
:1027D10003D002D001D000C3EF9BFFEE9AFEED992A
:1027E100FDEC98FC7835E2FB08E2FA08E2F91213F5
:1027F100F7D31213264074782CE2FB08E2FA08E2C0
:10280100F912135D783FE6FB08E67893CBF208EB0B
:10281100F2784EE2F908E2FA08E27895C9F208EA9C
:10282100F208E9F2124AD6784AE2FB08E2FA08E233
:10283100F9EF121099784AE2FB08E2FA08E2F9127C
:102841000FFE6015782FE2FB08E2FA08E2F9121494
:102851006C80000000E4784DF27838E2FB08E2FA7F
:1028610008E2F9E4F5F01211BD8004E4784DF27844
:102871004DE260037F0222782FE2FB08E2FA08E2D0
:10288100F912135DE4FBFAF9F8C3121326701378F9
:1028910029E2FB08E2FA08E2F912146C8000000058
:1028A100801A782FE2FB08E2FA08E2F912135D7848
:0E28B10029E2FB08E2FA08E2F91213AD7F01FA
:0128BF0022F6
:074E31007B007A00793B22AF
:104A79007374617274696E672070726F6772616DA9
:104A89002E2E2E0A004D6F756E74696E6720534481
:104A990020636172640A0053442063617264206D6B
:104AA9006F756E7465640A005344206361726420F3
:104AB9006661696C656420746F206D6F756E740A28
:0D4AC900005374617274696E672E2E2E000A
:1042AD00758E0C758F017F10124E387F0F124E5E7A
:1042BD007F2C7E01124D4D7F807E25124CB712282A
:1042CD00C0EF600280FE124C487BFF7A4A79CA7DAE
:1042DD000BE4FF1246767BFF7A4A7979122CAF7F79
:1042ED00407E0D7D037C0012485E7866EFF2600C17
:1042FD007F10124E387F53124D7380FE7F40124E49
:10430D003812204A7866EFF2600C7F10124E387F1B
:10431D0043124D7380FE7F40124E567F007E2D7DE1
:10432D00317C0112485E7866EFF2600C7F10124E00
:10433D00387F50124D7380FE7BFF7A4A798E122C96
:10434D00AF7E007FA4121655EF70157BFF7A4A7968
:10435D00A0122CAF7F10124E567F80124E38800B5C
:10436D007BFF7A4A79B1122CAF80FE7F0C124C8004
:02437D0080FEC0
:1045100046696E64696E672042494F53207061722C
:10452000616D6574657220626C6F636B0A00657201
:10453000726F723A20636F756C64206E6F74206CBA
:104540006F63617465204250420A006572726F7237
:104550003A20464154313220756E737570706F7217
:104560007465640A0046415431362064657465639D
:104570007465640A0046415433322064657465638F
:104580007465640A004572726F723A204641542085
:104590007479706520756E737570706F7274656470
:1045A0000A004572726F723A20636F756C646E27F1
:1045B000742066696E64206E65787420636C757310
:0545C0007465720A00A1
:10165500AA06A90778897401F208EAF208E9F212E4
:101665004E31788CEBF208EAF208E9F27BFF7A4515
:101675007910122CAF78937402F208E4F27889E2BB
:10168500F908E2FA08E27895C9F208EAF208E9F2FF
:101695007F007E007D007C00124AD67889E2FB0837
:1016A500E2FA08E2F9E4FFFE124DF67867EFF2FB85
:1016B500788112145300000000EB64EB605C7867DE
:1016C500E264E960557889E2FB08E2FA08E2F97F0D
:1016D500C67E0112472178811214477881E2FC0801
:1016E500E2FD08E2FE08E2FF78937402F208E4F2F4
:1016F5007889E2F908E2FA08E27895C9F208EAF28F
:1017050008E9F2124AD67889E2FB08E2FA08E2F91A
:10171500E4FFFE124DF67867EFF27867E2FF64EBBF
:101725006011EF64E9600C7BFF7A45792E122CAFCE
:101735007F01227889E2FB08E2FA08E2F97F0B7E55
:1017450000124BCB788CE2FB08E2FA08E2F9900034
:1017550004EE8FF01211DC900002E41210AB900041
:101765000412114DFDACF0ED64014C601B788CE268
:10177500FB08E2FA08E2F99000027401121066EC27
:10178500C313FCED13FD80DF7889E2FB08E2FA085C
:10179500E2F97F0D7E00124DF6788CE2FB08E2FA45
:1017A50008E2F9EF1210997889E2FB08E2FA08E2FB
:1017B500F97F0E7E00124BCB786BEEF208EFF278D4
:1017C50089E2FB08E2FA08E2F97F107E00124DF685
:1017D5007868EFF27889E2FB08E2FA08E2F97F110E
:1017E5007E00124BCB7869EEF208EFF27889E2FBC6
:1017F50008E2FA08E2F97F167E00124BCB786DEE0F
:10180500F208EFF27889E2FB08E2FA08E2F97F13C1
:101815007E00124BCB786FEEF208EFF27889E2FB8F
:1018250008E2FA08E2F97F2C7E001247217885123A
:101835001447786EE2700218E2601B7889E2FB08B3
:10184500E2FA08E2F97F167E00124BCBE4FCFD7844
:101855007512144780167889E2FB08E2FA08E2F966
:101865007F247E001247217875121447786FE2FEB7
:1018750008E2FF4E600AE4FCFD78791214478016F1
:101885007889E2FB08E2FA08E2F97F207E00124738
:10189500217879121447788CE2FB08E2FA08E2F91C
:1018A50090000412114DFDACF024FFFBEC34FFFA5F
:1018B5007869E2FE08E27805C333CE33CED8F92B3A
:1018C500FFEA3EFE1210CDE4FCFD788CE2FB08E257
:1018D500FA08E2F99000121213C77868E2FFE4FCF7
:1018E500FDFE7875E2FB08E2F908E2FA08E2CBF8BA
:1018F500121209C004A905AA06AB07786BE2FE0817
:10190500E2FFE4FCFDD000EB2FFFEA3EFEED39FDE2
:10191500EC38FC788CE2FB08E2FA08E2F990001258
:10192500121417EF2BFFEE3AFEED39FDEC38FCC033
:1019350004A905AA06AB077879E2FC08E2FD08E2EE
:10194500FE08E2D000C39BFFEE9AFEED99FDEC98F0
:10195500FC787D121447786BE2FE08E2FFE4FCFD9B
:101965007881E2FB08E2F908E2FA08E2CBF8EB2F0E
:10197500FFEA3EFEED39FDEC38FC788CE2FB08E22F
:10198500FA08E2F990000E1213C790000E12141710
:10199500C000C001C002C0037868E2FFE4FCFDFEA0
:1019A5007875E2FB08E2F908E2FA08E2CBF81212D0
:1019B50009D003D002D001D000EF2BFFEE3AFEEDA7
:1019C50039FDEC38FC788CE2FB08E2FA08E2F99084
:1019D5000012121417EF2BFFEE3AFEED39FDEC382D
:1019E500FC788CE2FB08E2FA08E2F990000A12138F
:1019F500C7120FFEFFE4FCFDFEC004A905AA06AB55
:101A050007787DE2FC08E2FD08E2FE08E2FFD0006F
:101A15001212947871121447E47FF57E0FFDFC785D
:101A250071E2FB08E2F908E2FA08E2CBF8C3121307
:101A350026500C7BFF7A45794B122CAF7F0122E4AF
:101A45007FF57EFFFDFC7871E2FB08E2F908E2FA1A
:101A550008E2CBF8C31213265073788CE2FB08E238
:101A6500FA08E2F990000174021210AB7BFF7A4587
:101A75007965122CAF788CE2FB08E2FA08E2F9905E
:101A8500000E121417C000C001C002C0037868E23E
:101A9500FFE4FCFDFE7875E2FB08E2F908E2FA08CE
:101AA500E2CBF8121209D003D002D001D000EF2BFF
:101AB500FFEE3AFEED39FDEC38FC788CE2FB08E2EE
:101AC500FA08E2F99000061213C7021B59788CE256
:101AD500FB08E2FA08E2F990000174041210AB7BEE
:101AE500FF7A457975122CAF7885E2FC08E2FD088E
:101AF500E2FE08E224FEFFEE34FFFEED34FFFDECCE
:101B050034FFFCC004C005C006C007788CE2FB08A2
:101B1500E2FA08E2F9120FFEFFE4FCFDFED003D065
:101B250002D001D000121209788CE2FB08E2FA0813
:101B3500E2F990000A121417EF2BFFEE3AFEED3989
:101B4500FDEC38FC788CE2FB08E2FA08E2F990003B
:061B5500061213C77F0019
:011B5B002267
:0547C7007830121447D8
:1047CC00124E317834EBF208EAF208E9F2E4FFFE1B
:1047DC00FDFC7830E2FB08E2F908E2FA08E2CBF8DB
:1047EC00C312132670107834E2FB08E2FA08E2F9DF
:1047FC0090000602137D7830E2FC08E2FD08E2FE30
:10480C0008E224FEFFEE34FFFEED34FFFDEC34FF36
:10481C00FCC004C005C006C00708E2FB08E2FA08A9
:10482C00E2F9120FFEFFE4FCFDFED003D002D00132
:10483C00D0001212097834E2FB08E2FA08E2F9908F
:10484C00000A121417EF2BFFEE3AFEED39FDEC388F
:01485C00FC5F
:01485D002238
:053709007829121447AD
:10370E00124E317838EBF208EAF208E9F2782DE23F
:10371E00FE08E2AA06F9087401F208EAF208E9F2D4
:10372E007838E2FB08E2FA08E2F99000011210176D
:10373E00FFE4FCFDFE7829E2FB08E2F908E2FA0854
:10374E00E2CBF8121209C004C005C006C0077838D3
:10375E00E2FB08E2FA08E2F990000412114DFFAE06
:10376E00F0E4FCFDF8F9AA06AB07D007D006D005A9
:10377E00D0041212947838E2FB08E2FA08E2F990CB
:10378E00000E121417EF2BFFEE3AFEED39FDEC385A
:10379E00FC7838E2FB08E2FA08E2F9900004121114
:1037AE004DFB7893E5F0F208EBF2782FE2F908E2A0
:1037BE00FA08E27895C9F208EAF208E9F2124AD656
:1037CE007838E2FB08E2FA08E2F9900001121017CD
:1037DE00FFE4FCFDFE7829E2FB08E2F908E2FA08B4
:1037EE00E2CBF8121209C004C005C006C007783833
:1037FE00E2FB08E2FA08E2F990000412114DFFAE66
:10380E00F0E4FCFDF8F9AA06AB07D007D006D00508
:10381E00D004121294AF037832EAF208EFF278383D
:10382E00E2FB08E2FA08E2F9900001121017B40464
:10383E001C7832E2FE08E2FF782FE2FB08E2FA087B
:10384E00E2F9124721EFEEEDEC540FFC227838E24C
:10385E00FB08E2FA08E2F9900001121017640270F8
:10386E004D7832E2FE08E2FF782FE2FB08E2FA081A
:10387E00E2F9124BCBE4FCFD7834121447E47FFFDF
:10388E007EFFFDFC7834E2FB08E2F908E2FA08E27A
:10389E00CBF8C3121326700874FFFFFEFD7C0F22B7
:1038AE007834E2FC08E2FD08E2FE08E2FF227BFF2C
:1038BE007A457985122CAFE4FFFEFDFC227BFF7A60
:0B38CE004579A2122CAFE4FFFEFDFCC8
:0138D90022CC
:104D1F00786DEDF2EF70077F40124E4280057F40B5
:104D2F00124E627F80124E62786DE2FF124E6E7FDE
:0E4D3F0080124E427FFF124E6E7F40024E6287
:104C48007D38E4FF124D1F7F017E00124D4D7D48D7
:104C5800E4FF124D1F7F017E00124D4D7D01E4FFE0
:104C6800124D1F7F027E00124D4D7D0CE4FF124D48
:084C78001F7F017E00024D4D7B
:0D4676007867EDF208EBF208EAF208E9F2CD
:10468300EFF46010EF4480FDE4FF124D1F7F017EC5
:1046930000124D4D7867E2704A786BF27868E2FB5E
:1046A30008E2FA08E2F908E2F582758300121017AE
:1046B300786CF2786CE2FD60647F01124D1F7F011C
:1046C3007E00124D4D786BE204F27868E2FB08E25B
:1046D300FA08E2F908E2F582758300121017786C84
:1046E300F280D0E4786BF27867E2FF786BE2FEC386
:1046F3009F502A7868E2FB08E2FA08E2F98E827595
:104703008300121017FF786CF2FD7F01124D1F7F9B
:0D471300017E00124D4D786BE204F280CA69
:014720002276
:054E3800EFF452A0227E
:044E5600EF42A02265
:104C0D00AE077F80124E567F40124E567F20124EB9
:104C1D00567F10124E56EE30E0057F80124E38EE64
:104C2D0030E1057F40124E38EE30E2057F20124E06
:0B4C3D0038EE30E3057F10124E3822E5
:034E6E008F802210
:054E3D00EFF452902289
:054E4200EFF452B02264
:044E5A00EF42902271
:044E5E00EF42A0225D
:044E6200EF42B02249
:1034FB005344204361726420496E697469616C693D
:10350B007A6174696F6E202E2E2E200A0D00434DAA
:10351B0044302073656E74202E2E2E20005265735E
:10352B00706F6E7365203D2025322E3262580A0D66
:10353B0000434D44382073656E74202E2E2E2000D0
:10354B00526573706F6E7365203D200025322E32ED
:10355B006258200A0D0056657273696F6E20312018
:10356B0053442043617264206465746563746564BD
:10357B002E0A0D005374616E646172642043617096
:10358B006163697479204361726420646574656357
:10359B007465642E0A0D0025322E326258200056B7
:1035AB00657273696F6E20322053442043617264DD
:1035BB002064657465637465642E0A0D00434D4485
:1035CB0035382073656E74202E2E2E200041434D0E
:1035DB004434312073656E74202E2E2E20005469D6
:1035EB006D656F7574203D20256C75200A0D0048A4
:1035FB006967682043617061636974792043617204
:10360B00642044657465637465640A0D00537461CA
:10361B006E646172642043617061636974792043E5
:10362B006172642044657465637465640A0D0043BC
:10363B004D4431362073656E74202E2E2E20005291
:10364B006573706F6E7365203D2025322E32625884
:10365B00200A0D00426C6F636B2073697A652073CF
:10366B00657420746F203531322062797465730A6A
:10367B000D0053442054696D656F7574204572724B
:10368B006F7200496C6C6567616C20436F6D6D6187
:10369B006E640A0D00526573706F6E736520457210
:1036AB00726F72004461746120546F6B656E2045BC
:1036BB0072726F7200496E636F6D70617469626CC8
:1036CB006520566F6C746167650043617264206995
:1036DB007320496E61637469766500535049206F9E
:1036EB00722054696D656F7574204572726F72002C
:0E36FB00556E6B6E6F776E204572726F7200A7
:043A7D00789AEFF252
:103A8100E478A0F2789AE2FFC394404003023BCE6F
:103A9100EF4440FF789FF27BFE7A0079A1124CEC53
:103AA10078A2EFF27025789BE2FC08E2FD08E2FEC5
:103AB10008E2FF7818121337789FEFF27BFE7A0045
:103AC10079A1124CEC78A2EFF2800578A07487F20C
:103AD10078A0E2704078A2E2703B789BE2FC08E2B9
:103AE100FD08E2FE08E2FFEEEDE4FC789B121447CC
:103AF100789BE2FC08E2FD08E2FE08E2FF78101282
:103B01001337789FEFF27BFE7A0079A1124CEC78A3
:103B1100A2EFF2800578A07487F278A0E270407875
:103B2100A2E2703B789BE2FC08E2FD08E2FE08E2BB
:103B3100FFEEE4FDFC789B121447789BE2FC08E25F
:103B4100FD08E2FE08E2FF7808121337789FEFF2D2
:103B51007BFE7A0079A1124CEC78A2EFF280057815
:103B6100A07487F278A0E2702578A2E27020789B99
:103B7100E2FC08E2FD08E2FE08E2FFE408EFF27B66
:103B8100FE7A0079A1124CEC78A2EFF2800578A0C0
:103B91007487F278A0E2703A78A2E27035789AE2FE
:103BA100FF7007789F7495F28010EFB40807789F33
:103BB1007487F28005789F7401F2789FE2FF7BFEA3
:103BC1007A0079A1124CEC78A2EFF2800578A0740A
:063BD10082F278A0E2FF81
:013BD70022CB
:08437F007BFE7A00796A7F01E0
:0D438700787BEFF208EBF208EAF208E9F2A9
:10439400E47880F27BFE7A0079827FFF124CEC781D
:1043A40081EFF2787FE204F27882E2FF30E70A7864
:1043B4007FE260057881E260DB7881E26006187450
:1043C40087F2806E787FE27006087481F2806378E9
:1043D4007CE2FB08E2FA08E2F9EF1210997882E233
:1043E400FF600464017046787BE2D3940140437813
:1043F4007F7401F2787BE2FF787FE2C39F50337BC6
:10440400FE7A0079827FFF124CEC7881EFF208E2A9
:10441400FF787CE2FB08E2FA08E2F908E2F582752B
:104424008300EF1210AB787FE204F280C7788074C7
:1044340083F27BFE7A0079827FFF124CEC7881EF65
:04444400F218E2FF89
:014448002251
:103BD800789AEEF208EFF208EBF208EAF208E9F256
:103BE800E478A2F208F278A0F27BFE7A0079A17F4D
:103BF800FF124CEC789FEFF278A3E22401F218E26E
:103C08003400F218E2FF30E70E78A3E2700218E2FF
:103C18006005789FE260D2789FE26007087487F2B7
:103C2800023D1178A3E2700218E2700878A074814E
:103C3800F2023D11EF6003023D0C78A2F208F27B1C
:103C4800FE7A0079A17FFF124CEC789FEFF278A3FF
:103C5800E22401F218E23400F218E2FFB4FF0E7811
:103C6800A3E2700218E26005789FE260D2789FE2D2
:103C78006007087487F2023D1178A3E2700218E227
:103C8800700878A07481F2023D11EF64FE706E78BE
:103C9800A2F208F2789AE2FE08E2FFC378A3E29F54
:103CA80018E29E50387BFE7A0079A17FFF124CEC17
:103CB800789FEFF278A1E2FF789CE2FB08E2FA082D
:103CC800E2F978A2E2FC08E2F5828C83EF1210ABED
:103CD80078A3E22401F218E23400F280B77BFE7A7E
:103CE8000079A17FFF124CEC789FEFF27BFE7A00FF
:103CF80079A17FFF124CEC789FEFF2800C78A074CA
:103D080084F2800578A07483F27BFE7A0079A17F23
:0B3D1800FF124CEC789FEFF208E2FF76
:013D2300227D
:10204A00E47868F2785576FF7F10124E667BFF7A45
:10205A003479FB122CAFE47867F27BFE7A0079724E
:10206A007FFF124CEC7869EFF27867E204F2E2C380
:10207A00940A40E67F80124E387BFF7A357919122E
:10208A002CAF7F10124E4C789B12145300000000A4
:10209A00E4FF123A7D7869EFF2701712437F78698C
:1020AA00EFF27BFF7A35792808E27892F2122CAFA8
:1020BA0080057F10124E387F10124E667F80124EB6
:1020CA00567869E2FF600218F27868E2600302213A
:1020DA00CB7F80124E387BFF7A35793C122CAF7F4A
:1020EA0010124E4C789B121453000001AA7F08125A
:1020FA003A7D7869EFF260030221BC7BFE7A0079AF
:10210A006A7F051243877869EFF27F10124E667F65
:10211A0080124E567869E260467BFF7A35794B1217
:10212A002CAF7BFF7A357957786AE27892F2122CD3
:10213A00AF7869E2B4832108E2B4051CE47868F256
:10214A00785576097BFF7A357961122CAF7BFF7A55
:10215A0035797F122CAF80697869E218F280627B48
:10216A00FF7A35794B122CAFE47867F27867E2FF91
:10217A00C3940550187BFF7A3579A2746A2FF8E266
:10218A007892F2122CAF7867E204F280DF7F0D12A8
:10219A0000037F0A120003786EE264AA6005786978
:1021AA007483F2785576027BFF7A3579AA122CAFBE
:1021BA00800F7F10124E667F80124E567F10124E8D
:1021CA00387868E260030222727F80124E387BFF01
:1021DA007A3579C8122CAF7F10124E4C789B1214A4
:1021EA0053000000007F3A123A7D7869EFF270617D
:1021FA007BFE7A00796A7F051243877869EFF27F5E
:10220A0010124E667F80124E567BFF7A35794B123A
:10221A002CAFE47867F27867E2FFC3940550187B25
:10222A00FF7A3579A2746A2FF8E27892F2122CAF0B
:10223A007867E204F280DF7F0D1200037F0A120042
:10224A0003786CE254FC64FC601678697485F28049
:10225A000F7F10124E667F80124E567F10124E3834
:10226A007869E2FF600218F27868E2600302238E5E
:10227A007855E6B4020B78731214534000000080BC
:10228A00097873121453000000007877121453006F
:10229A000000007F20124E387BFF7A3579D8122C45
:1022AA00AF7F10124E4C789B121453000000007F2F
:1022BA0037123A7D7869EFF2700712437F7869EF37
:1022CA00F2786AE2FF64016003EF701B7873E2FC44
:1022DA0008E2FD08E2FE08E2FF789B1214477F2914
:1022EA00123A7D7869EFF27869E2700312437F7FD0
:1022FA0010124E667877E2FC08E2FD08E2FE08E278
:10230A002401FFE43EFEE43DFDE43CFC7877121430
:10231A0047E4FFFEFDFC7877E2FB08E2F908E2FAFF
:10232A0008E2CBF8C3121326700578697481F27833
:10233A006AE230E00718E270030222AB7869E270C1
:10234A00167F20124E567BFF7A357928786AE27812
:10235A0092F2122CAF800A7F80124E567F10124ED4
:10236A00387BFF7A3579E97877E2FC08E2FD08E202
:10237A00FE08E2FF7892121447122CAF7869E2FF46
:10238A00600218F27868E260030224B97855E664BC
:10239A000260030224B97F80124E387BFF7A3579B6
:1023AA00C8122CAF7F10124E4C789B1214530000A7
:1023BA0000007F3A123A7D7869EFF2600302249FA7
:1023CA007BFE7A00796A7F051243877869EFF27F8C
:1023DA0010124E667F80124E567BFF7A35794B1269
:1023EA002CAFE47867F27867E2FFC3940550187B54
:1023FA00FF7A3579A2746A2FF8E27892F2122CAF3A
:10240A007867E204F280DF7F0D1200037F0A120070
:10241A0003786BE2FF20E70878697486F20224AE3B
:10242A00EF54C0FFBFC00FE47855F67BFF7A3579C9
:10243A00FA122CAF806E785576097BFF7A367918B6
:10244A00122CAF7F80124E387BFF7A36793A122CE3
:10245A00AF7F10124E4C789B121453000002007F7B
:10246A0010123A7D7869EFF2703A12437F7869EF79
:10247A00F27F10124E667F80124E567BFF7A3679B3
:10248A004A786AE27892F2122CAF7BFF7A36795F49
:10249A00122CAF800F7F10124E667F80124E567F2D
:1024AA0010124E387869E2FF600518F2124A047871
:0C24BA0068E2FF6003124A047868E2FF49
:0124C60022F3
:054E47007855E6FF2292
:104A0400787BEFF2E2B481097BFF7A36797D022C60
:104A1400AF787BE2B482097BFF7A36798E022CAFC1
:104A2400787BE2B483097BFF7A3679A0022CAF78D5
:104A34007BE2B484097BFF7A3679AF022CAF787BB2
:104A4400E2B485097BFF7A3679C0022CAF787BE229
:104A5400B486097BFF7A3679D5022CAF787BE2B431
:104A640087097BFF7A3679E6022CAF7BFF7A3679A9
:054A7400FB122CAF2233
:054AD600788F12144767
:104ADB00124E477898EFF27F10124E4C788FE2FC13
:104AEB0008E2FD08E2FE08E2FF7898E2F9F81213FB
:104AFB004A789B1214477F11123A7D7899EFF27026
:104B0B00137893E2FE08E2FF08E2FB08E2FA08E200
:104B1B00F9123BD87F10124E667899E260037F0141
:034B2B00227F00E6
:014B2E002264
:0D4DF600EE5401FE8F82F583121017FF228C
:104BCB00788FEEF208EFF208EBF208EAF208E9F25E
:104BDB00788FE25401FE08E2FF18EEF208EFF2E4E0
:104BEB00FDFC8F828E83A3121017FD7D00FC788F46
:104BFB00E2FE08E2F5828E83121017FFECEFFDAE9A
:014C0B0004A4
:014C0C002285
:10472100788FEEF208EFF208EBF208EAF208E9F20C
:10473100788FE25401F208E2F278941214530000E7
:104741000000E47899F27899E2FFC394045069C3B8
:1047510074039FFFE49400FE7890E22FFF18E23E7D
:10476100FE7891E2FB08E2FA08E2F98F828E831269
:1047710010177898F27894E2FC08E2FD08E2FE084E
:10478100E2FF780812134A78941214477894E2FBF6
:1047910008E2F908E2FA08E2CBF8C0007898E2FFF3
:1047A100E4D000EB4FFFEAFEE9FDE8FC7894121437
:1047B100477899E204F2808E7894E2FC08E2FD08E1
:0547C100E2FE08E2FF2A
:0147C60022D0
:10485E00E47867F2AB07AA06A905A804FF7E407D9F
:10486E00197C01121294EFD39402500575C3708017
:10487E006BEFD39402400BEFD39404500575C371C4
:10488E00805AEFD39404400BEFD39408500575C3B0
:10489E00728049EFD39408400BEFD39410500575F6
:1048AE00C3738038EFD39410400BEFD39420500590
:1048BE0075C3F08027EFD39420400BEFD394405074
:1048CE000575C3F18016EFD39440400BEFD394805F
:1048DE00500575C3F280057867740FF27867E2FFB2
:0148EE0022A7
:104CEC00E4FE8FC5AFC40EEF54F07003EE70F5EE1A
:104CFC006017EF54707009E5C5121099E4FE80102E
:104D0C0074FF121099E4FE800774FF1210997E80D4
:024D1C00AF06E0
:014D1E002272
:044E6600EF42902265
:054E4C00EFF45290227A
:104D4D005389F0438901C2A9758CF4758A3DC28DD2
:104D5D00D28C308DFDC28CEF1F70011ED3EF9400ED
:064D6D00EE940050E32269
:104CB70053873F438780C2AC759852E4F59BFCFD50
:104CC7007BC0FAF9F8121209A804A905AA06AB07CE
:104CD700E4FFFE7D2F7C0D121294EFF404F59A7514
:054CE7009B1ED2992282
:104D7300E4FDFC0DBD00010C209904ED4C70F4ED35
:0F4D83004C60088F99AE07C29980027EF1AF068F
:014D920022FE
:0A4E0F002098037F0022AF99C2989B
:014E19002276
:0645C5007B017A0079A4DD
:1045CB00782DEBF208EAF208E9F2E4FFFEFDFC7845
:1045DB0000E2FB08E2F908E2FA08E2CBF8C3121397
:1045EB002670157812E2FC08E2FD08E2FE08E2FFF5
:1045FB001247C778071214477800E2FC08E2FD085F
:10460B00E2FE08E2FF7807E2FB08E2F908E2FA08AB
:10461B00E2CBF8EB2FFFEA3EFEE93DFDE83CFC78F0
:10462B0004E2FB08E2FA08E2F990000412114DFBD8
:10463B007893E5F0F208EBF2782DE2F908E2FA084C
:10464B00E27895C9F208EAF208E9F2124AD6780044
:10465B00E2FC08E2FD08E2FE08E22401FFE43EFE74
:0B466B00E43DFDE43CFC780002144735
:104B2F007829121447780B7403F2E408F20804F2A0
:104B3F00E408F208F208F208F2124E317804EBF2B0
:104B4F0008EAF208E9F27829E2FC08E2FD08E2FE41
:104B5F0008E2FF1247C77807121447780012145360
:104B6F00000000007829E2FC08E2FD08E2FE08E2FE
:094B7F00FF78121214470245C52B
:0A497B007829EBF208EAF208E9F2ED
:104985007F08124E5A782CE2FB08E2FA08E2F91287
:104995001122FFAEF0C3EE9402503120922E7829F9
:1049A500E2FB08E2FA08E2F98F828E83121017FF04
:1049B5007BFE7A007932124CEC782CE2FB08E2FAA5
:1049C50008E2F9E475F00112118580B97F08124EED
:1049D5003D782CE2FB08E2FA08E2F9121122B40054
:1049E5001BE5F0B40216E4F5F01211BD08E2FB0870
:0E49F500E2FA08E2F97401121099FF227F0025
:014A03002290
:10329600780BE2B4090040030234EF9032A8F82814
:1032A60028730232C302331A02332D02336C0233FF
:1032B600D602342D0234400234850234EA7F0112EC
:1032C6004C0D7812E2FC08E2FD08E2FE08E2FF7807
:1032D6002D7400F20874A4F21237097812121447FA
:1032E60074FFFFFEFD7C0F7812E2FB08E2F908E2AC
:1032F600FA08E2CBF8C312132660117800121453B1
:1033060000000000780B7405F20234EF780B7408A5
:10331600F20234EF7F02124C0D3092030234EF7842
:103326000B7403F20234EF7F03124C0D7804E2FBB8
:1033360008E2FA08E2F9120FFEFFE4FCFDFE78004F
:10334600E2FB08E2F908E2FA08E2CBF8C312132618
:103356007006780BF20234EF1245C5E4780CF218C9
:103366007405F20234EF7F04124C0D209227780C7C
:10337600E27022782C74FEF2087400F208740EF2E1
:103386000874FEF2087400F208740CF27B017A00ED
:1033960079A412497B309207780DE26401600C78BB
:1033A6000CE2FFB4010D08E2B40108780B7406F2D2
:1033B6000234EFEFB4010B209208780B7407F20287
:1033C60034EF2092030234EF780B7401F20234EFEB
:1033D6007F05124C0D7812E2FC08E2FD08E2FE08B9
:1033E600E2FF782D7402F20874A4F21237097812FB
:1033F60012144774FFFFFEFD7C0F7812E2FB08E211
:10340600F908E2FA08E2CBF8C31213266011780035
:1034160012145300000000780B7401F20234EF78A6
:103426000B7408F20234EF7F06124C0D3092030241
:1034360034EF780B7407F20234EF7F07124C0D78E5
:1034460004E2FB08E2FA08E2F9120FFEFFE4FCFDD3
:10345600FE7800E2FB08E2F908E2FA08E2CBF8C3DC
:103466001213267007780B7404F2807D7B017A02B2
:1034760079A41245CBE4780DF2780B04F2806A7FCA
:1034860008124C0D209227780DE27022782C74FEDB
:10349600F2087400F2087410F20874FEF208740060
:1034A600F208740DF27B017A0279A412497B3092FC
:1034B60007780CE26401600B780CE2B4010C08E2B8
:1034C600B40107780B7402F2801F780DE2B4010A8A
:1034D600209207780B7403F2800F30920C780B74ED
:1034E60005F280057F09124C0D780BE2B408037FC4
:0534F60001227F00220D
:043F9700787FEFF24E
:103F9B00D290D291E4788AF27884E275F008A4F298
:103FAB0008E204F22091030240AF2090030240AFDD
:103FBB00124DE3787FE2FF25E07889F254FEF2C2DE
:103FCB0090788B7408F27F01124D9AC291788BE234
:103FDB0014F2E2FF7889E2FEA807088002C313D827
:103FEB00FC5401788C124D93D2913091FDA290E448
:103FFB0033788DF218E2FF08E26F6005788A7481DE
:10400B00F2788BE2D39400400418E260B9788AE22C
:10401B0070627F01124D9AC291D2907884E2601E39
:10402B00E224F8F27880E2FC08E2FD08E2FE08E206
:10403B00FF08E2F9F81213377889EFF2801D7885C3
:10404B00E214F208E2FB08E2FA08E2F9120FFE08AA
:10405B00F218E22401F218E23400F27F01124D9AB9
:10406B00D2913091FDA290E433788DF2E260057825
:10407B008A7482F27885E26008788AE27003023FE4
:10408B00CC788AE2648160217F01124D9AC291C281
:10409B00907F01124D9AD2913091FD7F02124D9A71
:0D40AB00D2908005788A7481F2788AE2FF55
:0140B80022E5
:0438DA00786FEFF222
:1038DE00E4787AF27874E2FB60377870E2FC08E202
:1038EE00FD08E2FE08E2FF78801214477884EBF2BE
:1038FE00E408F27876E2F908E2FA08E27886C9F28C
:10390E0008EAF208E9F2786FE2FF123F97787AEF51
:10391E00F2787AE26003023A78D290D29120910343
:10392E00023A73209003023A73124DE3786FE2FF6E
:10393E0025E07879F24401F2C290787B7408F27F28
:10394E0001124D9AC291787BE214F2E2FF7879E28D
:10395E00FEA807088002C313D8FC5401787C124DD0
:10396E0093D2913091FDA290E433787DF218E2FF6C
:10397E0008E26F6005787A7481F2787BE2D3940066
:10398E00400418E260B9787AE270227F01124D9AF3
:10399E00C291D2907F01124D9AD2913091FDA29098
:1039AE00E433787DF2E26005787A7482F27875E21B
:1039BE00D394005003023A50787AE26003023A50F0
:1039CE00087408F27F01124D9AC291787BE214F2CC
:1039DE00D290787EE2FF25E0F27F01124D9AD291CD
:1039EE003091FDA290E433787DF208E2FF18E2FEFA
:1039FE00EF4E08F2787BE2D3940050C8787EE2FF57
:103A0E007876E2FB08E2FA08E2F9EF121099E22466
:103A1E0001F218E23400F27875E2B40107787C7492
:103A2E0001F28004E4787CF27F01124D9AC2917803
:103A3E007CE2124D94D2913091FD7875E214F2022F
:103A4E0039BB787AE2648160217F01124D9AC2916E
:103A5E00C2907F01124D9AD2913091FD7F02124D8C
:0E3A6E009AD2908005787A7481F2787AE2FF1D
:013A7C002227
:104DE3005389F0438901C2A9758CFF758AC3C28DAB
:034DF300D28C223D
:074D9300F224FF92907F0162
:104D9A00308C03308DFDC28CEFB4010A758CFF751F
:074DAA008AC3C28DD28C22E6
:103E60004F75747075742066726F6D2049442072AE
:103E7000656769737465723A2025322E3262582064
:103E80000A0D0053544130313320536F6674566528
:103E90007273696F6E3A2025322E326258200A0DF5
:103EA000002E000A466972737420636F6E6669673C
:103EB00075726174696F6E2066696C652073656EDA
:103EC000742E2E2E0A004E756D626572206F66206C
:103ED00076616C756573207772697474656E3A20CB
:103EE0002564200A000A5365636F6E6420636F6E59
:103EF00066696775726174696F6E2066696C6520AA
:103F000073656E742E2E2E0A0053656E7420746FC6
:103F1000205354413031333A2025322E326258201A
:103F20002025322E326258200A0D004F75747075AC
:103F3000742066726F6D2072656769737465723A7A
:103F40002025322E326258202025322E326258200F
:103F500025322E326258200A0D00436F6E66696763
:103F600075726174696F6E20436F6D706C657465F6
:103F70000A0D005455060B525165645061050D1829
:103F80000C4648720007100902B80000000605A19F
:073F90000004050C0C010008
:054E5100EFF452B02255
:044E6A00EF42B02241
:1028C0007F08124E51781A760178687432F2124EEF
:1028D0006A787012145300000000E47874F20874EF
:1028E00003F208E4F2087400F208741DF27F431248
:1028F00038DA7867EFF208E214F2EF6003E270D1A1
:102900007868E2600F7BFF7A3E7960781FE6789204
:10291000F2122CAF78701214530000000178747416
:1029200001F208F27B000814F2087400F208741D2A
:10293000F27F431238DA7867EFF208E214F2EF60C0
:1029400003E270D07868E2600F7BFF7A3E796078AE
:102950001DE67892F2122CAF781DE664AC6003029B
:102960002C4878701214530000007178747401F2CE
:1029700008F27B000814F2087400F208741DF27F5C
:10298000431238DA7867EFF27BFF7A3E7983781D5D
:10299000E67892F2122CAFE4786DF208F2786A745D
:1029A000FFF2087400F208742EF2786AE2FB08E283
:1029B000FA08E2F908E2FE08E2F5828E83121017A7
:1029C0007869F2786EE22401F218E23400F2E2FE55
:1029D00008E2F5828E83121017781AF6786EE224D8
:1029E00001F218E23400F208E2543F70097BFF7AEA
:1029F0003E79A1122CAF7869E2F46040187432F28B
:102A00007869E2FFE4FCFDFE788012144778847454
:102A100001F208F27B000814F2087400F208741A3C
:102A2000F27F43123F977867EFF208E214F2E2FF79
:102A30007002C2A77867E26003EF70C47869E2F4BD
:102A4000600718E260030229AA7BFF7A3E79A3128D
:102A50002CAF786DE2C3137992F308E21309F37B8C
:102A6000FF7A3E79C6122CAFE4786DF208F2786AEC
:102A700074FFF208740FF20874CCF2786AE2FB0873
:102A8000E2FA08E2F908E2FE08E2F5828E8312100B
:102A9000177869F2786EE22401F218E23400F2E26B
:102AA000FE08E2F5828E83121017781AF6786EE22D
:102AB0002401F218E23400F208E2540770097BFFA7
:102AC0007A3E79A1122CAF7869E2F4604018743232
:102AD000F27869E2FFE4FCFDFE7880121447788406
:102AE0007401F208F27B000814F2087400F2087412
:102AF0001AF27F43123F977867EFF208E214F2E28E
:102B0000FF7002C2A77867E26003EF70C47869E2E1
:102B1000F4600718E26003022A7B7BFF7A3E79E5C6
:102B2000122CAF786DE2C3137992F308E21309F324
:102B30007BFF7A3E79C6122CAF78701214530000D6
:102B4000007178747401F208F27B000814F20874C2
:102B500000F208741DF27F431238DA7867EFF27BD7
:102B6000FF7A3E7983781DE67892F2122CAFE478F2
:102B70006DF208F2786EE2FF903F73937869F2EF9E
:102B8000903F8593781AF678687432F27869E2FF9C
:102B9000E4FCFDFE788012144778847401F208F298
:102BA0007B000814F2087400F208741AF27F4312D2
:102BB0003F977867EFF208E214F2E2FF7002C2A7D3
:102BC0007867E26003EF70C47BFF7A3F7909786928
:102BD000E27892F2781AE67893F2122CAF786EE2ED
:102BE000903F7393FF7869F2E4FCFDFE7870121455
:102BF0004778747401F208F27B000814F20874003C
:102C0000F208741DF27F431238DA7867EFF27BFF27
:102C10007A3F792B7869E27892F2781DE67893F220
:102C200008EFF2122CAF786EE22401F218E23400C1
:102C3000F2C308E2941118E294005003022B747B53
:0C2C4000FF7A3F795A122CAF7867E2FF50
:012C4C002265
:10002E003A012A0428002900200021002200230082
:10003E00240025002600270028012802218F2803EE
:10004E002100280428052806280728082809280A38
:10005E00280B280C20802190280D20002100280E2E
:10006E0020812191280F2000219228102100281193
:10007E0021932812210028132814281520822816CF
:10008E0020002817281828192194281A2195281B92
:10009E002196281C2100281D2083281E2000281FA1
:1000AE0021972820210028212822282328242825AA
:1000BE002826282728282829282A2084282B20008B
:1000CE00282C282D282E282F28302831283220851C
:1000DE002833200028342835283628372198283808
:1000EE0021002839283A283B283C283D283E283F25
:1000FE002840284128422843284428452846284796
:10010E0028482849284A284B284C284D284E284F45
:10011E0028502851285228532854285528562857F5
:10012E0028582859285A285B285C285D285E285FA5
:10013E002860286128622199286321002864286597
:10014E002866286728682869286A286B286C286D15
:10015E00286E286F287028712872287328742875C5
:10016E002876287728782879287A287B287C287D75
:10017E00287E287F28802881288228832884288525
:10018E002886288728882889288A288B288C288DD5
:10019E00288E288F289028912086289220872893B1
:1001AE002000289428952896289728982899289AE8
:1001BE00289B289C289D289E289F219A28A02100B4
:1001CE0028A128A228A328A428A528A628A728A8BD
:1001DE0028A928AA28AB28AC28AD28AE28AF28B06D
:1001EE0028B128B228B328B428B528B628B728B81D
:1001FE0028B9208828BA200028BB208928BC2000D6
:10020E0028BD28BE28BF28C028C128C228C3219BCC
:10021E0028C4210028C528C628C728C828C928CA26
:10022E0028CB28CC28CD28CE28CF28D028D128D20C
:10023E0028D328D428D528D628D728D828D928DABC
:10024E0028DB28DC28DD28DE28DF28E028E1208ACC
:10025E0028E2208B28E3200028E428E528E628E77A
:10026E0028E828E928EA28EB28EC28ED28EE28EFE4
:10027E0028F028F128F228F328F428F528F628F794
:10028E0028F8208C28F92000219C28FA219D28FB93
:10029E00208D219E28FC208E219F28FD20002100EC
:1002AE0028FE28FF2A0128002201239524892507EC
:1002BE0026A42707280121C72200238026C4270C45
:1002CE0028022009211C220426AA270A280320001E
:1002DE002100220023A626A0270728042805200592
:1002EE00238426B427092806200022032300248114
:1002FE0025C026AB270A280721AE22002395248984
:10030E00250726A42700280821482201238026C479
:10031E00270C280920092104220426AA270A280AC4
:10032E0020002100220023A826A42707280B280C32
:10033E0021402220238026C4270C280D222426C6E5
:10034E00280E219E220026C8280F200921022214E1
:10035E0026AA270A2810200521002200238426B46D
:10036E0027092811200021012300240125C026ABD6
:10037E00270A281221C32395248925072620270022
:10038E002813200321C223832626270D281421B3E8
:0E039E0022082815200021C6220023952600E3
:1003AC0027082816210023002496250326AA270AAD
:1003BC002817204221B623802489250728182000DD
:1003CC0021002394260E2819200F238426B42709F4
:1003DC00281A2000239326A82703281B2628270049
:1003EC00281C21012300240125C026AB270A281D27
:1003FC0021C523952489250726202700281E2100A6
:10040C0023942600270A281F260E28202003217952
:10041C00220123832626270D282121322822200081
:10042C00210422002380240025FC26AA270A282345
:10043C00210023002500282421A3220D2380249EA3
:10044C00253B2825204221572201248925072826CF
:10045C0020002143220D240025382827210822982A
:10046C002395248925072624270028282042219318
:10047C002201238026AA270A28292003217E220470
:10048C0023832626270D282A200021B0220023951D
:10049C0026A02707282B21002300240C250426AA9C
:1004AC00270A282C21022380248625C326AB282D3D
:1004BC002042219722012489250726AA282E2000D4
:1004CC0021002200241F2504282F21B223952489E2
:1004DC0025072620270428302042218B2204238044
:1004EC0026AA270A2831200021B12200239526A014
:1004FC002707283220032175220423832626270D63
:10050C002833200521002200238426B4270928340F
:10051C00200021602300240125C026AB270A2835A2
:10052C00210822982395248925072624270028367C
:10053C0021BC2200283721A3220D2300240125C031
:10054C0026AB270A28382160220023802400253876
:10055C0026AA2839210622982395248925072624A2
:10056C002700283A21BE2200283B200521002384A5
:10057C0026B42709283C200021602300240125C033
:10058C0026AB270A283D21422201239524892507E1
:10059C0026242700283E210C229826A42707283F32
:1005AC0021082840216022002300240125C026AB0D
:1005BC00270A2841210C22982395248925072624D3
:1005CC0027002842200521002200238426B4270975
:1005DC002843200023802400251026AB270A28441A
:1005EC00212222012395248925072624270028452A
:1005FC002100220023002404251226AA270A2846BB
:10060C00200321D422052383248925072626270DA0
:10061C0028472000216022002300240125C026AB9E
:10062C00270A284821B32395248925072600270863
:10063C002849210023002409250026AA270A284A34
:10064C00210223802486253B284B204221DD2205D4
:10065C0024892507284C200021002200241F250076
:10066C00284D21B323952489250726202700284EC1
:10067C00210023002497250326AA270A284F20426D
:10068C0021E22205238024892507285020002110EF
:10069C0022002300248025CC26AB285121002240A7
:1006AC0023B42489250726AA27042852220023B024
:1006BC002692270928532114220123952600270866
:1006CC002854214823A4262A27002855210022003B
:1006DC0023002409250026AA270A2856210823804E
:1006EC002486253B285720422111220724892507DF
:1006FC002858200021002200241F250028592114ED
:10070C00220123952489250726202700285A211603
:0E071C0026022709285B2100220023002480EA
:10072A00254826AA270A285C23A0248925072614F7
:10073A002709285D2480255026A42704285E21162F
:10074A0022012395248925072700285F21042200F6
:10075A002300249C257826AA270A28602143220DF3
:10076A00240125C426AB286121032200241528620E
:10077A0021002400250026AA2863215E23952489C6
:10078A00250726102709286421032300241525C4D8
:10079A0026AB270A2865210023802400250626AADD
:1007AA002866248F25E326AB2867204221CD22071D
:1007BA002489250726AA2868200021602200230010
:1007CA00240125C026AB286921002380248F250314
:1007DA0026AA286A204221DD220724892507286BB8
:1007EA0020002143220D2300240125C026AB286CBA
:1007FA00210022002400250426AA286D2003217F37
:10080A0022012383248925072626270D286E2162A3
:10081A00286F200521002200238426B42709287086
:10082A00200021062395260027082871210123008C
:10083A002497253B26AA270A28722042210E22083D
:10084A0023802489250728732003213C220B238334
:10085A002626270D2874200021032200239526022C
:10086A002708287521272300248125C426AB270AB7
:10087A002876210023802409254826AA287721588A
:10088A00223423A324892507262A27002878210031
:10089A00220023A026002709287921072380240380
:1008AA00253926AA270A287A21042300241C253858
:1008BA00287B2107238024832539287C210323953B
:1008CA002489250726022708287D21272300248139
:1008DA0025C426AB270A287E21002380240925481F
:1008EA0026AA287F2158223423A324892507262AC9
:1008FA0027002880210622002300248125C0269370
:10090A0027012881210023802489254826AA270A2D
:10091A0028822002216622082300240025662883D3
:10092A002000210022002380241F2502288421067A
:10093A002489250726DC270C2885210023AA26AA34
:10094A00270A288623B62600270828872380248694
:10095A00253B26AA270A288821052489250726DC7B
:10096A00270C2889210023AA26AA270A288A23B61F
:10097A0026002708288B23802486253B26AA270AB7
:10098A00288C2042217B220824892507288D2000D3
:10099A0021002200230024012582288E210524819A
:1009AA0025C226AB288F200321932208238324897A
:1009BA0025072626270D289020002105220023003E
:1009CA00248125C026132701289121002380248908
:1009DA00254826AA270A28922002217E22082300D7
:1009EA002400256628932000210022002380241F4A
:1009FA002502289421052489250726DC270C289519
:100A0A00210023AA26AA270A289623B62600270801
:100A1A00289723802486253B26AA270A2898210579
:100A2A002489250726DC270C2899210023AA26AA2F
:100A3A00270A289A2380241F2502289B21012300A4
:100A4A00248125C226AB289C2003219322082383D4
:100A5A00248925072626270D289D20002104220007
:100A6A00239526122708289E216023C426AA270434
:100A7A00289F210023C02600270928A0204221CB35
:100A8A002208238026AA270A28A12070215422B8E6
:0E0A9A0023952612270828A2200221CC22082C
:100AA800238026AA270A28A3200321CA220F2383EA
:100AB8002626270D28A42000210022002300248CAC
:100AC800250C26AA270A28A521042482257828A6E9
:100AD80021002380248925482612270428A72003DB
:100AE80021DE220F238325072626270D28A820008C
:100AF800210122002300249C257826AA270A28A958
:100B0800210023802481254028AA200321CF220FF9
:100B18002383248925072626270D28AB2070210842
:100B280022B8239526A0270428AC200321D4220F1D
:100B380023832626270D28AD2127220B28AE2070D7
:100B4800216322B823952612270828AF2000210107
:100B580022002380248625CB26AB270A28B02042F2
:100B680021DD22082489250726AA28B1200021187A
:100B78002280239526A4270028B2200321D9220FFA
:100B880023832626270D28B32070210A22B823950F
:100B980026A0270028B4200221E02208238026AAC4
:100BA800270A28B52070210A22B8239526A02700F5
:100BB80028B621542602270828B7200021182280A9
:100BC80026A4270028B82100220023802480254855
:100BD80026AA270A28B92070215E22B823952489DD
:100BE80025072612270828BA200021002200238082
:100BF8002409254B26AA270A28BB2070215F22B882
:100C08002395248925072610270828BC20002100C1
:100C180022002300241C258326AB270A28BD200395
:100C2800213222092383248925072626270D28BE59
:100C380020002100220023002482258C26AB270ACD
:100C480028BF200321252209238324892507262656
:100C5800270D28C0204221BC238026AA270A28C1A4
:100C68002000210122002300240125C026AB28C230
:100C78002070210F22B823952489250726202700D4
:100C880028C3200321E3220F23832626270D28C407
:100C9800200521002200238426B4270928C5200026
:100CA800210323952614270828C621A623A4262A2B
:100CB800270528C7210023A02644270928C821186A
:100CC800226D2380249E257B26AA270A28C9204234
:100CD8002113220B2489250728CA200021AE2200CF
:100CE80023952624270028CB21002203238024874C
:100CF800257B26AA270A28CC20422116220B2489E4
:100D0800250728CD200021AE220023952624270080
:100D180028CE20052100238426B4270928CF2003C4
:100D2800210D220B23832626270D28D02000210001
:100D38002200230024802602270028D123802409AA
:100D48002548261E28D221582234233324802507FB
:100D5800262A28D32100220023002680271028D401
:100D680021102363262A270028D52100236026A8DE
:100D7800271228D621AF224C230026C8270C28D7B3
:100D8800210022002680270528D823802486253B99
:100D9800261E270028D92042211C220E2300248049
:100DA800250728DA20002135222926C4270C28DB2C
:100DB8002002211D220E261E270028DC2000217F6C
:100DC800223426C4270C28DD210022002390249FEA
:100DD80025042610270A28DE2300248425002680DF
:100DE800271028DF2106236324802507262A2700C9
:100DF80028E021002380248926AA270A28E1200543
:100E0800238426B4270928E22070216122B823957B
:0E0E18002612270828E3200021012200238053
:100E2600248625C326AB270A28E4204221CE220F9A
:100E36002489250726AA28E52070215022B8239563
:100E46002612270828E6200521002200238426B43E
:100E5600270928E72070216422B82395261227083F
:100E660028E82000210122002380248625C326AB02
:100E7600270A28E9204221D3220F2489250726AAFA
:100E860028EA2070215122B823952612270828EB3C
:100E9600200521002200238426B4270928EC20708F
:100EA600216522B823952612270828ED2000210166
:100EB60022002380248625C326AB270A28EE20425B
:100EC60021D8220F2489250726AA28EF207021522F
:100ED60022B823952612270828F020052100220093
:100EE600238426B4270928F12070216122B823958E
:100EF6002602270828F220002101220023802486CA
:100F060025C326AB270A28F3204221DD220F248998
:100F1600250726AA28F42070215022B823952602F8
:100F2600270828F5200521002200238426B4270956
:100F360028F6200021012380248625CB26AB270A0C
:100F460028F7204221E1220F2489250726AA28F81E
:100F56002000210222002300248125C426AB28F983
:100F6600210023802489254826AA28FA20052384DF
:100F7600250726B4270928FB2070214E22B8239581
:100F86002610270828FC2000210022002380248622
:100F960025C326AB270A28FD204221E7220F2489F4
:100FA600250726AA28FE200021BB220023952620FD
:100FB600270028FF20052100238426B427092A08B4
:100FC6001001FFFFFFFF3A00643A65BB083A09BB10
:100FD60050105267517705A1180454015521070096
:100FE600060C0B03501051005204610F64556555F1
:080FF60005A11804FFFFFFFF35
:104B88000A4572726F723A20696E76616C696420A8
:104B9800656E7472792063686F6963652E2054723C
:104BA8007920616761696E3A0A000A456E74657218
:104BB80020616E20656E747279206E756D62657203
:034BC8003A0A00A6
:074E0700811E00C112C1135E
:102FA8007823E2B408004003023295902FBAF8283B
:102FB8002873022FD2023001023136023039023131
:102FC8007A0231D802325202326D124E3190000626
:102FD80012137D781F121447781FE2FC08E2FD08DF
:102FE800E2FE08E2FF124449D21278241214530078
:102FF80000000078237401F2227F01124C0D124E5A
:103008000F7828EFF2600578237403F23012057800
:10301800237404F230130578237405F2124E1AD380
:10302800EF9400EE9400500302329578237402F274
:10303800227F02124C0D7828E2640D60030230D919
:103048007816E2FE08E2FFE4FCFD7824E2FB08E2E1
:10305800F908E2FA08E2CBF8D312132650287826AA
:10306800E2FE08E2FFC006C007781FE2FC08E2FDA6
:1030780008E2FE08E2FF782B121447D007D00612A8
:1030880041BDD213803A124E2AC003C002C00112B9
:103098004E1AD001D002D003E92FF9EA3EFA78920D
:1030A80074FFF208744BF2087488F2122CA9C00657
:1030B800C007124E1AD0E02FFFD0E03EFE124E227B
:1030C800E4781EF2782304F208121453000000007A
:1030D800227828E2FFC39430404EEFD39439504809
:1030E800120003E47F0AFEFDFC7824E2FB08E2F903
:1030F80008E2FA08E2CBF8121209C004A905AA06E8
:10310800AB077828E224D0FFE434FFFEE4FCFDD0CE
:1031180000EB2FFFEA3EFEED39FDEC38FC78241277
:10312800144778237401F22278237401F2227F0372
:10313800124C0D124E2A7818E2FE08E229F9EA3EEE
:10314800FA120FFEFF1200037819E22401F218E2C6
:103158003400F2124E1AD37819E29F18E29E400CFE
:10316800E4FFFE124E22E47818F208F27823740184
:10317800F2227F04124C0D7BFE7A007916121B5C3A
:10318800BF020CE47818F208F278237402F222C223
:103198001278237402F2124E2AC003C002C0011230
:1031A8004E1AD001D002D003E92FF9EA3EFA7892FC
:1031B80074FFF208744BF20874B2F2122CA9C0061C
:1031C800C007124E1AD0E02FFFD0E03EFE024E227A
:1031D8007F05124C0D7BFE7A00791A1224C7BF02B4
:1031E8000678237401F222C213781AE2FC08E2FD81
:1031F80008E2FE08E2E4FFFEFDEC5410FC604578AE
:10320800237401F2781AE2FC08E2FD08E2FE08E203
:10321800FFEEEDEC540FFC781A121447781AE2FC12
:1032280008E2FD08E2FE08E2FF1247C7781F121401
:1032380047781FE2FC08E2FD08E2FE08E2FF1244BC
:1032480049D2122278237406F2227F06124C0D7896
:103258001AE2FC08E2FD08E2FE08E2FF124B2F78B2
:10326800237407F2227F07124C0D123296EF700674
:1032780078237407F222781FE2FC08E2FD08E2FED8
:0E32880008E2FF124449D21278237401F222A8
:03002B00024DB1D2
:104DB100C0E0C0F0C083C082C0D075D008C2CF129D
:0D4DC1002FA8D0D0D082D083D0F0D0E03227
:104C8000E47823F2F5C8FCFDFEFB7A40791978013F
:104C9000121209E47B707A17F9F8121294C3E49F98
:104CA000FFE49EAD07FCEF7A00EAF5CB8FCAC2CFD6
:064CB000D2ADD2AFD2CA62
:014CB60022DB
:030000000248EFC4
:0C48EF00787FE4F6D8FD7581550249364B
:100FFE00BB010689828A83E0225002E722BBFE02F1
:09100E00E32289828A83E4932223
:10101700BB010CE58229F582E5833AF583E022508E
:1010270006E92582F8E622BBFE06E92582F8E222D8
:0D103700E58229F582E5833AF583E49322F2
:10104400BB010989828A83F8E028F022500327F73C
:1010540022BBFE05F8E328F3228A838982F8E4930D
:02106400282240
:10106600BB010FF8E58229F582E5833AF583E0288E
:10107600F0225009C58229F8E58226F622BBFE0930
:10108600C58229F8E22582F222F8EA2583F583E96A
:031096009328227A
:10109900BB010689828A83F0225002F722BBFE0136
:0210A900F32230
:1010AB00F8BB010DE58229F582E5833AF583E8F07B
:1010BB00225006E92582C8F622BBFE05E92582C827
:0210CB00F2220F
:1010CD00BC000BBE0029EF8DF084FFADF022E4CC07
:1010DD00F875F008EF2FFFEE33FEEC33FCEE9DECD0
:1010ED00984005FCEE9DFE0FD5F0E9E4CEFD22ED16
:1010FD00F8F5F0EE8420D21CFEADF075F008EF2F60
:10110D00FFED33FD4007985006D5F0F222C398FD50
:05111D000FD5F0EA22ED
:10112200BB010A89828A83E0F5F0A3E02250068798
:10113200F009E71922BBFE07E3F5F009E31922895A
:0B114200828A83E493F5F0740193228D
:10114D00BB0110E58229F582E5833AF583E0F5F0E0
:10115D00A3E0225009E92582F886F008E622BBFEBD
:10116D000AE92582F8E2F5F008E222E5832AF58303
:08117D00E993F5F0A3E99322C8
:10118500BB010789828A8302152E500B09C5F027FA
:10119500F7C5F01937F722BBFE0D09F8E325F0F383
:1011A500C5F019E338F322F889828A8374019325FF
:0811B500F0C5F0F8E4933822C4
:1011BD00BB010A89828A83F0E5F0A3F0225006F77D
:0F11CD0009A7F01922BBFE06F3E5F009F319227A
:1011DC00F8BB0111E58229F582E5833AF583E8F045
:1011EC00E5F0A3F0225009E92582C8F608A6F02202
:0D11FC00BBFE09E92582C8F2E5F008F222E9
:10120900E88FF0A4CC8BF0A42CFCE98EF0A42CFC84
:101219008AF0EDA42CFCEA8EF0A4CDA8F08BF0A402
:101229002DCC3825F0FDE98FF0A42CCD35F0FCEB61
:101239008EF0A4FEA9F0EB8FF0A4CFC5F02ECD3926
:0F124900FEE43CFCEAA42DCE35F0FDE43CFC2293
:1012580075F008758200EF2FFFEE33FECD33CDCC4D
:1012680033CCC58233C5829BED9AEC99E5829840D0
:101278000CF582EE9BFEED9AFDEC99FC0FD5F0D6AD
:10128800E4CEFBE4CDFAE4CCF9A88222B800C1B9D7
:101298000059BA002DEC8BF084CFCECDFCE5F0CB15
:1012A800F97818EF2FFFEE33FEED33FDEC33FCEB4E
:1012B80033FB10D703994004EB99FB0FD8E5E4F909
:1012C800FA227818EF2FFFEE33FEED33FDEC33FCF6
:1012D800C933C910D7059BE99A4007EC9BFCE99AEA
:1012E800F90FD8E0E4C9FAE4CCFB2275F010EF2F2F
:1012F800FFEE33FEED33FDCC33CCC833C810D7072F
:101308009BEC9AE899400AED9BFDEC9AFCE899F869
:0E1318000FD5F0DAE4CDFBE4CCFAE4C8F922FC
:10132600EB9FF5F0EA9E42F0E99D42F0E89C45F01D
:011336002294
:10133700E8600FECC313FCED13FDEE13FEEF13FF94
:03134700D8F122B8
:10134A00E8600FEFC333FFEE33FEED33FDEC33FC01
:03135A00D8F122A5
:10135D00BB010789828A830215445005E9F80213FF
:10136D00EBBBFE05E9F802155089828A8302155CF4
:10137D00BB010DE58229F582E5833AF5830215441B
:10138D005007E92582F80213EBBBFE07E92582F829
:10139D00021550E58229F582E5833AF58302155C45
:1013AD00BB010789828A830215AE5005E9F8021543
:0A13BD00A2BBFE05E9F80214472266
:1013C700BB010DE58229F582E5833AF5830215AE67
:1013D7005007E92582F80215A2BBFE07E92582F826
:0413E7000214472283
:0C13EB00E6FC08E6FD08E6FE08E6FF222E
:1013F700BB010789828A830215795005E9F802152E
:101407006CBBFE05E9F802158589828A830215926D
:10141700BB010DE58229F582E5833AF5830215794B
:101427005007E92582F802156CBBFE07E92582F80B
:10143700021585E58229F582E5833AF5830215923F
:0C144700ECF208EDF208EEF208EFF222E1
:10145300D083D082E493F208740193F20874029368
:09146300F208740393F27404739F
:10146C00BB010789828A830215D35005E9F802155E
:0A147C00BABBFE05E9F80214532282
:10148600BB011A89828A83D0F0D0E0F8D0E0F9D087
:10149600E0FAD0E0FBE8C0E0C0F002160D5016E915
:1014A600F8D083D082D0E0F9D0E0FAD0E0FBC08259
:1014B600C083021604BBFE16E9F8D083D082D0E0C2
:0F14C600F9D0E0FAD0E0FBC082C08302162622E4
:1014D500BB0120E58229F582E5833AF583D0F0D07A
:1014E500E0F8D0E0F9D0E0FAD0E0FBE8C0E0C0F0E9
:1014F50002160D5018E92582F8D083D082D0E0F984
:10150500D0E0FAD0E0FBC082C083021604BBFE180F
:10151500E92582F8D083D082D0E0F9D0E0FAD0E096
:09152500FBC082C08302162622DD
:10000300EFB40A07740D12000E740A309811A89900
:10001300B8130CC2983098FDA899C298B811F6305D
:0700230099FDC299F5992235
:102C4D00E5152492F8E2051522788F30100278925E
:102C5D00E475F001121616020FFE2009EB7F2ED23D
:102C6D00098018EF540F2490D43440D4FF300D0B4D
:102C7D00EF24BFB41A0050032461FFE5166002155E
:102C8D00160519E5197002051830100D788FE475C9
:102C9D00F001121616EF0210990200037403D21000
:102CAD008003E4C210F515788F121626E4F516F59B
:102CBD0018F519E51660077F20122C8880F5751719
:102CCD00FFC20AC209C20BC20CC20EC20FC2111240
:102CDD002C56FF700D3010057F00122C99AF19AED8
:102CED001822B4255FC2D5C20D122C56FF24D0B4C4
:102CFD000A00501A75F00A781630D50508B6FF018E
:102D0D0006C6A426F620D5047002D20C80D924CF95
:102D1D00B41A00EF5004C2E5D20D022E98D20A80EB
:102D2D00C6D20980C0D20B80BCD2D580BAD20E805B
:102D3D00B47F20122C88200B077401B5160040F1CA
:102D4D00122C4DFF122C88022CC0D211D20F80955F
:102D5D00122C4DFB122C4DFA122C4DF94A4B7006CC
:102D6D0079697A2F7BFF200B2EE516602A7E008E67
:102D7D008275830012101760060EEE651770F0C293
:102D8D00D5EBC0E0EAC0E0E9C0E0EE122EDFD0E006
:102D9D00F9D0E0FAD0E0FB120FFEFF60AAEBC0E025
:102DAD00EAC0E0E9C0E0122C88D0E02401F9D0E0BF
:102DBD003400FAD0E0FBE5170460DCD517D9808725
:102DCD007BFF7A2E79DBD20B809C791080027908FB
:102DDD00C20FC2118008D2D5790A8004790AC2D5F2
:102DED00E517047002F517E4FAFDFEFF122C4DFCF9
:102DFD007B08200A13122C4DFD7B1030090A122C72
:102E0D004DFE122C4DFF7B20EC3382D592D5501305
:102E1D00C3E43009069FFFE49EFEE4200A039DFDF6
:102E2D00E49CFCE4CBF8C20AEC700CCFCECDCCE820
:102E3D0024F8F870F38017C3EF33FFEE33FEED3354
:102E4D00FDEC33FCEB33FB994002FB0FD8E9EB3083
:102E5D000A05F8D0E0C448B20AC0E00AEC4D4E4F66
:102E6D0078207B0070C2EAB5170040BCC0E0122E7E
:102E7D00E1D0F0D0E0200A04C4C0E0C4B20AC0F032
:102E8D00122C71D0F0D5F0EB022CC012162F2D5D47
:102E9D00532DD7582D2E4C2D2A422DDB4F2DE3448B
:102EAD002DE3492D43432DE9552DCD462DCD452DF2
:102EBD00CD472F89502D322D2D362E2D592B2D3AB4
:102ECD00232D57202F772A2CF24800002D513F3FFC
:102EDD003F00790AA2D5200C14300E09B910020456
:102EED0004B9080104A2D5200F02500104200B687B
:0D2EFD00920BB516005034C0E07F20300C61
:102F0A00197F30A20B720F720E500F122F38C20B9C
:102F1A00C20FC20EC2117F30800F300E03E9C0E02B
:102F2A00122C88300E03D0E0F9D0E0B516CC300E62
:102F3A00177F30B9100C122C887F58300D077F7814
:102F4A008003B90803122C88300B057F2D022C88C8
:102F5A007F202011F87F2B200FF322920B80CF289D
:102F6A006E756C6C29002D50434958D20A122C4DAB
:102F7A00300AF8C20A781630D50108F6022CF21285
:102F8A002C4D2403B405004001E4902F7093122CB9
:0E2F9A0079743A122C79D20C751604022DD7D8
:1048FB000242ADE493A3F8E493A34003F68001F2E4
:10490B0008DFF48029E493A3F85407240CC8C333BD
:10491B00C4540F4420C8834004F456800146F6DF8C
:10492B00E4800B0102040810204080904E03E47ECB
:10493B00019360BCA3FF543F30E509541FFEE49381
:10494B00A360010ECF54C025E060A840B8E493A348
:10495B00FAE493A3F8E493A3C8C582C8CAC583CA73
:10496B00F0A3C8C582C8CAC583CADFE9DEE780BE2B
:014E0E0000A3
:10152E00C5F0F8A3E028F0C5F0F8E5821582700248
:06153E001583E038F022E5
:0C154400E0FCA3E0FDA3E0FEA3E0FF221A
:0C155000E2FC08E2FD08E2FE08E2FF22D7
:10155C00E493FC740193FD740293FE740393FF22D5
:0D156C00E6FB08E6F908E6FA08E6CBF822EF
:0C157900E0F8A3E0F9A3E0FAA3E0FB22F5
:0D158500E2FB08E2F908E2FA08E2CBF822E6
:10159200E493F8740193F9740293FA740393FB22AF
:0C15A200ECF608EDF608EEF608EFF62275
:0C15AE00ECF0A3EDF0A3EEF0A3EFF022B0
:1015BA00D083D082E493F608740193F608740293F8
:0915CA00F608740393F67404732F
:1015D300A8828583F0D083D0821215EA1215EA120D
:1015E30015EA1215EAE473E493A3C583C5F0C58332
:1015F300C8C582C8F0A3C583C5F0C583C8C582C862
:0116030022C4
:09160400EBF608EAF608E9F6220B
:09160D00EBF0A3EAF0A3E9F022DE
:10161600FAE2FB0808E2F925F0F218E2CA3AF222E9
:09162600EBF208EAF208E9F222F5
:10162F00D083D082F8E4937012740193700DA3A34A
:10163F0093F8740193F5828883E47374029368605E
:06164F00EFA3A3A380DF5E
:00000001FF
