:0D3CF3002535642E20005B4449525D0A0017
:073D20007B007A007970229C
:082724008F368E358D348C33A5
:10272C00754A0185374B85384CE4F543F544F54142
:10273C00F5427871E6B4020F78821213648F408EE2
:10274C003F8D3E8C3D800D7870E6FFE48F40F53F69
:10275C00F53EF53D85363C85353B85343A85333938
:10276C00AF3CAE3BAD3AAC397874E6F55F08E6F5B4
:10277C0060854A61854B62854C63123AA98F49E5A5
:10278C00496003022900AB4AAA4BA94CAF42AE41A7
:10279C00123D008F45E54564E57003022872E5455E
:1027AC007003022872E542240BFFE43541FEAB4A6C
:1027BC00AA4BA94C123D008F47E547540E6003020B
:1027CC0028720544E544700205437BFF7A3C79F39B
:1027DC0085435EF55F121CC6E4F5467E00E5422596
:1027EC0046FFEE3541FEAB4AAA4BA94C123D008F79
:1027FC0048123C350546E546C3940840DEE54730B3
:10280C00E4307546087E00E5422546FFEE3541FE74
:10281C00AB4AAA4BA94C123D008F48123C350546D9
:10282C00E546C3940B40DE7BFF7A3C79F9121CC65B
:10283C0080347F2E123C357546087E00E5422546D5
:10284C00FFEE3541FEAB4AAA4BA94C123D008F4816
:10285C00123C350546E546C3940B40DE7F0D123C19
:10286C00357F0A123C3574202542F542E43541F59A
:10287C0041D3E54294FEE5419401406FE53C2401CF
:10288C00F53CE4353BF53BE4353AF53AE43539F5BE
:10289C0039C3E53C9536FFE53B9535FEE53A953475
:1028AC00FDE5399533FCAB40AA3FA93EA83DD312B8
:1028BC0012D94031AF3CAE3BAD3AAC397874E6F549
:1028CC005F08E6F560854A61854B62854C63123A78
:1028DC00A98F49E5496007E4F543F544F545E4F56E
:1028EC0041F5428006434380E4F545E5456003022B
:0D28FC0027928005E4F543F544AE43AF4458
:0129090022AB
:082299008F368E358D348C3335
:1022A100754E0185394F853A50E4F549F54AF547B0
:1022B100F548F546F545F544F5437871E6B4020F66
:1022C10078821213648F428E418D408C3F800D784D
:1022D10070E6FFE48F42F541F540F53F85363E85D6
:1022E100353D85343C85333BAF3EAE3DAD3CAC3BEB
:1022F1007874E6F55F08E6F560854E61854F628585
:102301005063123AA98F4DE54D60030224E7AB4EAD
:10231100AA4FA950AF48AE47123D008F4BE54B6421
:10232100E57003022457E54B7003022457E5482466
:102331000BFFE43547FEAB4EAA4FA950123D008F6B
:102341004CE54C540E6003022457054AE54A7002DD
:10235100054965387004E5496537600302245778FB
:1023610071E664047066E5482415FFE43547FEAB69
:102371004EAA4FA950123D00E48F46F545F544F5AC
:1023810043AE45AD44AC4378081212FD8F468E45ED
:102391008D448C43E5482414FFE43547FEAB4EAA37
:1023A1004FA950123D00E4E5464FF546E545F54598
:1023B100E544F544E543F543AF46AE45AD44FC780D
:1023C100081212FD8F468E458D448C43E548241B2F
:1023D100FFE43547FEAB4EAA4FA950123D00E4E59C
:1023E100464FF546E545F545E544F544E543F543F6
:1023F100AF46AE45AD44FC78081212FD8F468E45BE
:102401008D448C43E548241AFFE43547FEAB4EAAC0
:102411004FA950123D00E4E5464FF546E545F54527
:10242100E544F544E543F543E548240BFFE435472E
:10243100FEAB4EAA4FA950123D008F4CE54C30E443
:1024410012E546F546E545F545E544F544E54344E1
:1024510010F543E4F54B74202548F548E43547F57C
:1024610047D3E54894FEE54794014071E53E2401D8
:10247100F53EE4353DF53DE4353CF53CE4353BF5D1
:102481003BC3E53E9536FFE53D9535FEE53C95348C
:10249100FDE53B9533FCAB42AA41A940A83FD312CD
:1024A10012D94036AF3EAE3DAD3CAC3B7874E6F55B
:1024B1005F08E6F560854E61854F62855063123A8B
:1024C100A98F4DE54D600CE4F546F545F54475439E
:1024D10080F54BE4F547F5488003E4F54BE54B60A7
:1024E1000302230F800AE4F546F545F54475438060
:1024F100E4FFFEFDFCAB46AA45A944A843C3121262
:10250100D97009F546F545F544754380AF46AE45AA
:04251100AD44AC43E6
:0125150022A3
:1035B0007374617274696E672070726F6772616D87
:1035C0002E2E2E0A004D6F756E74696E672053445F
:1035D00020636172640A0053442063617264206D49
:1035E0006F756E7465640A005344206361726420D1
:1035F0006661696C656420746F206D6F756E740A06
:1036000000526F6F74206469726563746F72793AE7
:103610000A0A00456E74657220616E20656E7472D0
:1036200079206E756D6265723A200A00256C7520EE
:103630002000256C7520200A004572726F723A20B6
:10364000696E76616C696420656E74727920636856
:103650006F6963650A005374617274696E672E2E18
:023660002E003A
:10290A00758E0C758F017F10123D277F0F123D4D7A
:10291A007F2C7E01123C5C7F807E25123B70121F49
:10292A00C0EF600280FE123B387BFF7A3679567D13
:10293A000BE4FF1237877BFF7A3579B0121CC67F0A
:10294A00407E0D7D037C001236FB8F22E522600C4F
:10295A007F10123D277F53123C8280FE7F40123D3A
:10296A00271218728F22E522600C7F10123D277FF2
:10297A0043123C8280FE7F40123D457F007E2D7DC2
:10298A00317C011236FB8F22E522600C7F10123D4A
:10299A00277F50123C8280FE7BFF7A3579C5121C54
:1029AA00C67E007F0012147CEF70157BFF7A3579A2
:1029BA00D7121CC67F10123D457F80123D27800B1F
:1029CA007BFF7A3579E8121CC680FE7BFF7A36795E
:1029DA0001121CC6123D209000061213108F2E8E73
:1029EA002D8D2C8C2BAF2EAE2DAD2CAC2B7537002C
:1029FA00753800122724E48F2A8E29F528F5277BBB
:102A0A00FF7A367913121CC612342A8F268E258D28
:102A1A00248C237BFF7A36792C8F618E608D5F8CB4
:102A2A005E121CC67BFF7A367932852E61852D604F
:102A3A00852C5F852B5E121CC6AF2AAE29AD28AC49
:102A4A0027AB26AA25A924A823D31212D95063AFEB
:102A5A002EAE2DAD2CAC2B8A378B38753900753AD2
:102A6A00001222998F328E318D308C2FE4FFFEFDB9
:102A7A00E52F5410FC6027E532F532E531F531E5F2
:102A8A0030F530E52F540FF52FAF32AE31AD30FCB3
:102A9A0012380C8F2E8E2D8D2C8C2B0229EFAF32F3
:102AAA00AE31AD30AC2F7537007538001239DB0204
:0E2ABA0029EF7BFF7A367939121CC60229EF0C
:1034FB0046696E64696E672042494F532070617252
:10350B00616D6574657220626C6F636B0A00657226
:10351B00726F723A20636F756C64206E6F74206CDF
:10352B006F63617465204250420A006572726F725C
:10353B003A20464154313220756E737570706F723C
:10354B007465640A004641543136206465746563C2
:10355B007465640A004641543332206465746563B4
:10356B007465640A004572726F723A2046415420AA
:10357B007479706520756E737570706F7274656495
:10358B000A004572726F723A20636F756C646E2716
:10359B00742066696E64206E65787420636C757335
:0535AB007465720A00C6
:10147C00AA06A9077555018A568957123D208B5823
:10148C008A59895A7BFF7A3479FB121CC6755F0224
:10149C007560008555618556628557637F007E00B7
:1014AC007D007C00123AA9AB55AA56A957E4FFFE61
:1014BC00123D008F33E4F550F54FF54EF54DE53305
:1014CC0064EB603BE53364E96035AB55AA56A9572C
:1014DC007FC67E01123A458F508E4F8D4E8C4D75C6
:1014EC005F02756000855561855662855763123AB7
:1014FC00A9AB55AA56A957E4FFFE123D008F33E560
:10150C003364EB6012E53364E9600C7BFF7A357968
:10151C0019121CC67F0122AB55AA56A9577F0B7E08
:10152C0000123BA5AB58AA59A95A900004EE8FF0B3
:10153C0012118F900002E412105E90000412110040
:10154C00FDACF0ED64014C6017AB58AA59A95A9048
:10155C0000027401121019ECC313FCED13FD80E3AF
:10156C00AB55AA56A9577F0D7E00123D00AB58AA69
:10157C0059A95AEF12104CAB55AA56A9577F0E7E9B
:10158C0000123BA58E378F38AB55AA56A9577F1042
:10159C007E00123D008F34AB55AA56A9577F117EA1
:1015AC0000123BA58E358F36AB55AA56A9577F1620
:1015BC007E00123BA58E398F3AAB55AA56A9577FA0
:1015CC00137E00123BA58E3B8F3CAB55AA56A957F8
:1015DC007F2C7E00123A458F548E538D528C51E5E0
:1015EC003A45396018AB55AA56A9577F167E00129A
:1015FC003BA5E48F448E43F542F5418015AB55AACB
:10160C0056A9577F247E00123A458F448E438D4253
:10161C008C41E53C453B600DE4853C48853B47F5FA
:10162C0046F5458015AB55AA56A9577F207E00126A
:10163C003A458F488E478D468C45AB58AA59A95AC6
:10164C00900004121100FDACF024FFFBEC34FFFA07
:10165C00E536AE357805C333CE33CED8F92BFFEA59
:10166C003EFE121080E4FCFDAB58AA59A95A90001A
:10167C0012121340AF34E4FCFDFEAB44AA43A94262
:10168C00A8411211BCA804A905AA06AB07E4FCFDED
:10169C00EB2538FFEA3537FEED39FDEC38FCAB585D
:1016AC00AA59A95A900012121370EF2BFBEE3AFABA
:1016BC00ED39F9EC38F8C3E5489BF54CE5479AF55C
:1016CC004BE54699F54AE54598F549E4E53825504A
:1016DC00FFE537354FFEE4354EFDE4354DFCAB5898
:1016EC00AA59A95A90000E12134090000E121370B2
:1016FC00C000C001C002C003AF34E4FCFDFEAB442B
:10170C00AA43A942A8411211BCD003D002D001D0E7
:10171C0000EF2BFFEE3AFEED39FDEC38FCAB58AA8E
:10172C0059A95A900012121370EF2BFFEE3AFEEDEE
:10173C0039FDEC38FCAB58AA59A95A90000A12137F
:10174C0040120FD3FFE4FCFDFEF8F9FAAB07AF4CE7
:10175C00AE4BAD4AAC491212478F408E3F8D3E8C3A
:10176C003DE47FF57E0FFDFCAB40AA3FA93EA83DB2
:10177C00C31212D9500C7BFF7A357936121CC67FF6
:10178C000122E47FF57EFFFDFCAB40AA3FA93EA8F9
:10179C003DC31212D9505EAB58AA59A95A900001F8
:1017AC00740212105E7BFF7A357950121CC6AB584E
:1017BC00AA59A95A90000E121370C000C001C002A1
:1017CC00C003AF34E4FCFDFEAB44AA43A942A841DC
:1017DC001211BCD003D002D001D000EF2BFFEE3A97
:1017EC00FEED39FDEC38FCAB58AA59A95A9000060D
:1017FC00121340806EAB58AA59A95A900001740478
:10180C0012105E7BFF7A357960121CC6E55424FEFB
:10181C00FFE55334FFFEE55234FFFDE55134FFFC88
:10182C00A804C005C006C007AB58AA59A95A120F84
:10183C00D3FFE4FCFDFED003D002D0011211BCABEF
:10184C0058AA59A95A90000A121370EF2BFFEE3ABE
:10185C00FEED39FDEC38FCAB58AA59A95A9000069C
:05186C001213407F0093
:011871002254
:08380C008F3F8E3E8D3D8C3C88
:10381400123D208B408A418942E4FFFEFDFCAB3F10
:10382400AA3EA93DA83CC31212D9700CAB40AA41D0
:10383400A942900006021310E53F24FEFFE53E3442
:10384400FFFEE53D34FFFDE53C34FFFCA804C00564
:10385400C006C007AB40AA41A942120FD3FFE4FC43
:10386400FDFED003D002D0011211BCAB40AA41A985
:103874004290000A121370EF2BFFEE3AFEED39FD71
:03388400EC38FC21
:01388700221E
:082C6F008F3C8E3B8D3A8C393D
:102C7700123D208B488A49894A753F01853D408529
:102C87003E41900001120FECFFE4FCFDFEAB3CAAB5
:102C97003BA93AA8391211BCC004C005C006C00739
:102CA700AB48AA49A94A900004121100FFAEF0E40C
:102CB700FCFDF8F9AA06AB07D007D006D005D0046B
:102CC700121247AB48AA49A94A90000E121370EF97
:102CD7002BFFEE3AFEED39FDEC38FCAB48AA49A9CB
:102CE7004A900004121100F56085F05F853F618509
:102CF7004062854163123AA9AB48AA49A94A9000A4
:102D070001120FECFFE4FCFDFEAB3CAA3BA93AA87D
:102D1700391211BCC004C005C006C007AB48AA4998
:102D2700A94A900004121100FFAEF0E4FCFDF8F987
:102D3700AA06AB07D007D006D005D004121247AEBB
:102D470002AF038E428F43AB48AA49A94A900001BC
:102D5700120FECB40411AB3FAA40A941123A45EF58
:102D6700EEEDEC540FFC22AB48AA49A94A900001AA
:102D7700120FEC6402703BAB3FAA40A941AF43AED0
:102D870042123BA5E48F478E46F545F5447FFF7E0B
:102D9700FFFDFCAB47AA46A945A844C31212D97048
:102DA7000874FFFFFEFD7C0F22AF47AE46AD45AC72
:102DB70044227BFF7A357970121CC6E4FFFEFDFCC6
:0F2DC700227BFF7A35798D121CC6E4FFFEFDFCDE
:012DD60022DA
:103C0B008D39EF70077F40123D3180057F40123DAB
:103C1B00517F80123D51AF39123D5D7F80123D3196
:0A3C2B007FFF123D5D7F40023D5116
:103B38007D38E4FF123C0B7F017E00123C5C7D481F
:103B4800E4FF123C0B7F017E00123C5C7D01E4FF28
:103B5800123C0B7F027E00123C5C7D0CE4FF123CA1
:083B68000B7F017E00023C5CB2
:083787008D338B348A3589363D
:10378F00EFF46010EF4480FDE4FF123C0B7F017EED
:10379F0000123C5CE5337038F537AB34AA35A936E7
:1037AF00853782F583120FECF538E538604EFD7FD3
:1037BF0001123C0B7F017E00123C5C0537AB34AA33
:1037CF0035A936853782758300120FECF53880DA0C
:1037DF00E4F537E537C395335022AB34AA35A93614
:1037EF00853782758300120FECF538FD7F01123C8F
:0C37FF000B7F017E00123C5C053780D778
:01380B00229A
:053D2700EFF452A022A0
:043D4500EF42A02287
:10342A00E4F53374352533F8E4F60533E533B40BA4
:10343A00F274FFF543F542F541F540E4F533123DE8
:10344A00188F34E534C394304017E534D394395097
:10345A001074352533F8A6340533AF34123C358061
:10346A0050E53464086005E534B47F1A15337435C1
:10347A002533F8E4F67F08123C827F20123C827FD3
:10348A0008123C82802BE534640D6005E534B40AE9
:10349A001D7B007A00793512334C8F438E428D4161
:1034AA008C407F0D123C827F0A123C828003E4F535
:1034BA0034E533B40A1B7B007A00793512334C8F1A
:1034CA00438E428D418C407F0D123C827F0A123C12
:1034DA008274FFFFFEFDFCAB43AA42A941A840C388
:1034EA001212D97003023448AF43AE42AD41AC4028
:0134FA0022AF
:033D5D008F802232
:053D2C00EFF4529022AB
:053D3100EFF452B02286
:043D4900EF42902293
:043D4D00EF42A0227F
:043D5100EF42B0226B
:102516005344204361726420496E697469616C6931
:102526007A6174696F6E202E2E2E200A0D00434D9F
:1025360044302073656E74202E2E2E200052657353
:10254600706F6E7365203D2025322E3262580A0D5B
:1025560000434D44382073656E74202E2E2E2000C5
:10256600526573706F6E7365203D200025322E32E2
:102576006258200A0D0056657273696F6E2031200D
:1025860053442043617264206465746563746564B2
:102596002E0A0D005374616E64617264204361708B
:1025A600616369747920436172642064657465634C
:1025B6007465642E0A0D0025322E326258200056AC
:1025C600657273696F6E20322053442043617264D2
:1025D6002064657465637465642E0A0D00434D447A
:1025E60035382073656E74202E2E2E200041434D03
:1025F6004434312073656E74202E2E2E20005469CB
:102606006D656F7574203D20256C75200A0D004898
:1026160069676820436170616369747920436172F8
:10262600642044657465637465640A0D00537461BF
:102636006E646172642043617061636974792043DA
:102646006172642044657465637465640A0D0043B1
:102656004D4431362073656E74202E2E2E20005286
:102666006573706F6E7365203D2025322E32625879
:10267600200A0D00426C6F636B2073697A652073C4
:10268600657420746F203531322062797465730A5F
:102696000D0053442054696D656F75742045727240
:1026A6006F7200496C6C6567616C20436F6D6D617C
:1026B6006E640A0D00526573706F6E736520457205
:1026C600726F72004461746120546F6B656E2045B1
:1026D60072726F7200496E636F6D70617469626CBD
:1026E6006520566F6C74616765004361726420698A
:1026F6007320496E61637469766500535049206F93
:10270600722054696D656F7574204572726F720020
:0E271600556E6B6E6F776E204572726F72009B
:0B305200E4F56AF569F568F5677F3A60
:02305D008F667C
:10305F00E4F56CE566C394404003023157E56644DE
:10306F0040F56B7B007A00796DFF123BD88F6EE5D0
:10307F006E701CAF6AAE69AD68AC6778181212EA51
:10308F008F6B7B007A00796D123BD88F6E80037542
:10309F006C87E56C702FE56E702BE56AF56AE56954
:1030AF00F569E568F568E4F567AF6AAE69AD68ACD8
:1030BF006778101212EA8F6B7B007A00796D123BE2
:1030CF00D88F6E8003756C87E56C702DE56E702957
:1030DF00E56AF56AE569F569E4F568F567AF6AAE23
:1030EF0069AD68AC6778081212EA8F6B7B007A00C3
:1030FF00796D123BD88F6E8003756C87E56C7018F5
:10310F00E56E7014E56AFFE48F6BFB7A00796DAFA3
:10311F006B123BD88F6E8003756C87E56C702CE556
:10312F006E7028E5667005756B95800DE566B408C1
:10313F0005756B878003756B017B007A00796DAF26
:0D314F006B123BD88F6E8003756C82AF6CE5
:01315C002250
:07366200FB7A0079367F01BD
:083669008F478B488A49894A0A
:10367100E4F54C7B007A00794E7FFF123BD88F4DE9
:10368100054BE54E30E708E54B6004E54D60E4E5A8
:103691004D6005754C878052E54B7005754C8180F6
:1036A10049AB48AA49A94AE54E12104CE54E6004BF
:1036B10064017033E547D39401402F754B01E54B0D
:1036C100C3954750257B007A00794E7FFF123BD886
:1036D1008F4DAB48AA49A94A854B82758300E54EB7
:1036E10012105E054B80D7754C837B007A00794EB2
:0936F1007FFF123BD88F4DAF4C56
:0136FA0022AD
:0A315D008E668F678B688A69896AA5
:10316700E4F56EF56FF56C7B007A00796D7FFF12E1
:103177003BD88F6B056FE56F7002056EE56D30E725
:103187000AE56F456E6004E56B60DCE56B6006750C
:103197006C8702324CE56F456E7006756C810232A2
:1031A7004CE56D6003023249F56EF56F7B007A00DE
:1031B700796D7FFF123BD88F6B056FE56F70020546
:1031C7006EE56DB4FF0AE56F456E6004E56B60DC84
:1031D700E56B6005756C87806CE56F456E700575EE
:1031E7006C818061E56D64FE7053F56EF56FC3E524
:1031F7006F9567E56E956650287B007A00796D7F3D
:10320700FF123BD88F6BAB68AA69A96A856F828565
:103217006E83E56D12105E056FE56F70D1056E80E8
:10322700CD7B007A00796D7FFF123BD88F6B7B00D7
:103237007A00796D7FFF123BD88F6B8008756C849D
:103247008003756C837B007A00796D7FFF123BD812
:043257008F6BAF6C5E
:01325B002250
:10187200E4F534781E76FF7F10123D557BFF7A2502
:101882007916121CC6E4F5337B007A00793E7FFF9D
:10189200123BD88F350533E533C3940A40EA7F8083
:1018A200123D277BFF7A257934121CC67F10123D28
:1018B2003BE4F56AF569F568F567FF12305D8F352F
:1018C200E53570131236628F357BFF7A25794385B1
:1018D200365E121CC680057F10123D277F10123D16
:1018E200557F80123D45E5356002F534E5346003ED
:1018F2000219D17F80123D277BFF7A257957121C6E
:10190200C67F10123D3BE4756AAA756901F568F558
:10191200677F0812305D8F35E53560030219C2FB1F
:101922007A0079367F051236698F357F10123D5560
:101932007F80123D45E535603F7BFF7A257966124F
:101942001CC67BFF7A25797285365E121CC6E53588
:10195200B48320E536B4051BE4F534781E76097BA2
:10196200FF7A25797C121CC67BFF7A25799A121C94
:10197200C6805C85353480577BFF7A257966121CD8
:10198200C6E4F5337BFF7A2579BD74362533F8E654
:10199200F55E121CC60533E533C3940540E67F0DA0
:1019A200123C357F0A123C35E53A64AA600375356C
:1019B20083781E76027BFF7A2579C5121CC6800FBA
:1019C2007F10123D557F80123D457F10123D27E565
:1019D200346003021A5C7F80123D277BFF7A2579EF
:1019E200E3121CC67F10123D3B1230528F35E53593
:1019F2007053FB7A0079367F051236698F357F1076
:101A0200123D557F80123D457BFF7A257966121C77
:101A1200C6E4F5337BFF7A2579BD74362533F8E6C3
:101A2200F55E121CC60533E533C3940540E67F0D0F
:101A3200123C357F0A123C35E53854FC64FC6014D4
:101A4200753585800F7F10123D557F80123D457F91
:101A520010123D27E5356002F534E5346003021BC0
:101A62004C781EE6B4020CE4F542F541F540753FB0
:101A7200408009E4F542F541F540F53FE4F546F5CD
:101A820045F544F5437F20123D277BFF7A2579F304
:101A9200121CC67F10123D3BE4F56AF569F568F544
:101AA200677F3712305D8F35E53570051236628FEC
:101AB20035E53664016004E536701385426A854176
:101AC20069854068853F677F2912305D8F35E5352E
:101AD20070031236627F10123D55E5462401F54629
:101AE200E43545F545E43544F544E43543F543E44E
:101AF200FFFEFDFCAB46AA45A944A843C31212D976
:101B02007003753581E53630E004E5356085E535ED
:101B120070137F20123D457BFF7A25794385365E1F
:101B2200121CC6800A7F80123D457F10123D277B22
:101B3200FF7A26790485466185456085445F854341
:101B42005E121CC6E5356002F534E5346003021C02
:101B520059781EE664026003021C597F80123D27F9
:101B62007BFF7A2579E3121CC67F10123D3B1230AF
:101B7200528F35E5356003021C3FFB7A0079367FD0
:101B8200051236698F357F10123D557F80123D4513
:101B92007BFF7A257966121CC6E4F5337BFF7A2532
:101BA20079BD74362533F8E6F55E121CC60533E5B9
:101BB20033C3940540E67F0D123C357F0A123C3553
:101BC200E53720E706753586021C4EE53754C0FF1F
:101BD200BFC00FE4781EF67BFF7A267915121CC669
:101BE200806A781E76097BFF7A267933121CC67FBB
:101BF20080123D277BFF7A267955121CC67F101270
:101C02003D3BE4F56A756902F568F5677F101230AD
:101C12005D8F35E53570351236628F357F10123D96
:101C2200557F80123D457BFF7A26796585365E12A7
:101C32001CC67BFF7A26797A121CC6800F7F10128F
:101C42003D557F80123D457F10123D27E5356007E7
:101C5200F534AF3412396DE5346004FF12396DAFDB
:011C6200344D
:011C6300225E
:053D3600781EE6FF22EB
:10396D008F47E547B481097BFF7A267998021CC6FB
:10397D00E547B482097BFF7A2679A9021CC6E54783
:10398D00B483097BFF7A2679BB021CC6E547B48454
:10399D00097BFF7A2679CA021CC6E547B485097BE7
:1039AD00FF7A2679DB021CC6E547B486097BFF7AD0
:1039BD002679F0021CC6E547B487097BFF7A277983
:0E39CD0001021CC67BFF7A277916121CC62247
:083AA9008F5E8E5D8D5C8C5B6D
:103AB100123D368F647F10123D3BAF5EAE5DAD5C53
:103AC100AC5BA964A8011212FD8F6A8E698D688CA6
:103AD100677F1112305D8F65E565700DAB61AA627C
:103AE100A963AF60AE5F12315D7F10123D55E56590
:073AF10060037F01227F004A
:013AF80022AB
:0C3D00005306018F828E83120FECFF220D
:0A3BA5008E5B8F5C8B5D8A5E895F8A
:103BAF00535B01E4FDFCE55C2401FFE4355B8F8290
:103BBF00F583120FECFD7D00FC855C82855B831223
:083BCF000FECFFE4EFFDAE0472
:013BD70022CB
:043A45008E5B8F5CA9
:103A4900535B01E4F560F55FF55EF55DF562AF6224
:103A5900C374039562CFE49400CF255CCF355B8FA7
:103A690082F583120FECF561AF60AE5FAD5EAC5DC0
:103A790078081212FD8F608E5F8D5E8C5DE4E560C3
:103A89004561F560E55FF55FE55EF55EE55DF55D70
:0F3A99000562E562B404B7AF60AE5FAD5EAC5DD1
:013AA80022FB
:1036FB00E4F533AB07AA06A905A804FF7E407D19A4
:10370B007C01121247EFD39402500575C370806988
:10371B00EFD39402400BEFD39404500575C3718023
:10372B0058EFD39404400BEFD39408500575C37234
:10373B008047EFD39408400BEFD39410500575C31B
:10374B00738036EFD39410400BEFD3942050057554
:10375B00C3F08025EFD39420400BEFD3944050055A
:10376B0075C3F18014EFD39440400BEFD39480508A
:0B377B000575C3F2800375330FAF33F8
:013786002220
:103BD800E4FE8FC5AFC40EEF54F07003EE70F5EE3F
:103BE8006017EF54707009E5C512104CE4FE8010A0
:103BF80074FF12104CE4FE800774FF12104C7E8094
:023C0800AF0605
:013C0A002297
:043D5500EF42902287
:053D3B00EFF45290229C
:103C5C005389F0438901C2A9758CF4758A3DC28DD4
:103C6C00D28C308DFDC28CEF1F70011ED3EF9400EF
:063C7C00EE940050E3226B
:103B700053873F438780C2AC759852E4F59BFCFDA8
:103B80007BC0FAF9F81211BCA804A905AA06AB0774
:103B9000E4FFFE7D2F7C0D121247EFF404F59A75B9
:053BA0009B1ED29922DA
:103C8200E4FDFC0DBD00010C209904ED4C70F4ED37
:0F3C92004C60088F99AE07C29980027EF1AF0691
:013CA1002200
:073D18003098FDAF99C2983D
:013D1F002281
:1039DB008F368E358D348C33751303751401751535
:1039EB00017400B538087400B53703E4F51474009E
:1039FB00B538087402B53703E4F515E4F516F51779
:103A0B00F518F519123D208B0C8A0D890EAF36AEC9
:103A1B0035AD34AC3312380C8F128E118D108C0FD8
:103A2B00E4F50BF50AF509F50885361D85351C857A
:0A3A3B00341B85331A122AC880FBE1
:103888008B398A3A893BE4FFFEFDFCAB0BAA0AA9F7
:1038980009A808C31212D97013AF1DAE1CAD1BAC1A
:1038A8001A12380C8F128E118D108C0FE512250B01
:1038B800FFE511350AFEE5103509FDE50F3508FC71
:1038C800AB0CAA0DA90E900004121100F56085F04A
:1038D8005F853961853A62853B63123AA9E50B2415
:1038E80001F50BE4350AF50AE43509F509E435086C
:0338F800F50822AE
:0638FB008B398A3A893B7B
:103901007F08123D49AB3CAA3DA93E1210D5FFAE3E
:10391100F0C3EE94025029209226AB39AA3AA93B72
:103921008F828E83120FECFF7B007A007942123B6B
:10393100D8AB3CAA3DA93EE475F00112113880C50F
:103941007F08123D2CAB3CAA3DA93E1210D5B40014
:1039510018E5F0B40213E4F5F0121170AB3FAA4080
:0B396100A941740112104CFF227F00EE
:01396C002238
:103AF9008F397F80123D457F40123D457F20123D21
:103B0900457F10123D45E53930E0057F80123D279C
:103B1900E53930E1057F40123D27E53930E2057F7F
:0F3B290020123D27E53930E3057F10123D27229A
:102AC800E513B408004003022C6E902AD9F8282890
:102AD80073022AF1022B1E022B2D022B42022BB26B
:102AE800022BDF022BEE022C037F01123AF9AF1DF5
:102AF800AE1CAD1BAC1A753D00753E00122C6F8FD5
:102B08001D8E1C8D1B8C1AE4F514F50BF50AF509BE
:102B1800F508751305227F02123AF9309203022C48
:102B28006E751303227F03123AF97B017A0079004C
:102B3800123888E4F514751305227F04123AF92037
:102B4800921DE5147019F53C753D00753E16F53F6C
:102B58007540007541147B017A0079001238FBAB8F
:102B68000CAA0DA90E120FD3FFE4FCFDFEAB0BAAB5
:102B78000AA909A808C31212D97002F513309206DF
:102B8800E5156401600AE514B40109E515B401040A
:102B980075130622E514B401072092047513072261
:102BA800209203022C6E751301227F05123AF9AFA9
:102BB8001DAE1CAD1BAC1A753D02753E00122C6F84
:102BC8008F1D8E1C8D1B8C1AE4F515F50BF50AF577
:102BD80009F508751301227F06123AF930920302AB
:102BE8002C6E751307227F07123AF97B017A027956
:102BF80000123888E4F515751301227F08123AF996
:102C080020921DE5157019F53C753D00753E18F5C7
:102C18003F7540007541157B017A0279001238FB37
:102C2800AB0CAA0DA90E120FD3FFE4FCFDFEAB0BF3
:102C3800AA0AA909A808C31212D970037513043087
:102C48009206E51464016008E514B40107B40104B0
:102C580075130222E515B4010720920475130322A7
:072C680030920375130522F1
:02325C008F4B96
:10325E00D290D291E4F556E55075F008A4F55005DC
:10326E0051209103023346209003023346123CBE96
:10327E00E54B25E0F5555355FEC2907557087F0175
:10328E00123CA8C2911557AF57E555A80708800202
:10329E00C313D8FC5401F558123CA2D2913091FDC3
:1032AE00A290E433F55965586003755681E557D3FE
:1032BE0094004004E55660C6E556704F7F01123CFF
:1032CE00A8C291D290E550601524F8F550AF4FAEDC
:1032DE004EAD4DAC4CF9F81212EA8F5580181551BF
:1032EE00AB52AA53A954120FD3F55574012554F5B8
:1032FE0054E43553F5537F01123CA8D2913091FD21
:10330E00A290E433F5596003755682E5516007E5E6
:10331E00567003023289E5566481601F7F01123CAC
:10332E00A8C291C2907F01123CA8D2913091FD7F2C
:0D333E0002123CA8D2908003755681AF5654
:01334B00225F
:022DD7008F3B30
:102DD900E4F546E540601F853F4F853E4E853D4DF4
:102DE900853C4CF550E4F551854252854353854461
:102DF9005412325C8F46E5466003022F18D290D2F6
:102E090091209103022F15209003022F15123CBE29
:102E1900E53B25E0F545434501C2907547087F012B
:102E2900123CA8C2911547AF47E545A8070880029B
:102E3900C313D8FC5401F548123CA2D2913091FD3C
:102E4900A290E433F54965486003754681E547D3A7
:102E590094004004E54660C6E546701E7F01123CB9
:102E6900A8C291D2907F01123CA8D2913091FDA2C3
:102E790090E433F5496003754682E541D3940040F7
:102E890069E54670657547087F01123CA8C291152E
:102E990047D290E54A25E0F54A7F01123CA8D29134
:102EA9003091FDA290E433F549424AE547D39400B5
:102EB90050D6AB42AA43A944E54A12104C740125E5
:102EC90044F544E43543F543E541B401057548014A
:102ED9008003E4F5487F01123CA8C291E548123C01
:102EE900A2D2913091FD15418090E5466481601F21
:102EF9007F01123CA8C291C2907F01123CA8D291D5
:102F09003091FD7F02123CA8D2908003754681AFB3
:012F19004671
:012F1A002294
:103CBE005389F0438901C2A9758CFF758AC3C28DE1
:033CCE00D28C2273
:063CA20024FF92907F0157
:103CA800308C03308DFDC28CBF010A758CFF758A7C
:063CB800C3C28DD28C2274
:102F1B004F75747075742066726F6D204944207202
:102F2B00656769737465723A2025322E32625820B8
:102F3B000A0D0053544130313320536F667456657C
:102F4B007273696F6E3A2025322E326258200A0D49
:102F5B00002E000A466972737420636F6E66696790
:102F6B0075726174696F6E2066696C652073656E2E
:102F7B00742E2E2E0A004E756D626572206F6620C0
:102F8B0076616C756573207772697474656E3A201F
:102F9B002564200A000A5365636F6E6420636F6EAD
:102FAB0066696775726174696F6E2066696C6520FE
:102FBB0073656E742E2E2E0A0053656E7420746F1B
:102FCB00205354413031333A2025322E326258206F
:102FDB002025322E326258200A0D004F7574707501
:102FEB00742066726F6D2072656769737465723ACF
:102FFB002025322E326258202025322E3262582064
:10300B0025322E326258200A0D00436F6E666967B7
:10301B0075726174696F6E20436F6D706C6574654A
:10302B000A0D005455060B525165645061050D187D
:10303B000C4648720007100902B80000000605A1F3
:07304B000004050C0C01005C
:053D4000EFF452B02277
:043D5900EF42B02263
:101FC0007F08123D4078867601753432123D59E41F
:101FD000F53FF53EF53DF53CF540754103F542759D
:101FE00043007544897F43122DD78F331534E53371
:101FF0006004E53470D9E534600E7BFF7A2F791BDD
:10200000788BE6F55E121CC6E4753F01F53EF53DA2
:10201000F53C754001754101F542754300754489F1
:102020007F43122DD78F331534E5336004E53470C8
:10203000D7E534600E7BFF7A2F791B7889E6F55E51
:10204000121CC67889E664AC6003022296753F7163
:10205000F53EF53DF53C754001754101F54275438E
:10206000007544897F43122DD78F337BFF7A2F79F8
:102070003E7889E6F55E121CC6E4F539F53A753608
:10208000FF753700753803AB36AA37A938853A8211
:10209000853983120FECF535053AE53A70020539BA
:1020A000F582853983120FEC7886F6053AE53A70A9
:1020B000020539543F70097BFF7A2F795C121CC6E8
:1020C000E535F4602F753432E485354FF54EF54D26
:1020D000F54C755001755101F552755300755486D4
:1020E0007F4312325C8F33D53402C2A7E5336004DC
:1020F000E53470D4E535F46004E534708A7BFF7A0A
:102100002F795E121CC67BFF7A2F7981E539C313C4
:10211000F55EE53A13F55F121CC6E4F539F53A753C
:1021200036FF75370F7538A1AB36AA37A938853A0F
:1021300082853983120FECF535053AE53A700205D0
:1021400039F582853983120FEC7886F6053AE53A3F
:1021500070020539540770097BFF7A2F795C121CD5
:10216000C6E535F4602F753432E485354FF54EF50C
:102170004DF54C755001755101F55275530075546C
:10218000867F4312325C8F33D53402C2A7E53360B9
:1021900004E53470D4E535F46004E534708A7BFFDF
:1021A0007A2F79A0121CC67BFF7A2F7981E539C37B
:1021B00013F55EE53A13F55F121CC6E4753F71F541
:1021C0003EF53DF53C754001754101F54275430012
:1021D0007544897F43122DD78F337BFF7A2F793E49
:1021E0007889E6F55E121CC6E4F539F53AAF3AEFA8
:1021F00090302E93F535EF903040937886F6753415
:1022000032E485354FF54EF54DF54C75500175515D
:1022100001F5527553007554867F4312325C8F333B
:10222000D53402C2A7E5336004E53470D47BFF7A6D
:102230002F79C485355E7886E6F55F121CC6E53ACF
:1022400090302E93F535FFE48F3FF53EF53DF53C9C
:10225000754001754101F5427543007544897F431E
:10226000122DD78F337BFF7A2F79E685355E7889FB
:10227000E6F55F853360121CC6053AE53A70020543
:1022800039C39411E539940050030221ED7BFF7AA4
:08229000307915121CC6AF33B2
:012298002223
:100003003A012A04280029002000210022002300AD
:10001300240025002600270028012802218F280319
:100023002100280428052806280728082809280A63
:10003300280B280C20802190280D20002100280E59
:1000430020812191280F20002192281021002811BE
:1000530021932812210028132814281520822816FA
:1000630020002817281828192194281A2195281BBD
:100073002196281C2100281D2083281E2000281FCC
:1000830021972820210028212822282328242825D5
:100093002826282728282829282A2084282B2000B6
:1000A300282C282D282E282F283028312832208547
:1000B3002833200028342835283628372198283833
:1000C30021002839283A283B283C283D283E283F50
:1000D30028402841284228432844284528462847C1
:1000E30028482849284A284B284C284D284E284F71
:1000F3002850285128522853285428552856285721
:1001030028582859285A285B285C285D285E285FD0
:1001130028602861286221992863210028642865C2
:100123002866286728682869286A286B286C286D40
:10013300286E286F287028712872287328742875F0
:100143002876287728782879287A287B287C287DA0
:10015300287E287F28802881288228832884288550
:100163002886288728882889288A288B288C288D00
:10017300288E288F289028912086289220872893DC
:100183002000289428952896289728982899289A13
:10019300289B289C289D289E289F219A28A02100DF
:1001A30028A128A228A328A428A528A628A728A8E8
:1001B30028A928AA28AB28AC28AD28AE28AF28B098
:1001C30028B128B228B328B428B528B628B728B848
:1001D30028B9208828BA200028BB208928BC200001
:1001E30028BD28BE28BF28C028C128C228C3219BF8
:1001F30028C4210028C528C628C728C828C928CA52
:1002030028CB28CC28CD28CE28CF28D028D128D237
:1002130028D328D428D528D628D728D828D928DAE7
:1002230028DB28DC28DD28DE28DF28E028E1208AF7
:1002330028E2208B28E3200028E428E528E628E7A5
:1002430028E828E928EA28EB28EC28ED28EE28EF0F
:1002530028F028F128F228F328F428F528F628F7BF
:1002630028F8208C28F92000219C28FA219D28FBBE
:10027300208D219E28FC208E219F28FD2000210017
:1002830028FE28FF2A012800220123952489250717
:1002930026A42707280121C72200238026C4270C70
:1002A30028022009211C220426AA270A2803200049
:1002B3002100220023A626A02707280428052005BD
:1002C300238426B42709280620002203230024813F
:1002D30025C026AB270A280721AE220023952489AF
:1002E300250726A42700280821482201238026C4A5
:1002F300270C280920092104220426AA270A280AF0
:1003030020002100220023A826A42707280B280C5D
:1003130021402220238026C4270C280D222426C610
:10032300280E219E220026C8280F2009210222140C
:1003330026AA270A2810200521002200238426B498
:1003430027092811200021012300240125C026AB01
:10035300270A281221C3239524892507262027004D
:100363002813200321C223832626270D281421B313
:0E03730022082815200021C62200239526000E
:1003810027082816210023002496250326AA270AD8
:100391002817204221B62380248925072818200008
:1003A10021002394260E2819200F238426B427091F
:1003B100281A2000239326A82703281B2628270074
:1003C100281C21012300240125C026AB270A281D52
:1003D10021C523952489250726202700281E2100D1
:1003E10023942600270A281F260E2820200321797E
:1003F100220123832626270D2821213228222000AD
:10040100210422002380240025FC26AA270A282370
:10041100210023002500282421A3220D2380249ECE
:10042100253B2825204221572201248925072826FA
:1004310020002143220D2400253828272108229855
:100441002395248925072624270028282042219343
:100451002201238026AA270A28292003217E22049B
:1004610023832626270D282A200021B02200239548
:1004710026A02707282B21002300240C250426AAC7
:10048100270A282C21022380248625C326AB282D68
:100491002042219722012489250726AA282E2000FF
:1004A10021002200241F2504282F21B2239524890D
:1004B10025072620270428302042218B220423806F
:1004C10026AA270A2831200021B12200239526A03F
:1004D1002707283220032175220423832626270D8E
:1004E1002833200521002200238426B4270928343B
:1004F100200021602300240125C026AB270A2835CE
:1005010021082298239524892507262427002836A7
:1005110021BC2200283721A3220D2300240125C05C
:1005210026AB270A283821602200238024002538A1
:1005310026AA2839210622982395248925072624CD
:100541002700283A21BE2200283B200521002384D0
:1005510026B42709283C200021602300240125C05E
:1005610026AB270A283D214222012395248925070C
:1005710026242700283E210C229826A42707283F5D
:1005810021082840216022002300240125C026AB38
:10059100270A2841210C22982395248925072624FE
:1005A10027002842200521002200238426B42709A0
:1005B1002843200023802400251026AB270A284445
:1005C1002122220123952489250726242700284555
:1005D1002100220023002404251226AA270A2846E6
:1005E100200321D422052383248925072626270DCC
:1005F10028472000216022002300240125C026ABCA
:10060100270A284821B3239524892507260027088E
:100611002849210023002409250026AA270A284A5F
:10062100210223802486253B284B204221DD2205FF
:1006310024892507284C200021002200241F2500A1
:10064100284D21B323952489250726202700284EEC
:10065100210023002497250326AA270A284F204298
:1006610021E222052380248925072850200021101A
:1006710022002300248025CC26AB285121002240D2
:1006810023B42489250726AA27042852220023B04F
:100691002692270928532114220123952600270891
:1006A1002854214823A4262A270028552100220066
:1006B10023002409250026AA270A28562108238079
:1006C1002486253B2857204221112207248925070A
:1006D1002858200021002200241F25002859211418
:1006E100220123952489250726202700285A21162F
:0E06F10026022709285B210022002300248016
:1006FF00254826AA270A285C23A024892507261423
:10070F002709285D2480255026A42704285E21165A
:10071F0022012395248925072700285F2104220021
:10072F002300249C257826AA270A28602143220D1E
:10073F00240125C426AB2861210322002415286239
:10074F0021002400250026AA2863215E23952489F1
:10075F00250726102709286421032300241525C403
:10076F0026AB270A2865210023802400250626AA08
:10077F002866248F25E326AB2867204221CD220748
:10078F002489250726AA286820002160220023003B
:10079F00240125C026AB286921002380248F25033F
:1007AF0026AA286A204221DD220724892507286BE3
:1007BF0020002143220D2300240125C026AB286CE5
:1007CF00210022002400250426AA286D2003217F62
:1007DF0022012383248925072626270D286E2162CF
:1007EF00286F200521002200238426B427092870B2
:1007FF0020002106239526002708287121012300B8
:10080F002497253B26AA270A28722042210E220868
:10081F0023802489250728732003213C220B23835F
:10082F002626270D28742000210322002395260257
:10083F002708287521272300248125C426AB270AE2
:10084F002876210023802409254826AA28772158B5
:10085F00223423A324892507262A2700287821005C
:10086F00220023A0260027092879210723802403AB
:10087F00253926AA270A287A21042300241C253883
:10088F00287B2107238024832539287C2103239566
:10089F002489250726022708287D21272300248164
:1008AF0025C426AB270A287E21002380240925484A
:1008BF0026AA287F2158223423A324892507262AF4
:1008CF0027002880210622002300248125C026939B
:1008DF0027012881210023802489254826AA270A59
:1008EF0028822002216622082300240025662883FF
:1008FF002000210022002380241F250228842106A6
:10090F002489250726DC270C2885210023AA26AA5F
:10091F00270A288623B626002708288723802486BF
:10092F00253B26AA270A288821052489250726DCA6
:10093F00270C2889210023AA26AA270A288A23B64A
:10094F0026002708288B23802486253B26AA270AE2
:10095F00288C2042217B220824892507288D2000FE
:10096F0021002200230024012582288E21052481C5
:10097F0025C226AB288F20032193220823832489A5
:10098F0025072626270D2890200021052200230069
:10099F00248125C026132701289121002380248933
:1009AF00254826AA270A28922002217E2208230002
:1009BF002400256628932000210022002380241F75
:1009CF002502289421052489250726DC270C289544
:1009DF00210023AA26AA270A289623B6260027082D
:1009EF00289723802486253B26AA270A28982105A5
:1009FF002489250726DC270C2899210023AA26AA5B
:100A0F00270A289A2380241F2502289B21012300CF
:100A1F00248125C226AB289C2003219322082383FF
:100A2F00248925072626270D289D20002104220032
:100A3F00239526122708289E216023C426AA27045F
:100A4F00289F210023C02600270928A0204221CB60
:100A5F002208238026AA270A28A12070215422B811
:0E0A6F0023952612270828A2200221CC220857
:100A7D00238026AA270A28A3200321CA220F238315
:100A8D002626270D28A42000210022002300248CD7
:100A9D00250C26AA270A28A521042482257828A614
:100AAD0021002380248925482612270428A7200306
:100ABD0021DE220F238325072626270D28A82000B7
:100ACD00210122002300249C257826AA270A28A983
:100ADD00210023802481254028AA200321CF220F25
:100AED002383248925072626270D28AB207021086E
:100AFD0022B8239526A0270428AC200321D4220F49
:100B0D0023832626270D28AD2127220B28AE207002
:100B1D00216322B823952612270828AF2000210132
:100B2D0022002380248625CB26AB270A28B020421D
:100B3D0021DD22082489250726AA28B120002118A5
:100B4D002280239526A4270028B2200321D9220F25
:100B5D0023832626270D28B32070210A22B823953A
:100B6D0026A0270028B4200221E02208238026AAEF
:100B7D00270A28B52070210A22B8239526A0270020
:100B8D0028B621542602270828B7200021182280D4
:100B9D0026A4270028B82100220023802480254880
:100BAD0026AA270A28B92070215E22B82395248908
:100BBD0025072612270828BA2000210022002380AD
:100BCD002409254B26AA270A28BB2070215F22B8AD
:100BDD002395248925072610270828BC20002100ED
:100BED0022002300241C258326AB270A28BD2003C1
:100BFD00213222092383248925072626270D28BE85
:100C0D0020002100220023002482258C26AB270AF8
:100C1D0028BF200321252209238324892507262681
:100C2D00270D28C0204221BC238026AA270A28C1CF
:100C3D002000210122002300240125C026AB28C25B
:100C4D002070210F22B823952489250726202700FF
:100C5D0028C3200321E3220F23832626270D28C432
:100C6D00200521002200238426B4270928C5200051
:100C7D00210323952614270828C621A623A4262A56
:100C8D00270528C7210023A02644270928C8211895
:100C9D00226D2380249E257B26AA270A28C920425F
:100CAD002113220B2489250728CA200021AE2200FA
:100CBD0023952624270028CB210022032380248777
:100CCD00257B26AA270A28CC20422116220B24890F
:100CDD00250728CD200021AE2200239526242700AC
:100CED0028CE20052100238426B4270928CF2003F0
:100CFD00210D220B23832626270D28D0200021002D
:100D0D002200230024802602270028D123802409D5
:100D1D002548261E28D22158223423332480250726
:100D2D00262A28D32100220023002680271028D42C
:100D3D0021102363262A270028D52100236026A809
:100D4D00271228D621AF224C230026C8270C28D7DE
:100D5D00210022002680270528D823802486253BC4
:100D6D00261E270028D92042211C220E2300248074
:100D7D00250728DA20002135222926C4270C28DB57
:100D8D002002211D220E261E270028DC2000217F97
:100D9D00223426C4270C28DD210022002390249F15
:100DAD0025042610270A28DE23002484250026800A
:100DBD00271028DF2106236324802507262A2700F4
:100DCD0028E021002380248926AA270A28E120056E
:100DDD00238426B4270928E22070216122B82395A7
:0E0DED002612270828E320002101220023807F
:100DFB00248625C326AB270A28E4204221CE220FC6
:100E0B002489250726AA28E52070215022B823958E
:100E1B002612270828E6200521002200238426B469
:100E2B00270928E72070216422B82395261227086A
:100E3B0028E82000210122002380248625C326AB2D
:100E4B00270A28E9204221D3220F2489250726AA25
:100E5B0028EA2070215122B823952612270828EB67
:100E6B00200521002200238426B4270928EC2070BA
:100E7B00216522B823952612270828ED2000210191
:100E8B0022002380248625C326AB270A28EE204286
:100E9B0021D8220F2489250726AA28EF207021525A
:100EAB0022B823952612270828F0200521002200BE
:100EBB00238426B4270928F12070216122B82395B9
:100ECB002602270828F220002101220023802486F5
:100EDB0025C326AB270A28F3204221DD220F2489C4
:100EEB00250726AA28F42070215022B82395260224
:100EFB00270828F5200521002200238426B4270982
:100F0B0028F6200021012380248625CB26AB270A37
:100F1B0028F7204221E1220F2489250726AA28F849
:100F2B002000210222002300248125C426AB28F9AE
:100F3B00210023802489254826AA28FA200523840A
:100F4B00250726B4270928FB2070214E22B82395AC
:100F5B002610270828FC200021002200238024864D
:100F6B0025C326AB270A28FD204221E7220F24891F
:100F7B00250726AA28FE200021BB22002395262028
:100F8B00270028FF20052100238426B427092A08DF
:100F9B001001FFFFFFFF3A00643A65BB083A09BB3B
:100FAB0050105267517705A11804540155210700C1
:100FBB00060C0B03501051005204610F645565551C
:080FCB0005A11804FFFFFFFF60
:03000000023D0CB2
:0C3D0C00787FE4F6D8FD75818B02290A4F
:100FD300BB010689828A83E0225002E722BBFE021C
:090FE300E32289828A83E493224F
:100FEC00BB010CE58229F582E5833AF583E02250BA
:100FFC0006E92582F8E622BBFE06E92582F8E22204
:0D100C00E58229F582E5833AF583E493221D
:10101900BB010FF8E58229F582E5833AF583E028DB
:10102900F0225009C58229F8E58226F622BBFE097D
:10103900C58229F8E22582F222F8EA2583F583E9B7
:03104900932822C7
:10104C00BB010689828A83F0225002F722BBFE0183
:02105C00F3227D
:10105E00F8BB010DE58229F582E5833AF583E8F0C8
:10106E00225006E92582C8F622BBFE05E92582C874
:02107E00F2225C
:10108000BC000BBE0029EF8DF084FFADF022E4CC54
:10109000F875F008EF2FFFEE33FEEC33FCEE9DEC1D
:1010A000984005FCEE9DFE0FD5F0E9E4CEFD22ED63
:1010B000F8F5F0EE8420D21CFEADF075F008EF2FAD
:1010C000FFED33FD4007985006D5F0F222C398FD9E
:0510D0000FD5F0EA223B
:1010D500BB010A89828A83E0F5F0A3E022500687E6
:1010E500F009E71922BBFE07E3F5F009E3192289A8
:0B10F500828A83E493F5F074019322DB
:10110000BB0110E58229F582E5833AF583E0F5F02D
:10111000A3E0225009E92582F886F008E622BBFE0A
:101120000AE92582F8E2F5F008E222E5832AF58350
:08113000E993F5F0A3E9932215
:10113800BB010789828A830213A0500B09C5F027D7
:10114800F7C5F01937F722BBFE0D09F8E325F0F3D0
:10115800C5F019E338F322F889828A83740193254C
:08116800F0C5F0F8E493382211
:10117000BB010A89828A83F0E5F0A3F0225006F7CA
:0F11800009A7F01922BBFE06F3E5F009F31922C7
:10118F00F8BB0111E58229F582E5833AF583E8F092
:10119F00E5F0A3F0225009E92582C8F608A6F0224F
:0D11AF00BBFE09E92582C8F2E5F008F22236
:1011BC00E88FF0A4CC8BF0A42CFCE98EF0A42CFCD2
:1011CC008AF0EDA42CFCEA8EF0A4CDA8F08BF0A450
:1011DC002DCC3825F0FDE98FF0A42CCD35F0FCEBAF
:1011EC008EF0A4FEA9F0EB8FF0A4CFC5F02ECD3974
:0F11FC00FEE43CFCEAA42DCE35F0FDE43CFC22E1
:10120B0075F008758200EF2FFFEE33FECD33CDCC9A
:10121B0033CCC58233C5829BED9AEC99E58298401D
:10122B000CF582EE9BFEED9AFDEC99FC0FD5F0D6FA
:10123B00E4CEFBE4CDFAE4CCF9A88222B800C1B924
:10124B000059BA002DEC8BF084CFCECDFCE5F0CB62
:10125B00F97818EF2FFFEE33FEED33FDEC33FCEB9B
:10126B0033FB10D703994004EB99FB0FD8E5E4F956
:10127B00FA227818EF2FFFEE33FEED33FDEC33FC43
:10128B00C933C910D7059BE99A4007EC9BFCE99A37
:10129B00F90FD8E0E4C9FAE4CCFB2275F010EF2F7C
:1012AB00FFEE33FEED33FDCC33CCC833C810D7077C
:1012BB009BEC9AE899400AED9BFDEC9AFCE899F8B7
:0E12CB000FD5F0DAE4CDFBE4CCFAE4C8F9224A
:1012D900EB9FF5F0EA9E42F0E99D42F0E89C45F06B
:0112E90022E2
:1012EA00E8600FECC313FCED13FDEE13FEEF13FFE2
:0312FA00D8F12206
:1012FD00E8600FEFC333FFEE33FEED33FDEC33FC4F
:03130D00D8F122F2
:10131000BB010DE58229F582E5833AF5830213C40A
:101320005007E92582F8021364BBFE07E92582F81D
:101330000213D0E58229F582E5833AF5830213DCB6
:10134000BB010DE58229F582E5833AF58302142E6F
:101350005007E92582F8021422BBFE07E92582F82E
:0413600002143A2217
:0C136400E6FC08E6FD08E6FE08E6FF22B5
:10137000BB010DE58229F582E5833AF5830213F975
:101380005007E92582F80213ECBBFE07E92582F835
:10139000021405E58229F582E5833AF583021412E9
:103C3500EFB40A07740D123C40740A309811A89924
:103C4500B8130CC2983098FDA899C298B811F630EF
:073C550099FDC299F59922C7
:101C6400E56A245EF8E6056A22785B300702785E4E
:101C7400E475F001121446020FD32000EB7F2ED23C
:101C8400008018EF540F2490D43440D4FF30040B58
:101C9400EF24BFB41A0050032461FFE56B60021502
:101CA4006B056EE56E7002056D30070D785BE475AB
:101CB400F001121446EF02104C023C357403D207B3
:101CC4008003E4C207F56A8B5B8A5C895DE4F56B8B
:101CD400F56DF56EE56B60077F20121C9F80F5752E
:101CE4006CFFC201C200C202C203C205C206C2081E
:101CF400121C6DFF700D3007057F00121CB0AF6E13
:101D0400AE6D22B4255FC2D5C204121C6DFF24D06F
:101D1400B40A00501A75F00A786B30D50508B6FF7E
:101D24000106C6A426F620D5047002D20380D92465
:101D3400CFB41A00EF5004C2E5D204021EB0D2019F
:101D440080C6D20080C0D20280BCD2D580BAD2056F
:101D540080B47F20121C9F2002077401B56B0040E1
:101D6400F1121C64FF121C9F021CD8D208D20680F8
:101D740095121C64FB121C64FA121C64F94A4B7021
:101D84000679817A1F7BFF20022EE56B602A7E0094
:101D94008E82758300120FEC60060EEE656C70F097
:101DA400C2D5EBC0E0EAC0E0E9C0E0EE121EF7D015
:101DB400E0F9D0E0FAD0E0FB120FD3FF60AAEBC049
:101DC400E0EAC0E0E9C0E0121C9FD0E02401F9D0B1
:101DD400E03400FAD0E0FBE56C0460DCD56CD9801B
:101DE400877BFF7A1E79F3D202809C791080027976
:101DF40008C206C2088008D2D5790A8004790AC2CA
:101E0400D5E56C047002F56CE4FAFDFEFF121C6467
:101E1400FC7B08200113121C64FD7B1030000A12A5
:101E24001C64FE121C64FF7B20EC3382D592D550D7
:101E340013C3E43000069FFFE49EFEE42001039DEB
:101E4400FDE49CFCE4CBF8C201EC700CCFCECDCC0D
:101E5400E824F8F870F38017C3EF33FFEE33FEED98
:101E640033FDEC33FCEB33FB994002FB0FD8E9EB79
:101E7400300105F8D0E0C448B201C0E00AEC4D4E90
:101E84004F78207B0070C2EAB56C0040BCC0E01201
:101E94001EF9D0F0D0E0200104C4C0E0C4B201C0F7
:101EA400F0121C88D0F0D5F0EB021CD81214561D89
:101EB40075531DEF581D464C1D42421DF34F1DFB2B
:101EC400441DFB491D5B431E01551DE5461DE545AB
:101ED4001DE5471FA1501D4A2D1D4E2E1D712B1DA2
:101EE40052231D6F201F8F2A1D0A4800001D693FC1
:101EF4003F3F00790AA2D5200314300509B9100226
:101F04000404B9080104A2D52006025001042002E9
:051F1400689202B56BAC
:101F1900005034C0E07F203003197F30A2027206DE
:101F29007205500F121F50C202C206C205C2087FB5
:101F390030800F300503E9C0E0121C9F300503D043
:101F4900E0F9D0E0B56BCC3005177F30B9100C1231
:101F59001C9F7F583004077F788003B90803121C3F
:101F69009F3002057F2D021C9F7F202008F87F2BC0
:101F79002006F322920280CF286E756C6C29002D01
:101F890050434958D201121C643001F8C201786BE0
:101F990030D50108F6021D0A121C642403B4050099
:101FA9004001E4901F8893121C90743A121C90D23D
:071FB90003756B04021DEF2C
:10334C008B448A458946AB44AA45A946120FD3FF44
:10335C00123CD1500D74012546F546E43545F54532
:10336C0080E4D200AB44AA45A946120FD3FF642BCC
:10337C006004EFB42D1BAB440546E546AA4570022C
:10338C00054514F9120FD3642D6003D38001C39249
:10339C0000E4F54AF549F548F547AB44AA45A9467A
:1033AC00120FD3FF123CE4505CE47F0AFEFDFCAB31
:1033BC004AAA49A948A8471211BCC8ECC8EDC0E0FC
:1033CC00EEC0E0EFC0E0AB44AA45A946120FD3FF14
:1033DC003395E0FEEF24D0FFEE34FFFEE4FCFDD08D
:1033EC00E0FBD0E0FAD0E0F9EB2FF54AEA3EF549E4
:1033FC00ED39F548EC38F54774012546F546E435CA
:10340C0045F545809530000AAF4AAE49AD48AC470A
:0E341C00800BAF4AAE49AD48AC471213B62242
:1013A000C5F0F8A3E028F0C5F0F8E58215827002D8
:0613B0001583E038F02275
:0E13B600C3E49FFFE49EFEE49DFDE49CFC2248
:0C13C400E0FCA3E0FDA3E0FEA3E0FF229C
:0C13D000E2FC08E2FD08E2FE08E2FF2259
:1013DC00E493FC740193FD740293FE740393FF2257
:0D13EC00E6FB08E6F908E6FA08E6CBF82271
:0C13F900E0F8A3E0F9A3E0FAA3E0FB2277
:0D140500E2FB08E2F908E2FA08E2CBF82267
:10141200E493F8740193F9740293FA740393FB2230
:0C142200ECF608EDF608EEF608EFF622F6
:0C142E00ECF0A3EDF0A3EEF0A3EFF02231
:0C143A00ECF208EDF208EEF208EFF222EE
:10144600FAE6FB0808E6F925F0F618E6CA3AF622A7
:10145600D083D082F8E4937012740193700DA3A325
:1014660093F8740193F5828883E473740293686039
:06147600EFA3A3A380DF39
:0F3CE400EFC394304007EF943A50028001C3229F
:103CD100EFC394094005EF940E4003BF2003D38046
:033CE10001C322FA
:00000001FF
