:10449E002535642E20002563005B4449525D0A00D9
:0544AE002E000D0A00C4
:044513000282000020
:103A12008B578A5889597B007A007972C003C00299
:103A2200C001AB57AA58A95912141C7B007A00791D
:103A320076C003C002C001AB57AA58A9599000032F
:103A420012146B7B007A00797AC003C002C001AB0A
:103A520057AA58A95990000612146B7B007A007974
:103A62007EC003C002C001AB57AA58A959900009F1
:103A720012146B7B007A007980C003C002C001ABD4
:103A820057AA58A95990000C12146B7B007A00793E
:103A92009AC003C002C001AB57AA58A95990000F9F
:103AA20012146B7B007A00799BC003C002C001AB89
:103AB20057AA58A95990001212146B7B007A007908
:103AC2009CC003C002C001AB57AA58A95990001567
:103AD20012146B7B007A00799DC003C002C001AB57
:0C3AE20057AA58A95990001812146B2222
:0844F4007882E6FE08E6FF22D3
:0844FC007882A60608A607223B
:03454E007F0022C9
:083DBF008F388E378D368C35EC
:103DC7007B007A007939123A12AB42AA43A944E43C
:103DD700F5F01211927885E6B4021078961213C0A6
:103DE700AB3FAA40A94112138280117884E6FFE411
:103DF700FCFDFEAB3FAA40A941121382AF38AE3794
:103E0700AD36AC35AB39AA3AA93B121382AF38AEFF
:103E170037AD36AC35AB3CAA3DA93E121382AB3960
:103E2700AA3AA93B1213327888E6F56108E6F562EB
:103E3700756301756400756500124289AB51AA521A
:063E4700A953EF02106E0A
:014554002244
:0619B1008B358A368937F0
:1019B7007554017555007556007B007A0079391208
:1019C7003A12AB42AA43A9441210F7FFAEF0AB5448
:1019D700AA55A9561244E88F38E53864E570030222
:1019E7001CA4E5387003021CA4AB42AA43A9441205
:1019F70010F7240BFFE435F0FEAB54AA55A9561295
:101A070044E8AB4BAA4CA94DEF12106EAB4BAA4C56
:101A1700A94D120FD3540E6003021CA4AB45AA466E
:101A2700A94775F00112115A7882E6FE08E62400EC
:101A3700F974023EFA7B01C003C002C0017560FF62
:101A470075614475629EAB45AA46A9471210F7F522
:101A57006485F063D001D002D0031221F27883EFBE
:101A670026F618EE36F6AB48AA49A94AE412106ED4
:101A7700AB48AA49A94A120FD3FFC39408506AABCF
:101A870042AA43A9441210F72FFFE435F0FEAB54E6
:101A9700AA55A9561244E8AB4EAA4FA950EF121007
:101AA7006E7882E6FE08E62400F974023EFA7B01AE
:101AB700C003C002C0017560FF7561447562A4ABC5
:101AC7004EAA4FA950120FD3F563D001D002D0030D
:101AD7001221F27883EF26F618EE36F6AB48AA49BC
:101AE700A94A74011210198087AB4BAA4CA94D1251
:101AF7000FD320E403021BAAAB48AA49A94A7408DA
:101B070012106EAB48AA49A94A120FD3FFC3940B10
:101B1700506AAB42AA43A9441210F72FFFE435F0ED
:101B2700FEAB54AA55A9561244E8AB4EAA4FA9508A
:101B3700EF12106E7882E6FE08E62400F974023E82
:101B4700FA7B01C003C002C0017560FF756144756F
:101B570062A4AB4EAA4FA950120FD3F563D001D0A0
:101B670002D0031221F27883EF26F618EE36F6AB91
:101B770048AA49A94A740112101980877882E6FE9B
:101B870008E62400F974023EFA7B017560FF75616F
:101B9700447562A71221F27883EF26F618EE36F61F
:101BA700021CA47882E6FE08E62400F974023EFAD5
:101BB7007B01C003C002C0017560FF756144756297
:101BC700AEAB4EAA4FA950120FD3F563D001D00286
:101BD700D0031221F27883EF26F618EE36F6AB48DB
:101BE700AA49A94A740812106EAB48AA49A94A1211
:101BF7000FD3FFC3940B506AAB42AA43A9441210F8
:101C0700F72FFFE435F0FEAB54AA55A9561244E866
:101C1700AB4EAA4FA950EF12106E7882E6FE08E687
:101C27002400F974023EFA7B01C003C002C00175AB
:101C370060FF7561447562A4AB4EAA4FA950120F9D
:101C4700D3F563D001D002D0031221F27883EF26B7
:101C5700F618EE36F6AB48AA49A94A7401121019CC
:101C670080877882E6FE08E62400F974023EFA7B54
:101C770001C003C002C0017560FF7561447562B0A1
:101C8700AB4EAA4FA950120FD3F563D001D002D0A3
:101C9700031221F27883EF26F618EE36F6AB42AA46
:101CA70043A944E475F02012115AAB42AA43A94450
:101CB7001210F7D394FEE5F094015003021D83AB95
:101CC70039AA3AA93B121332EF2401FFE43EFEE49E
:101CD7003DFDE43CFC121382AB3CAA3DA93E121326
:101CE700CCC000C001C002C003AB39AA3AA93B125D
:101CF7001332D003D002D001D000C3EF9BFFEE9A7E
:101D0700FEED99FDEC98FCAB3FAA40A9411213CC1C
:101D1700D31212FB4050AB39AA3AA93B12133278BF
:101D270088E6F56108E6F562756301756400756517
:101D370000124289AB51AA52A953EF12106EAB5150
:101D4700AA52A953120FD3600FAB45AA46A947E47D
:101D5700F5F0121192E4F538AB42AA43A944E4F531
:101D6700F01211928016AB45AA46A9471210F7FF49
:101D7700E5F044808FF0121192E4F538E538701AD7
:101D8700AB45AA46A9471210F7FFAB35AA36A937C4
:0C1D9700E5F08FF01211927F01227F0214
:011DA300221D
:07450C007B007A0079842294
:083071008F388E378D368C3547
:10307900754C0185394D853A4EE4F545F546F543DC
:10308900F5447885E6B4020F78961213C08F428E04
:10309900418D408C3F800D7884E6FFE48F42F541F5
:1030A900F540F53F85383E85373D85363C85353BCE
:1030B900AF3EAE3DAD3CAC3B7888E6F56108E6F540
:1030C90062854C63854D64854E651242898F4BE557
:1030D9004B600302324DAB4CAA4DA94EAF44AE43EF
:1030E9001244E88F47E54764E570030231BFE547BD
:1030F90070030231BFE544240BFFE43543FEAB4CBA
:10310900AA4DA94E1244E88F49E549540E600302BD
:1031190031BF0546E546700205457BFF7A44799E35
:10312900854560F5611221F8E4F5487E00E54425FE
:1031390048FFEE3543FEAB4CAA4DA94E1244E88F29
:103149004A1244150548E548C3940840DEE549306C
:10315900E4307548087E00E5442548FFEE3543FE16
:10316900AB4CAA4DA94E1244E88F4A1244150548A2
:10317900E548C3940B40DE7BFF7A4479A71221F816
:1031890080347F2E1244157548087E00E544254891
:10319900FFEE3543FEAB4CAA4DA94E1244E88F4AC7
:1031A9001244150548E548C3940B40DE7F0D1244CF
:1031B900157F0A12441574202544F544E43543F576
:1031C90043D3E54494FEE5439401406FE53E240171
:1031D900F53EE4353DF53DE4353CF53CE4353BF55C
:1031E9003BC3E53E9538FFE53D9537FEE53C953611
:1031F900FDE53B9535FCAB42AA41A940A83FD31256
:1032090012FB4031AF3EAE3DAD3CAC3B7888E6F5B4
:103219006108E6F562854C63854D64854E65124209
:10322900898F4BE54B6007E4F545F546F547E4F52D
:1032390043F5448006434580E4F547E547600302CA
:0D32490030DF8005E4F545F546AE45AF46A3
:013256002255
:0827CB008F388E378D368C35F6
:1027D300755001853B51853C52E4F54BF54CF54969
:1027E300F54AF548F547F546F5457885E6B4020F11
:1027F30078961213C08F448E438D428C41800D789E
:1028030084E6FFE48F44F543F542F541853840857E
:10281300373F85363E85353DAF40AE3FAD3EAC3D9F
:102823007888E6F56108E6F562855063855164852D
:1028330052651242898F4FE54F6003022A19AB504C
:10284300AA51A952AF4AAE491244E88F4DE54D64EF
:10285300E57003022989E54D7003022989E54A24BD
:102863000BFFE43549FEAB50AA51A9521244E88F3D
:102873004EE54E540E6003022989054CE54C700267
:10288300054B653A7004E54B653960030229897885
:1028930085E664047066E54A2415FFE43549FEAB1A
:1028A30050AA51A9521244E8E48F48F547F546F57A
:1028B30045AE47AD46AC45780812131F8F488E4787
:1028C3008D468C45E54A2414FFE43549FEAB50AAF6
:1028D30051A9521244E8E4E5484FF548E547F54766
:1028E300E546F546E545F545AF48AE47AD46FC78C8
:1028F3000812131F8F488E478D468C45E54A241BCB
:10290300FFE43549FEAB50AA51A9521244E8E4E56D
:10291300484FF548E547F547E546F546E545F545AE
:10292300AF48AE47AD46FC780812131F8F488E4759
:102933008D468C45E54A241AFFE43549FEAB50AA7F
:1029430051A9521244E8E4E5484FF548E547F547F5
:10295300E546F546E545F545E54A240BFFE43549EB
:10296300FEAB50AA51A9521244E88F4EE54E30E413
:1029730012E548F548E547F547E546F546E545449C
:1029830010F545E4F54D7420254AF54AE43549F53B
:1029930049D3E54A94FEE54994014071E540240199
:1029A300F540E4353FF53FE4353EF53EE4353DF58E
:1029B3003DC3E5409538FFE53F9537FEE53E953647
:1029C300FDE53D9535FCAB44AA43A942A841D3128A
:1029D30012FB4036AF40AE3FAD3EAC3D7888E6F5E6
:1029E3006108E6F56285506385516485526512423C
:1029F300898F4FE54F600CE4F548F547F54675457B
:102A030080F54DE4F549F54A8003E4F54DE54D6065
:102A130003022841800AE4F548F547F546754580E9
:102A2300E4FFFEFDFCAB48AA47A946A845C3121222
:102A3300FB7009F548F547F546754580AF48AE4745
:042A4300AD46AC45AB
:012A4700226C
:103C74007374617274696E672070726F6772616DBC
:103C84002E2E2E0A004D6F756E74696E6720534494
:103C940020636172640A0053442063617264206D7E
:103CA4006F756E7465640A00534420636172642006
:103CB4006661696C656420746F206D6F756E740A3B
:103CC40000526F6F74206469726563746F72793A1D
:103CD4000A0A00456E74657220616E20656E747206
:103CE40079206E756D6265723A200A00256C752024
:103CF4002000256C7520200A004572726F723A20EC
:103D0400696E76616C696420656E7472792063688B
:103D14006F6963650A005374617274696E672E2E4D
:023D24002E006F
:102A4800758E0C758F017F101245187F0F12453E49
:102A58007F2C7E0112443C7F807E25124350122435
:102A6800F2EF600280FE1243187BFF7A3D791A7DEF
:102A78000BE4FF123F657BFF7A3C79741221F87FE3
:102A8800407E0D7D037C00123E4D8F22E522600CB6
:102A98007F101245187F5312446280FE7F40124512
:102AA80018121DA48F22E522600C7F101245187F92
:102AB8004312446280FE7F401245367F007E2D7DA2
:102AC800317C01123E4D8F22E522600C7F101245A9
:102AD800187F5012446280FE7BFF7A3C798912216C
:102AE800F87E007F001215BBEF70157BFF7A3C79EA
:102AF8009B1221F87F101245367F80124518800BF3
:102B08007BFF7A3C79AC1221F880FE7BFF7A3C7916
:102B1800C51221F812450C9000061213528F308E00
:102B28002F8D2E8C2D123DBF7B007A007923121930
:102B3800B11244F4E48F348E33F532F531F523F5D0
:102B480024AE23AF24E4FCFDAB34AA33A932A83168
:102B5800D31212FB401B74002524F582740235231E
:102B6800F583E0FF1244150524E52470D40523807D
:102B7800D0E4FFFE1244FC80AFAF30AE2FAD2EACD8
:102B88002D753900753A00123071E48F2C8E2BF5B3
:102B98002AF5297BFF7A3C79D71221F8123AEE8F71
:102BA800288E278D268C257BFF7A3C79F08F638EC3
:102BB800628D618C601221F87BFF7A3C79F6853052
:102BC80063852F62852E61852D601221F8AF2CAEAA
:102BD8002BAD2AAC29AB28AA27A926A825D31212DF
:102BE800FB5063AF30AE2FAD2EAC2D8A398B3A75C2
:102BF8003B00753C001227CB8F348E338D328C31DD
:102C0800E4FFFEFDE5315410FC6027E534F534E5BA
:102C180033F533E532F532E531540FF531AF34AEE3
:102C280033AD32FC123FEA8F308E2F8D2E8C2D0261
:102C38002B81AF34AE33AD32AC31753900753A0003
:102C48001241B9022B817BFF7A3C79FD1221F802EF
:022C58002B81CE
:103BBF0046696E64696E672042494F532070617287
:103BCF00616D6574657220626C6F636B0A0065725C
:103BDF00726F723A20636F756C64206E6F74206C15
:103BEF006F63617465204250420A006572726F7292
:103BFF003A20464154313220756E737570706F7272
:103C0F007465640A004641543136206465746563F7
:103C1F007465640A004641543332206465746563E9
:103C2F007465640A004572726F723A2046415420DF
:103C3F007479706520756E737570706F72746564CA
:103C4F000A004572726F723A20636F756C646E274B
:103C5F00742066696E64206E65787420636C75736A
:053C6F007465720A00FB
:1015BB00AA06A9077557018A58895912450C8B5AE7
:1015CB008A5B895C7BFF7A3B79BF1221F8756102DC
:1015DB007562008557638558648559657F007E0069
:1015EB007D007C00124289AB57AA58A959E4FFFE33
:1015FB001244E88F35E4F552F551F550F54FE535CA
:10160B0064EB603BE53564E96035AB57AA58A959E3
:10161B007FC67E011242258F528E518D508C4F7595
:10162B00610275620085576385586485596512425E
:10163B0089AB57AA58A959E4FFFE1244E88F35E548
:10164B003564EB6012E53564E9600C7BFF7A3B791E
:10165B00DD1221F87F0122AB57AA58A9597F0B7EC7
:10166B0000124385AB5AAA5BA95C900004EE8FF085
:10167B001211B1900002E41210809000041211229A
:10168B00FDACF0ED64014C6017AB5AAA5BA95C9002
:10169B000002740112103BECC313FCED13FD80E34D
:1016AB00AB57AA58A9597F0D7E001244E8AB5AAA32
:1016BB005BA95CEF12106EAB57AA58A9597F0E7E2F
:1016CB00001243858E398F3AAB57AA58A9597F1010
:1016DB007E001244E88F36AB57AA58A9597F117E6A
:1016EB00001243858E378F38AB57AA58A9597F16EE
:1016FB007E001243858E3B8F3CAB57AA58A9597F6E
:10170B00137E001243858E3D8F3EAB57AA58A959C5
:10171B007F2C7E001242258F568E558D548C53E5AF
:10172B003C453B6018AB57AA58A9597F167E00124F
:10173B004385E48F468E45F544F5438015AB57AA98
:10174B0058A9597F247E001242258F468E458D4421
:10175B008C43E53E453D600DE4853E4A853D49F5AC
:10176B0048F5478015AB57AA58A9597F207E001220
:10177B0042258F4A8E498D488C47AB5AAA5BA95C90
:10178B00900004121122FDACF024FFFBEC34FFFAA5
:10179B00E538AE377805C333CE33CED8F92BFFEA15
:1017AB003EFE1210A2E4FCFDAB5AAA5BA95C9000B2
:1017BB001212139CAF36E4FCFDFEAB46AA45A944BE
:1017CB00A8431211DEA804A905AA06AB07E4FCFD89
:1017DB00EB253AFFEA3539FEED39FDEC38FCAB5A17
:1017EB00AA5BA95C9000121213ECEF2BFBEE3AFAFA
:1017FB00ED39F9EC38F8C3E54A9BF54EE5499AF516
:10180B004DE54899F54CE54798F54BE4E53A2552FB
:10181B00FFE5393551FEE43550FDE4354FFCAB5A4D
:10182B00AA5BA95C90000E12139C90000E1213EC95
:10183B00C000C001C002C003AF36E4FCFDFEAB46E6
:10184B00AA45A944A8431211DED003D002D001D07F
:10185B0000EF2BFFEE3AFEED39FDEC38FCAB5AAA4C
:10186B005BA95C9000121213ECEF2BFFEE3AFEED2E
:10187B0039FDEC38FCAB5AAA5BA95C90000A121339
:10188B009C120FD3FFE4FCFDFEF8F9FAAB07AF4E49
:10189B00AE4DAD4CAC4B1212698F428E418D408CCC
:1018AB003FE47FF57E0FFDFCAB42AA41A940A83F68
:1018BB00C31212FB500C7BFF7A3B79FA1221F87F93
:1018CB000122E47FF57EFFFDFCAB42AA41A940A8B3
:1018DB003FC31212FB505EAB5AAA5BA95C9000018E
:1018EB0074021210807BFF7A3C79141221F8AB5AE8
:1018FB00AA5BA95C90000E1213ECC000C001C002E1
:10190B00C003AF36E4FCFDFEAB46AA45A944A84391
:10191B001211DED003D002D001D000EF2BFFEE3A34
:10192B00FEED39FDEC38FCAB5AAA5BA95C900006C6
:10193B0012139C806EAB5AAA5BA95C9000017404D5
:10194B001210807BFF7A3C79241221F8E55624FE95
:10195B00FFE55534FFFEE55434FFFDE55334FFFC42
:10196B00A804C005C006C007AB5AAA5BA95C120F3E
:10197B00D3FFE4FCFDFED003D002D0011211DEAB8D
:10198B005AAA5BA95C90000A1213ECEF2BFFEE3AFC
:10199B00FEED39FDEC38FCAB5AAA5BA95C90000656
:0519AB0012139C7F00F7
:0119B0002214
:083FEA008F418E408D3F8C3E9B
:103FF20012450C8B428A438944E4FFFEFDFCAB412F
:10400200AA40A93FA83EC31212FB700CAB42AA43BE
:10401200A944900006021352E54124FEFFE5403414
:10402200FFFEE53F34FFFDE53E34FFFCA804C0057A
:10403200C006C007AB42AA43A944120FD3FFE4FC57
:10404200FDFED003D002D0011211DEAB42AA43A979
:104052004490000A1213ECEF2BFFEE3AFEED39FD0D
:03406200EC38FC3B
:014065002238
:083257008F3E8E3D8D3C8C3B47
:10325F0012450C8B4A8A4B894C754101853F42853B
:10326F004043900001120FECFFE4FCFDFEAB3EAAC1
:10327F003DA93CA83B1211DEC004C005C006C00723
:10328F00AB4AAA4BA94C900004121122FFAEF0E4F6
:10329F00FCFDF8F9AA06AB07D007D006D005D0047D
:1032AF00121269AB4AAA4BA94C90000E1213ECEF05
:1032BF002BFFEE3AFEED39FDEC38FCAB4AAA4BA9D9
:1032CF004C900004121122F56285F06185416385EF
:1032DF004264854365124289AB4AAA4BA94C9000C0
:1032EF0001120FECFFE4FCFDFEAB3EAA3DA93CA88A
:1032FF003B1211DEC004C005C006C007AB4AAA4B83
:10330F00A94C900004121122FFAEF0E4FCFDF8F975
:10331F00AA06AB07D007D006D005D004121269AEAB
:10332F0002AF038E448F45AB4AAA4BA94C900001C4
:10333F00120FECB40411AB41AA42A943124225EF7C
:10334F00EEEDEC540FFC22AB4AAA4BA94C900001B6
:10335F00120FEC6402703BAB41AA42A943AF45AEDA
:10336F0044124385E48F498E48F547F5467FFF7E2B
:10337F00FFFDFCAB49AA48A947A846C31212FB7030
:10338F000874FFFFFEFD7C0F22AF49AE48AD47AC7E
:10339F0046227BFF7A3C79341221F8E4FFFEFDFCD4
:0F33AF00227BFF7A3C79511221F8E4FFFEFDFCEE
:0133BE0022EC
:1043EB008D3BEF70077F4012452280057F401245C1
:1043FB00427F80124542AF3B1245517F80124522CE
:0A440B007FFF1245517F4002454239
:104318007D38E4FF1243EB7F017E0012443C7D4868
:10432800E4FF1243EB7F017E0012443C7D01E4FF71
:104338001243EB7F027E0012443C7D0CE4FF1243E3
:08434800EB7F017E0002443C02
:083F65008D358B368A3789384F
:103F6D00EFF46010EF4480FDE4FF1243EB7F017E20
:103F7D000012443CE5357038F539AB36AA37A9380F
:103F8D00853982F583120FECF53AE53A604EFD7FE7
:103F9D00011243EB7F017E0012443C0539AB36AA7A
:103FAD0037A938853982758300120FECF53A80DA1E
:103FBD00E4F539E539C395355022AB36AA37A93822
:103FCD00853982758300120FECF53AFD7F0112439E
:0C3FDD00EB7F017E0012443C053980D7C8
:013FE90022B5
:05451800EFF452A022A7
:04453600EF42A0228E
:103AEE00E4F53574372535F8E4F60535E535B40BD0
:103AFE00F274FFF545F544F543F542E4F53512450C
:103B0E00048F36E536C394304017E536D3943950DA
:103B1E001074372535F8A6360535AF3612441580A4
:103B2E0050E53664086005E536B47F1A15357437EE
:103B3E002535F8E4F67F081244627F201244627F36
:103B4E0008124462802BE536640D6005E536B40A32
:103B5E001D7B007A0079371239348F458E448D43A0
:103B6E008C427F0D1244627F0A1244628003E4F598
:103B7E0036E535B40A1B7B007A0079371239348F5B
:103B8E00458E448D438C427F0D1244627F0A12444F
:103B9E006274FFFFFEFDFCAB45AA44A943A842C3D5
:103BAE001212FB7003023B0CAF45AE44AD43AC4268
:013BBE0022E4
:034551008F802236
:05451D00EFF4529022B2
:05452200EFF452B0228D
:04453A00EF4290229A
:04453E00EF42A02286
:04454200EF42B02272
:102C5A005344204361726420496E697469616C69E6
:102C6A007A6174696F6E202E2E2E200A0D00434D54
:102C7A0044302073656E74202E2E2E200052657308
:102C8A00706F6E7365203D2025322E3262580A0D10
:102C9A0000434D44382073656E74202E2E2E20007A
:102CAA00526573706F6E7365203D200025322E3297
:102CBA006258200A0D0056657273696F6E203120C2
:102CCA005344204361726420646574656374656467
:102CDA002E0A0D005374616E646172642043617040
:102CEA006163697479204361726420646574656301
:102CFA007465642E0A0D0025322E32625820005661
:102D0A00657273696F6E2032205344204361726486
:102D1A002064657465637465642E0A0D00434D442E
:102D2A0035382073656E74202E2E2E200041434DB7
:102D3A004434312073656E74202E2E2E200054697F
:102D4A006D656F7574203D20256C75200A0D00484D
:102D5A0069676820436170616369747920436172AD
:102D6A00642044657465637465640A0D0053746174
:102D7A006E6461726420436170616369747920438F
:102D8A006172642044657465637465640A0D004366
:102D9A004D4431362073656E74202E2E2E2000523B
:102DAA006573706F6E7365203D2025322E3262582E
:102DBA00200A0D00426C6F636B2073697A65207379
:102DCA00657420746F203531322062797465730A14
:102DDA000D0053442054696D656F757420457272F5
:102DEA006F7200496C6C6567616C20436F6D6D6131
:102DFA006E640A0D00526573706F6E7365204572BA
:102E0A00726F72004461746120546F6B656E204565
:102E1A0072726F7200496E636F6D70617469626C71
:102E2A006520566F6C74616765004361726420693E
:102E3A007320496E61637469766500535049206F47
:102E4A00722054696D656F7574204572726F7200D5
:0E2E5A00556E6B6E6F776E204572726F720050
:0B363A00E4F56CF56BF56AF5697F3A6A
:023645008F688C
:10364700E4F56EE568C39440400302373FE56844FC
:1036570040F56D7B007A00796FFF1243B88F70E5F4
:1036670070701CAF6CAE6BAD6AAC69781812130C36
:103677008F6D7B007A00796F1243B88F7080037566
:103687006E87E56E702FE570702BE56CF56CE56B5A
:10369700F56BE56AF56AE4F569AF6CAE6BAD6AACDC
:1036A70069781012130C8F6D7B007A00796F1243C3
:1036B700B88F708003756E87E56E702DE570702981
:1036C700E56CF56CE56BF56BE4F56AF569AF6CAE27
:1036D7006BAD6AAC69780812130C8F6D7B007A00AA
:1036E700796F1243B88F708003756E87E56E701817
:1036F700E5707014E56CFFE48F6DFB7A00796FAFAE
:103707006D1243B88F708003756E87E56E702CE578
:10371700707028E5687005756D95800DE568B408CB
:1037270005756D878003756D017B007A00796FAF32
:0D3737006D1243B88F708003756E82AF6E07
:013744002262
:073D2600FB7A0079387F01F0
:083D2D008F498B4A8A4B894C37
:103D3500E4F54E7B007A0079507FFF1243B88F4F30
:103D4500054DE55030E708E54D6004E54F60E4E5D5
:103D55004F6005754E878052E54D7005754E818023
:103D650049AB4AAA4BA94CE55012106EE5506004C8
:103D750064017033E549D39401402F754D01E54D3C
:103D8500C3954950257B007A0079507FFF1243B8CF
:103D95008F4FAB4AAA4BA94C854D82758300E550E0
:103DA500121080054D80D7754E837B007A007950BF
:093DB5007FFF1243B88F4FAF4E9F
:013DBE0022E2
:0A3745008E688F698B6A8A6B896CAD
:10374F00E4F570F571F56E7B007A00796F7FFF12EB
:10375F0043B88F6D0571E57170020570E56F30E745
:10376F000AE57145706004E56D60DCE56D60067516
:10377F006E87023834E57145707006756E810238B8
:10378F0034E56F6003023831F570F5717B007A0014
:10379F00796F7FFF1243B88F6D0571E57170020568
:1037AF0070E56FB4FF0AE57145706004E56D60DC8C
:1037BF00E56D6005756E87806CE5714570700575F8
:1037CF006E818061E56F64FE7053F570F571C3E52E
:1037DF00719569E570956850287B007A00796F7F45
:1037EF00FF1243B88F6DAB6AAA6BA96C8571828586
:1037FF007083E56F1210800571E57170D1057080CF
:10380F00CD7B007A00796F7FFF1243B88F6D7B00FD
:10381F007A00796F7FFF1243B88F6D8008756E84C1
:10382F008003756E837B007A00796F7FFF1243B838
:04383F008F6DAF6E6C
:013843002262
:101DA400E4F536781E76FF7F101245467BFF7A2CC9
:101DB400795A1221F8E4F5357B007A0079407FFFE7
:101DC4001243B88F370535E535C3940A40EA7F805E
:101DD4001245187BFF7A2C79781221F87F1012456E
:101DE4002CE4F56CF56BF56AF569FF1236458F370F
:101DF400E5377013123D268F377BFF7A2C79878560
:101E040038601221F880057F101245187F101245A2
:101E1400467F80124536E5376002F536E5366003C5
:101E2400021F037F801245187BFF7A2C799B1221B5
:101E3400F87F1012452CE4756CAA756B01F56AF5F0
:101E4400697F081236458F37E5376003021EF4FBBD
:101E54007A0079387F05123D2D8F377F1012454661
:101E64007F80124536E537603F7BFF7A2C79AA12D2
:101E740021F87BFF7A2C79B68538601221F8E53792
:101E8400B48320E538B4051BE4F536781E76097B67
:101E9400FF7A2C79C01221F87BFF7A2C79DE12218B
:101EA400F8805C85373680577BFF7A2C79AA12211B
:101EB400F8E4F5357BFF7A2D790174382535F8E699
:101EC400F5601221F80535E535C3940540E67F0D2C
:101ED4001244157F0A124415E53C64AA6003753761
:101EE40083781E76027BFF7A2D79091221F8800F00
:101EF4007F101245467F801245367F10124518E543
:101F0400366003021F8E7F801245187BFF7A2D797D
:101F1400271221F87F1012452C12363A8F37E537F5
:101F24007053FB7A0079387F05123D2D8F377F106F
:101F34001245467F801245367BFF7A2C79AA1221FE
:101F4400F8E4F5357BFF7A2D790174382535F8E608
:101F5400F5601221F80535E535C3940540E67F0D9B
:101F64001244157F0A124415E53A54FC64FC6014CB
:101F7400753785800F7F101245467F801245367F66
:101F840010124518E5376002F536E5366003022085
:101F94007E781EE6B4020CE4F544F543F54275413F
:101FA400408009E4F544F543F542F541E4F548F58C
:101FB40047F546F5457F201245187BFF7A2D793782
:101FC4001221F87F1012452CE4F56CF56BF56AF5D7
:101FD400697F371236458F37E5377005123D268FF6
:101FE40037E53864016004E538701385446C854333
:101FF4006B85426A8541697F291236458F37E537FB
:102004007003123D267F10124546E5482401F54829
:10201400E43547F547E43546F546E43545F545E40A
:10202400FFFEFDFCAB48AA47A946A845C31212FB14
:102034007003753781E53830E004E5376085E537AE
:1020440070137F201245367BFF7A2C7987853860A0
:102054001221F8800A7F801245367F101245187BC2
:10206400FF7A2D79488548638547628546618545B1
:10207400601221F8E5376002F536E5366003022187
:102084008B781EE66402600302218B7F8012451860
:102094007BFF7A2D79271221F87F1012452C1236F6
:1020A4003A8F37E5376003022171FB7A0079387F74
:1020B40005123D2D8F377F101245467F801245361D
:1020C4007BFF7A2C79AA1221F8E4F5357BFF7A2D6F
:1020D400790174382535F8E6F5601221F80535E5FF
:1020E40035C3940540E67F0D1244157F0A1244154A
:1020F400E53920E706753786022180E53954C0FFAB
:10210400BFC00FE4781EF67BFF7A2D79591221F8AF
:10211400806A781E76097BFF7A2D79771221F87F01
:10212400801245187BFF7A2D79991221F87F1012BD
:10213400452CE4F56C756B02F56AF5697F1012366F
:10214400458F37E5377035123D268F377F1012459E
:10215400467F801245367BFF7A2D79A98538601237
:1021640021F87BFF7A2D79BE1221F8800F7F10129F
:1021740045467F801245367F10124518E5376007C3
:10218400F536AF3612414BE5366004FF12414BAFD2
:012194003614
:012195002227
:05452700781EE6FF22F2
:10414B008F49E549B481097BFF7A2D79DC0221F88F
:10415B00E549B482097BFF7A2D79ED0221F8E54917
:10416B00B483097BFF7A2D79FF0221F8E549B484EA
:10417B00097BFF7A2E790E0221F8E549B485097B7C
:10418B00FF7A2E791F0221F8E549B486097BFF7A65
:10419B002E79340221F8E549B487097BFF7A2E7911
:0E41AB00450221F87BFF7A2E795A1221F82264
:084289008F608E5F8D5E8C5D7D
:104291001245278F667F1012452CAF60AE5FAD5E71
:1042A100AC5DA966A80112131F8F6C8E6B8D6A8C91
:1042B100697F111236458F67E567700DAB63AA649C
:1042C100A965AF62AE611237457F10124546E567B9
:0742D10060037F01227F0062
:0142D80022C3
:0C44E8005306018F828E83120FECFF221E
:0A4385008E5D8F5E8B5F8A60896198
:10438F00535D01E4FDFCE55E2401FFE4355D8F82A2
:10439F00F583120FECFD7D00FC855E82855D831237
:0843AF000FECFFE4EFFDAE048A
:0143B70022E3
:044225008E5D8F5EBD
:10422900535D01E4F562F561F560F55FF564AF642E
:10423900C374039564CFE49400CF255ECF355D8FB9
:1042490082F583120FECF563AF62AE61AD60AC5FCE
:10425900780812131F8F628E618D608C5FE4E562AE
:104269004563F562E561F561E560F560E55FF55F78
:0F4279000564E564B404B7AF62AE61AD60AC5FDD
:014288002213
:103E4D00E4F535AB07AA06A905A804FF7E407D1948
:103E5D007C01121269EFD39402500575C37080690D
:103E6D00EFD39402400BEFD39404500575C37180CA
:103E7D0058EFD39404400BEFD39408500575C372DB
:103E8D008047EFD39408400BEFD39410500575C3C2
:103E9D00738036EFD39410400BEFD39420500575FB
:103EAD00C3F08025EFD39420400BEFD39440500501
:103EBD0075C3F18014EFD39440400BEFD394805031
:0B3ECD000575C3F2800375350FAF359B
:013ED80022C7
:1043B800E4FE8FC5AFC40EEF54F07003EE70F5EE57
:1043C8006017EF54707009E5C512106EE4FE801096
:1043D80074FF12106EE4FE800774FF12106E7E8068
:0243E800AF061E
:0143EA0022B0
:04454600EF4290228E
:05452C00EFF4529022A3
:10443C005389F0438901C2A9758CF4758A3DC28DEC
:10444C00D28C308DFDC28CEF1F70011ED3EF940007
:06445C00EE940050E32283
:1043500053873F438780C2AC759852E4F59BFCFDC0
:104360007BC0FAF9F81211DEA804A905AA06AB076A
:10437000E4FFFE7D2F7C0D121269EFF404F59A75AF
:054380009B1ED29922F2
:10446200E4FDFC0DBD00010C209904ED4C70F4ED4F
:0F4472004C60088F99AE07C29980027EF1AF06A9
:014481002218
:074504003098FDAF99C29849
:01450B00228D
:1041B9008F388E378D368C35751303751401751547
:1041C900017400B53A087400B53903E4F5147400B4
:1041D900B53A087402B53903E4F515E4F516F5178F
:1041E900F518F51912450C8B0C8A0D890EAF38AEEE
:1041F90037AD36AC35123FEA8F128E118D108C0F08
:10420900E4F50BF50AF509F50885381D85371C8590
:0C421900361B85351A122E68EF60FA2261
:104066008B3B8A3C893DE4FFFEFDFCAB0BAA0AA90B
:1040760009A808C31212FB7013AF1DAE1CAD1BAC12
:104086001A123FEA8F128E118D108C0FE512250B36
:10409600FFE511350AFEE5103509FDE50F3508FC8B
:1040A600AB0CAA0DA90E900004121122F56285F040
:1040B60061853B63853C64853D65124289E50B2439
:1040C60001F50BE4350AF50AE43509F509E4350886
:0340D600F50822C8
:0640D9008B3B8A3C893D8F
:1040DF007F0812453AAB3EAA3FA9401210F7FFAE38
:1040EF00F0C3EE94025029209226AB3BAA3CA93D87
:1040FF008F828E83120FECFF7B007A00794412437C
:10410F00B8AB3EAA3FA940E475F00112115A80C521
:10411F007F0812451DAB3EAA3FA9401210F7B4000D
:10412F0018E5F0B40213E4F5F0121192AB41AA4274
:0B413F00A943740112106EFF227F00E4
:01414A002252
:1042D9008F3B7F801245367F401245367F2012453D
:1042E900367F10124536E53B30E0057F80124518D0
:1042F900E53B30E1057F40124518E53B30E2057F9B
:0F43090020124518E53B30E3057F1012451822BE
:102E6800E513B409004003023066902E79F828284B
:102E780073022E94022EDE022EEF022F06022F7FFF
:102E8800022FC9022FDA022FF00230617F011242AD
:102E9800D9AF1DAE1CAD1BAC1A753F0075400012B2
:102EA80032578F1D8E1C8D1B8C1A74FFFFFEFD7C04
:102EB8000FAB1DAA1CA91BA81AC31212FB6011E4B0
:102EC800F514F50BF50AF509F508751305023066D2
:102ED8007513080230667F021242D930920302301D
:102EE800667513030230667F031242D97B017A00AC
:102EF8007900124066E4F5147513050230667F0404
:102F08001242D920921DE5147019F53E753F0075DF
:102F18004016F5417542007543147B017A0079002B
:102F28001240D9AB0CAA0DA90E120FD3FFE4FCFD79
:102F3800FEAB0BAA0AA909A808C31212FB7005F573
:102F480013023066309206E5156401600AE514B490
:102F5800010BE515B40106751306023066E514B4D5
:102F68000109209206751307023066209203023089
:102F7800667513010230667F051242D9AF1DAE1C7B
:102F8800AD1BAC1A753F027540001232578F1D8E6B
:102F98001C8D1B8C1A74FFFFFEFD7C0FAB1DAA1C39
:102FA800A91BA81AC31212FB6011E4F515F50BF55D
:102FB8000AF509F508751301023066751308023021
:102FC800667F061242D930920302306675130702F3
:102FD80030667F071242D97B017A02790012406677
:102FE800E4F51575130180767F081242D920921DE9
:102FF800E5157019F53E753F00754018F5417542A5
:10300800007543157B017A0279001240D9AB0CAAEE
:103018000DA90E120FD3FFE4FCFDFEAB0BAA0AA903
:1030280009A808C31212FB7005751304803030928A
:1030380006E51464016008E514B40108B4010575D7
:103048001302801AE515B401082092057513038050
:103058000D30920A75130580057F091242D9E513D0
:09306800B408037F01227F00225D
:023844008F4DA6
:10384600D290D291E4F558E55275F008A4F55205E8
:103856005320910302392E20900302392E1244B3CD
:10386600E54D25E0F5575357FEC2907559087F017F
:10387600124488C2911559AF59E557A80708800226
:10388600C313D8FC5401F55A124482D2913091FDEB
:10389600A290E433F55B655A6003755881E559D308
:1038A60094004004E55860C6E558704F7F01124405
:1038B60088C291D290E552601524F8F552AF51AE08
:1038C60050AD4FAC4EF9F812130C8F5780181553A4
:1038D600AB54AA55A956120FD3F55774012556F5C0
:1038E60056E43555F5557F01124488D2913091FD45
:1038F600A290E433F55B6003755882E5536007E5F3
:10390600587003023871E5586481601F7F011244C4
:1039160088C291C2907F01124488D2913091FD7F76
:0D39260002124488D2908003755881AF587A
:013933002271
:0233BF008F3D40
:1033C100E4F548E542601F854151854050853F4FF6
:1033D100853E4EF552E4F553854454854555854661
:1033E100561238448F48E5486003023500D290D226
:1033F100912091030234FD2090030234FD1244B365
:10340100E53D25E0F547434701C2907549087F0135
:10341100124488C2911549AF49E547A807088002BF
:10342100C313D8FC5401F54A124482D2913091FD64
:10343100A290E433F54B654A6003754881E549D3B1
:1034410094004004E54860C6E548701E7F011244BF
:1034510088C291D2907F01124488D2913091FDA20D
:1034610090E433F54B6003754882E543D394004003
:1034710069E54870657549087F01124488C2911554
:1034810049D290E54C25E0F54C7F01124488D29158
:103491003091FDA290E433F54B424CE549D39400C1
:1034A10050D6AB44AA45A946E54C12106E740125CD
:1034B10046F546E43545F545E543B40105754A0150
:1034C1008003E4F54A7F01124488C291E54A12441F
:1034D10082D2913091FD15438090E5486481601F4F
:1034E1007F01124488C291C2907F01124488D29117
:1034F1003091FD7F02124488D2908003754881AFDC
:013501004881
:0135020022A6
:1044B3005389F0438901C2A9758CFF758AC3C28DE4
:0344C300D28C2276
:0644820024FF92907F016F
:10448800308C03308DFDC28CBF010A758CFF758A94
:06449800C3C28DD28C228C
:103503004F75747075742066726F6D204944207214
:10351300656769737465723A2025322E32625820CA
:103523000A0D0053544130313320536F667456658E
:103533007273696F6E3A2025322E326258200A0D5B
:10354300002E000A466972737420636F6E666967A2
:1035530075726174696F6E2066696C652073656E40
:10356300742E2E2E0A004E756D626572206F6620D2
:1035730076616C756573207772697474656E3A2031
:103583002564200A000A5365636F6E6420636F6EBF
:1035930066696775726174696F6E2066696C652010
:1035A30073656E742E2E2E0A0053656E7420746F2D
:1035B300205354413031333A2025322E3262582081
:1035C3002025322E326258200A0D004F7574707513
:1035D300742066726F6D2072656769737465723AE1
:1035E3002025322E326258202025322E3262582076
:1035F30025322E326258200A0D00436F6E666967CA
:1036030075726174696F6E20436F6D706C6574655C
:103613000A0D005455060B525165645061050D188F
:103623000C4648720007100902B80000000605A105
:073633000004050C0C01006E
:05453100EFF452B0227E
:04454A00EF42B0226A
:1024F2007F08124531789E760175363212454AE4DC
:10250200F541F540F53FF53EF542754303F5447557
:1025120045007546A17F431233BF8F351536E53529
:102522006004E53670D9E536600E7BFF7A357903B3
:1025320078A3E6F5601221F8E4754101F540F53F14
:10254200F53E754201754301F5447545007546A196
:102552007F431233BF8F351536E5356004E536709B
:10256200D7E536600E7BFF7A35790378A1E6F56010
:102572001221F878A1E664AC60030227C8754171A4
:10258200F540F53FF53E754201754301F544754549
:10259200007546A17F431233BF8F357BFF7A3579B1
:1025A2002678A1E6F5601221F8E4F53BF53C753892
:1025B200FF753900753A03AB38AA39A93A853C82CE
:1025C200853B83120FECF537053CE53C7002053B79
:1025D200F582853B83120FEC789EF6053CE53C7054
:1025E20002053B543F70097BFF7A3579441221F88A
:1025F200E537F4602F753632E4853751F550F54FE3
:10260200F54E755201755301F55475550075569E78
:102612007F431238448F35D53602C2A7E5356004B0
:10262200E53670D4E537F46004E536708A7BFF7ACC
:102632003579461221F87BFF7A357969E53BC31378
:10264200F560E53C13F5611221F8E4F53BF53C75C4
:1026520038FF75390F753AA1AB38AA39A93A853CCA
:1026620082853B83120FECF537053CE53C70020591
:102672003BF582853B83120FEC789EF6053CE53CE8
:102682007002053B540770097BFF7A3579441221A9
:10269200F8E537F4602F753632E4853751F550F599
:1026A2004FF54E755201755301F554755500755627
:1026B2009E7F431238448F35D53602C2A7E5356076
:1026C20004E53670D4E537F46004E536708A7BFFA2
:1026D2007A3579881221F87BFF7A357969E53BC32F
:1026E20013F560E53C13F5611221F8E4754171F5CB
:1026F20040F53FF53E754201754301F544754500CD
:102702007546A17F431233BF8F357BFF7A35792619
:1027120078A1E6F5601221F8E4F53BF53CAF3CEF19
:1027220090361693F537EF90362893789EF67536E5
:1027320032E4853751F550F54FF54E755201755318
:1027420001F55475550075569E7F431238448F35F6
:10275200D53602C2A7E5356004E53670D47BFF7A30
:102762003579AC853760789EE6F5611221F8E53C53
:1027720090361693F537FFE48F41F540F53FF53E6D
:10278200754201754301F5447545007546A17F43C5
:102792001233BF8F357BFF7A3579CE85376078A1CA
:1027A200E6F5618535621221F8053CE53C700205CB
:1027B2003BC39411E53B9400500302271F7BFF7A31
:0827C2003579FD1221F8AF3555
:0127CA0022EC
:100003003A012A04280029002000210022002300AD
:10001300240025002600270028012802218F280319
:100023002100280428052806280728082809280A63
:10003300280B280C20802190280D20002100280E59
:1000430020812191280F20002192281021002811BE
:1000530021932812210028132814281520822816FA
:1000630020002817281828192194281A2195281BBD
:100073002196281C2100281D2083281E2000281FCC
:1000830021972820210028212822282328242825D5
:100093002826282728282829282A2084282B2000B6
:1000A300282C282D282E282F283028312832208547
:1000B3002833200028342835283628372198283833
:1000C30021002839283A283B283C283D283E283F50
:1000D30028402841284228432844284528462847C1
:1000E30028482849284A284B284C284D284E284F71
:1000F3002850285128522853285428552856285721
:1001030028582859285A285B285C285D285E285FD0
:1001130028602861286221992863210028642865C2
:100123002866286728682869286A286B286C286D40
:10013300286E286F287028712872287328742875F0
:100143002876287728782879287A287B287C287DA0
:10015300287E287F28802881288228832884288550
:100163002886288728882889288A288B288C288D00
:10017300288E288F289028912086289220872893DC
:100183002000289428952896289728982899289A13
:10019300289B289C289D289E289F219A28A02100DF
:1001A30028A128A228A328A428A528A628A728A8E8
:1001B30028A928AA28AB28AC28AD28AE28AF28B098
:1001C30028B128B228B328B428B528B628B728B848
:1001D30028B9208828BA200028BB208928BC200001
:1001E30028BD28BE28BF28C028C128C228C3219BF8
:1001F30028C4210028C528C628C728C828C928CA52
:1002030028CB28CC28CD28CE28CF28D028D128D237
:1002130028D328D428D528D628D728D828D928DAE7
:1002230028DB28DC28DD28DE28DF28E028E1208AF7
:1002330028E2208B28E3200028E428E528E628E7A5
:1002430028E828E928EA28EB28EC28ED28EE28EF0F
:1002530028F028F128F228F328F428F528F628F7BF
:1002630028F8208C28F92000219C28FA219D28FBBE
:10027300208D219E28FC208E219F28FD2000210017
:1002830028FE28FF2A012800220123952489250717
:1002930026A42707280121C72200238026C4270C70
:1002A30028022009211C220426AA270A2803200049
:1002B3002100220023A626A02707280428052005BD
:1002C300238426B42709280620002203230024813F
:1002D30025C026AB270A280721AE220023952489AF
:1002E300250726A42700280821482201238026C4A5
:1002F300270C280920092104220426AA270A280AF0
:1003030020002100220023A826A42707280B280C5D
:1003130021402220238026C4270C280D222426C610
:10032300280E219E220026C8280F2009210222140C
:1003330026AA270A2810200521002200238426B498
:1003430027092811200021012300240125C026AB01
:10035300270A281221C3239524892507262027004D
:100363002813200321C223832626270D281421B313
:0E03730022082815200021C62200239526000E
:1003810027082816210023002496250326AA270AD8
:100391002817204221B62380248925072818200008
:1003A10021002394260E2819200F238426B427091F
:1003B100281A2000239326A82703281B2628270074
:1003C100281C21012300240125C026AB270A281D52
:1003D10021C523952489250726202700281E2100D1
:1003E10023942600270A281F260E2820200321797E
:1003F100220123832626270D2821213228222000AD
:10040100210422002380240025FC26AA270A282370
:10041100210023002500282421A3220D2380249ECE
:10042100253B2825204221572201248925072826FA
:1004310020002143220D2400253828272108229855
:100441002395248925072624270028282042219343
:100451002201238026AA270A28292003217E22049B
:1004610023832626270D282A200021B02200239548
:1004710026A02707282B21002300240C250426AAC7
:10048100270A282C21022380248625C326AB282D68
:100491002042219722012489250726AA282E2000FF
:1004A10021002200241F2504282F21B2239524890D
:1004B10025072620270428302042218B220423806F
:1004C10026AA270A2831200021B12200239526A03F
:1004D1002707283220032175220423832626270D8E
:1004E1002833200521002200238426B4270928343B
:1004F100200021602300240125C026AB270A2835CE
:1005010021082298239524892507262427002836A7
:1005110021BC2200283721A3220D2300240125C05C
:1005210026AB270A283821602200238024002538A1
:1005310026AA2839210622982395248925072624CD
:100541002700283A21BE2200283B200521002384D0
:1005510026B42709283C200021602300240125C05E
:1005610026AB270A283D214222012395248925070C
:1005710026242700283E210C229826A42707283F5D
:1005810021082840216022002300240125C026AB38
:10059100270A2841210C22982395248925072624FE
:1005A10027002842200521002200238426B42709A0
:1005B1002843200023802400251026AB270A284445
:1005C1002122220123952489250726242700284555
:1005D1002100220023002404251226AA270A2846E6
:1005E100200321D422052383248925072626270DCC
:1005F10028472000216022002300240125C026ABCA
:10060100270A284821B3239524892507260027088E
:100611002849210023002409250026AA270A284A5F
:10062100210223802486253B284B204221DD2205FF
:1006310024892507284C200021002200241F2500A1
:10064100284D21B323952489250726202700284EEC
:10065100210023002497250326AA270A284F204298
:1006610021E222052380248925072850200021101A
:1006710022002300248025CC26AB285121002240D2
:1006810023B42489250726AA27042852220023B04F
:100691002692270928532114220123952600270891
:1006A1002854214823A4262A270028552100220066
:1006B10023002409250026AA270A28562108238079
:1006C1002486253B2857204221112207248925070A
:1006D1002858200021002200241F25002859211418
:1006E100220123952489250726202700285A21162F
:0E06F10026022709285B210022002300248016
:1006FF00254826AA270A285C23A024892507261423
:10070F002709285D2480255026A42704285E21165A
:10071F0022012395248925072700285F2104220021
:10072F002300249C257826AA270A28602143220D1E
:10073F00240125C426AB2861210322002415286239
:10074F0021002400250026AA2863215E23952489F1
:10075F00250726102709286421032300241525C403
:10076F0026AB270A2865210023802400250626AA08
:10077F002866248F25E326AB2867204221CD220748
:10078F002489250726AA286820002160220023003B
:10079F00240125C026AB286921002380248F25033F
:1007AF0026AA286A204221DD220724892507286BE3
:1007BF0020002143220D2300240125C026AB286CE5
:1007CF00210022002400250426AA286D2003217F62
:1007DF0022012383248925072626270D286E2162CF
:1007EF00286F200521002200238426B427092870B2
:1007FF0020002106239526002708287121012300B8
:10080F002497253B26AA270A28722042210E220868
:10081F0023802489250728732003213C220B23835F
:10082F002626270D28742000210322002395260257
:10083F002708287521272300248125C426AB270AE2
:10084F002876210023802409254826AA28772158B5
:10085F00223423A324892507262A2700287821005C
:10086F00220023A0260027092879210723802403AB
:10087F00253926AA270A287A21042300241C253883
:10088F00287B2107238024832539287C2103239566
:10089F002489250726022708287D21272300248164
:1008AF0025C426AB270A287E21002380240925484A
:1008BF0026AA287F2158223423A324892507262AF4
:1008CF0027002880210622002300248125C026939B
:1008DF0027012881210023802489254826AA270A59
:1008EF0028822002216622082300240025662883FF
:1008FF002000210022002380241F250228842106A6
:10090F002489250726DC270C2885210023AA26AA5F
:10091F00270A288623B626002708288723802486BF
:10092F00253B26AA270A288821052489250726DCA6
:10093F00270C2889210023AA26AA270A288A23B64A
:10094F0026002708288B23802486253B26AA270AE2
:10095F00288C2042217B220824892507288D2000FE
:10096F0021002200230024012582288E21052481C5
:10097F0025C226AB288F20032193220823832489A5
:10098F0025072626270D2890200021052200230069
:10099F00248125C026132701289121002380248933
:1009AF00254826AA270A28922002217E2208230002
:1009BF002400256628932000210022002380241F75
:1009CF002502289421052489250726DC270C289544
:1009DF00210023AA26AA270A289623B6260027082D
:1009EF00289723802486253B26AA270A28982105A5
:1009FF002489250726DC270C2899210023AA26AA5B
:100A0F00270A289A2380241F2502289B21012300CF
:100A1F00248125C226AB289C2003219322082383FF
:100A2F00248925072626270D289D20002104220032
:100A3F00239526122708289E216023C426AA27045F
:100A4F00289F210023C02600270928A0204221CB60
:100A5F002208238026AA270A28A12070215422B811
:0E0A6F0023952612270828A2200221CC220857
:100A7D00238026AA270A28A3200321CA220F238315
:100A8D002626270D28A42000210022002300248CD7
:100A9D00250C26AA270A28A521042482257828A614
:100AAD0021002380248925482612270428A7200306
:100ABD0021DE220F238325072626270D28A82000B7
:100ACD00210122002300249C257826AA270A28A983
:100ADD00210023802481254028AA200321CF220F25
:100AED002383248925072626270D28AB207021086E
:100AFD0022B8239526A0270428AC200321D4220F49
:100B0D0023832626270D28AD2127220B28AE207002
:100B1D00216322B823952612270828AF2000210132
:100B2D0022002380248625CB26AB270A28B020421D
:100B3D0021DD22082489250726AA28B120002118A5
:100B4D002280239526A4270028B2200321D9220F25
:100B5D0023832626270D28B32070210A22B823953A
:100B6D0026A0270028B4200221E02208238026AAEF
:100B7D00270A28B52070210A22B8239526A0270020
:100B8D0028B621542602270828B7200021182280D4
:100B9D0026A4270028B82100220023802480254880
:100BAD0026AA270A28B92070215E22B82395248908
:100BBD0025072612270828BA2000210022002380AD
:100BCD002409254B26AA270A28BB2070215F22B8AD
:100BDD002395248925072610270828BC20002100ED
:100BED0022002300241C258326AB270A28BD2003C1
:100BFD00213222092383248925072626270D28BE85
:100C0D0020002100220023002482258C26AB270AF8
:100C1D0028BF200321252209238324892507262681
:100C2D00270D28C0204221BC238026AA270A28C1CF
:100C3D002000210122002300240125C026AB28C25B
:100C4D002070210F22B823952489250726202700FF
:100C5D0028C3200321E3220F23832626270D28C432
:100C6D00200521002200238426B4270928C5200051
:100C7D00210323952614270828C621A623A4262A56
:100C8D00270528C7210023A02644270928C8211895
:100C9D00226D2380249E257B26AA270A28C920425F
:100CAD002113220B2489250728CA200021AE2200FA
:100CBD0023952624270028CB210022032380248777
:100CCD00257B26AA270A28CC20422116220B24890F
:100CDD00250728CD200021AE2200239526242700AC
:100CED0028CE20052100238426B4270928CF2003F0
:100CFD00210D220B23832626270D28D0200021002D
:100D0D002200230024802602270028D123802409D5
:100D1D002548261E28D22158223423332480250726
:100D2D00262A28D32100220023002680271028D42C
:100D3D0021102363262A270028D52100236026A809
:100D4D00271228D621AF224C230026C8270C28D7DE
:100D5D00210022002680270528D823802486253BC4
:100D6D00261E270028D92042211C220E2300248074
:100D7D00250728DA20002135222926C4270C28DB57
:100D8D002002211D220E261E270028DC2000217F97
:100D9D00223426C4270C28DD210022002390249F15
:100DAD0025042610270A28DE23002484250026800A
:100DBD00271028DF2106236324802507262A2700F4
:100DCD0028E021002380248926AA270A28E120056E
:100DDD00238426B4270928E22070216122B82395A7
:0E0DED002612270828E320002101220023807F
:100DFB00248625C326AB270A28E4204221CE220FC6
:100E0B002489250726AA28E52070215022B823958E
:100E1B002612270828E6200521002200238426B469
:100E2B00270928E72070216422B82395261227086A
:100E3B0028E82000210122002380248625C326AB2D
:100E4B00270A28E9204221D3220F2489250726AA25
:100E5B0028EA2070215122B823952612270828EB67
:100E6B00200521002200238426B4270928EC2070BA
:100E7B00216522B823952612270828ED2000210191
:100E8B0022002380248625C326AB270A28EE204286
:100E9B0021D8220F2489250726AA28EF207021525A
:100EAB0022B823952612270828F0200521002200BE
:100EBB00238426B4270928F12070216122B82395B9
:100ECB002602270828F220002101220023802486F5
:100EDB0025C326AB270A28F3204221DD220F2489C4
:100EEB00250726AA28F42070215022B82395260224
:100EFB00270828F5200521002200238426B4270982
:100F0B0028F6200021012380248625CB26AB270A37
:100F1B0028F7204221E1220F2489250726AA28F849
:100F2B002000210222002300248125C426AB28F9AE
:100F3B00210023802489254826AA28FA200523840A
:100F4B00250726B4270928FB2070214E22B82395AC
:100F5B002610270828FC200021002200238024864D
:100F6B0025C326AB270A28FD204221E7220F24891F
:100F7B00250726AA28FE200021BB22002395262028
:100F8B00270028FF20052100238426B427092A08DF
:100F9B001001FFFFFFFF3A00643A65BB083A09BB3B
:100FAB0050105267517705A11804540155210700C1
:100FBB00060C0B03501051005204610F645565551C
:080FCB0005A11804FFFFFFFF60
:03000000023ED9E4
:0C3ED900787FE4F6D8FD7581A3023F203D
:100FD300BB010689828A83E0225002E722BBFE021C
:090FE300E32289828A83E493224F
:100FEC00BB010CE58229F582E5833AF583E02250BA
:100FFC0006E92582F8E622BBFE06E92582F8E22204
:0D100C00E58229F582E5833AF583E493221D
:10101900BB010989828A83F8E028F022500327F767
:1010290022BBFE05F8E328F3228A838982F8E49338
:0210390028226B
:10103B00BB010FF8E58229F582E5833AF583E028B9
:10104B00F0225009C58229F8E58226F622BBFE095B
:10105B00C58229F8E22582F222F8EA2583F583E995
:03106B00932822A5
:10106E00BB010689828A83F0225002F722BBFE0161
:02107E00F3225B
:10108000F8BB010DE58229F582E5833AF583E8F0A6
:10109000225006E92582C8F622BBFE05E92582C852
:0210A000F2223A
:1010A200BC000BBE0029EF8DF084FFADF022E4CC32
:1010B200F875F008EF2FFFEE33FEEC33FCEE9DECFB
:1010C200984005FCEE9DFE0FD5F0E9E4CEFD22ED41
:1010D200F8F5F0EE8420D21CFEADF075F008EF2F8B
:1010E200FFED33FD4007985006D5F0F222C398FD7C
:0510F2000FD5F0EA2219
:1010F700BB010A89828A83E0F5F0A3E022500687C4
:10110700F009E71922BBFE07E3F5F009E319228985
:0B111700828A83E493F5F074019322B8
:10112200BB0110E58229F582E5833AF583E0F5F00B
:10113200A3E0225009E92582F886F008E622BBFEE8
:101142000AE92582F8E2F5F008E222E5832AF5832E
:08115200E993F5F0A3E99322F3
:10115A00BB010789828A830214C4500B09C5F02790
:10116A00F7C5F01937F722BBFE0D09F8E325F0F3AE
:10117A00C5F019E338F322F889828A83740193252A
:08118A00F0C5F0F8E4933822EF
:10119200BB010A89828A83F0E5F0A3F0225006F7A8
:0F11A20009A7F01922BBFE06F3E5F009F31922A5
:1011B100F8BB0111E58229F582E5833AF583E8F070
:1011C100E5F0A3F0225009E92582C8F608A6F0222D
:0D11D100BBFE09E92582C8F2E5F008F22214
:1011DE00E88FF0A4CC8BF0A42CFCE98EF0A42CFCB0
:1011EE008AF0EDA42CFCEA8EF0A4CDA8F08BF0A42E
:1011FE002DCC3825F0FDE98FF0A42CCD35F0FCEB8D
:10120E008EF0A4FEA9F0EB8FF0A4CFC5F02ECD3951
:0F121E00FEE43CFCEAA42DCE35F0FDE43CFC22BE
:10122D0075F008758200EF2FFFEE33FECD33CDCC78
:10123D0033CCC58233C5829BED9AEC99E5829840FB
:10124D000CF582EE9BFEED9AFDEC99FC0FD5F0D6D8
:10125D00E4CEFBE4CDFAE4CCF9A88222B800C1B902
:10126D000059BA002DEC8BF084CFCECDFCE5F0CB40
:10127D00F97818EF2FFFEE33FEED33FDEC33FCEB79
:10128D0033FB10D703994004EB99FB0FD8E5E4F934
:10129D00FA227818EF2FFFEE33FEED33FDEC33FC21
:1012AD00C933C910D7059BE99A4007EC9BFCE99A15
:1012BD00F90FD8E0E4C9FAE4CCFB2275F010EF2F5A
:1012CD00FFEE33FEED33FDCC33CCC833C810D7075A
:1012DD009BEC9AE899400AED9BFDEC9AFCE899F895
:0E12ED000FD5F0DAE4CDFBE4CCFAE4C8F92228
:1012FB00EB9FF5F0EA9E42F0E99D42F0E89C45F049
:01130B0022BF
:10130C00E8600FECC313FCED13FDEE13FEEF13FFBF
:03131C00D8F122E3
:10131F00E8600FEFC333FFEE33FEED33FDEC33FC2C
:03132F00D8F122D0
:10133200BB010789828A830214E85005E9F8021387
:10134200C0BBFE05E9F80214F489828A8302150003
:10135200BB010DE58229F582E5833AF5830214E8A3
:101362005007E92582F80213C0BBFE07E92582F87F
:101372000214F4E58229F582E5833AF58302150029
:10138200BB010789828A830215525005E9F80215CA
:0A13920046BBFE05E9F802155E22D5
:10139C00BB010DE58229F582E5833AF583021552EE
:1013AC005007E92582F8021546BBFE07E92582F8AD
:0413BC0002155E2296
:0C13C000E6FC08E6FD08E6FE08E6FF2259
:1013CC00BB010789828A8302151D5005E9F80215B5
:1013DC0010BBFE05E9F802152989828A83021536AD
:1013EC00BB010DE58229F582E5833AF58302151DD3
:1013FC005007E92582F8021510BBFE07E92582F893
:10140C00021529E58229F582E5833AF58302153622
:10141C00BB011A89828A83D0F0D0E0F8D0E0F9D0F1
:10142C00E0FAD0E0FBE8C0E0C0F00215835016E90A
:10143C00F8D083D082D0E0F9D0E0FAD0E0FBC082C3
:10144C00C08302157ABBFE16E9F8D083D082D0E0B7
:0F145C00F9D0E0FAD0E0FBC082C08302158C22E9
:10146B00BB0120E58229F582E5833AF583D0F0D0E4
:10147B00E0F8D0E0F9D0E0FAD0E0FBE8C0E0C0F053
:10148B000215835018E92582F8D083D082D0E0F979
:10149B00D0E0FAD0E0FBC082C08302157ABBFE1805
:1014AB00E92582F8D083D082D0E0F9D0E0FAD0E001
:0914BB00FBC082C08302158C22E3
:10441500EFB40A07740D124420740A309811A89954
:10442500B8130CC2983098FDA899C298B811F63007
:0744350099FDC299F59922DF
:10219600E56C2460F8E6056C22785D30070278600D
:1021A600E475F00112156A020FD32000EB7F2ED2E0
:1021B600008018EF540F2490D43440D4FF30040B21
:1021C600EF24BFB41A0050032461FFE56D600215C9
:1021D6006D0570E5707002056F30070D785DE4756A
:1021E600F00112156AEF02106E0244157403D2074D
:1021F6008003E4C207F56C8B5D8A5E895FE4F56D4A
:10220600F56FF570E56D60077F201221D180F575B9
:102216006EFFC201C200C202C203C205C206C208E4
:1022260012219FFF700D3007057F001221E2AF706B
:10223600AE6F22B4255FC2D5C20412219FFF24D0FF
:10224600B40A00501A75F00A786D30D50508B6FF45
:102256000106C6A426F620D5047002D20380D9242E
:10226600CFB41A00EF5004C2E5D2040223E2D20131
:1022760080C6D20080C0D20280BCD2D580BAD20538
:1022860080B47F201221D12002077401B56D004071
:10229600F1122196FF1221D102220AD208D206801B
:1022A60095122196FB122196FA122196F94A4B7045
:1022B6000679B37A247BFF20022EE56D602A7E0024
:1022C6008E82758300120FEC60060EEE656E70F05E
:1022D600C2D5EBC0E0EAC0E0E9C0E0EE122429D0A6
:1022E600E0F9D0E0FAD0E0FB120FD3FF60AAEBC012
:1022F600E0EAC0E0E9C0E01221D1D0E02401F9D043
:10230600E03400FAD0E0FBE56E0460DCD56ED980DF
:10231600877BFF7A247925D202809C791080027906
:1023260008C206C2088008D2D5790A8004790AC292
:10233600D5E56E047002F56EE4FAFDFEFF122196F5
:10234600FC7B08200113122196FD7B1030000A1237
:102356002196FE122196FF7B20EC3382D592D55032
:1023660013C3E43000069FFFE49EFEE42001039DB4
:10237600FDE49CFCE4CBF8C201EC700CCFCECDCCD6
:10238600E824F8F870F38017C3EF33FFEE33FEED61
:1023960033FDEC33FCEB33FB994002FB0FD8E9EB42
:1023A600300105F8D0E0C448B201C0E00AEC4D4E59
:1023B6004F78207B0070C2EAB56E0040BCC0E012C8
:1023C600242BD0F0D0E0200104C4C0E0C4B201C088
:1023D600F01221BAD0F0D5F0EB02220A121595229E
:1023E600A75323215822784C22744223254F232DAC
:1023F60044232D49228D432333552317462317455E
:1024060023174724D350227C2D22802E22A32B2251
:10241600842322A12024C12A223C480000229B3F7B
:102426003F3F00790AA2D5200314300509B91002EE
:102436000404B9080104A2D52006025001042002B2
:05244600689202B56D73
:10244B00005034C0E07F203003197F30A2027206A7
:10245B007205500F122482C202C206C205C2087F47
:10246B0030800F300503E9C0E01221D1300503D0D5
:10247B00E0F9D0E0B56DCC3005177F30B9100C12F8
:10248B0021D17F583004077F788003B908031221CC
:10249B00D13002057F2D0221D17F202008F87F2B20
:1024AB002006F322920280CF286E756C6C29002DCA
:1024BB0050434958D2011221963001F8C201786D70
:1024CB0030D50108F602223C1221962403B40500F4
:1024DB004001E49024BA931221C2743A1221C2D261
:0724EB0003756D04022321BB
:103934008B468A478948AB46AA47A948120FD3FF4A
:103944001244C6500D74012548F548E43547F5473F
:1039540080E4D200AB46AA47A948120FD3FF642BD8
:103964006004EFB42D1BAB460548E548AA47700236
:10397400054714F9120FD3642D6003D38001C39259
:1039840000E4F54CF54BF54AF549AB46AA47A9487E
:10399400120FD3FF1244D9505CE47F0AFEFDFCAB46
:1039A4004CAA4BA94AA8491211DEC8ECC8EDC0E0E4
:1039B400EEC0E0EFC0E0AB46AA47A948120FD3FF20
:1039C4003395E0FEEF24D0FFEE34FFFEE4FCFDD09F
:1039D400E0FBD0E0FAD0E0F9EB2FF54CEA3EF54BF2
:1039E400ED39F54AEC38F54974012548F548E435D4
:1039F40047F547809530000AAF4CAE4BAD4AAC4911
:0E3A0400800BAF4CAE4BAD4AAC491214DA2227
:103EE500022A48E493A3F8E493A34003F68001F281
:103EF50008DFF48029E493A3F85407240CC8C333DE
:103F0500C4540F4420C8834004F456800146F6DFAC
:103F1500E4800B0102040810204080904513E47EE4
:103F2500019360BCA3FF543F30E509541FFEE493A1
:103F3500A360010ECF54C025E060A840B8E493A368
:103F4500FAE493A3F8E493A3C8C582C8CAC583CA93
:103F5500F0A3C8C582C8CAC583CADFE9DEE780BE4B
:0145170000A3
:1014C400C5F0F8A3E028F0C5F0F8E58215827002B3
:0614D4001583E038F02250
:0E14DA00C3E49FFFE49EFEE49DFDE49CFC2223
:0C14E800E0FCA3E0FDA3E0FEA3E0FF2277
:0C14F400E2FC08E2FD08E2FE08E2FF2234
:10150000E493FC740193FD740293FE740393FF2231
:0D151000E6FB08E6F908E6FA08E6CBF8224B
:0C151D00E0F8A3E0F9A3E0FAA3E0FB2251
:0D152900E2FB08E2F908E2FA08E2CBF82242
:10153600E493F8740193F9740293FA740393FB220B
:0C154600ECF608EDF608EEF608EFF622D1
:0C155200ECF0A3EDF0A3EEF0A3EFF0220C
:0C155E00ECF208EDF208EEF208EFF222C9
:10156A00FAE6FB0808E6F925F0F618E6CA3AF62282
:09157A00EBF608EAF608E9F62296
:09158300EBF0A3EAF0A3E9F02269
:09158C00EBF208EAF208E9F22290
:10159500D083D082F8E4937012740193700DA3A3E5
:1015A50093F8740193F5828883E4737402936860F9
:0615B500EFA3A3A380DFF9
:0F44D900EFC394304007EF943A50028001C322A2
:1044C600EFC394094005EF940E4003BF2003D38049
:0344D60001C322FD
:00000001FF
