:04000300023C0000BB
:1052FA009004ACE9F0900403E0A3E0A3E09004ADCD
:0E530A00F0900406E0A3E0A3E09004AEF022D1
:10411E00900422EBF0A3EAF0A3E9F09004ACE0F9EE
:10412E007A007B00C003C002C001900422E0FBA312
:10413E00E0FAA3E0F91214CE9004ACE0FF2404F9E7
:10414E007A007B00C003C002C001900422E0FBA3F2
:10415E00E0FAA3E0F990000312151DEF2408F97A96
:10416E00007B00C003C002C001900422E0FBA3E06C
:10417E00FAA3E0F990000612151D9004ADE0FF7A47
:10418E0000F97B00C003C002C001900422E0FBA333
:10419E00E0FAA3E0F990000912151DEF2402F97A56
:1041AE00007B00C003C002C001900422E0FBA3E02C
:1041BE00FAA3E0F990000C12151D9004AEE0FF7A00
:1041CE0000F97B00C003C002C001900422E0FBA3F3
:1041DE00E0FAA3E0F990000F12151DEF04F97A0032
:1041EE007B00C003C002C001900422E0FBA3E0FAF2
:1041FE00A3E0F990001212151DEF2402F97A007B4C
:10420E0000C003C002C001900422E0FBA3E0FAA3A9
:10421E00E0F990001512151DEF2403F97A007B00CA
:10422E00C003C002C001900422E0FBA3E0FAA3E0A9
:08423E00F990001812151D2271
:103D4200900428EBF0A3EAF0A3E9F09004ACE0F9C8
:103D52007A007B00C003C002C001900428E0FBA3EC
:103D6200E0FAA3E0F91214CE9004ACE0FF2404F9C7
:103D72007A007B00C003C002C001900428E0FBA3CC
:103D8200E0FAA3E0F990000312151DEF2408F97A76
:103D9200007B00C003C002C001900428E0FBA3E046
:103DA200FAA3E0F990000912151DEF240CF97A002C
:103DB2007B00C003C002C001900428E0FBA3E0FA2C
:103DC200A3E0F990000612151D9004ADE0FF7A0001
:103DD200F97B00C003C002C001900428E0FBA3E00D
:103DE200FAA3E0F990000C12151DEF2402F97A00F3
:103DF2007B00C003C002C001900428E0FBA3E0FAEC
:103E0200A3E0F990000F12151DEF2404F97A007B4C
:103E120000C003C002C001900428E0FBA3E0FAA3A3
:103E2200E0F990001212151D9004AEE0FF7A00F93D
:103E32007B00C003C002C001900428E0FBA3E0FAAB
:103E4200A3E0F990001512151DEF04F97A007B002A
:103E5200C003C002C001900428E0FBA3E0FAA3E083
:103E6200F990001812151DEF2402F97A007B00C0A8
:103E720003C002C001900428E0FBA3E0FAA3E0F92A
:103E820090001B12151DEF2403F97A007B00C0037A
:103E9200C002C001900428E0FBA3E0FAA3E0F9907D
:063EA200001E12151D2296
:0853A600783CE6FE08E6FF2258
:0853AE00783CA60608A60722C0
:0753B6007B017A027900225D
:0644FB0090040012145EA3
:104501007B017A04790412411E900410E0FBA3E0C0
:10451100FAA3E0F9E4F5F01211BB90040DE0FBA35E
:10452100E0FAA3E0F9E4F5F01211BB783FE6B4023A
:104531001578501213E990040AE0FBA3E0FAA3E016
:10454100F91213AB8016783EE6FFE4FCFDFE900401
:104551000AE0FBA3E0FAA3E0F91213AB900400E038
:10456100FCA3E0FDA3E0FEA3E0FFA3E0FBA3E0FAD0
:10457100A3E0F91213AB900400E0FCA3E0FDA3E07B
:10458100FEA3E0FF900407E0FBA3E0FAA3E0F91229
:1045910013AB900404E0FBA3E0FAA3E0F912135B70
:1045A1007842E6FB08E690042CCBF0A3EBF0A37471
:1045B10001F0A37400F0A37400F0124EC890041C23
:0C45C100E0FBA3E0FAA3E0F9EF02108198
:08424600900400EEF0A3EFF07C
:10424E007B017A047906123D42900415E0FBA3E04F
:10425E00FAA3E0F9E4F5F01211BB900412E0FBA30F
:10426E00E0FAA3E0F9E4F5F01211BB900409E0FBCB
:10427E00A3E0FAA3E0F91214B400000000783FE6C0
:10428E00B4021578501213E990040FE0FBA3E0FA84
:10429E00A3E0F91213AB8016783EE6FFE4FCFDFEB8
:1042AE0090040FE0FBA3E0FAA3E0F91213AB900425
:1042BE0002E0FCA3E0FDA3E0FEA3E0FFA3E0FBA36E
:1042CE00E0FAA3E0F91213AB900402E0FCA3E0FDC8
:1042DE00A3E0FEA3E0FF90040CE0FBA3E0FAA3E052
:1042EE00F91213AB900400E0F9A3E0FF900418E07C
:1042FE00FBA3E0FAA3E0C98FF01211BB900406E015
:10430E00FBA3E0FAA3E0F912135B7842E6FB08E6A2
:10431E0090042CCBF0A3EBF0A37401F0A37400F087
:10432E00A37400F0124EC8900424E0FBA3E0FAA39D
:06433E00E0F9EF0210811E
:0B2BEF00900400EBF0A3EAF0A3E9F073
:102BFA0090041F7401F0A37400F0A37400F07B0129
:102C0A007A04790412411E90040DE0FBA3E0FAA3B2
:102C1A00E0F9121120FFAEF090041FE0FBA3E0FAE6
:102C2A00A3E0F912538E900403EFF064E5700302F7
:102C3A002DE3E07003022DE390040DE0FBA3E0FA1C
:102C4A00A3E0F9121120240BFFE435F0FE90041FD3
:102C5A00E0FBA3E0FAA3E0F912538E900416E0FB1E
:102C6A00A3E0FAA3E0F9EF121081900416E0FBA3A7
:102C7A00E0FAA3E0F9120FE6540E6003022DE39086
:102C8A000410E0FBA3E0FAA3E0F9E475F0011211E5
:102C9A0083900413E0FBA3E0FAA3E0F9E4121081A5
:102CAA00900413E0FBA3E0FAA3E0F9120FE6FFC3D6
:102CBA009408504390040DE0FBA3E0FAA3E0F91254
:102CCA0011202FFFE435F0FE90041FE0FBA3E0FA89
:102CDA00A3E0F912538E900419E0FBA3E0FAA3E0F3
:102CEA00F9EF121081900413E0FBA3E0FAA3E0F9D4
:102CFA00740112102C80A9900416E0FBA3E0FAA339
:102D0A00E0F9120FE630E46A900413E0FBA3E0FA5C
:102D1A00A3E0F97408121081900413E0FBA3E0FA0F
:102D2A00A3E0F9120FE6FFC3940B4003022DE390D0
:102D3A00040DE0FBA3E0FAA3E0F91211202FFFE44F
:102D4A0035F0FE90041FE0FBA3E0FAA3E0F912536A
:102D5A008E900419E0FBA3E0FAA3E0F9EF121081C8
:102D6A00900413E0FBA3E0FAA3E0F9740112102C1B
:102D7A0080A6900413E0FBA3E0FAA3E0F97408121A
:102D8A001081900413E0FBA3E0FAA3E0F9120FE626
:102D9A00FFC3940B504390040DE0FBA3E0FAA3E0B9
:102DAA00F91211202FFFE435F0FE90041FE0FBA377
:102DBA00E0FAA3E0F912538E900419E0FBA3E0FABB
:102DCA00A3E0F9EF121081900413E0FBA3E0FAA349
:102DDA00E0F9740112102C80A990040DE0FBA3E025
:102DEA00FAA3E0F9E475F02012118390040DE0FBD8
:102DFA00A3E0FAA3E0F9121120D394FEE5F09401BE
:102E0A005003022F0A900404E0FBA3E0FAA3E0F9BE
:102E1A0012135BEF2401FFE43EFEE43DFDE43CFCBB
:102E2A001213AB900407E0FBA3E0FAA3E0F9121433
:102E3A0002C000C001C002C003900404E0FBA3E08A
:102E4A00FAA3E0F912135BD003D002D001D000C379
:102E5A00EF9BFFEE9AFEED99FDEC98FC90040AE0D8
:102E6A00FBA3E0FAA3E0F9121402D312132440736D
:102E7A00900404E0FBA3E0FAA3E0F912135B7842A2
:102E8A00E6FB08E690042CCBF0A3EBF0A37401F068
:102E9A00A37400F0A37400F0124EC890041CE0FB67
:102EAA00A3E0FAA3E0F9EF12108190041CE0FBA35F
:102EBA00E0FAA3E0F9120FE66016900410E0FBA313
:102ECA00E0FAA3E0F9E4F5F01211BBE4900403F090
:102EDA0090040DE0FBA3E0FAA3E0F9E4F5F0121187
:102EEA00BB801D900410E0FBA3E0FAA3E0F91211E5
:102EFA0020FFE5F044808FF01211BBE4900403F048
:102F0A00900403E07024900410E0FBA3E0FAA3E02D
:102F1A00F9121120FF900400E0FBA3E0FAA3E0F904
:0C2F2A00E5F08FF01211BB7F01227F0246
:012F36002278
:0B205F00900400EBF0A3EAF0A3E9F00E
:10206A009004257401F0A37400F0A37400F07B01BE
:10207A007A047903123D4290040FE0FBA3E0FAA32D
:10208A00E0F9121120FFAEF0900425E0FBA3E0FA7C
:10209A00A3E0F912538E900424EFF064E570030272
:1020AA002321E0700302232190040FE0FBA3E0FA4E
:1020BA00A3E0F9121120240BFFE435F0FE90042569
:1020CA00E0FBA3E0FAA3E0F912538E90041BE0FBB5
:1020DA00A3E0FAA3E0F9EF12108190041BE0FBA33E
:1020EA00E0FAA3E0F9120FE6540E600302232190EE
:1020FA000412E0FBA3E0FAA3E0F9E475F00112117F
:10210A0083900415E0FBA3E0FAA3E0F9121120FF83
:10211A00AEF0900412E0FBA3E0FAA3E0F91211205A
:10212A006F7003E5F06E6003022321783FE66404D2
:10213A0060030221F990040FE0FBA3E0FAA3E0F99F
:10214A001211202415FFE435F0FE900425E0FBA3CC
:10215A00E0FAA3E0F912538EE4FCFDFE900406E0D7
:10216A00FBA3E0FAA3E0F91213AB900406E0FBA389
:10217A00E0FAA3E0F912135B78081213481213ABC2
:10218A00900406E0FBA3E0FAA3E0F9C003C002C092
:10219A000112135BC004C005C006C00790040FE01B
:1021AA00FBA3E0FAA3E0F91211202414FFE435F0AE
:1021BA00FE900425E0FBA3E0FAA3E0F912538EE4B3
:1021CA00AB07D007D006D005D004EF4BFFEEEDECFD
:1021DA00D001D002D0031213AB900406E0FBA3E0B7
:1021EA00FAA3E0F912135B78081213481213AB90A2
:1021FA000406E0FBA3E0FAA3E0F9C003C002C001B1
:10220A0012135BC004C005C006C00790040FE0FBB0
:10221A00A3E0FAA3E0F9121120241BFFE435F0FE33
:10222A00900425E0FBA3E0FAA3E0F912538EE4AB95
:10223A0007D007D006D005D004EF4BFFEEEDECD067
:10224A0001D002D0031213AB900406E0FBA3E0FA1C
:10225A00A3E0F912135B78081213481213AB900427
:10226A0006E0FBA3E0FAA3E0F9C003C002C0011232
:10227A00135BC004C005C006C00790040FE0FBA3AF
:10228A00E0FAA3E0F9121120241AFFE435F0FE90D7
:10229A000425E0FBA3E0FAA3E0F912538EE4AB07AE
:1022AA00D007D006D005D004EF4BFFEEEDECD001FD
:1022BA00D002D0031213AB90040FE0FBA3E0FAA301
:1022CA00E0F9121120240BFFE435F0FE900425E01A
:1022DA00FBA3E0FAA3E0F912538E90041BE0FBA3E0
:1022EA00E0FAA3E0F9EF12108190041BE0FBA3E0EF
:1022FA00FAA3E0F9120FE630E418900406E0FBA313
:10230A00E0FAA3E0F912135BEFEEEDEC4410FC12D5
:10231A0013ABE4900424F090040FE0FBA3E0FAA3CB
:10232A00E0F9E475F02012118390040FE0FBA3E0BA
:10233A00FAA3E0F9121120D394FEE5F094015003B8
:10234A0002243D900403E0FBA3E0FAA3E0F9121390
:10235A005BEF2401FFE43EFEE43DFDE43CFC121386
:10236A00AB900409E0FBA3E0FAA3E0F9121402C05F
:10237A0000C001C002C003900403E0FBA3E0FAA37B
:10238A00E0F912135BD003D002D001D000C3EF9B57
:10239A00FFEE9AFEED99FDEC98FC90040CE0FBA38D
:1023AA00E0FAA3E0F9121402D31213245003022410
:1023BA0038900403E0FBA3E0FAA3E0F912135B7878
:1023CA0042E6FB08E690042CCBF0A3EBF090042540
:1023DA00E0F9A3E0FAA3E090042EC9F0A3EAF0A37F
:1023EA00E9F0124EC8900421E0FBA3E0FAA3E0F959
:1023FA00EF121081900421E0FBA3E0FAA3E0F912A6
:10240A000FE66017900406E0FBA3E0FAA3E0F912D6
:10241A0014B480000000E4900424F090040FE0FB60
:10242A00A3E0FAA3E0F9E4F5F01211BB8005E49009
:10243A000424F0900424E060037F0222900406E062
:10244A00FBA3E0FAA3E0F912135BE4FBFAF9F8C381
:10245A001213247014900400E0FBA3E0FAA3E0F93D
:10246A001214B480000000801C900406E0FBA3E074
:10247A00FAA3E0F912135B900400E0FBA3E0FAA3CD
:07248A00E0F91213AB7F0122
:012491002228
:0753BD007B007A00793E221B
:104F29007374617274696E672070726F6772616DF4
:104F39002E2E2E0A004D6F756E74696E67205344CC
:104F490020636172640A0053442063617264206DB6
:104F59006F756E7465640A0053442063617264203E
:104F69006661696C656420746F206D6F756E740A73
:0D4F7900005374617274696E672E2E2E0055
:10442600758E0C758F017F101253C47F0F1253EADD
:104436007F2C7E011252B47F807E2512519B12245E
:1044460092EF600280FE12512B7BFF7A4F797A7DC4
:104456000BE4FF1246957BFF7A4F79291228F57FE8
:10446600407E0D7D037C0012495090043DEFF060C4
:104476000C7F101253C47F531252DA80FE7F401213
:1044860053C4121B7890043DEFF0600C7F1012535A
:10449600C47F431252DA80FE7F401253E27F007ED1
:1044A6002D7D317C0112495090043DEFF0600C7F68
:1044B600101253C47F501252DA80FE7BFF7A4F7976
:1044C6003E1228F57E007F00121644EF70157BFF22
:1044D6007A4F79501228F57F101253E27F801253DB
:1044E600C4800B7BFF7A4F79611228F580FE7F0C22
:0544F60012516380FE7D
:104D1B0046696E64696E672042494F532070617219
:104D2B00616D6574657220626C6F636B0A006572EE
:104D3B00726F723A20636F756C64206E6F74206CA7
:104D4B006F63617465204250420A006572726F7224
:104D5B003A20464154313220756E737570706F7204
:104D6B007465640A0046415431362064657465638A
:104D7B007465640A0046415433322064657465637C
:054D8B007465640A00DC
:10164400AA06A9079004607401F0A3EAF0A3E9F0E4
:101654001253BD900463EBF0A3EAF0A3E9F07BFF1F
:101664007A4D791B1228F590046A7402F0A3E4F011
:10167400900460E0F9A3E0FAA3E090046CC9F0A33D
:10168400EAF0A3E9F07F007E007D007C00124E6743
:10169400900460E0FBA3E0FAA3E0F9E4FFFE125338
:1016A4008190043EEFF0FB90045812148300000074
:1016B40000EB64EB606590043EE064E9605D9004D7
:1016C40060E0FBA3E0FAA3E0F97FC67E0112474F76
:1016D40090045812145E900458E0FCA3E0FDA3E0CB
:1016E400FEA3E0FF90046A7402F0A3E4F0900460A7
:1016F400E0F9A3E0FAA3E090046CC9F0A3EAF0A334
:10170400E9F0124E67900460E0FBA3E0FAA3E0F96D
:10171400E4FFFE12538190043EEFF090043EE0FF9C
:1017240064EB6011EF64E9600C7BFF7A4D79391248
:1017340028F57F0122900460E0FBA3E0FAA3E0F91E
:101744007F0B7E00125026900463E0FBA3E0FAA313
:10175400E0F9900004EE8FF01211DA900002E41226
:10176400109390000412114BFDACF0ED64014C6039
:101774001C900463E0FBA3E0FAA3E0F99000027478
:101784000112104EECC313FCED13FD80DE900460D7
:10179400E0FBA3E0FAA3E0F97F0D7E0012538190F1
:1017A4000463E0FBA3E0FAA3E0F9EF1210819004D4
:1017B40060E0FBA3E0FAA3E0F97F0E7E001250265E
:1017C400900442EEF0A3EFF0900460E0FBA3E0FA93
:1017D400A3E0F97F107E0012538190043FEFF09054
:1017E4000460E0FBA3E0FAA3E0F97F117E0012504D
:1017F40026900440EEF0A3EFF0900460E0FBA3E039
:10180400FAA3E0F97F167E00125026900444EEF00D
:10181400A3EFF0900460E0FBA3E0FAA3E0F97F13E8
:101824007E00125026900446EEF0A3EFF090046080
:10183400E0FBA3E0FAA3E0F97F2C7E0012474F906F
:10184400045C12145E900444E07002A3E0601D90F6
:101854000460E0FBA3E0FAA3E0F97F167E001250D7
:1018640026E4FCFD90044C12145E8018900460E0A1
:10187400FBA3E0FAA3E0F97F247E0012474F900413
:101884004C12145E900446E0FEA3E0FF4E600BE4AD
:10189400FCFD90045012145E8018900460E0FBA3D9
:1018A400E0FAA3E0F97F207E0012474F9004501223
:1018B400145E900463E0FBA3E0FAA3E0F990000453
:1018C40012114BFDACF024FFFBEC34FFFA90044002
:1018D400E0FEA3E07805C333CE33CED8F92BFFEA7C
:1018E4003EFE1210B5E4FCFD900463E0FBA3E0FAB5
:1018F400A3E0F99000121213C590043FE0FFE4FC4A
:10190400FDFE90044CE0F8A3E0F9A3E0FAA3E0FBA9
:10191400121207A804A905AA06AB07900442E0FE28
:10192400A3E0FFE4FCFDEB2FFFEA3EFEED39FDEC06
:1019340038FC900463E0FBA3E0FAA3E0F990001202
:10194400121422EF2BFBEE3AFAED39F9EC38F89049
:101954000450E0FCA3E0FDA3E0FEA3E0C39BFFEE84
:101964009AFEED99FDEC98FCA312145E900442E0FB
:10197400FEA3E0FFE4FCFD900458E0F8A3E0F9A323
:10198400E0FAA3E02FFFEA3EFEED39FDEC38FC90CF
:101994000463E0FBA3E0FAA3E0F990000E1213C580
:1019A40090000E121422C000C001C002C0039004B3
:1019B4003FE0FFE4FCFDFE90044CE0F8A3E0F9A353
:1019C400E0FAA3E0FB121207D003D002D001D0004A
:1019D400EF2BFFEE3AFEED39FDEC38FC900463E0AA
:1019E400FBA3E0FAA3E0F9900012121422EF2BFFFC
:1019F400EE3AFEED39FDEC38FC900463E0FBA3E025
:101A0400FAA3E0F990000A1213C5120FE6FFE4FCF2
:101A1400FDFEF8F9FAAB07900454E0FCA3E0FDA343
:101A2400E0FEA3E0FF12129290044812145EE47FD9
:101A3400F57E0FFDFC900448E0F8A3E0F9A3E0FA7A
:101A4400A3E0FBC3121324500C7BFF7A4D7956128A
:101A540028F57F0122E47FF57EFFFDFC900448E039
:101A6400F8A3E0F9A3E0FAA3E0FBC3121324507730
:101A7400900463E0FBA3E0FAA3E0F9900001740290
:101A84001210937BFF7A4D79701228F5900463E06D
:101A9400FBA3E0FAA3E0F990000E121422C000C0E8
:101AA40001C002C00390043FE0FFE4FCFDFE90048B
:101AB4004CE0F8A3E0F9A3E0FAA3E0FB121207D08C
:101AC40003D002D001D000EF2BFFEE3AFEED39FD3A
:101AD400EC38FC900463E0FBA3E0FAA3E0F9900087
:101AE400061213C5021B75900463E0FBA3E0FAA37E
:101AF400E0F990000174041210937BFF7A4D798011
:101B04001228F590045CE0FCA3E0FDA3E0FEA3E052
:101B140024FEFFEE34FFFEED34FFFDEC34FFFCA8A1
:101B240004C005C006C007900463E0FBA3E0FAA369
:101B3400E0F9120FE6FFE4FCFDFED003D002D00171
:101B4400121207900463E0FBA3E0FAA3E0F990000B
:101B54000A121422EF2BFFEE3AFEED39FDEC38FCAD
:101B6400900463E0FBA3E0FAA3E0F99000061213EB
:031B7400C57F002A
:011B7700224B
:104A740090040412145EE4FFFEFDFC900404E0F8CC
:104A8400A3E0F9A3E0FAA3E0FBC31213247011908E
:104A940004AFE0FBA3E0FAA3E0F990000602137B65
:104AA400900404E0FCA3E0FDA3E0FEA3E024FEFFE9
:104AB400EE34FFFEED34FFFDEC34FFFCA804C0052A
:104AC400C006C0079004AFE0FBA3E0FAA3E0F9122C
:104AD4000FE6FFE4FCFDFED003D002D00112120762
:104AE4009004AFE0FBA3E0FAA3E0F990000A1214EB
:0E4AF40022EF2BFFEE3AFEED39FDEC38FC22EE
:104B020090040712145EE4FFFEFDFC900407E0F837
:104B1200A3E0F9A3E0FAA3E0FBC3121324701190FF
:104B220004AFE0FBA3E0FAA3E0F990000602137BD6
:104B3200900407E0FCA3E0FDA3E0FEA3E024FEFF57
:104B4200EE34FFFEED34FFFDEC34FFFCA804C0059B
:104B5200C006C0079004AFE0FBA3E0FAA3E0F9129D
:104B62000FE6FFE4FCFDFED003D002D001121207D3
:104B72009004AFE0FBA3E0FAA3E0F990000A12145C
:0E4B820022EF2BFFEE3AFEED39FDEC38FC225F
:0635900090040012145E1D
:10359600900404E0FEA3E0AA06F9A37401F0A3EAEE
:1035A600F0A3E9F09004AFE0FBA3E0FAA3E0F99002
:1035B6000001120FFFFFE4FCFDFE900400E0F8A3FB
:1035C600E0F9A3E0FAA3E0FB121207C004C005C0AD
:1035D60006C0079004AFE0FBA3E0FAA3E0F9900071
:1035E6000412114BFFAEF0E4FCFDF8F9AA06AB0796
:1035F600D007D006D005D0041212929004AFE0FB9B
:10360600A3E0FAA3E0F990000E121422EF2BFFEECE
:103616003AFEED39FDEC38FC9004AFE0FBA3E0FA8E
:10362600A3E0F990000412114BFB90042CE5F0F096
:10363600A3EBF0900406E0F9A3E0FAA3E090042ED1
:10364600C9F0A3EAF0A3E9F0124EC89004AFE0FB7C
:10365600A3E0FAA3E0F9900001120FFFFFE4FCFDDE
:10366600FE900400E0F8A3E0F9A3E0FAA3E0FB1261
:103676001207C004C005C006C0079004AFE0FBA354
:10368600E0FAA3E0F990000412114BFFAEF0E4FC5F
:10369600FDF8F9AA06AB07D007D006D005D004126C
:1036A6001292AF03900409EAF0A3EFF09004AFE0A2
:1036B600FBA3E0FAA3E0F9900001120FFFB4041E89
:1036C600900409E0FEA3E0FF900406E0FBA3E0FA05
:1036D600A3E0F91247FFEFEEEDEC540FFC22900445
:1036E600AFE0FBA3E0FAA3E0F9900001120FFF643C
:1036F600027051900409E0FEA3E0FF900406E0FB8F
:10370600A3E0FAA3E0F912506EE4FCFD90040B125C
:10371600145EE47FFF7EFFFDFC90040BE0F8A3E05F
:10372600F9A3E0FAA3E0FBC3121324700874FFFFA9
:10373600FEFD7C0F2290040BE0FCA3E0FDA3E0FE5F
:0F374600A3E0FF22E4FFFEFDFC22E4FFFEFDFCFA
:013755002251
:10523500900444EDF0EF70077F401253CE80057F58
:10524500401253EE7F801253EE900444E0FF1200AB
:10525500107F801253CE7FFF1200107F400253EE65
:10512B007D38E4FF1252357F017E001252B47D4868
:10513B00E4FF1252357F017E001252B47D01E4FF71
:10514B001252357F027E001252B47D0CE4FF1252D4
:08515B00357F017E000252B411
:0E46950090043EEDF0A3EBF0A3EAF0A3E9F0F1
:1046A300EFF46010EF4480FDE4FF1252357F017E8A
:1046B300001252B490043EE07051900442F0900412
:1046C3003FE0FBA3E0FAA3E0F9A3E0F582758300E2
:1046D300120FFF900443F0900443E0FD606D7F01EF
:1046E3001252357F017E001252B4900442E004F06E
:1046F30090043FE0FBA3E0FAA3E0F9A3E0F58275A1
:104703008300120FFF900443F080CCE4900442F046
:1047130090043EE0FF900442E0FEC39F502D9004BE
:104723003FE0FBA3E0FAA3E0F98E82758300120F4A
:10473300FFFF900443F0FD7F011252357F017E009D
:0B4743001252B4900442E004F080C564
:01474E002248
:0553C400EFF452A022ED
:0453E200EF42A022D4
:1050B600AE077F801253E27F401253E27F201253E5
:1050C600E27F101253E2EE30E0057F801253C4EE09
:1050D60030E1057F401253C4EE30E2057F201253C3
:0B50E600C4EE30E3057F101253C4221B
:030010008F8022BC
:0553C900EFF4529022F8
:0553CE00EFF452B022D3
:0453E600EF429022E0
:0453EA00EF42A022CC
:0453EE00EF42B022B8
:1031B1005344204361726420496E697469616C698A
:1031C1007A6174696F6E202E2E2E200A0D00434DF8
:1031D10044302073656E74202E2E2E2000526573AC
:1031E100706F6E7365203D2025322E3262580A0DB4
:1031F10000434D44382073656E74202E2E2E20001E
:10320100526573706F6E7365203D200025322E323A
:103211006258200A0D0056657273696F6E20312065
:10322100534420436172642064657465637465640A
:103231002E0A0D005374616E6461726420436170E3
:1032410061636974792043617264206465746563A4
:103251007465642E0A0D0025322E32625820005604
:10326100657273696F6E203220534420436172642A
:103271002064657465637465642E0A0D00434D44D2
:1032810035382073656E74202E2E2E200041434D5B
:103291004434312073656E74202E2E2E2000546923
:1032A1006D656F7574203D20256C75200A0D0048F1
:1032B1006967682043617061636974792043617251
:1032C100642044657465637465640A0D0053746118
:1032D1006E64617264204361706163697479204333
:1032E1006172642044657465637465640A0D00430A
:1032F1004D4431362073656E74202E2E2E200052DF
:103301006573706F6E7365203D2025322E326258D1
:10331100200A0D00426C6F636B2073697A6520731C
:10332100657420746F203531322062797465730AB7
:103331000D0053442054696D656F75742045727298
:103341006F7200496C6C6567616C20436F6D6D61D4
:103351006E640A0D00526573706F6E73652045725D
:10336100726F72004461746120546F6B656E204509
:1033710072726F7200496E636F6D70617469626C15
:103381006520566F6C7461676500436172642069E2
:103391007320496E61637469766500535049206FEB
:1033A100722054696D656F7574204572726F720079
:0E33B100556E6B6E6F776E204572726F7200F4
:05375600900471EFF08A
:10375B00E4900477F0900471E0FFC39440400302BF
:10376B0038CDEF4440FF900476F07B017A047978F2
:10377B001251D0900479EFF07028900472E0FCA302
:10378B00E0FDA3E0FEA3E0FF78181213359004765A
:10379B00EFF07B017A0479781251D0900479EFF035
:1037AB0080069004777487F0900477E0704690045D
:1037BB0079E07040900472E0FCA3E0FDA3E0FEA36F
:1037CB00E0FFEEEDE4FC90047212145E900472E0E4
:1037DB00FCA3E0FDA3E0FEA3E0FF781012133590ED
:1037EB000476EFF07B017A0479781251D09004794A
:1037FB00EFF080069004777487F0900477E07046C2
:10380B00900479E07040900472E0FCA3E0FDA3E02B
:10381B00FEA3E0FFEEE4FDFC90047212145E900434
:10382B0072E0FCA3E0FDA3E0FEA3E0FF7808121317
:10383B0035900476EFF07B017A0479781251D090B1
:10384B000479EFF080069004777487F0900477E0AA
:10385B007028900479E07022900472E0FCA3E0FDE4
:10386B00A3E0FEA3E0FFE4A3EFF07B017A047978F9
:10387B001251D0900479EFF080069004777487F0A2
:10388B00900477E07042900479E0703C900471E012
:10389B00FF70089004767495F08012EFB4080890CE
:1038AB0004767487F080069004767401F0900476A9
:1038BB00E0FF7B017A0479781251D0900479EFF014
:0D38CB0080069004777482F0900477E0FF8F
:0138D80022CD
:0538D900900433EFF044
:1038DE00E4900439F0900433E0FFC39440400302B7
:1038EE003A50EF4440FF900438F07B017A04793A65
:1038FE001251D090043BEFF07028900434E0FCA3FA
:10390E00E0FDA3E0FEA3E0FF781812133590043813
:10391E00EFF07B017A04793A1251D090043BEFF02C
:10392E0080069004397487F0900439E07046900454
:10393E003BE07040900434E0FCA3E0FDA3E0FEA366
:10394E00E0FFEEEDE4FC90043412145E900434E0DB
:10395E00FCA3E0FDA3E0FEA3E0FF78101213359068
:10396E000438EFF07B017A04793A1251D090043B7F
:10397E00EFF080069004397487F0900439E07046B9
:10398E0090043BE07040900434E0FCA3E0FDA3E023
:10399E00FEA3E0FFEEE4FDFC90043412145E9004EE
:1039AE0034E0FCA3E0FDA3E0FEA3E0FF78081213D1
:1039BE0035900438EFF07B017A04793A1251D090A9
:1039CE00043BEFF080069004397487F0900439E0E0
:1039DE00702890043BE07022900434E0FCA3E0FDDC
:1039EE00A3E0FEA3E0FFE4A3EFF07B017A04793AB3
:1039FE001251D090043BEFF080069004397487F09A
:103A0E00900439E0704290043BE0703C900433E047
:103A1E00FF70089004387495F08012EFB408089087
:103A2E0004387487F080069004387401F0900438DE
:103A3E00E0FF7B017A04793A1251D090043BEFF00B
:0D3A4E0080069004397482F0900439E0FF86
:013A5B002248
:084344007B017A0479417F013D
:0E434C00900452EFF0A3EBF0A3EAF0A3E9F027
:10435A00E4900457F07B017A0479597FFF1251D017
:10436A00900458EFF0900456E004F0900459E0FFEE
:10437A0030E70C900456E06006900458E060D6904E
:10438A000458E060089004577487F08079900456C6
:10439A00E07006A37481F0806D900453E0FBA3E003
:1043AA00FAA3E0F9EF121081900459E0FF60046467
:1043BA0001704D900452E0D39401404A900456741F
:1043CA0001F0900452E0FF900456E0C39F50377BFF
:1043DA00017A0479597FFF1251D0900458EFF0A363
:1043EA00E0FF900453E0FBA3E0FAA3E0F9A3E0F5B1
:1043FA0082758300EF121093900456E004F080C295
:10440A009004577483F07B017A0479597FFF125123
:0B441A00D0900458EFF0900457E0FF32
:014425002274
:103A5C00900433EEF0A3EFF0A3EBF0A3EAF0A3E9AC
:013A6C00F069
:103A6D00E490043BF0A3F0900439F07B017A0479E3
:103A7D003A7FFF1251D0900438EFF090043CE004EF
:103A8D00F0700690043BE004F090043AE0FF30E75C
:103A9D000EA3E07002A3E06006900438E060CC90C5
:103AAD000438E06007A37487F0023BBB90043BE051
:103ABD007002A3E070099004397481F0023BBBEFF2
:103ACD006003023BB590043BF0A3F07B017A0479CF
:103ADD003A7FFF1251D0900438EFF090043CE0048F
:103AED00F0700690043BE004F090043AE0FFB4FF60
:103AFD000EA3E07002A3E06006900438E060CC9065
:103B0D000438E06007A37487F0023BBB90043BE0F0
:103B1D007002A3E070099004397481F0023BBBEF91
:103B2D0064FE707C90043BF0A3F0900433E0FEA3A0
:103B3D00E0FFC390043CE09F90043BE09E503F7B30
:103B4D00017A04793A7FFF1251D0900438EFF0904A
:103B5D00043AE0FF900435E0FBA3E0FAA3E0F9900E
:103B6D00043BE0FCA3E0F5828C83EF1210939004EC
:103B7D003CE004F070B490043BE004F080AC7B01B9
:103B8D007A04793A7FFF1251D0900438EFF07B011F
:103B9D007A04793A7FFF1251D0900438EFF0800EFD
:103BAD009004397484F080069004397483F07B019D
:103BBD007A04793A7FFF1251D0900438EFF0A3E0E8
:013BCD00FFF8
:013BCE0022D4
:103BCF00900471EEF0A3EFF0A3EBF0A3EAF0A3E9FA
:013BDF00F0F5
:103BE000E4900479F0A3F0900477F07B017A0479F3
:103BF000787FFF1251D0900476EFF090047AE004C1
:103C0000F07006900479E004F0900478E0FF30E76B
:103C10000EA3E07002A3E06006900476E060CC9012
:103C20000476E06007A37487F0023D2E900479E0EB
:103C30007002A3E070099004777481F0023D2EEFCA
:103C40006003023D28900479F0A3F07B017A0479A7
:103C5000787FFF1251D0900476EFF090047AE00460
:103C6000F07006900479E004F0900478E0FFB4FF6F
:103C70000EA3E07002A3E06006900476E060CC90B2
:103C80000476E06007A37487F0023D2E900479E08B
:103C90007002A3E070099004777481F0023D2EEF6A
:103CA00064FE707C900479F0A3F0900471E0FEA3B0
:103CB000E0FFC390047AE09F900479E09E503F7B40
:103CC000017A0479787FFF1251D0900476EFF0905A
:103CD0000478E0FF900473E0FBA3E0FAA3E0F9901E
:103CE0000479E0FCA3E0F5828C83EF12109390043A
:103CF0007AE004F070B4900479E004F080AC7B01C9
:103D00007A0479787FFF1251D0900476EFF07B012E
:103D10007A0479787FFF1251D0900476EFF0800E0C
:103D20009004777484F080069004777483F07B01AC
:103D30007A0479787FFF1251D0900476EFF0A3E0F7
:013D4000FF83
:013D4100225F
:101B7800E490043FF0781B76FF7F101253F27BFF4E
:101B88007A3179B11228F5E490043EF07B017A04A9
:101B980079497FFF1251D0900440EFF090043EE065
:101BA80004F0E0C3940A40E47F801253C47BFF7AB8
:101BB8003179CF1228F57F101253D890047212147D
:101BC8008300000000E4FF123756900440EFF070E5
:101BD80019124344900440EFF07BFF7A3179DEA379
:101BE800E0900469F01228F580057F101253C47F35
:101BF800101253F27F801253E2900440E0FF600419
:101C080090043FF090043FE06003021D1C7F8012A7
:101C180053C47BFF7A3179F21228F57F101253D81A
:101C2800900472121483000001AA7F08123756909C
:101C38000440EFF06003021D0D7B017A0479417FB7
:101C48000512434C900440EFF07F101253F27F804E
:101C58001253E2900440E0604D7BFF7A3279011222
:101C680028F57BFF7A32790D900441E0900469F001
:101C78001228F5900440E0B48322A3E0B4051DE4E3
:101C880090043FF0781B76097BFF7A327917122887
:101C9800F57BFF7A3279351228F58078900440E098
:101CA80090043FF0806E7BFF7A3279011228F5E4C8
:101CB80090043EF090043EE0FFC3940550207BFF63
:101CC8007A32795874412FF582E43404F583E09030
:101CD8000469F01228F590043EE004F080D67F0DE8
:101CE80012528D7F0A12528D900445E064AA600654
:101CF8009004407483F0781B76027BFF7A32796017
:101D08001228F5800F7F101253F27F801253E27F62
:101D1800101253C490043FE06003021DD67F801266
:101D280053C47BFF7A32797E1228F57F101253D87C
:101D3800900472121483000000007F3A1237569004
:101D48000440EFF0706E7B017A0479417F051243FD
:101D58004C900440EFF07F101253F27F801253E250
:101D68007BFF7A3279011228F5E490043EF0900462
:101D78003EE0FFC3940550207BFF7A3279587441C6
:101D88002FF582E43404F583E0900469F01228F515
:101D980090043EE004F080D67F0D12528D7F0A1227
:101DA800528D900443E054FC64FC60179004407426
:101DB80085F0800F7F101253F27F801253E27F105C
:101DC8001253C4900440E0FF600490043FF0900474
:101DD8003FE06003021F0C781BE6B4020C90044A33
:101DE80012148340000000800A90044A12148300F1
:101DF80000000090044E121483000000007F20129F
:101E080053C47BFF7A32798E1228F57F101253D88B
:101E1800900472121483000000007F371237569026
:101E28000440EFF07008124344900440EFF090042F
:101E380041E0FF64016003EF701E90044AE0FCA3D8
:101E4800E0FDA3E0FEA3E0FF90047212145E7F2978
:101E5800123756900440EFF0900440E070031243AC
:101E6800447F101253F290044EE0FCA3E0FDA3E07F
:101E7800FEA3E02401FFE43EFEE43DFDE43CFC90CB
:101E8800044E12145EE4FFFEFDFC90044EE0F8A33D
:101E9800E0F9A3E0FAA3E0FBC31213247006900450
:101EA800407481F0900441E030E009900440E07013
:101EB80003021E13900440E070187F201253E27B47
:101EC800FF7A3179DE900441E0900469F01228F538
:101ED800800A7F801253E27F101253C47BFF7A324C
:101EE800799F90044EE0FCA3E0FDA3E0FEA3E0FF91
:101EF80090046912145E1228F5900440E0FF600413
:101F080090043FF090043FE0600302204F781BE606
:101F18006402600302204F7F801253C47BFF7A3231
:101F2800797E1228F57F101253D890047212148308
:101F3800000000007F3A123756900440EFF060032B
:101F48000220327B017A0479417F0512434C9004C8
:101F580040EFF07F101253F27F801253E27BFF7A3A
:101F68003279011228F5E490043EF090043EE0FF37
:101F7800C3940550207BFF7A32795874412FF5823B
:101F8800E43404F583E0900469F01228F590043EE7
:101F9800E004F080D67F0D12528D7F0A12528D9088
:101FA8000442E0FF20E7099004407486F0022041D3
:101FB800EF54C0FFBFC00FE4781BF67BFF7A32797D
:101FC800B01228F58073781B76097BFF7A3279CEB8
:101FD8001228F57F801253C47BFF7A3279F01228D9
:101FE800F57F101253D89004721214830000020077
:101FF8007F10123756900440EFF0703D1243449022
:102008000440EFF07F101253F27F801253E27BFFFF
:102018007A337900900441E0900469F01228F57B46
:10202800FF7A3379151228F5800F7F101253F27F4B
:10203800801253E27F101253C4900440E0FF6007FF
:1020480090043FF0124C9F90043FE0FF6003124C55
:062058009F90043FE0FF31
:01205E00225F
:0553D300781BE6FF223B
:104C9F00900452EFF0E0B481097BFF7A337933024D
:104CAF0028F5900452E0B482097BFF7A33794402ED
:104CBF0028F5900452E0B483097BFF7A33795602CA
:104CCF0028F5900452E0B484097BFF7A33796502AA
:104CDF0028F5900452E0B485097BFF7A3379760288
:104CEF0028F5900452E0B486097BFF7A33798B0262
:104CFF0028F5900452E0B487097BFF7A33799C0240
:0C4D0F0028F57BFF7A3379B11228F522D9
:064E670090046612145EC7
:104E6D001253D390046FEFF07F101253D890046655
:104E7D00E0FCA3E0FDA3E0FEA3E0FF90046FE0F9EA
:104E8D00F812134890047212145E7F111237569067
:104E9D000470EFF0701490046AE0FEA3E0FFA3E04D
:104EAD00FBA3E0FAA3E0F9123BCF7F101253F2906F
:0A4EBD000470E060037F01227F0013
:014EC70022C8
:0D538100EE5401FE8F82F583120FFFFF2214
:10502600900466EEF0A3EFF0A3EBF0A3EAF0A3E999
:01503600F089
:10503700900466E05401FEA3E0FF900466EEF0A33F
:10504700EFF0FFE4FDFC8F828E83A3120FFFFD7D3F
:1050570000FC900466E0FEA3E0F5828E83120FFF4A
:06506700FFECEFFDAE04BA
:01506D002220
:10474F00900466EEF0A3EFF0A3EBF0A3EAF0A3E979
:01475F00F069
:10476000900466E05401F0A3E0F090046B1214830F
:1047700000000000E4900470F0900470E0FFC39427
:1047800004506DC374039FFFE49400FE900467E03F
:104790002FFF900466E03EFE900468E0FBA3E0FA81
:1047A000A3E0F98F828E83120FFF90046FF09004C4
:1047B0006BE0FCA3E0FDA3E0FEA3E0FF780812138A
:1047C0004890046B12145E90046BE0F8A3E0F9A328
:1047D000E0FAA3E0FBA3E0FFE4EB4FFFEAFEE9FD14
:1047E000E8FC90046B12145E900470E004F0808981
:0E47F00090046BE0FCA3E0FDA3E0FEA3E0FF5D
:0147FE002298
:064EC80090042812145EA4
:104ECE001253D3900431EFF07F101253D890042870
:104EDE00E0FCA3E0FDA3E0FEA3E0FF900431E0F9C7
:104EEE00F812134890043412145E7F111238D990C0
:104EFE000432EFF0701490042CE0FEA3E0FFA3E068
:104F0E00FBA3E0FAA3E0F9123A5C7F101253F29081
:0A4F1E000432E060037F01227F00EF
:014F28002266
:0D538E00EE5401FE8F82F583120FFFFF2207
:10506E0090040FEEF0A3EFF0A3EBF0A3EAF0A3E9A8
:01507E00F041
:10507F0090040FE05401FEA3E0FF90040FEEF0A3A5
:10508F00EFF0FFE4FDFC8F828E83A3120FFFFD7DF7
:10509F0000FC90040FE0FEA3E0F5828E83120FFF59
:0650AF00FFECEFFDAE0472
:0150B50022D8
:1047FF0090040FEEF0A3EFF0A3EBF0A3EAF0A3E920
:01480F00F0B8
:1048100090040FE05401F0A3E0F09004141214830C
:1048200000000000E4900419F0900419E0FFC39424
:1048300004506DC374039FFFE49400FE900410E0E5
:104840002FFF90040FE03EFE900411E0FBA3E0FA7E
:10485000A3E0F98F828E83120FFF900418F090046A
:1048600014E0FCA3E0FDA3E0FEA3E0FF7808121330
:104870004890041412145E900414E0F8A3E0F9A325
:10488000E0FAA3E0FBA3E0FFE4EB4FFFEAFEE9FD63
:10489000E8FC90041412145E900419E004F080897E
:0E48A000900414E0FCA3E0FDA3E0FEA3E0FF03
:0148AE0022E7
:10495000E490043EF0AB07AA06A905A804FF7E4038
:104960007D197C01121292EFD39402500575C37029
:10497000806CEFD39402400BEFD39404500575C3C1
:1049800071805BEFD39404400BEFD394085005750E
:10499000C372804AEFD39408400BEFD394105005B4
:1049A00075C3738039EFD39410400BEFD39420502C
:1049B0000575C3F08028EFD39420400BEFD39440CB
:1049C000500575C3F18017EFD39440400BEFD3949B
:1049D00080500575C3F2800690043E740FF0900479
:0349E0003EE0FFB7
:0149E30022B1
:1051D000E4FE8FC5AFC40EEF54F07003EE70F5EE31
:1051E0006017EF54707009E5C5121081E4FE80105D
:1051F00074FF121081E4FE800774FF1210817E801C
:02520000AF06F7
:015202002289
:0453F200EF429022D4
:0553D800EFF4529022E9
:1052B4005389F0438901C2A9758CF4758A3DC28D66
:1052C400D28C308DFDC28CEF1F70011ED3EF940081
:0652D400EE940050E322FD
:10519B0053873F438780C2AC759852E4F59BFCFD67
:1051AB007BC0FAF9F8121207A804A905AA06AB07E7
:1051BB00E4FFFE7D2F7C0D121292EFF404F59A752D
:0551CB009B1ED2992299
:1052DA00E4FDFC0DBD00010C209904ED4C70F4EDC9
:0F52EA004C60088F99AE07C29980027EF1AF0623
:0152F9002292
:0A539B002098037F0022AF99C2980A
:0153A50022E5
:104F8600900400EBF0A3EAF0A3E9F0900400E0A39C
:104F9600E0FAA3E09004A5F02404F9E43AAF019006
:104FA60004A1EFF09004ABF0900403E0A3E0FAA3B1
:104FB600E09004A9F02402F9E43AA3E9F09004068B
:104FC600E0A3E0FAA3E09004A7F02401F9E43AA3F1
:034FD600E9F022DD
:0648AF007B017A00790094
:1048B500900404EBF0A3EAF0A3E9F09004A1E0F87A
:1048C5001213E9E4FBFAF9F8C312132470139004E8
:1048D500ABE0F81213E9124B029004A5E0F81214AC
:1048E500529004A1E0F81213E99004A5E0F8121320
:1048F500F5EB2FFFEA3EFEE93DFDE83CFC9004A206
:10490500E0FBA3E0FAA3E0F990000412114BFB9041
:10491500042CE5F0F0A3EBF0900404E0F9A3E0FA31
:10492500A3E090042EC9F0A3EAF0A3E9F0124EC863
:104935009004A1E0FBF81213E9EF2401FFE43EFE29
:0B494500E43DFDE43CFCA8030214521A
:104E050090040012145E9004A67403F0A3E0F8E485
:104E1500F6A3E0F87601A3E0F8E4F608F6A3E0F8D7
:104E2500E4F608F6900400E0FCA3E0FDA3E0FEA391
:104E3500E0FF124A749004A5E0F81214529004A100
:104E4500E0F812146A00000000900400E0FCA3E002
:104E5500FDA3E0FEA3E0FF9004ABE0F812145202BC
:024E650048AF54
:0B49E400900400EBF0A3EAF0A3E9F060
:1049EF007F081253E6900403E0FBA3E0FAA3E0F97B
:1049FF00121120FFAEF0C3EE94025033209230908C
:104A0F000400E0FBA3E0FAA3E0F98F828E83120F7C
:104A1F00FFFF7B017A0479091251D0900403E0FB68
:104A2F00A3E0FAA3E0F9E475F00112118380B67FD9
:104A3F00081253C9900403E0FBA3E0FAA3E0F912B4
:104A4F001120B4001DE5F0B40218E4F5F01211BB0B
:104A5F00900406E0FBA3E0FAA3E0F97401121081C1
:044A6F00FF227F00A3
:014A73002220
:102F37009004A6E0B4090040030231A4902F4AF898
:102F4700282873022F65022FB8022FCC0230020205
:102F5700307B0230CE0230E202312802319F7F01FE
:102F67001250B69004ABE0F81213E9900404740011
:102F7700F0A37400F01235909004ABE0FBF8121444
:102F870052A8031213E974FFFBFAF9780FC312135F
:102F97002460159004A1E0F812146A000000009064
:102FA70004A67405F00231A49004A67408F0023157
:102FB700A47F021250B63092030231A49004A67483
:102FC70003F00231A47F031250B69004A2E0FBA3E2
:102FD700E0FAA3E0F9120FE6FF9004A1E0B50708B5
:102FE700E49004A6F00231A41248AF9004A7E0F8D9
:102FF700E4F69004A67405F00231A47F041250B6DB
:1030070020922B9004A7E0FFF8E670229004A9E035
:10301700F9900403E4F0A3F0A3E9F0A907A3E4F00F
:10302700A3F0A3E9F07B017A0079001249E430921A
:103037000A9004A8E0F8E6640160119004A7E0F89C
:10304700E6FFB40110A3E0F8E6B401099004A67402
:1030570006F00231A4EFB4010C2092099004A67483
:1030670007F00231A42092030231A49004A6740150
:10307700F00231A47F051250B69004ABE0F81213AA
:10308700E99004047402F0A37400F01235909004E0
:10309700ABE0FBF8121452A8031213E974FFFBFA12
:1030A700F9780FC312132460159004A1E0F81214E5
:1030B7006A000000009004A67401F00231A4900495
:1030C700A67408F00231A47F061250B630920302AC
:1030D70031A49004A67407F00231A47F071250B6FA
:1030E7009004A2E0FBA3E0FAA3E0F9120FE6FFE4E5
:1030F700FCFDFE9004A1E0F81213F5C3121324702F
:10310700099004A67404F00231A47B017A027900C5
:103117001248B59004A8E0F8E4F69004A604F080FD
:103127007C7F081250B620922B9004A8E0FFF8E6A7
:1031370070229004AAE0F9900403E4F0A3F0A3E955
:10314700F0A907A3E4F0A3F0A3E9F07B017A0279E1
:10315700001249E430920A9004A7E0F8E66401609F
:10316700109004A7E0F8E6B4010FA3E0F8E6B40175
:10317700089004A67402F080249004A8E0F8E6B44E
:10318700010B2092089004A67403F0801030920D72
:103197009004A67405F080057F091250B69004A626
:0A31A700E0B408037F01227F00223C
:053EA800900456EFF04C
:103EAD00D290D291E4900461F090045BE075F0083B
:103EBD00A4F0A3E004F0209103023FDB2090030265
:103ECD003FDB12536E900456E0FF25E0900460F046
:103EDD0054FEF0C2909004627408F07F0112531FDB
:103EED00C291900462E014F0E0FF900460E0FEA83F
:103EFD0007088002C313D8FC5401900463125318B1
:103F0D00D2913091FDA290E433900464F09004635B
:103F1D00E0FFA3E06F60069004617481F09004628D
:103F2D00E0D394004006900461E060AF900461E03E
:103F3D0070697F0112531FC291D29090045BE060B3
:103F4D001F24F8F0900457E0FCA3E0FDA3E0FEA3CE
:103F5D00E0FFA3E0F9F8121335900460EFF0802034
:103F6D0090045CE014F0A3E0FBA3E0FAA3E0F912E7
:103F7D000FE6900460F090045EE475F00112110AF2
:103F8D007F0112531FD2913091FDA290E433900422
:103F9D0064F0E060069004617482F090045CE0606F
:103FAD0009900461E07003023EE2900461E06481D7
:103FBD0060227F0112531FC291C2907F0112531FC5
:103FCD00D2913091FD7F0212531FD2908006900442
:093FDD00617481F0900461E0FFC1
:013FE60022B8
:0533BF00900446EFF050
:1033C400E4900451F090044BE0FB603E900447E02D
:1033D400FCA3E0FDA3E0FEA3E0FF90045712145EFB
:1033E40090045BEBF0E4A3F090044DE0F9A3E0FA61
:1033F400A3E090045DC9F0A3EAF0A3E9F0900446C9
:10340400E0FF123EA8900451EFF0900451E06003F5
:1034140002358AD290D29120910302358420900300
:1034240002358412536E900446E0FF25E090045068
:10343400F04401F0C2909004527408F07F011253DA
:103444001FC291900452E014F0E0FF900450E0FE9B
:10345400A807088002C313D8FC54019004531253E4
:1034640018D2913091FDA290E433900454F090046A
:1034740053E0FFA3E06F60069004517481F0900460
:1034840052E0D394004006900451E060AF900451A0
:10349400E070247F0112531FC291D2907F01125316
:1034A4001FD2913091FDA290E433900454F0E06077
:1034B400069004517482F090044CE0D394005003BD
:1034C400023560900451E06003023560A37408F093
:1034D4007F0112531FC291900452E014F0D29090D5
:1034E4000455E0FF25E0F07F0112531FD291309183
:1034F400FDA290E433900454F0A3E0FF900454E060
:10350400FEEF4EA3F0900452E0D3940050C2900416
:1035140055E0FF90044DE0FBA3E0FAA3E0F9EF12BD
:10352400108190044EE475F00112110A90044CE0ED
:10353400B401089004537401F08005E4900453F03E
:103544007F0112531FC291900453E0125319D29178
:103554003091FD90044CE014F00234BB900451E02F
:10356400648160227F0112531FC291C2907F0112B5
:10357400531FD2913091FD7F0212531FD2908006C7
:0B3584009004517481F0900451E0FFAE
:01358F002219
:10536E005389F0438901C2A9758CFF758AC3C28D1A
:03537E00D28C22AC
:07531800F024FF92907F01D9
:10531F00308C03308DFDC28CEFB4010A758CFF7594
:07532F008AC3C28DD28C225B
:103FE7004F75747075742066726F6D204944207226
:103FF700656769737465723A2025322E32625820DC
:104007000A0D0053544130313320536F667456659F
:104017007273696F6E3A2025322E326258200A0D6C
:10402700002E000A466972737420636F6E666967B3
:1040370075726174696F6E2066696C652073656E51
:10404700742E2E2E0A004E756D626572206F6620E3
:1040570076616C756573207772697474656E3A2042
:104067002564200A000A5365636F6E6420636F6ED0
:1040770066696775726174696F6E2066696C652021
:1040870073656E742E2E2E0A0053656E7420746F3E
:10409700205354413031333A2025322E3262582092
:1040A7002025322E326258200A0D004F7574707524
:1040B700742066726F6D2072656769737465723AF2
:1040C7002025322E326258202025322E3262582087
:1040D70025322E326258200A0D00436F6E666967DB
:1040E70075726174696F6E20436F6D706C6574656E
:1040F7000A0D005455060B525165645061050D18A1
:104107000C4648720007100902B80000000605A116
:074117000004050C0C01007F
:0553DD00EFF452B022C4
:0453F600EF42B022B0
:102492007F081253DD7815760190043F7432F012F2
:1024A20053F690044712148300000000E490044B9A
:1024B200F0A37403F0A3E4F0A37400F0A37418F083
:1024C2007F431233BF90043EEFF0A3E014F0EF60BD
:1024D20003E070CE90043FE060107BFF7A3F79E723
:1024E200781AE6900469F01228F5900447121483D2
:1024F2000000000190044B7401F0A3F07B00A314D0
:10250200F0A37400F0A37418F07F431233BF900459
:102512003EEFF0A3E014F0EF6003E070CD90043FD3
:10252200E060107BFF7A3F79E77818E6900469F063
:102532001228F57818E664AC6003022884900447F8
:102542001214830000007190044B7401F0A3F07B1D
:1025520000A314F0A37400F0A37418F07F431233A5
:10256200BF90043EEFF07BFF7A40790A7818E6903C
:102572000469F01228F5E4900444F0A3F0900441B9
:1025820074FFF0A37400F0A37416F0900441E0FB12
:10259200A3E0FAA3E0F9A3E0FEA3E0F5828E8312A2
:1025A2000FFF900440F0900445E004F070069004A0
:1025B20044E004F0900444E0FEA3E0F5828E83122E
:1025C2000FFF7815F6900445E004F070069004447D
:1025D200E004F0900445E0543F70097BFF7A4079B3
:1025E200281228F5900440E0F4604790043F7432CA
:1025F200F0900440E0FFE4FCFDFE90045712145EEC
:1026020090045B7401F0A3F07B00A314F0A37400A8
:10261200F0A37415F07F43123EA890043EEFF0A39E
:10262200E014F0E0FF7002C2A790043EE06003EF06
:1026320070BF900440E0F4600990043FE060030240
:10264200258D7BFF7A40792A1228F57BFF7A407923
:102652004D900444E0C313900469F0900445E013E4
:1026620090046AF01228F5E4900444F0A3F0900478
:102672004174FFF0A3740FF0A374B4F0900441E02E
:10268200FBA3E0FAA3E0F9A3E0FEA3E0F5828E83C8
:10269200120FFF900440F0900445E004F0700690A1
:1026A2000444E004F0900444E0FEA3E0F5828E834B
:1026B200120FFF7815F6900445E004F070069004BE
:1026C20044E004F0900445E0540770097BFF7A402F
:1026D20079281228F5900440E0F4604790043F7492
:1026E20032F0900440E0FFE4FCFDFE900457121427
:1026F2005E90045B7401F0A3F07B00A314F0A3745A
:1027020000F0A37415F07F43123EA890043EEFF050
:10271200A3E014F0E0FF7002C2A790043EE0600361
:10272200EF70BF900440E0F4600990043FE0600362
:1027320002267E7BFF7A40796C1228F57BFF7A4075
:10274200794D900444E0C313900469F0900445E08D
:102752001390046AF01228F59004471214830000C3
:10276200007190044B7401F0A3F07B00A314F0A35A
:102772007400F0A37418F07F431233BF90043EEF4D
:10278200F07BFF7A40790A7818E6900469F0122803
:10279200F5E4900444F0A3F0900445E0FF9040FA81
:1027A20093900440F0EF90410C937815F690043F1B
:1027B2007432F0900440E0FFE4FCFDFE90045712F6
:1027C200145E90045B7401F0A3F07B00A314F0A3E9
:1027D2007400F0A37415F07F43123EA890043EEFFC
:1027E200F0A3E014F0E0FF7002C2A790043EE060A4
:1027F20003EF70BF7BFF7A407990900440E0900431
:1028020069F07815E6A3F01228F5900445E09040AF
:10281200FA93FF900440F0E4FCFDFE90044712148A
:102822005E90044B7401F0A3F07B00A314F0A37438
:1028320000F0A37418F07F431233BF90043EEFF010
:102842007BFF7A4079B2900440E0900469F07818F6
:10285200E6A3F0A3EFF01228F5900445E004F0702F
:1028620006900444E004F0C3900445E094119004FF
:1028720044E09400500302279A7BFF7A4079E112E8
:0728820028F590043EE0FF81
:01288900222C
:100016003A012A042800290020002100220023009A
:10002600240025002600270028012802218F280306
:100036002100280428052806280728082809280A50
:10004600280B280C20802190280D20002100280E46
:1000560020812191280F20002192281021002811AB
:1000660021932812210028132814281520822816E7
:1000760020002817281828192194281A2195281BAA
:100086002196281C2100281D2083281E2000281FB9
:1000960021972820210028212822282328242825C2
:1000A6002826282728282829282A2084282B2000A3
:1000B600282C282D282E282F283028312832208534
:1000C6002833200028342835283628372198283820
:1000D60021002839283A283B283C283D283E283F3D
:1000E60028402841284228432844284528462847AE
:1000F60028482849284A284B284C284D284E284F5E
:10010600285028512852285328542855285628570D
:1001160028582859285A285B285C285D285E285FBD
:1001260028602861286221992863210028642865AF
:100136002866286728682869286A286B286C286D2D
:10014600286E286F287028712872287328742875DD
:100156002876287728782879287A287B287C287D8D
:10016600287E287F2880288128822883288428853D
:100176002886288728882889288A288B288C288DED
:10018600288E288F289028912086289220872893C9
:100196002000289428952896289728982899289A00
:1001A600289B289C289D289E289F219A28A02100CC
:1001B60028A128A228A328A428A528A628A728A8D5
:1001C60028A928AA28AB28AC28AD28AE28AF28B085
:1001D60028B128B228B328B428B528B628B728B835
:1001E60028B9208828BA200028BB208928BC2000EE
:1001F60028BD28BE28BF28C028C128C228C3219BE5
:1002060028C4210028C528C628C728C828C928CA3E
:1002160028CB28CC28CD28CE28CF28D028D128D224
:1002260028D328D428D528D628D728D828D928DAD4
:1002360028DB28DC28DD28DE28DF28E028E1208AE4
:1002460028E2208B28E3200028E428E528E628E792
:1002560028E828E928EA28EB28EC28ED28EE28EFFC
:1002660028F028F128F228F328F428F528F628F7AC
:1002760028F8208C28F92000219C28FA219D28FBAB
:10028600208D219E28FC208E219F28FD2000210004
:1002960028FE28FF2A012800220123952489250704
:1002A60026A42707280121C72200238026C4270C5D
:1002B60028022009211C220426AA270A2803200036
:1002C6002100220023A626A02707280428052005AA
:1002D600238426B42709280620002203230024812C
:1002E60025C026AB270A280721AE2200239524899C
:1002F600250726A42700280821482201238026C492
:10030600270C280920092104220426AA270A280ADC
:1003160020002100220023A826A42707280B280C4A
:1003260021402220238026C4270C280D222426C6FD
:10033600280E219E220026C8280F200921022214F9
:1003460026AA270A2810200521002200238426B485
:1003560027092811200021012300240125C026ABEE
:10036600270A281221C3239524892507262027003A
:100376002813200321C223832626270D281421B300
:0E03860022082815200021C6220023952600FB
:1003940027082816210023002496250326AA270AC5
:1003A4002817204221B623802489250728182000F5
:1003B40021002394260E2819200F238426B427090C
:1003C400281A2000239326A82703281B2628270061
:1003D400281C21012300240125C026AB270A281D3F
:1003E40021C523952489250726202700281E2100BE
:1003F40023942600270A281F260E2820200321796B
:10040400220123832626270D282121322822200099
:10041400210422002380240025FC26AA270A28235D
:10042400210023002500282421A3220D2380249EBB
:10043400253B2825204221572201248925072826E7
:1004440020002143220D2400253828272108229842
:100454002395248925072624270028282042219330
:100464002201238026AA270A28292003217E220488
:1004740023832626270D282A200021B02200239535
:1004840026A02707282B21002300240C250426AAB4
:10049400270A282C21022380248625C326AB282D55
:1004A4002042219722012489250726AA282E2000EC
:1004B40021002200241F2504282F21B223952489FA
:1004C40025072620270428302042218B220423805C
:1004D40026AA270A2831200021B12200239526A02C
:1004E4002707283220032175220423832626270D7B
:1004F4002833200521002200238426B42709283428
:10050400200021602300240125C026AB270A2835BA
:100514002108229823952489250726242700283694
:1005240021BC2200283721A3220D2300240125C049
:1005340026AB270A2838216022002380240025388E
:1005440026AA2839210622982395248925072624BA
:100554002700283A21BE2200283B200521002384BD
:1005640026B42709283C200021602300240125C04B
:1005740026AB270A283D21422201239524892507F9
:1005840026242700283E210C229826A42707283F4A
:1005940021082840216022002300240125C026AB25
:1005A400270A2841210C22982395248925072624EB
:1005B40027002842200521002200238426B427098D
:1005C4002843200023802400251026AB270A284432
:1005D4002122220123952489250726242700284542
:1005E4002100220023002404251226AA270A2846D3
:1005F400200321D422052383248925072626270DB9
:1006040028472000216022002300240125C026ABB6
:10061400270A284821B3239524892507260027087B
:100624002849210023002409250026AA270A284A4C
:10063400210223802486253B284B204221DD2205EC
:1006440024892507284C200021002200241F25008E
:10065400284D21B323952489250726202700284ED9
:10066400210023002497250326AA270A284F204285
:1006740021E2220523802489250728502000211007
:1006840022002300248025CC26AB285121002240BF
:1006940023B42489250726AA27042852220023B03C
:1006A400269227092853211422012395260027087E
:1006B4002854214823A4262A270028552100220053
:1006C40023002409250026AA270A28562108238066
:1006D4002486253B285720422111220724892507F7
:1006E4002858200021002200241F25002859211405
:1006F400220123952489250726202700285A21161C
:0E07040026022709285B210022002300248002
:10071200254826AA270A285C23A02489250726140F
:100722002709285D2480255026A42704285E211647
:1007320022012395248925072700285F210422000E
:100742002300249C257826AA270A28602143220D0B
:10075200240125C426AB2861210322002415286226
:1007620021002400250026AA2863215E23952489DE
:10077200250726102709286421032300241525C4F0
:1007820026AB270A2865210023802400250626AAF5
:100792002866248F25E326AB2867204221CD220735
:1007A2002489250726AA2868200021602200230028
:1007B200240125C026AB286921002380248F25032C
:1007C20026AA286A204221DD220724892507286BD0
:1007D20020002143220D2300240125C026AB286CD2
:1007E200210022002400250426AA286D2003217F4F
:1007F20022012383248925072626270D286E2162BC
:10080200286F200521002200238426B4270928709E
:1008120020002106239526002708287121012300A4
:100822002497253B26AA270A28722042210E220855
:1008320023802489250728732003213C220B23834C
:100842002626270D28742000210322002395260244
:100852002708287521272300248125C426AB270ACF
:100862002876210023802409254826AA28772158A2
:10087200223423A324892507262A27002878210049
:10088200220023A026002709287921072380240398
:10089200253926AA270A287A21042300241C253870
:1008A200287B2107238024832539287C2103239553
:1008B2002489250726022708287D21272300248151
:1008C20025C426AB270A287E210023802409254837
:1008D20026AA287F2158223423A324892507262AE1
:1008E20027002880210622002300248125C0269388
:1008F20027012881210023802489254826AA270A46
:1009020028822002216622082300240025662883EB
:100912002000210022002380241F25022884210692
:100922002489250726DC270C2885210023AA26AA4C
:10093200270A288623B626002708288723802486AC
:10094200253B26AA270A288821052489250726DC93
:10095200270C2889210023AA26AA270A288A23B637
:1009620026002708288B23802486253B26AA270ACF
:10097200288C2042217B220824892507288D2000EB
:1009820021002200230024012582288E21052481B2
:1009920025C226AB288F2003219322082383248992
:1009A20025072626270D2890200021052200230056
:1009B200248125C026132701289121002380248920
:1009C200254826AA270A28922002217E22082300EF
:1009D2002400256628932000210022002380241F62
:1009E2002502289421052489250726DC270C289531
:1009F200210023AA26AA270A289623B6260027081A
:100A0200289723802486253B26AA270A2898210591
:100A12002489250726DC270C2899210023AA26AA47
:100A2200270A289A2380241F2502289B21012300BC
:100A3200248125C226AB289C2003219322082383EC
:100A4200248925072626270D289D2000210422001F
:100A5200239526122708289E216023C426AA27044C
:100A6200289F210023C02600270928A0204221CB4D
:100A72002208238026AA270A28A12070215422B8FE
:0E0A820023952612270828A2200221CC220844
:100A9000238026AA270A28A3200321CA220F238302
:100AA0002626270D28A42000210022002300248CC4
:100AB000250C26AA270A28A521042482257828A601
:100AC00021002380248925482612270428A72003F3
:100AD00021DE220F238325072626270D28A82000A4
:100AE000210122002300249C257826AA270A28A970
:100AF000210023802481254028AA200321CF220F12
:100B00002383248925072626270D28AB207021085A
:100B100022B8239526A0270428AC200321D4220F35
:100B200023832626270D28AD2127220B28AE2070EF
:100B3000216322B823952612270828AF200021011F
:100B400022002380248625CB26AB270A28B020420A
:100B500021DD22082489250726AA28B12000211892
:100B60002280239526A4270028B2200321D9220F12
:100B700023832626270D28B32070210A22B8239527
:100B800026A0270028B4200221E02208238026AADC
:100B9000270A28B52070210A22B8239526A027000D
:100BA00028B621542602270828B7200021182280C1
:100BB00026A4270028B8210022002380248025486D
:100BC00026AA270A28B92070215E22B823952489F5
:100BD00025072612270828BA20002100220023809A
:100BE0002409254B26AA270A28BB2070215F22B89A
:100BF0002395248925072610270828BC20002100DA
:100C000022002300241C258326AB270A28BD2003AD
:100C1000213222092383248925072626270D28BE71
:100C200020002100220023002482258C26AB270AE5
:100C300028BF20032125220923832489250726266E
:100C4000270D28C0204221BC238026AA270A28C1BC
:100C50002000210122002300240125C026AB28C248
:100C60002070210F22B823952489250726202700EC
:100C700028C3200321E3220F23832626270D28C41F
:100C8000200521002200238426B4270928C520003E
:100C9000210323952614270828C621A623A4262A43
:100CA000270528C7210023A02644270928C8211882
:100CB000226D2380249E257B26AA270A28C920424C
:100CC0002113220B2489250728CA200021AE2200E7
:100CD00023952624270028CB210022032380248764
:100CE000257B26AA270A28CC20422116220B2489FC
:100CF000250728CD200021AE220023952624270099
:100D000028CE20052100238426B4270928CF2003DC
:100D1000210D220B23832626270D28D02000210019
:100D20002200230024802602270028D123802409C2
:100D30002548261E28D22158223423332480250713
:100D4000262A28D32100220023002680271028D419
:100D500021102363262A270028D52100236026A8F6
:100D6000271228D621AF224C230026C8270C28D7CB
:100D7000210022002680270528D823802486253BB1
:100D8000261E270028D92042211C220E2300248061
:100D9000250728DA20002135222926C4270C28DB44
:100DA0002002211D220E261E270028DC2000217F84
:100DB000223426C4270C28DD210022002390249F02
:100DC00025042610270A28DE2300248425002680F7
:100DD000271028DF2106236324802507262A2700E1
:100DE00028E021002380248926AA270A28E120055B
:100DF000238426B4270928E22070216122B8239594
:0E0E00002612270828E320002101220023806B
:100E0E00248625C326AB270A28E4204221CE220FB2
:100E1E002489250726AA28E52070215022B823957B
:100E2E002612270828E6200521002200238426B456
:100E3E00270928E72070216422B823952612270857
:100E4E0028E82000210122002380248625C326AB1A
:100E5E00270A28E9204221D3220F2489250726AA12
:100E6E0028EA2070215122B823952612270828EB54
:100E7E00200521002200238426B4270928EC2070A7
:100E8E00216522B823952612270828ED200021017E
:100E9E0022002380248625C326AB270A28EE204273
:100EAE0021D8220F2489250726AA28EF2070215247
:100EBE0022B823952612270828F0200521002200AB
:100ECE00238426B4270928F12070216122B82395A6
:100EDE002602270828F220002101220023802486E2
:100EEE0025C326AB270A28F3204221DD220F2489B1
:100EFE00250726AA28F42070215022B82395260211
:100F0E00270828F5200521002200238426B427096E
:100F1E0028F6200021012380248625CB26AB270A24
:100F2E0028F7204221E1220F2489250726AA28F836
:100F3E002000210222002300248125C426AB28F99B
:100F4E00210023802489254826AA28FA20052384F7
:100F5E00250726B4270928FB2070214E22B8239599
:100F6E002610270828FC200021002200238024863A
:100F7E0025C326AB270A28FD204221E7220F24890C
:100F8E00250726AA28FE200021BB22002395262015
:100F9E00270028FF20052100238426B427092A08CC
:100FAE001001FFFFFFFF3A00643A65BB083A09BB28
:100FBE0050105267517705A11804540155210700AE
:100FCE00060C0B03501051005204610F6455655509
:080FDE0005A11804FFFFFFFF4D
:0800070041049600C109C10A81
:104D90001253BD90000612137B90049712145E907C
:104DA0000497E0FCA3E0FDA3E0FEA3E0FF1244FBB8
:104DB000900403E4F0A37400F0A37432F0A3E4F0D1
:104DC000A37400F0A37438F07B007A0079221252A9
:104DD000FA900403E4F0A37400F0A37432F0A3E4A7
:104DE000F0A37400F0A37438F07B007A00792212EB
:104DF0004F86D20990049C12148300000000900496
:054E00009B7401F0228B
:1050F1007F011250B612539B9004A0EFF06006900E
:10510100049B7403F030090690049B7404F0300A88
:105111000690049B7405F01253A6D3EF9400EE940D
:0A51210000400690049B7402F02287
:1045CD007F021250B69004A0E0640D705B90048ED3
:1045DD00E0FEA3E0FFE4FCFD90049CE0F8A3E0F90D
:1045ED00A3E0FAA3E0FBD3121324502990049EE01C
:1045FD00FEA3E0FFC006C007900497E0FCA3E0FD1A
:10460D00A3E0FEA3E0FF90040212145ED007D006D3
:10461D00124246D20AE4900496F090049B04F0A353
:10462D0012148300000000229004A0E0FFC3943018
:10463D00404FEFD3943950491252DAE47F0AFEFD10
:10464D00FC90049CE0F8A3E0F9A3E0FAA3E0FB12D0
:10465D001207A804A905AA06AB079004A0E024D070
:10466D00FFE434FFFEE4FCFDEB2FFFEA3EFEED39E7
:10467D00FDEC38FC90049C12145E90049B7401F0C8
:08468D002290049B7401F0224D
:104FD9007F031250B61253B6900490E0FEA3E02965
:104FE900F9EA3EFA120FE6FF1252DA900491E00450
:104FF900F07006900490E004F01253A6D390049147
:10500900E09F900490E09E400DE4FFFE1253AEE451
:0D501900900490F0A3F090049B7401F0222D
:105265007F041250B67B017A04798E122BEFBF02B0
:105275000EE4900490F0A3F090049B7402F022C217
:085285000990049B7402F02261
:104C1C007F051250B67B017A04799212205FBF0295
:104C2C000790049B7401F022C20A900492E0FCA34A
:104C3C00E0FDA3E0FEA3E0E4FFFEFDEC5410FC60FD
:104C4C004B90049B7401F0900492E0FCA3E0FDA354
:104C5C00E0FEA3E0FFEEEDEC540FFC900492121476
:104C6C005E900492E0FCA3E0FDA3E0FEA3E0FF1243
:104C7C004A7490049712145E900497E0FCA3E0FD34
:104C8C00A3E0FEA3E0FF1244FBD2092290049B7424
:034C9C0006F022FD
:105336007F061250B6900492E0FCA3E0FDA3E0FEC7
:0D534600A3E0FF124E0590049B7407F022B7
:105353007F071250B6122F37EF700790049B740724
:0B536300F022D20990049B7401F0229C
:0300130002520393
:10520300C0E0C0F0C083C082C0D075D008C2CF1246
:105213004D901250F11245CD124FD9125265124CD6
:105223001C125336125353D0D0D082D083D0F0D037
:02523300E03267
:10516300E490049BF0F5C8FCFDFEFB7A40791978C6
:1051730001121207E47B707A17F9F8121292C3E452
:105183009FFFE49EAD07FCEF7A00EAF5CB8FCAC21E
:07519300CFD2ADD2AFD2CAAA
:01519A0022F2
:03000000024B9020
:0C4B9000787FE4F6D8FD758153024BD706
:100FE600BB010689828A83E0225002E722BBFE0209
:090FF600E32289828A83E493223C
:100FFF00BB010CE58229F582E5833AF583E02250A7
:10100F0006E92582F8E622BBFE06E92582F8E222F0
:0D101F00E58229F582E5833AF583E493220A
:10102C00BB010989828A83F8E028F022500327F754
:10103C0022BBFE05F8E328F3228A838982F8E49325
:02104C00282258
:10104E00BB010FF8E58229F582E5833AF583E028A6
:10105E00F0225009C58229F8E58226F622BBFE0948
:10106E00C58229F8E22582F222F8EA2583F583E982
:03107E0093282292
:10108100BB010689828A83F0225002F722BBFE014E
:02109100F32248
:10109300F8BB010DE58229F582E5833AF583E8F093
:1010A300225006E92582C8F622BBFE05E92582C83F
:0210B300F22227
:1010B500BC000BBE0029EF8DF084FFADF022E4CC1F
:1010C500F875F008EF2FFFEE33FEEC33FCEE9DECE8
:1010D500984005FCEE9DFE0FD5F0E9E4CEFD22ED2E
:1010E500F8F5F0EE8420D21CFEADF075F008EF2F78
:1010F500FFED33FD4007985006D5F0F222C398FD69
:051105000FD5F0EA2205
:10110A00C5F0F8A3E028F0C5F0F8E5821582700270
:06111A001583E038F0220D
:10112000BB010A89828A83E0F5F0A3E0225006879A
:10113000F009E71922BBFE07E3F5F009E31922895C
:0B114000828A83E493F5F0740193228F
:10114B00BB0110E58229F582E5833AF583E0F5F0E2
:10115B00A3E0225009E92582F886F008E622BBFEBF
:10116B000AE92582F8E2F5F008E222E5832AF58305
:08117B00E993F5F0A3E99322CA
:10118300BB010789828A8302110A500B09C5F02724
:10119300F7C5F01937F722BBFE0D09F8E325F0F385
:1011A300C5F019E338F322F889828A837401932501
:0811B300F0C5F0F8E4933822C6
:1011BB00BB010A89828A83F0E5F0A3F0225006F77F
:0F11CB0009A7F01922BBFE06F3E5F009F319227C
:1011DA00F8BB0111E58229F582E5833AF583E8F047
:1011EA00E5F0A3F0225009E92582C8F608A6F02204
:0D11FA00BBFE09E92582C8F2E5F008F222EB
:10120700E88FF0A4CC8BF0A42CFCE98EF0A42CFC86
:101217008AF0EDA42CFCEA8EF0A4CDA8F08BF0A404
:101227002DCC3825F0FDE98FF0A42CCD35F0FCEB63
:101237008EF0A4FEA9F0EB8FF0A4CFC5F02ECD3928
:0F124700FEE43CFCEAA42DCE35F0FDE43CFC2295
:1012560075F008758200EF2FFFEE33FECD33CDCC4F
:1012660033CCC58233C5829BED9AEC99E5829840D2
:101276000CF582EE9BFEED9AFDEC99FC0FD5F0D6AF
:10128600E4CEFBE4CDFAE4CCF9A88222B800C1B9D9
:101296000059BA002DEC8BF084CFCECDFCE5F0CB17
:1012A600F97818EF2FFFEE33FEED33FDEC33FCEB50
:1012B60033FB10D703994004EB99FB0FD8E5E4F90B
:1012C600FA227818EF2FFFEE33FEED33FDEC33FCF8
:1012D600C933C910D7059BE99A4007EC9BFCE99AEC
:1012E600F90FD8E0E4C9FAE4CCFB2275F010EF2F31
:1012F600FFEE33FEED33FDCC33CCC833C810D70731
:101306009BEC9AE899400AED9BFDEC9AFCE899F86B
:0E1316000FD5F0DAE4CDFBE4CCFAE4C8F922FE
:10132400EB9FF5F0EA9E42F0E99D42F0E89C45F01F
:011334002296
:10133500E8600FECC313FCED13FDEE13FEEF13FF96
:03134500D8F122BA
:10134800E8600FEFC333FFEE33FEED33FDEC33FC03
:03135800D8F122A7
:10135B00BB010789828A830215765005E9F80213CF
:10136B00E9BBFE05E9F802158289828A8302158E94
:10137B00BB010DE58229F582E5833AF583021576EB
:10138B005007E92582F80213E9BBFE07E92582F82D
:10139B00021582E58229F582E5833AF58302158EE3
:1013AB00BB010789828A8302145E5005E9F8021497
:0A13BB0052BBFE05E9F80215C72237
:1013C500BB010DE58229F582E5833AF58302145EBA
:1013D5005007E92582F8021452BBFE07E92582F879
:0413E5000215C72204
:0C13E900E6FC08E6FD08E6FE08E6FF2230
:0D13F500E6FB08E6F908E6FA08E6CBF82268
:10140200BB010789828A8302159E5005E9F80213FF
:10141200F5BBFE05E9F80215AA89828A830215B78F
:10142200BB010DE58229F582E5833AF58302159E1B
:101432005007E92582F80213F5BBFE07E92582F879
:101442000215AAE58229F582E5833AF5830215B7EA
:0C145200ECF608EDF608EEF608EFF622C6
:0C145E00ECF0A3EDF0A3EEF0A3EFF02201
:10146A00D083D082E493F608740193F60874029349
:09147A00F608740393F674047380
:10148300A8828583F0D083D08212149A12149A1200
:10149300149A12149AE473E493A3C583C5F0C58325
:1014A300C8C582C8F0A3C583C5F0C583C8C582C8B3
:0114B3002216
:1014B400BB010789828A830214835005E9F8021468
:0A14C4006ABBFE05E9F80215D32209
:1014CE00BB011A89828A83D0F0D0E0F8D0E0F9D03F
:1014DE00E0FAD0E0FBE8C0E0C0F002160C5016E9CE
:1014EE00F8D083D082D0E0F9D0E0FAD0E0FBC08211
:1014FE00C0830215ECBBFE16E9F8D083D082D0E093
:0F150E00F9D0E0FAD0E0FBC082C08302161522AC
:10151D00BB0120E58229F582E5833AF583D0F0D031
:10152D00E0F8D0E0F9D0E0FAD0E0FBE8C0E0C0F0A0
:10153D0002160C5018E92582F8D083D082D0E0F93C
:10154D00D0E0FAD0E0FBC082C0830215ECBBFE18E0
:10155D00E92582F8D083D082D0E0F9D0E0FAD0E04E
:09156D00FBC082C08302161522A6
:10528D00EFB40A07740D125298740A309811A89948
:10529D00B8130CC2983098FDA899C298B811F63081
:0752AD0099FDC299F5992259
:10288A00E5102469F582E43404F583E0051022900A
:10289A000466300703900469E475F0011215F50225
:1028AA000FE62000E97F2ED2008018EF540F249003
:1028BA00D43440D4FF30040BEF24BFB41A005003C1
:1028CA002461FFE511600215110514E51470020573
:1028DA001330070E900466E475F0011215F5EF0245
:1028EA00108102528D7403D2078003E4C207F510E7
:1028FA0090046612160CE4F511F513F514E511604F
:10290A00077F201228CD80F57512FFC201C200C2CE
:10291A0002C203C205C206C208122899FF700D300E
:10292A0007057F001228DEAF14AE1322B4255FC25A
:10293A00D5C204122899FF24D0B40A00501A75F09F
:10294A000A781130D50508B6FF0106C6A426F62076
:10295A00D5047002D20380D924CFB41A00EF5004F0
:10296A00C2E5D204022ADFD20180C6D20080C0D2D8
:10297A000280BCD2D580BAD20580B47F201228CD7D
:10298A002002077401B5110040F112288AFF1228AB
:10299A00CD022907D208D206809512288AFB12286E
:1029AA008AFA12288AF94A4B700679B07A2B7BFF89
:1029BA0020022EE511602A7E008E82758300120F96
:1029CA00FF60060EEE651270F0C2D5EBC0E0EAC0F9
:1029DA00E0E9C0E0EE122B26D0E0F9D0E0FAD0E030
:1029EA00FB120FE6FF60AAEBC0E0EAC0E0E9C0E034
:1029FA001228CDD0E02401F9D0E03400FAD0E0FB6F
:102A0A00E5120460DCD512D980877BFF7A2B792204
:102A1A00D202809C791080027908C206C208800816
:102A2A00D2D5790A8004790AC2D5E512047002F572
:102A3A0012E4FAFDFEFF12288AFC7B082001131219
:102A4A00288AFD7B1030000A12288AFE12288AFF83
:102A5A007B20EC3382D592D55013C3E43000069F15
:102A6A00FFE49EFEE42001039DFDE49CFCE4CBF818
:102A7A00C201EC700CCFCECDCCE824F8F870F3800C
:102A8A0017C3EF33FFEE33FEED33FDEC33FCEB33CC
:102A9A00FB994002FB0FD8E9EB300105F8D0E0C4FE
:102AAA0048B201C0E00AEC4D4E4F78207B0070C25C
:102ABA00EAB5120040BCC0E0122B28D0F0D0E020CA
:102ACA000104C4C0E0C4B201C0F01228B6D0F0D5E7
:102ADA00F0EB02290712161E29A4532A1E5829753B
:102AEA004C2971422A224F2A2A442A2A49298A43EE
:102AFA002A30552A14462A14452A14472BD050291D
:102B0A00792D297D2E29A02B298123299E202BBEB0
:102B1A002A293948000029983F3F3F00790AA2D55F
:102B2A00200314300509B910020404B9080104A2EB
:0E2B3A00D52006025001042002689202B51157
:102B4800005034C0E07F203003197F30A2027206A3
:102B58007205500F122B7FC202C206C205C2087F3F
:102B680030800F300503E9C0E01228CD300503D0CE
:102B7800E0F9D0E0B511CC3005177F30B9100C1250
:102B880028CD7F583004077F788003B908031228BE
:102B9800CD3002057F2D0228CD7F202008F87F2B1D
:102BA8002006F322920280CF286E756C6C29002DC6
:102BB80050434958D20112288A3001F8C2017811CD
:102BC80030D50108F602293912288A2403B40500F1
:102BD8004001E4902BB7931228BE743A1228BED253
:072BE80003751104022A1E0F
:104B9C00024426E493A3F8E493A34003F68001F2C5
:104BAC0008DFF48029E493A3F85407240CC8C3331A
:104BBC00C4540F4420C8834004F456800146F6DFE9
:104BCC00E4800B0102040810204080900003E47E76
:104BDC00019360BCA3FF543F30E509541FFEE493DE
:104BEC00A360010ECF54C025E060A840B8E493A3A5
:104BFC00FAE493A3F8E493A3C8C582C8CAC583CAD0
:104C0C00F0A3C8C582C8CAC583CADFE9DEE780BE87
:01000F0000F0
:0C157600E0FCA3E0FDA3E0FEA3E0FF22E8
:0C158200E2FC08E2FD08E2FE08E2FF22A5
:10158E00E493FC740193FD740293FE740393FF22A3
:0C159E00E0F8A3E0F9A3E0FAA3E0FB22D0
:0D15AA00E2FB08E2F908E2FA08E2CBF822C1
:1015B700E493F8740193F9740293FA740393FB228A
:0C15C700ECF208EDF208EEF208EFF22260
:1015D300D083D082E493F208740193F208740293E7
:0915E300F208740393F27404731E
:0915EC00EBF608EAF608E9F62224
:1015F500F8E0FBA3A3E0F925F0F0E582158270027F
:071605001583E0FA38F02222
:09160C00EBF0A3EAF0A3E9F022DF
:09161500EBF208EAF208E9F22206
:10161E00D083D082F8E4937012740193700DA3A35B
:10162E0093F8740193F5828883E47374029368606F
:06163E00EFA3A3A380DF6F
:00000001FF
